{
	"contracts/liquidation_temp.sol": {
		"Liquidation": {
			"abi": [
				{
					"inputs": [],
					"stateMutability": "nonpayable",
					"type": "constructor"
				},
				{
					"anonymous": false,
					"inputs": [
						{
							"indexed": false,
							"internalType": "address",
							"name": "borrower",
							"type": "address"
						},
						{
							"indexed": false,
							"internalType": "uint256",
							"name": "totalCollateral",
							"type": "uint256"
						},
						{
							"indexed": false,
							"internalType": "uint256",
							"name": "totalDebtOnUSDC",
							"type": "uint256"
						},
						{
							"indexed": false,
							"internalType": "uint256",
							"name": "healthFactor",
							"type": "uint256"
						}
					],
					"name": "HealthFactorCalculated",
					"type": "event"
				},
				{
					"anonymous": false,
					"inputs": [
						{
							"indexed": false,
							"internalType": "address",
							"name": "user",
							"type": "address"
						},
						{
							"indexed": false,
							"internalType": "uint256",
							"name": "usdcLost",
							"type": "uint256"
						},
						{
							"indexed": false,
							"internalType": "uint256",
							"name": "ethLiquidated",
							"type": "uint256"
						}
					],
					"name": "Liquidated",
					"type": "event"
				},
				{
					"inputs": [
						{
							"internalType": "address",
							"name": "_borrower",
							"type": "address"
						},
						{
							"internalType": "uint256",
							"name": "_usdcCollateral",
							"type": "uint256"
						},
						{
							"internalType": "uint256",
							"name": "_ethDebt",
							"type": "uint256"
						},
						{
							"internalType": "uint256",
							"name": "_axsDebt",
							"type": "uint256"
						}
					],
					"name": "addLoan",
					"outputs": [],
					"stateMutability": "nonpayable",
					"type": "function"
				},
				{
					"inputs": [],
					"name": "axsToETHPrice",
					"outputs": [
						{
							"internalType": "uint256",
							"name": "",
							"type": "uint256"
						}
					],
					"stateMutability": "view",
					"type": "function"
				},
				{
					"inputs": [
						{
							"internalType": "address",
							"name": "_borrower",
							"type": "address"
						},
						{
							"internalType": "string",
							"name": "assetType",
							"type": "string"
						}
					],
					"name": "calculateLiquidationAmount",
					"outputs": [
						{
							"internalType": "uint256",
							"name": "usdcToLiquidate",
							"type": "uint256"
						},
						{
							"internalType": "uint256",
							"name": "assetToLiquidate",
							"type": "uint256"
						}
					],
					"stateMutability": "view",
					"type": "function"
				},
				{
					"inputs": [
						{
							"internalType": "uint256",
							"name": "_axsPrice",
							"type": "uint256"
						}
					],
					"name": "changeAXSRate",
					"outputs": [],
					"stateMutability": "nonpayable",
					"type": "function"
				},
				{
					"inputs": [
						{
							"internalType": "uint256",
							"name": "_ethPrice",
							"type": "uint256"
						}
					],
					"name": "changeETHRate",
					"outputs": [],
					"stateMutability": "nonpayable",
					"type": "function"
				},
				{
					"inputs": [],
					"name": "collateralRatioAXS",
					"outputs": [
						{
							"internalType": "uint256",
							"name": "",
							"type": "uint256"
						}
					],
					"stateMutability": "view",
					"type": "function"
				},
				{
					"inputs": [],
					"name": "collateralRatioETH",
					"outputs": [
						{
							"internalType": "uint256",
							"name": "",
							"type": "uint256"
						}
					],
					"stateMutability": "view",
					"type": "function"
				},
				{
					"inputs": [],
					"name": "collateralRatioUSDC",
					"outputs": [
						{
							"internalType": "uint256",
							"name": "",
							"type": "uint256"
						}
					],
					"stateMutability": "view",
					"type": "function"
				},
				{
					"inputs": [],
					"name": "ethPriceOnUSDC",
					"outputs": [
						{
							"internalType": "uint256",
							"name": "",
							"type": "uint256"
						}
					],
					"stateMutability": "view",
					"type": "function"
				},
				{
					"inputs": [
						{
							"internalType": "address",
							"name": "_borrower",
							"type": "address"
						}
					],
					"name": "getHealthFactor",
					"outputs": [
						{
							"internalType": "uint256",
							"name": "",
							"type": "uint256"
						}
					],
					"stateMutability": "nonpayable",
					"type": "function"
				},
				{
					"inputs": [
						{
							"internalType": "address",
							"name": "_borrower",
							"type": "address"
						},
						{
							"internalType": "string",
							"name": "assetType",
							"type": "string"
						},
						{
							"internalType": "uint256",
							"name": "newUSDCPrice",
							"type": "uint256"
						}
					],
					"name": "liquidate",
					"outputs": [],
					"stateMutability": "nonpayable",
					"type": "function"
				},
				{
					"inputs": [
						{
							"internalType": "address",
							"name": "",
							"type": "address"
						}
					],
					"name": "loans",
					"outputs": [
						{
							"internalType": "uint256",
							"name": "usdcCollateral",
							"type": "uint256"
						},
						{
							"internalType": "uint256",
							"name": "ethDebt",
							"type": "uint256"
						},
						{
							"internalType": "uint256",
							"name": "axsDebt",
							"type": "uint256"
						}
					],
					"stateMutability": "view",
					"type": "function"
				},
				{
					"inputs": [],
					"name": "owner",
					"outputs": [
						{
							"internalType": "address",
							"name": "",
							"type": "address"
						}
					],
					"stateMutability": "view",
					"type": "function"
				}
			],
			"devdoc": {
				"kind": "dev",
				"methods": {},
				"version": 1
			},
			"evm": {
				"assembly": "    /* \"contracts/liquidation_temp.sol\":58:5028  contract Liquidation {... */\n  mstore(0x40, 0x80)\n    /* \"contracts/liquidation_temp.sol\":301:303  90 */\n  0x5a\n    /* \"contracts/liquidation_temp.sol\":264:303  uint256 public collateralRatioUSDC = 90 */\n  0x02\n  sstore\n    /* \"contracts/liquidation_temp.sol\":345:347  80 */\n  0x50\n    /* \"contracts/liquidation_temp.sol\":309:347  uint256 public collateralRatioETH = 80 */\n  0x03\n  sstore\n    /* \"contracts/liquidation_temp.sol\":389:391  70 */\n  0x46\n    /* \"contracts/liquidation_temp.sol\":353:391  uint256 public collateralRatioAXS = 70 */\n  0x04\n  sstore\n    /* \"contracts/liquidation_temp.sol\":430:434  1500 */\n  0x05dc\n    /* \"contracts/liquidation_temp.sol\":398:434  uint256 public ethPriceOnUSDC = 1500 */\n  0x05\n  sstore\n    /* \"contracts/liquidation_temp.sol\":492:495  100 */\n  0x64\n    /* \"contracts/liquidation_temp.sol\":461:495  uint256 public axsToETHPrice = 100 */\n  0x06\n  sstore\n    /* \"contracts/liquidation_temp.sol\":724:773  constructor() {... */\n  callvalue\n  dup1\n  iszero\n  tag_1\n  jumpi\n  0x00\n  dup1\n  revert\ntag_1:\n  pop\n    /* \"contracts/liquidation_temp.sol\":756:766  msg.sender */\n  caller\n    /* \"contracts/liquidation_temp.sol\":748:753  owner */\n  0x00\n  dup1\n    /* \"contracts/liquidation_temp.sol\":748:766  owner = msg.sender */\n  0x0100\n  exp\n  dup2\n  sload\n  dup2\n  0xffffffffffffffffffffffffffffffffffffffff\n  mul\n  not\n  and\n  swap1\n  dup4\n  0xffffffffffffffffffffffffffffffffffffffff\n  and\n  mul\n  or\n  swap1\n  sstore\n  pop\n    /* \"contracts/liquidation_temp.sol\":58:5028  contract Liquidation {... */\n  dataSize(sub_0)\n  dup1\n  dataOffset(sub_0)\n  0x00\n  codecopy\n  0x00\n  return\nstop\n\nsub_0: assembly {\n        /* \"contracts/liquidation_temp.sol\":58:5028  contract Liquidation {... */\n      mstore(0x40, 0x80)\n      callvalue\n      dup1\n      iszero\n      tag_1\n      jumpi\n      0x00\n      dup1\n      revert\n    tag_1:\n      pop\n      jumpi(tag_2, lt(calldatasize, 0x04))\n      shr(0xe0, calldataload(0x00))\n      dup1\n      0x73b4086b\n      gt\n      tag_16\n      jumpi\n      dup1\n      0xad24a336\n      gt\n      tag_17\n      jumpi\n      dup1\n      0xad24a336\n      eq\n      tag_12\n      jumpi\n      dup1\n      0xc56e4097\n      eq\n      tag_13\n      jumpi\n      dup1\n      0xf894ea86\n      eq\n      tag_14\n      jumpi\n      dup1\n      0xfe6bcd7c\n      eq\n      tag_15\n      jumpi\n      jump(tag_2)\n    tag_17:\n      dup1\n      0x73b4086b\n      eq\n      tag_9\n      jumpi\n      dup1\n      0x8da5cb5b\n      eq\n      tag_10\n      jumpi\n      dup1\n      0x9b923cc9\n      eq\n      tag_11\n      jumpi\n      jump(tag_2)\n    tag_16:\n      dup1\n      0x04632a66\n      eq\n      tag_3\n      jumpi\n      dup1\n      0x11c9c304\n      eq\n      tag_4\n      jumpi\n      dup1\n      0x1f71462e\n      eq\n      tag_5\n      jumpi\n      dup1\n      0x2e2951cd\n      eq\n      tag_6\n      jumpi\n      dup1\n      0x4bfa16e9\n      eq\n      tag_7\n      jumpi\n      dup1\n      0x55de75a9\n      eq\n      tag_8\n      jumpi\n    tag_2:\n      0x00\n      dup1\n      revert\n        /* \"contracts/liquidation_temp.sol\":461:495  uint256 public axsToETHPrice = 100 */\n    tag_3:\n      tag_18\n      tag_19\n      jump\t// in\n    tag_18:\n      mload(0x40)\n      tag_20\n      swap2\n      swap1\n      tag_21\n      jump\t// in\n    tag_20:\n      mload(0x40)\n      dup1\n      swap2\n      sub\n      swap1\n      return\n        /* \"contracts/liquidation_temp.sol\":309:347  uint256 public collateralRatioETH = 80 */\n    tag_4:\n      tag_22\n      tag_23\n      jump\t// in\n    tag_22:\n      mload(0x40)\n      tag_24\n      swap2\n      swap1\n      tag_21\n      jump\t// in\n    tag_24:\n      mload(0x40)\n      dup1\n      swap2\n      sub\n      swap1\n      return\n        /* \"contracts/liquidation_temp.sol\":4935:5026  function changeAXSRate(uint256 _axsPrice) public {... */\n    tag_5:\n      tag_25\n      0x04\n      dup1\n      calldatasize\n      sub\n      dup2\n      add\n      swap1\n      tag_26\n      swap2\n      swap1\n      tag_27\n      jump\t// in\n    tag_26:\n      tag_28\n      jump\t// in\n    tag_25:\n      stop\n        /* \"contracts/liquidation_temp.sol\":3582:4831  function liquidate(address _borrower, string memory assetType, uint256 newUSDCPrice) public {... */\n    tag_6:\n      tag_29\n      0x04\n      dup1\n      calldatasize\n      sub\n      dup2\n      add\n      swap1\n      tag_30\n      swap2\n      swap1\n      tag_31\n      jump\t// in\n    tag_30:\n      tag_32\n      jump\t// in\n    tag_29:\n      stop\n        /* \"contracts/liquidation_temp.sol\":353:391  uint256 public collateralRatioAXS = 70 */\n    tag_7:\n      tag_33\n      tag_34\n      jump\t// in\n    tag_33:\n      mload(0x40)\n      tag_35\n      swap2\n      swap1\n      tag_21\n      jump\t// in\n    tag_35:\n      mload(0x40)\n      dup1\n      swap2\n      sub\n      swap1\n      return\n        /* \"contracts/liquidation_temp.sol\":2085:3545  function calculateLiquidationAmount(address _borrower, string memory assetType) public view returns (uint256 usdcToLiquidate, uint256 assetToLiquidate) {... */\n    tag_8:\n      tag_36\n      0x04\n      dup1\n      calldatasize\n      sub\n      dup2\n      add\n      swap1\n      tag_37\n      swap2\n      swap1\n      tag_38\n      jump\t// in\n    tag_37:\n      tag_39\n      jump\t// in\n    tag_36:\n      mload(0x40)\n      tag_40\n      swap3\n      swap2\n      swap1\n      tag_41\n      jump\t// in\n    tag_40:\n      mload(0x40)\n      dup1\n      swap2\n      sub\n      swap1\n      return\n        /* \"contracts/liquidation_temp.sol\":220:257  mapping(address => Loan) public loans */\n    tag_9:\n      tag_42\n      0x04\n      dup1\n      calldatasize\n      sub\n      dup2\n      add\n      swap1\n      tag_43\n      swap2\n      swap1\n      tag_44\n      jump\t// in\n    tag_43:\n      tag_45\n      jump\t// in\n    tag_42:\n      mload(0x40)\n      tag_46\n      swap4\n      swap3\n      swap2\n      swap1\n      tag_47\n      jump\t// in\n    tag_46:\n      mload(0x40)\n      dup1\n      swap2\n      sub\n      swap1\n      return\n        /* \"contracts/liquidation_temp.sol\":86:106  address public owner */\n    tag_10:\n      tag_48\n      tag_49\n      jump\t// in\n    tag_48:\n      mload(0x40)\n      tag_50\n      swap2\n      swap1\n      tag_51\n      jump\t// in\n    tag_50:\n      mload(0x40)\n      dup1\n      swap2\n      sub\n      swap1\n      return\n        /* \"contracts/liquidation_temp.sol\":398:434  uint256 public ethPriceOnUSDC = 1500 */\n    tag_11:\n      tag_52\n      tag_53\n      jump\t// in\n    tag_52:\n      mload(0x40)\n      tag_54\n      swap2\n      swap1\n      tag_21\n      jump\t// in\n    tag_54:\n      mload(0x40)\n      dup1\n      swap2\n      sub\n      swap1\n      return\n        /* \"contracts/liquidation_temp.sol\":779:1026  function addLoan(address _borrower, uint256 _usdcCollateral, uint256 _ethDebt, uint256 _axsDebt) public {... */\n    tag_12:\n      tag_55\n      0x04\n      dup1\n      calldatasize\n      sub\n      dup2\n      add\n      swap1\n      tag_56\n      swap2\n      swap1\n      tag_57\n      jump\t// in\n    tag_56:\n      tag_58\n      jump\t// in\n    tag_55:\n      stop\n        /* \"contracts/liquidation_temp.sol\":264:303  uint256 public collateralRatioUSDC = 90 */\n    tag_13:\n      tag_59\n      tag_60\n      jump\t// in\n    tag_59:\n      mload(0x40)\n      tag_61\n      swap2\n      swap1\n      tag_21\n      jump\t// in\n    tag_61:\n      mload(0x40)\n      dup1\n      swap2\n      sub\n      swap1\n      return\n        /* \"contracts/liquidation_temp.sol\":4837:4929  function changeETHRate(uint256 _ethPrice) public {... */\n    tag_14:\n      tag_62\n      0x04\n      dup1\n      calldatasize\n      sub\n      dup2\n      add\n      swap1\n      tag_63\n      swap2\n      swap1\n      tag_27\n      jump\t// in\n    tag_63:\n      tag_64\n      jump\t// in\n    tag_62:\n      stop\n        /* \"contracts/liquidation_temp.sol\":1032:2004  function getHealthFactor(address _borrower) public returns (uint256) {... */\n    tag_15:\n      tag_65\n      0x04\n      dup1\n      calldatasize\n      sub\n      dup2\n      add\n      swap1\n      tag_66\n      swap2\n      swap1\n      tag_44\n      jump\t// in\n    tag_66:\n      tag_67\n      jump\t// in\n    tag_65:\n      mload(0x40)\n      tag_68\n      swap2\n      swap1\n      tag_21\n      jump\t// in\n    tag_68:\n      mload(0x40)\n      dup1\n      swap2\n      sub\n      swap1\n      return\n        /* \"contracts/liquidation_temp.sol\":461:495  uint256 public axsToETHPrice = 100 */\n    tag_19:\n      sload(0x06)\n      dup2\n      jump\t// out\n        /* \"contracts/liquidation_temp.sol\":309:347  uint256 public collateralRatioETH = 80 */\n    tag_23:\n      sload(0x03)\n      dup2\n      jump\t// out\n        /* \"contracts/liquidation_temp.sol\":4935:5026  function changeAXSRate(uint256 _axsPrice) public {... */\n    tag_28:\n        /* \"contracts/liquidation_temp.sol\":5010:5019  _axsPrice */\n      dup1\n        /* \"contracts/liquidation_temp.sol\":4994:5007  axsToETHPrice */\n      0x06\n        /* \"contracts/liquidation_temp.sol\":4994:5019  axsToETHPrice = _axsPrice */\n      dup2\n      swap1\n      sstore\n      pop\n        /* \"contracts/liquidation_temp.sol\":4935:5026  function changeAXSRate(uint256 _axsPrice) public {... */\n      pop\n      jump\t// out\n        /* \"contracts/liquidation_temp.sol\":3582:4831  function liquidate(address _borrower, string memory assetType, uint256 newUSDCPrice) public {... */\n    tag_32:\n        /* \"contracts/liquidation_temp.sol\":3721:3724  100 */\n      0x64\n        /* \"contracts/liquidation_temp.sol\":3692:3718  getHealthFactor(_borrower) */\n      tag_71\n        /* \"contracts/liquidation_temp.sol\":3708:3717  _borrower */\n      dup5\n        /* \"contracts/liquidation_temp.sol\":3692:3707  getHealthFactor */\n      tag_67\n        /* \"contracts/liquidation_temp.sol\":3692:3718  getHealthFactor(_borrower) */\n      jump\t// in\n    tag_71:\n        /* \"contracts/liquidation_temp.sol\":3692:3724  getHealthFactor(_borrower) < 100 */\n      lt\n        /* \"contracts/liquidation_temp.sol\":3684:3750  require(getHealthFactor(_borrower) < 100, \"Loan is still healthy\") */\n      tag_72\n      jumpi\n      mload(0x40)\n      0x08c379a000000000000000000000000000000000000000000000000000000000\n      dup2\n      mstore\n      0x04\n      add\n      tag_73\n      swap1\n      tag_74\n      jump\t// in\n    tag_73:\n      mload(0x40)\n      dup1\n      swap2\n      sub\n      swap1\n      revert\n    tag_72:\n        /* \"contracts/liquidation_temp.sol\":3761:3778  Loan storage loan */\n      0x00\n        /* \"contracts/liquidation_temp.sol\":3781:3786  loans */\n      0x01\n        /* \"contracts/liquidation_temp.sol\":3781:3797  loans[_borrower] */\n      0x00\n        /* \"contracts/liquidation_temp.sol\":3787:3796  _borrower */\n      dup6\n        /* \"contracts/liquidation_temp.sol\":3781:3797  loans[_borrower] */\n      0xffffffffffffffffffffffffffffffffffffffff\n      and\n      0xffffffffffffffffffffffffffffffffffffffff\n      and\n      dup2\n      mstore\n      0x20\n      add\n      swap1\n      dup2\n      mstore\n      0x20\n      add\n      0x00\n      keccak256\n        /* \"contracts/liquidation_temp.sol\":3761:3797  Loan storage loan = loans[_borrower] */\n      swap1\n      pop\n        /* \"contracts/liquidation_temp.sol\":3807:3829  uint256 ethToLiquidate */\n      0x00\n        /* \"contracts/liquidation_temp.sol\":3839:3855  uint256 usdcLost */\n      dup1\n        /* \"contracts/liquidation_temp.sol\":3911:3923  bytes(\"ETH\") */\n      mload(0x40)\n      dup1\n      0x40\n      add\n      0x40\n      mstore\n      dup1\n      0x03\n      dup2\n      mstore\n      0x20\n      add\n      0x4554480000000000000000000000000000000000000000000000000000000000\n      dup2\n      mstore\n      pop\n        /* \"contracts/liquidation_temp.sol\":3901:3924  keccak256(bytes(\"ETH\")) */\n      dup1\n      mload\n      swap1\n      0x20\n      add\n      keccak256\n        /* \"contracts/liquidation_temp.sol\":3886:3895  assetType */\n      dup6\n        /* \"contracts/liquidation_temp.sol\":3870:3897  keccak256(bytes(assetType)) */\n      dup1\n      mload\n      swap1\n      0x20\n      add\n      keccak256\n        /* \"contracts/liquidation_temp.sol\":3870:3924  keccak256(bytes(assetType)) == keccak256(bytes(\"ETH\")) */\n      sub\n        /* \"contracts/liquidation_temp.sol\":3866:4591  if (keccak256(bytes(assetType)) == keccak256(bytes(\"ETH\"))) {... */\n      tag_75\n      jumpi\n        /* \"contracts/liquidation_temp.sol\":3940:3954  uint256 path_1 */\n      0x00\n        /* \"contracts/liquidation_temp.sol\":4162:4165  100 */\n      0x64\n        /* \"contracts/liquidation_temp.sol\":4139:4143  loan */\n      dup5\n        /* \"contracts/liquidation_temp.sol\":4139:4158  loan.usdcCollateral */\n      0x00\n      add\n      sload\n        /* \"contracts/liquidation_temp.sol\":4117:4136  collateralRatioUSDC */\n      sload(0x02)\n        /* \"contracts/liquidation_temp.sol\":4117:4158  collateralRatioUSDC * loan.usdcCollateral */\n      tag_76\n      swap2\n      swap1\n      tag_77\n      jump\t// in\n    tag_76:\n        /* \"contracts/liquidation_temp.sol\":4116:4165  (collateralRatioUSDC * loan.usdcCollateral) / 100 */\n      tag_78\n      swap2\n      swap1\n      tag_79\n      jump\t// in\n    tag_78:\n        /* \"contracts/liquidation_temp.sol\":4077:4084  1000000 */\n      0x0f4240\n        /* \"contracts/liquidation_temp.sol\":4059:4073  ethPriceOnUSDC */\n      sload(0x05)\n        /* \"contracts/liquidation_temp.sol\":4043:4056  axsToETHPrice */\n      sload(0x06)\n        /* \"contracts/liquidation_temp.sol\":4028:4032  loan */\n      dup8\n        /* \"contracts/liquidation_temp.sol\":4028:4040  loan.axsDebt */\n      0x02\n      add\n      sload\n        /* \"contracts/liquidation_temp.sol\":4028:4056  loan.axsDebt * axsToETHPrice */\n      tag_80\n      swap2\n      swap1\n      tag_77\n      jump\t// in\n    tag_80:\n        /* \"contracts/liquidation_temp.sol\":4028:4073  loan.axsDebt * axsToETHPrice * ethPriceOnUSDC */\n      tag_81\n      swap2\n      swap1\n      tag_77\n      jump\t// in\n    tag_81:\n        /* \"contracts/liquidation_temp.sol\":4027:4084  (loan.axsDebt * axsToETHPrice * ethPriceOnUSDC) / 1000000 */\n      tag_82\n      swap2\n      swap1\n      tag_79\n      jump\t// in\n    tag_82:\n        /* \"contracts/liquidation_temp.sol\":3991:3995  1000 */\n      0x03e8\n        /* \"contracts/liquidation_temp.sol\":3973:3987  ethPriceOnUSDC */\n      sload(0x05)\n        /* \"contracts/liquidation_temp.sol\":3958:3962  loan */\n      dup8\n        /* \"contracts/liquidation_temp.sol\":3958:3970  loan.ethDebt */\n      0x01\n      add\n      sload\n        /* \"contracts/liquidation_temp.sol\":3958:3987  loan.ethDebt * ethPriceOnUSDC */\n      tag_83\n      swap2\n      swap1\n      tag_77\n      jump\t// in\n    tag_83:\n        /* \"contracts/liquidation_temp.sol\":3957:3995  (loan.ethDebt * ethPriceOnUSDC) / 1000 */\n      tag_84\n      swap2\n      swap1\n      tag_79\n      jump\t// in\n    tag_84:\n        /* \"contracts/liquidation_temp.sol\":3957:4084  (loan.ethDebt * ethPriceOnUSDC) / 1000 + ... */\n      tag_85\n      swap2\n      swap1\n      tag_86\n      jump\t// in\n    tag_85:\n        /* \"contracts/liquidation_temp.sol\":3957:4165  (loan.ethDebt * ethPriceOnUSDC) / 1000 + ... */\n      tag_87\n      swap2\n      swap1\n      tag_88\n      jump\t// in\n    tag_87:\n        /* \"contracts/liquidation_temp.sol\":3940:4165  uint256 path_1 = (loan.ethDebt * ethPriceOnUSDC) / 1000 + ... */\n      swap1\n      pop\n        /* \"contracts/liquidation_temp.sol\":4179:4193  uint256 path_2 */\n      0x00\n        /* \"contracts/liquidation_temp.sol\":4252:4255  100 */\n      0x64\n        /* \"contracts/liquidation_temp.sol\":4236:4248  newUSDCPrice */\n      dup7\n        /* \"contracts/liquidation_temp.sol\":4214:4233  collateralRatioUSDC */\n      sload(0x02)\n        /* \"contracts/liquidation_temp.sol\":4214:4248  collateralRatioUSDC * newUSDCPrice */\n      tag_89\n      swap2\n      swap1\n      tag_77\n      jump\t// in\n    tag_89:\n        /* \"contracts/liquidation_temp.sol\":4213:4255  (collateralRatioUSDC * newUSDCPrice) / 100 */\n      tag_90\n      swap2\n      swap1\n      tag_79\n      jump\t// in\n    tag_90:\n        /* \"contracts/liquidation_temp.sol\":4196:4210  ethPriceOnUSDC */\n      sload(0x05)\n        /* \"contracts/liquidation_temp.sol\":4196:4255  ethPriceOnUSDC - (collateralRatioUSDC * newUSDCPrice) / 100 */\n      tag_91\n      swap2\n      swap1\n      tag_88\n      jump\t// in\n    tag_91:\n        /* \"contracts/liquidation_temp.sol\":4179:4255  uint256 path_2 = ethPriceOnUSDC - (collateralRatioUSDC * newUSDCPrice) / 100 */\n      swap1\n      pop\n        /* \"contracts/liquidation_temp.sol\":4304:4310  path_2 */\n      dup1\n        /* \"contracts/liquidation_temp.sol\":4296:4300  1000 */\n      0x03e8\n        /* \"contracts/liquidation_temp.sol\":4287:4293  path_1 */\n      dup4\n        /* \"contracts/liquidation_temp.sol\":4287:4300  path_1 * 1000 */\n      tag_92\n      swap2\n      swap1\n      tag_77\n      jump\t// in\n    tag_92:\n        /* \"contracts/liquidation_temp.sol\":4286:4310  (path_1 * 1000) / path_2 */\n      tag_93\n      swap2\n      swap1\n      tag_79\n      jump\t// in\n    tag_93:\n        /* \"contracts/liquidation_temp.sol\":4269:4310  ethToLiquidate = (path_1 * 1000) / path_2 */\n      swap4\n      pop\n        /* \"contracts/liquidation_temp.sol\":4369:4373  1000 */\n      0x03e8\n        /* \"contracts/liquidation_temp.sol\":4353:4365  newUSDCPrice */\n      dup7\n        /* \"contracts/liquidation_temp.sol\":4336:4350  ethToLiquidate */\n      dup6\n        /* \"contracts/liquidation_temp.sol\":4336:4365  ethToLiquidate * newUSDCPrice */\n      tag_94\n      swap2\n      swap1\n      tag_77\n      jump\t// in\n    tag_94:\n        /* \"contracts/liquidation_temp.sol\":4335:4373  (ethToLiquidate * newUSDCPrice) / 1000 */\n      tag_95\n      swap2\n      swap1\n      tag_79\n      jump\t// in\n    tag_95:\n        /* \"contracts/liquidation_temp.sol\":4324:4373  usdcLost = (ethToLiquidate * newUSDCPrice) / 1000 */\n      swap3\n      pop\n        /* \"contracts/liquidation_temp.sol\":3926:4384  {... */\n      pop\n      pop\n        /* \"contracts/liquidation_temp.sol\":3866:4591  if (keccak256(bytes(assetType)) == keccak256(bytes(\"ETH\"))) {... */\n      jump(tag_96)\n    tag_75:\n        /* \"contracts/liquidation_temp.sol\":4436:4437  2 */\n      0x02\n        /* \"contracts/liquidation_temp.sol\":4421:4425  loan */\n      dup4\n        /* \"contracts/liquidation_temp.sol\":4421:4433  loan.ethDebt */\n      0x01\n      add\n      sload\n        /* \"contracts/liquidation_temp.sol\":4421:4437  loan.ethDebt / 2 */\n      tag_97\n      swap2\n      swap1\n      tag_79\n      jump\t// in\n    tag_97:\n        /* \"contracts/liquidation_temp.sol\":4404:4437  ethToLiquidate = loan.ethDebt / 2 */\n      swap2\n      pop\n        /* \"contracts/liquidation_temp.sol\":4531:4543  newUSDCPrice */\n      dup4\n        /* \"contracts/liquidation_temp.sol\":4514:4528  ethToLiquidate */\n      dup3\n        /* \"contracts/liquidation_temp.sol\":4514:4543  ethToLiquidate * newUSDCPrice */\n      tag_98\n      swap2\n      swap1\n      tag_77\n      jump\t// in\n    tag_98:\n        /* \"contracts/liquidation_temp.sol\":4503:4543  usdcLost = ethToLiquidate * newUSDCPrice */\n      swap1\n      pop\n        /* \"contracts/liquidation_temp.sol\":3866:4591  if (keccak256(bytes(assetType)) == keccak256(bytes(\"ETH\"))) {... */\n    tag_96:\n        /* \"contracts/liquidation_temp.sol\":4632:4640  usdcLost */\n      dup1\n        /* \"contracts/liquidation_temp.sol\":4609:4613  loan */\n      dup4\n        /* \"contracts/liquidation_temp.sol\":4609:4628  loan.usdcCollateral */\n      0x00\n      add\n      sload\n        /* \"contracts/liquidation_temp.sol\":4609:4640  loan.usdcCollateral >= usdcLost */\n      lt\n      iszero\n        /* \"contracts/liquidation_temp.sol\":4601:4679  require(loan.usdcCollateral >= usdcLost, \"Not enough collateral to liquidate\") */\n      tag_99\n      jumpi\n      mload(0x40)\n      0x08c379a000000000000000000000000000000000000000000000000000000000\n      dup2\n      mstore\n      0x04\n      add\n      tag_100\n      swap1\n      tag_101\n      jump\t// in\n    tag_100:\n      mload(0x40)\n      dup1\n      swap2\n      sub\n      swap1\n      revert\n    tag_99:\n        /* \"contracts/liquidation_temp.sol\":4713:4721  usdcLost */\n      dup1\n        /* \"contracts/liquidation_temp.sol\":4690:4694  loan */\n      dup4\n        /* \"contracts/liquidation_temp.sol\":4690:4709  loan.usdcCollateral */\n      0x00\n      add\n      0x00\n        /* \"contracts/liquidation_temp.sol\":4690:4721  loan.usdcCollateral -= usdcLost */\n      dup3\n      dup3\n      sload\n      tag_102\n      swap2\n      swap1\n      tag_88\n      jump\t// in\n    tag_102:\n      swap3\n      pop\n      pop\n      dup2\n      swap1\n      sstore\n      pop\n        /* \"contracts/liquidation_temp.sol\":4747:4761  ethToLiquidate */\n      dup2\n        /* \"contracts/liquidation_temp.sol\":4731:4735  loan */\n      dup4\n        /* \"contracts/liquidation_temp.sol\":4731:4743  loan.ethDebt */\n      0x01\n      add\n      0x00\n        /* \"contracts/liquidation_temp.sol\":4731:4761  loan.ethDebt -= ethToLiquidate */\n      dup3\n      dup3\n      sload\n      tag_103\n      swap2\n      swap1\n      tag_88\n      jump\t// in\n    tag_103:\n      swap3\n      pop\n      pop\n      dup2\n      swap1\n      sstore\n      pop\n        /* \"contracts/liquidation_temp.sol\":4777:4824  Liquidated(_borrower, usdcLost, ethToLiquidate) */\n      0x09c223cfcd8c93e245f558f5f8de755fc0930fd9bc257441155ef5d54a170e0f\n        /* \"contracts/liquidation_temp.sol\":4788:4797  _borrower */\n      dup7\n        /* \"contracts/liquidation_temp.sol\":4799:4807  usdcLost */\n      dup3\n        /* \"contracts/liquidation_temp.sol\":4809:4823  ethToLiquidate */\n      dup5\n        /* \"contracts/liquidation_temp.sol\":4777:4824  Liquidated(_borrower, usdcLost, ethToLiquidate) */\n      mload(0x40)\n      tag_104\n      swap4\n      swap3\n      swap2\n      swap1\n      tag_105\n      jump\t// in\n    tag_104:\n      mload(0x40)\n      dup1\n      swap2\n      sub\n      swap1\n      log1\n        /* \"contracts/liquidation_temp.sol\":3674:4831  {... */\n      pop\n      pop\n      pop\n        /* \"contracts/liquidation_temp.sol\":3582:4831  function liquidate(address _borrower, string memory assetType, uint256 newUSDCPrice) public {... */\n      pop\n      pop\n      pop\n      jump\t// out\n        /* \"contracts/liquidation_temp.sol\":353:391  uint256 public collateralRatioAXS = 70 */\n    tag_34:\n      sload(0x04)\n      dup2\n      jump\t// out\n        /* \"contracts/liquidation_temp.sol\":2085:3545  function calculateLiquidationAmount(address _borrower, string memory assetType) public view returns (uint256 usdcToLiquidate, uint256 assetToLiquidate) {... */\n    tag_39:\n        /* \"contracts/liquidation_temp.sol\":2186:2209  uint256 usdcToLiquidate */\n      0x00\n        /* \"contracts/liquidation_temp.sol\":2211:2235  uint256 assetToLiquidate */\n      dup1\n        /* \"contracts/liquidation_temp.sol\":2247:2263  Loan memory loan */\n      0x00\n        /* \"contracts/liquidation_temp.sol\":2266:2271  loans */\n      0x01\n        /* \"contracts/liquidation_temp.sol\":2266:2282  loans[_borrower] */\n      0x00\n        /* \"contracts/liquidation_temp.sol\":2272:2281  _borrower */\n      dup7\n        /* \"contracts/liquidation_temp.sol\":2266:2282  loans[_borrower] */\n      0xffffffffffffffffffffffffffffffffffffffff\n      and\n      0xffffffffffffffffffffffffffffffffffffffff\n      and\n      dup2\n      mstore\n      0x20\n      add\n      swap1\n      dup2\n      mstore\n      0x20\n      add\n      0x00\n      keccak256\n        /* \"contracts/liquidation_temp.sol\":2247:2282  Loan memory loan = loans[_borrower] */\n      mload(0x40)\n      dup1\n      0x60\n      add\n      0x40\n      mstore\n      swap1\n      dup2\n      0x00\n      dup3\n      add\n      sload\n      dup2\n      mstore\n      0x20\n      add\n      0x01\n      dup3\n      add\n      sload\n      dup2\n      mstore\n      0x20\n      add\n      0x02\n      dup3\n      add\n      sload\n      dup2\n      mstore\n      pop\n      pop\n      swap1\n      pop\n        /* \"contracts/liquidation_temp.sol\":2292:2315  uint256 totalCollateral */\n      0x00\n        /* \"contracts/liquidation_temp.sol\":2318:2322  loan */\n      dup2\n        /* \"contracts/liquidation_temp.sol\":2318:2337  loan.usdcCollateral */\n      0x00\n      add\n      mload\n        /* \"contracts/liquidation_temp.sol\":2292:2337  uint256 totalCollateral = loan.usdcCollateral */\n      swap1\n      pop\n        /* \"contracts/liquidation_temp.sol\":2347:2362  uint256 ethDebt */\n      0x00\n        /* \"contracts/liquidation_temp.sol\":2365:2369  loan */\n      dup3\n        /* \"contracts/liquidation_temp.sol\":2365:2377  loan.ethDebt */\n      0x20\n      add\n      mload\n        /* \"contracts/liquidation_temp.sol\":2347:2377  uint256 ethDebt = loan.ethDebt */\n      swap1\n      pop\n        /* \"contracts/liquidation_temp.sol\":2387:2402  uint256 axsDebt */\n      0x00\n        /* \"contracts/liquidation_temp.sol\":2405:2409  loan */\n      dup4\n        /* \"contracts/liquidation_temp.sol\":2405:2417  loan.axsDebt */\n      0x40\n      add\n      mload\n        /* \"contracts/liquidation_temp.sol\":2387:2417  uint256 axsDebt = loan.axsDebt */\n      swap1\n      pop\n        /* \"contracts/liquidation_temp.sol\":2428:2449  uint256 totalDebtUSDC */\n      0x00\n        /* \"contracts/liquidation_temp.sol\":2524:2527  1e6 */\n      0x0f4240\n        /* \"contracts/liquidation_temp.sol\":2506:2520  ethPriceOnUSDC */\n      sload(0x05)\n        /* \"contracts/liquidation_temp.sol\":2490:2503  axsToETHPrice */\n      sload(0x06)\n        /* \"contracts/liquidation_temp.sol\":2480:2487  axsDebt */\n      dup5\n        /* \"contracts/liquidation_temp.sol\":2480:2503  axsDebt * axsToETHPrice */\n      tag_107\n      swap2\n      swap1\n      tag_77\n      jump\t// in\n    tag_107:\n        /* \"contracts/liquidation_temp.sol\":2480:2520  axsDebt * axsToETHPrice * ethPriceOnUSDC */\n      tag_108\n      swap2\n      swap1\n      tag_77\n      jump\t// in\n    tag_108:\n        /* \"contracts/liquidation_temp.sol\":2479:2527  (axsDebt * axsToETHPrice * ethPriceOnUSDC) / 1e6 */\n      tag_109\n      swap2\n      swap1\n      tag_79\n      jump\t// in\n    tag_109:\n        /* \"contracts/liquidation_temp.sol\":2462:2476  ethPriceOnUSDC */\n      sload(0x05)\n        /* \"contracts/liquidation_temp.sol\":2452:2459  ethDebt */\n      dup5\n        /* \"contracts/liquidation_temp.sol\":2452:2476  ethDebt * ethPriceOnUSDC */\n      tag_110\n      swap2\n      swap1\n      tag_77\n      jump\t// in\n    tag_110:\n        /* \"contracts/liquidation_temp.sol\":2452:2527  ethDebt * ethPriceOnUSDC + (axsDebt * axsToETHPrice * ethPriceOnUSDC) / 1e6 */\n      tag_111\n      swap2\n      swap1\n      tag_86\n      jump\t// in\n    tag_111:\n        /* \"contracts/liquidation_temp.sol\":2428:2527  uint256 totalDebtUSDC = ethDebt * ethPriceOnUSDC + (axsDebt * axsToETHPrice * ethPriceOnUSDC) / 1e6 */\n      swap1\n      pop\n        /* \"contracts/liquidation_temp.sol\":2610:2632  uint256 targetDebtUSDC */\n      0x00\n        /* \"contracts/liquidation_temp.sol\":2677:2680  100 */\n      0x64\n        /* \"contracts/liquidation_temp.sol\":2654:2673  collateralRatioUSDC */\n      sload(0x02)\n        /* \"contracts/liquidation_temp.sol\":2636:2651  totalCollateral */\n      dup7\n        /* \"contracts/liquidation_temp.sol\":2636:2673  totalCollateral * collateralRatioUSDC */\n      tag_112\n      swap2\n      swap1\n      tag_77\n      jump\t// in\n    tag_112:\n        /* \"contracts/liquidation_temp.sol\":2635:2680  (totalCollateral * collateralRatioUSDC) / 100 */\n      tag_113\n      swap2\n      swap1\n      tag_79\n      jump\t// in\n    tag_113:\n        /* \"contracts/liquidation_temp.sol\":2610:2680  uint256 targetDebtUSDC = (totalCollateral * collateralRatioUSDC) / 100 */\n      swap1\n      pop\n        /* \"contracts/liquidation_temp.sol\":2712:2726  targetDebtUSDC */\n      dup1\n        /* \"contracts/liquidation_temp.sol\":2695:2708  totalDebtUSDC */\n      dup3\n        /* \"contracts/liquidation_temp.sol\":2695:2726  totalDebtUSDC <= targetDebtUSDC */\n      gt\n        /* \"contracts/liquidation_temp.sol\":2691:2792  if (totalDebtUSDC <= targetDebtUSDC) {... */\n      tag_114\n      jumpi\n        /* \"contracts/liquidation_temp.sol\":2750:2751  0 */\n      0x00\n        /* \"contracts/liquidation_temp.sol\":2753:2754  0 */\n      dup1\n        /* \"contracts/liquidation_temp.sol\":2742:2755  return (0, 0) */\n      swap8\n      pop\n      swap8\n      pop\n      pop\n      pop\n      pop\n      pop\n      pop\n      pop\n      jump(tag_106)\n        /* \"contracts/liquidation_temp.sol\":2691:2792  if (totalDebtUSDC <= targetDebtUSDC) {... */\n    tag_114:\n        /* \"contracts/liquidation_temp.sol\":2802:2820  uint256 excessDebt */\n      0x00\n        /* \"contracts/liquidation_temp.sol\":2839:2853  targetDebtUSDC */\n      dup2\n        /* \"contracts/liquidation_temp.sol\":2823:2836  totalDebtUSDC */\n      dup4\n        /* \"contracts/liquidation_temp.sol\":2823:2853  totalDebtUSDC - targetDebtUSDC */\n      tag_115\n      swap2\n      swap1\n      tag_88\n      jump\t// in\n    tag_115:\n        /* \"contracts/liquidation_temp.sol\":2802:2853  uint256 excessDebt = totalDebtUSDC - targetDebtUSDC */\n      swap1\n      pop\n        /* \"contracts/liquidation_temp.sol\":2909:2921  bytes(\"ETH\") */\n      mload(0x40)\n      dup1\n      0x40\n      add\n      0x40\n      mstore\n      dup1\n      0x03\n      dup2\n      mstore\n      0x20\n      add\n      0x4554480000000000000000000000000000000000000000000000000000000000\n      dup2\n      mstore\n      pop\n        /* \"contracts/liquidation_temp.sol\":2899:2922  keccak256(bytes(\"ETH\")) */\n      dup1\n      mload\n      swap1\n      0x20\n      add\n      keccak256\n        /* \"contracts/liquidation_temp.sol\":2884:2893  assetType */\n      dup11\n        /* \"contracts/liquidation_temp.sol\":2868:2895  keccak256(bytes(assetType)) */\n      dup1\n      mload\n      swap1\n      0x20\n      add\n      keccak256\n        /* \"contracts/liquidation_temp.sol\":2868:2922  keccak256(bytes(assetType)) == keccak256(bytes(\"ETH\")) */\n      sub\n        /* \"contracts/liquidation_temp.sol\":2864:3539  if (keccak256(bytes(assetType)) == keccak256(bytes(\"ETH\"))) {... */\n      tag_116\n      jumpi\n        /* \"contracts/liquidation_temp.sol\":2978:2992  ethPriceOnUSDC */\n      sload(0x05)\n        /* \"contracts/liquidation_temp.sol\":2971:2974  1e6 */\n      0x0f4240\n        /* \"contracts/liquidation_temp.sol\":2958:2968  excessDebt */\n      dup3\n        /* \"contracts/liquidation_temp.sol\":2958:2974  excessDebt * 1e6 */\n      tag_117\n      swap2\n      swap1\n      tag_77\n      jump\t// in\n    tag_117:\n        /* \"contracts/liquidation_temp.sol\":2957:2992  (excessDebt * 1e6) / ethPriceOnUSDC */\n      tag_118\n      swap2\n      swap1\n      tag_79\n      jump\t// in\n    tag_118:\n        /* \"contracts/liquidation_temp.sol\":2938:2992  assetToLiquidate = (excessDebt * 1e6) / ethPriceOnUSDC */\n      swap8\n      pop\n        /* \"contracts/liquidation_temp.sol\":3105:3108  1e6 */\n      0x0f4240\n        /* \"contracts/liquidation_temp.sol\":3087:3101  ethPriceOnUSDC */\n      sload(0x05)\n        /* \"contracts/liquidation_temp.sol\":3068:3084  assetToLiquidate */\n      dup10\n        /* \"contracts/liquidation_temp.sol\":3068:3101  assetToLiquidate * ethPriceOnUSDC */\n      tag_119\n      swap2\n      swap1\n      tag_77\n      jump\t// in\n    tag_119:\n        /* \"contracts/liquidation_temp.sol\":3067:3108  (assetToLiquidate * ethPriceOnUSDC) / 1e6 */\n      tag_120\n      swap2\n      swap1\n      tag_79\n      jump\t// in\n    tag_120:\n        /* \"contracts/liquidation_temp.sol\":3049:3108  usdcToLiquidate = (assetToLiquidate * ethPriceOnUSDC) / 1e6 */\n      swap9\n      pop\n        /* \"contracts/liquidation_temp.sol\":2864:3539  if (keccak256(bytes(assetType)) == keccak256(bytes(\"ETH\"))) {... */\n      jump(tag_121)\n    tag_116:\n        /* \"contracts/liquidation_temp.sol\":3170:3182  bytes(\"AXS\") */\n      mload(0x40)\n      dup1\n      0x40\n      add\n      0x40\n      mstore\n      dup1\n      0x03\n      dup2\n      mstore\n      0x20\n      add\n      0x4158530000000000000000000000000000000000000000000000000000000000\n      dup2\n      mstore\n      pop\n        /* \"contracts/liquidation_temp.sol\":3160:3183  keccak256(bytes(\"AXS\")) */\n      dup1\n      mload\n      swap1\n      0x20\n      add\n      keccak256\n        /* \"contracts/liquidation_temp.sol\":3145:3154  assetType */\n      dup11\n        /* \"contracts/liquidation_temp.sol\":3129:3156  keccak256(bytes(assetType)) */\n      dup1\n      mload\n      swap1\n      0x20\n      add\n      keccak256\n        /* \"contracts/liquidation_temp.sol\":3129:3183  keccak256(bytes(assetType)) == keccak256(bytes(\"AXS\")) */\n      sub\n        /* \"contracts/liquidation_temp.sol\":3125:3539  if (keccak256(bytes(assetType)) == keccak256(bytes(\"AXS\"))) {... */\n      tag_122\n      jumpi\n        /* \"contracts/liquidation_temp.sol\":3199:3215  uint256 axsInETH */\n      0x00\n        /* \"contracts/liquidation_temp.sol\":3256:3270  ethPriceOnUSDC */\n      sload(0x05)\n        /* \"contracts/liquidation_temp.sol\":3240:3253  axsToETHPrice */\n      sload(0x06)\n        /* \"contracts/liquidation_temp.sol\":3240:3270  axsToETHPrice * ethPriceOnUSDC */\n      tag_123\n      swap2\n      swap1\n      tag_77\n      jump\t// in\n    tag_123:\n        /* \"contracts/liquidation_temp.sol\":3232:3235  1e6 */\n      0x0f4240\n        /* \"contracts/liquidation_temp.sol\":3219:3229  excessDebt */\n      dup4\n        /* \"contracts/liquidation_temp.sol\":3219:3235  excessDebt * 1e6 */\n      tag_124\n      swap2\n      swap1\n      tag_77\n      jump\t// in\n    tag_124:\n        /* \"contracts/liquidation_temp.sol\":3218:3271  (excessDebt * 1e6) / (axsToETHPrice * ethPriceOnUSDC) */\n      tag_125\n      swap2\n      swap1\n      tag_79\n      jump\t// in\n    tag_125:\n        /* \"contracts/liquidation_temp.sol\":3199:3271  uint256 axsInETH = (excessDebt * 1e6) / (axsToETHPrice * ethPriceOnUSDC) */\n      swap1\n      pop\n        /* \"contracts/liquidation_temp.sol\":3304:3312  axsInETH */\n      dup1\n        /* \"contracts/liquidation_temp.sol\":3285:3312  assetToLiquidate = axsInETH */\n      swap9\n      pop\n        /* \"contracts/liquidation_temp.sol\":3446:3449  1e6 */\n      0x0f4240\n        /* \"contracts/liquidation_temp.sol\":3428:3442  ethPriceOnUSDC */\n      sload(0x05)\n        /* \"contracts/liquidation_temp.sol\":3412:3425  axsToETHPrice */\n      sload(0x06)\n        /* \"contracts/liquidation_temp.sol\":3393:3409  assetToLiquidate */\n      dup12\n        /* \"contracts/liquidation_temp.sol\":3393:3425  assetToLiquidate * axsToETHPrice */\n      tag_126\n      swap2\n      swap1\n      tag_77\n      jump\t// in\n    tag_126:\n        /* \"contracts/liquidation_temp.sol\":3393:3442  assetToLiquidate * axsToETHPrice * ethPriceOnUSDC */\n      tag_127\n      swap2\n      swap1\n      tag_77\n      jump\t// in\n    tag_127:\n        /* \"contracts/liquidation_temp.sol\":3392:3449  (assetToLiquidate * axsToETHPrice * ethPriceOnUSDC) / 1e6 */\n      tag_128\n      swap2\n      swap1\n      tag_79\n      jump\t// in\n    tag_128:\n        /* \"contracts/liquidation_temp.sol\":3374:3449  usdcToLiquidate = (assetToLiquidate * axsToETHPrice * ethPriceOnUSDC) / 1e6 */\n      swap10\n      pop\n        /* \"contracts/liquidation_temp.sol\":3185:3460  {... */\n      pop\n        /* \"contracts/liquidation_temp.sol\":3125:3539  if (keccak256(bytes(assetType)) == keccak256(bytes(\"AXS\"))) {... */\n      jump(tag_129)\n    tag_122:\n        /* \"contracts/liquidation_temp.sol\":3480:3528  revert(\"Invalid asset type: Use 'ETH' or 'AXS'\") */\n      mload(0x40)\n      0x08c379a000000000000000000000000000000000000000000000000000000000\n      dup2\n      mstore\n      0x04\n      add\n      tag_130\n      swap1\n      tag_131\n      jump\t// in\n    tag_130:\n      mload(0x40)\n      dup1\n      swap2\n      sub\n      swap1\n      revert\n        /* \"contracts/liquidation_temp.sol\":3125:3539  if (keccak256(bytes(assetType)) == keccak256(bytes(\"AXS\"))) {... */\n    tag_129:\n        /* \"contracts/liquidation_temp.sol\":2864:3539  if (keccak256(bytes(assetType)) == keccak256(bytes(\"ETH\"))) {... */\n    tag_121:\n        /* \"contracts/liquidation_temp.sol\":2237:3545  {... */\n      pop\n      pop\n      pop\n      pop\n      pop\n      pop\n      pop\n        /* \"contracts/liquidation_temp.sol\":2085:3545  function calculateLiquidationAmount(address _borrower, string memory assetType) public view returns (uint256 usdcToLiquidate, uint256 assetToLiquidate) {... */\n    tag_106:\n      swap3\n      pop\n      swap3\n      swap1\n      pop\n      jump\t// out\n        /* \"contracts/liquidation_temp.sol\":220:257  mapping(address => Loan) public loans */\n    tag_45:\n      mstore(0x20, 0x01)\n      dup1\n      0x00\n      mstore\n      keccak256(0x00, 0x40)\n      0x00\n      swap2\n      pop\n      swap1\n      pop\n      dup1\n      0x00\n      add\n      sload\n      swap1\n      dup1\n      0x01\n      add\n      sload\n      swap1\n      dup1\n      0x02\n      add\n      sload\n      swap1\n      pop\n      dup4\n      jump\t// out\n        /* \"contracts/liquidation_temp.sol\":86:106  address public owner */\n    tag_49:\n      0x00\n      dup1\n      sload\n      swap1\n      0x0100\n      exp\n      swap1\n      div\n      0xffffffffffffffffffffffffffffffffffffffff\n      and\n      dup2\n      jump\t// out\n        /* \"contracts/liquidation_temp.sol\":398:434  uint256 public ethPriceOnUSDC = 1500 */\n    tag_53:\n      sload(0x05)\n      dup2\n      jump\t// out\n        /* \"contracts/liquidation_temp.sol\":779:1026  function addLoan(address _borrower, uint256 _usdcCollateral, uint256 _ethDebt, uint256 _axsDebt) public {... */\n    tag_58:\n        /* \"contracts/liquidation_temp.sol\":915:920  owner */\n      0x00\n      dup1\n      sload\n      swap1\n      0x0100\n      exp\n      swap1\n      div\n      0xffffffffffffffffffffffffffffffffffffffff\n      and\n        /* \"contracts/liquidation_temp.sol\":901:920  msg.sender == owner */\n      0xffffffffffffffffffffffffffffffffffffffff\n      and\n        /* \"contracts/liquidation_temp.sol\":901:911  msg.sender */\n      caller\n        /* \"contracts/liquidation_temp.sol\":901:920  msg.sender == owner */\n      0xffffffffffffffffffffffffffffffffffffffff\n      and\n      eq\n        /* \"contracts/liquidation_temp.sol\":893:949  require(msg.sender == owner, \"Only owner can add loans\") */\n      tag_133\n      jumpi\n      mload(0x40)\n      0x08c379a000000000000000000000000000000000000000000000000000000000\n      dup2\n      mstore\n      0x04\n      add\n      tag_134\n      swap1\n      tag_135\n      jump\t// in\n    tag_134:\n      mload(0x40)\n      dup1\n      swap2\n      sub\n      swap1\n      revert\n    tag_133:\n        /* \"contracts/liquidation_temp.sol\":978:1019  Loan(_usdcCollateral, _ethDebt, _axsDebt) */\n      mload(0x40)\n      dup1\n      0x60\n      add\n      0x40\n      mstore\n      dup1\n        /* \"contracts/liquidation_temp.sol\":983:998  _usdcCollateral */\n      dup5\n        /* \"contracts/liquidation_temp.sol\":978:1019  Loan(_usdcCollateral, _ethDebt, _axsDebt) */\n      dup2\n      mstore\n      0x20\n      add\n        /* \"contracts/liquidation_temp.sol\":1000:1008  _ethDebt */\n      dup4\n        /* \"contracts/liquidation_temp.sol\":978:1019  Loan(_usdcCollateral, _ethDebt, _axsDebt) */\n      dup2\n      mstore\n      0x20\n      add\n        /* \"contracts/liquidation_temp.sol\":1010:1018  _axsDebt */\n      dup3\n        /* \"contracts/liquidation_temp.sol\":978:1019  Loan(_usdcCollateral, _ethDebt, _axsDebt) */\n      dup2\n      mstore\n      pop\n        /* \"contracts/liquidation_temp.sol\":959:964  loans */\n      0x01\n        /* \"contracts/liquidation_temp.sol\":959:975  loans[_borrower] */\n      0x00\n        /* \"contracts/liquidation_temp.sol\":965:974  _borrower */\n      dup7\n        /* \"contracts/liquidation_temp.sol\":959:975  loans[_borrower] */\n      0xffffffffffffffffffffffffffffffffffffffff\n      and\n      0xffffffffffffffffffffffffffffffffffffffff\n      and\n      dup2\n      mstore\n      0x20\n      add\n      swap1\n      dup2\n      mstore\n      0x20\n      add\n      0x00\n      keccak256\n        /* \"contracts/liquidation_temp.sol\":959:1019  loans[_borrower] = Loan(_usdcCollateral, _ethDebt, _axsDebt) */\n      0x00\n      dup3\n      add\n      mload\n      dup2\n      0x00\n      add\n      sstore\n      0x20\n      dup3\n      add\n      mload\n      dup2\n      0x01\n      add\n      sstore\n      0x40\n      dup3\n      add\n      mload\n      dup2\n      0x02\n      add\n      sstore\n      swap1\n      pop\n      pop\n        /* \"contracts/liquidation_temp.sol\":779:1026  function addLoan(address _borrower, uint256 _usdcCollateral, uint256 _ethDebt, uint256 _axsDebt) public {... */\n      pop\n      pop\n      pop\n      pop\n      jump\t// out\n        /* \"contracts/liquidation_temp.sol\":264:303  uint256 public collateralRatioUSDC = 90 */\n    tag_60:\n      sload(0x02)\n      dup2\n      jump\t// out\n        /* \"contracts/liquidation_temp.sol\":4837:4929  function changeETHRate(uint256 _ethPrice) public {... */\n    tag_64:\n        /* \"contracts/liquidation_temp.sol\":4913:4922  _ethPrice */\n      dup1\n        /* \"contracts/liquidation_temp.sol\":4896:4910  ethPriceOnUSDC */\n      0x05\n        /* \"contracts/liquidation_temp.sol\":4896:4922  ethPriceOnUSDC = _ethPrice */\n      dup2\n      swap1\n      sstore\n      pop\n        /* \"contracts/liquidation_temp.sol\":4837:4929  function changeETHRate(uint256 _ethPrice) public {... */\n      pop\n      jump\t// out\n        /* \"contracts/liquidation_temp.sol\":1032:2004  function getHealthFactor(address _borrower) public returns (uint256) {... */\n    tag_67:\n        /* \"contracts/liquidation_temp.sol\":1092:1099  uint256 */\n      0x00\n        /* \"contracts/liquidation_temp.sol\":1111:1127  Loan memory loan */\n      dup1\n        /* \"contracts/liquidation_temp.sol\":1130:1135  loans */\n      0x01\n        /* \"contracts/liquidation_temp.sol\":1130:1146  loans[_borrower] */\n      0x00\n        /* \"contracts/liquidation_temp.sol\":1136:1145  _borrower */\n      dup5\n        /* \"contracts/liquidation_temp.sol\":1130:1146  loans[_borrower] */\n      0xffffffffffffffffffffffffffffffffffffffff\n      and\n      0xffffffffffffffffffffffffffffffffffffffff\n      and\n      dup2\n      mstore\n      0x20\n      add\n      swap1\n      dup2\n      mstore\n      0x20\n      add\n      0x00\n      keccak256\n        /* \"contracts/liquidation_temp.sol\":1111:1146  Loan memory loan = loans[_borrower] */\n      mload(0x40)\n      dup1\n      0x60\n      add\n      0x40\n      mstore\n      swap1\n      dup2\n      0x00\n      dup3\n      add\n      sload\n      dup2\n      mstore\n      0x20\n      add\n      0x01\n      dup3\n      add\n      sload\n      dup2\n      mstore\n      0x20\n      add\n      0x02\n      dup3\n      add\n      sload\n      dup2\n      mstore\n      pop\n      pop\n      swap1\n      pop\n        /* \"contracts/liquidation_temp.sol\":1247:1270  uint256 totalCollateral */\n      0x00\n        /* \"contracts/liquidation_temp.sol\":1319:1322  100 */\n      0x64\n        /* \"contracts/liquidation_temp.sol\":1296:1315  collateralRatioUSDC */\n      sload(0x02)\n        /* \"contracts/liquidation_temp.sol\":1274:1278  loan */\n      dup4\n        /* \"contracts/liquidation_temp.sol\":1274:1293  loan.usdcCollateral */\n      0x00\n      add\n      mload\n        /* \"contracts/liquidation_temp.sol\":1274:1315  loan.usdcCollateral * collateralRatioUSDC */\n      tag_138\n      swap2\n      swap1\n      tag_77\n      jump\t// in\n    tag_138:\n        /* \"contracts/liquidation_temp.sol\":1273:1322  (loan.usdcCollateral * collateralRatioUSDC) / 100 */\n      tag_139\n      swap2\n      swap1\n      tag_79\n      jump\t// in\n    tag_139:\n        /* \"contracts/liquidation_temp.sol\":1247:1322  uint256 totalCollateral = (loan.usdcCollateral * collateralRatioUSDC) / 100 */\n      swap1\n      pop\n        /* \"contracts/liquidation_temp.sol\":1376:1397  uint256 ethDebtInUSDC */\n      0x00\n        /* \"contracts/liquidation_temp.sol\":1434:1438  1000 */\n      0x03e8\n        /* \"contracts/liquidation_temp.sol\":1416:1430  ethPriceOnUSDC */\n      sload(0x05)\n        /* \"contracts/liquidation_temp.sol\":1401:1405  loan */\n      dup5\n        /* \"contracts/liquidation_temp.sol\":1401:1413  loan.ethDebt */\n      0x20\n      add\n      mload\n        /* \"contracts/liquidation_temp.sol\":1401:1430  loan.ethDebt * ethPriceOnUSDC */\n      tag_140\n      swap2\n      swap1\n      tag_77\n      jump\t// in\n    tag_140:\n        /* \"contracts/liquidation_temp.sol\":1400:1438  (loan.ethDebt * ethPriceOnUSDC) / 1000 */\n      tag_141\n      swap2\n      swap1\n      tag_79\n      jump\t// in\n    tag_141:\n        /* \"contracts/liquidation_temp.sol\":1376:1438  uint256 ethDebtInUSDC = (loan.ethDebt * ethPriceOnUSDC) / 1000 */\n      swap1\n      pop\n        /* \"contracts/liquidation_temp.sol\":1493:1514  uint256 axsDebtInUSDC */\n      0x00\n        /* \"contracts/liquidation_temp.sol\":1567:1573  100000 */\n      0x0186a0\n        /* \"contracts/liquidation_temp.sol\":1549:1563  ethPriceOnUSDC */\n      sload(0x05)\n        /* \"contracts/liquidation_temp.sol\":1533:1546  axsToETHPrice */\n      sload(0x06)\n        /* \"contracts/liquidation_temp.sol\":1518:1522  loan */\n      dup7\n        /* \"contracts/liquidation_temp.sol\":1518:1530  loan.axsDebt */\n      0x40\n      add\n      mload\n        /* \"contracts/liquidation_temp.sol\":1518:1546  loan.axsDebt * axsToETHPrice */\n      tag_142\n      swap2\n      swap1\n      tag_77\n      jump\t// in\n    tag_142:\n        /* \"contracts/liquidation_temp.sol\":1518:1563  loan.axsDebt * axsToETHPrice * ethPriceOnUSDC */\n      tag_143\n      swap2\n      swap1\n      tag_77\n      jump\t// in\n    tag_143:\n        /* \"contracts/liquidation_temp.sol\":1517:1573  (loan.axsDebt * axsToETHPrice * ethPriceOnUSDC) / 100000 */\n      tag_144\n      swap2\n      swap1\n      tag_79\n      jump\t// in\n    tag_144:\n        /* \"contracts/liquidation_temp.sol\":1493:1573  uint256 axsDebtInUSDC = (loan.axsDebt * axsToETHPrice * ethPriceOnUSDC) / 100000 */\n      swap1\n      pop\n        /* \"contracts/liquidation_temp.sol\":1583:1600  uint256 totalDebt */\n      0x00\n        /* \"contracts/liquidation_temp.sol\":1619:1632  axsDebtInUSDC */\n      dup2\n        /* \"contracts/liquidation_temp.sol\":1603:1616  ethDebtInUSDC */\n      dup4\n        /* \"contracts/liquidation_temp.sol\":1603:1632  ethDebtInUSDC + axsDebtInUSDC */\n      tag_145\n      swap2\n      swap1\n      tag_86\n      jump\t// in\n    tag_145:\n        /* \"contracts/liquidation_temp.sol\":1583:1632  uint256 totalDebt = ethDebtInUSDC + axsDebtInUSDC */\n      swap1\n      pop\n        /* \"contracts/liquidation_temp.sol\":1660:1661  0 */\n      0x00\n        /* \"contracts/liquidation_temp.sol\":1647:1656  totalDebt */\n      dup2\n        /* \"contracts/liquidation_temp.sol\":1647:1661  totalDebt == 0 */\n      sub\n        /* \"contracts/liquidation_temp.sol\":1643:1733  if (totalDebt == 0) {... */\n      tag_146\n      jumpi\n        /* \"contracts/liquidation_temp.sol\":1684:1701  type(uint256).max */\n      0xffffffffffffffffffffffffffffffffffffffffffffffffffffffffffffffff\n        /* \"contracts/liquidation_temp.sol\":1677:1701  return type(uint256).max */\n      swap6\n      pop\n      pop\n      pop\n      pop\n      pop\n      pop\n      jump(tag_137)\n        /* \"contracts/liquidation_temp.sol\":1643:1733  if (totalDebt == 0) {... */\n    tag_146:\n        /* \"contracts/liquidation_temp.sol\":1774:1794  uint256 healthFactor */\n      0x00\n        /* \"contracts/liquidation_temp.sol\":1823:1832  totalDebt */\n      dup2\n        /* \"contracts/liquidation_temp.sol\":1816:1819  100 */\n      0x64\n        /* \"contracts/liquidation_temp.sol\":1798:1813  totalCollateral */\n      dup7\n        /* \"contracts/liquidation_temp.sol\":1798:1819  totalCollateral * 100 */\n      tag_147\n      swap2\n      swap1\n      tag_77\n      jump\t// in\n    tag_147:\n        /* \"contracts/liquidation_temp.sol\":1797:1832  (totalCollateral * 100) / totalDebt */\n      tag_148\n      swap2\n      swap1\n      tag_79\n      jump\t// in\n    tag_148:\n        /* \"contracts/liquidation_temp.sol\":1774:1832  uint256 healthFactor = (totalCollateral * 100) / totalDebt */\n      swap1\n      pop\n        /* \"contracts/liquidation_temp.sol\":1892:1967  HealthFactorCalculated(_borrower, totalCollateral, totalDebt, healthFactor) */\n      0x96df9b99931636b730287949d80832331a9fd2fd69bc2bb6ce2145403af80688\n        /* \"contracts/liquidation_temp.sol\":1915:1924  _borrower */\n      dup9\n        /* \"contracts/liquidation_temp.sol\":1926:1941  totalCollateral */\n      dup7\n        /* \"contracts/liquidation_temp.sol\":1943:1952  totalDebt */\n      dup5\n        /* \"contracts/liquidation_temp.sol\":1954:1966  healthFactor */\n      dup5\n        /* \"contracts/liquidation_temp.sol\":1892:1967  HealthFactorCalculated(_borrower, totalCollateral, totalDebt, healthFactor) */\n      mload(0x40)\n      tag_149\n      swap5\n      swap4\n      swap3\n      swap2\n      swap1\n      tag_150\n      jump\t// in\n    tag_149:\n      mload(0x40)\n      dup1\n      swap2\n      sub\n      swap1\n      log1\n        /* \"contracts/liquidation_temp.sol\":1985:1997  healthFactor */\n      dup1\n        /* \"contracts/liquidation_temp.sol\":1978:1997  return healthFactor */\n      swap7\n      pop\n      pop\n      pop\n      pop\n      pop\n      pop\n      pop\n        /* \"contracts/liquidation_temp.sol\":1032:2004  function getHealthFactor(address _borrower) public returns (uint256) {... */\n    tag_137:\n      swap2\n      swap1\n      pop\n      jump\t// out\n        /* \"#utility.yul\":7:84   */\n    tag_151:\n        /* \"#utility.yul\":44:51   */\n      0x00\n        /* \"#utility.yul\":73:78   */\n      dup2\n        /* \"#utility.yul\":62:78   */\n      swap1\n      pop\n        /* \"#utility.yul\":7:84   */\n      swap2\n      swap1\n      pop\n      jump\t// out\n        /* \"#utility.yul\":90:208   */\n    tag_152:\n        /* \"#utility.yul\":177:201   */\n      tag_187\n        /* \"#utility.yul\":195:200   */\n      dup2\n        /* \"#utility.yul\":177:201   */\n      tag_151\n      jump\t// in\n    tag_187:\n        /* \"#utility.yul\":172:175   */\n      dup3\n        /* \"#utility.yul\":165:202   */\n      mstore\n        /* \"#utility.yul\":90:208   */\n      pop\n      pop\n      jump\t// out\n        /* \"#utility.yul\":214:436   */\n    tag_21:\n        /* \"#utility.yul\":307:311   */\n      0x00\n        /* \"#utility.yul\":345:347   */\n      0x20\n        /* \"#utility.yul\":334:343   */\n      dup3\n        /* \"#utility.yul\":330:348   */\n      add\n        /* \"#utility.yul\":322:348   */\n      swap1\n      pop\n        /* \"#utility.yul\":358:429   */\n      tag_189\n        /* \"#utility.yul\":426:427   */\n      0x00\n        /* \"#utility.yul\":415:424   */\n      dup4\n        /* \"#utility.yul\":411:428   */\n      add\n        /* \"#utility.yul\":402:408   */\n      dup5\n        /* \"#utility.yul\":358:429   */\n      tag_152\n      jump\t// in\n    tag_189:\n        /* \"#utility.yul\":214:436   */\n      swap3\n      swap2\n      pop\n      pop\n      jump\t// out\n        /* \"#utility.yul\":442:517   */\n    tag_153:\n        /* \"#utility.yul\":475:481   */\n      0x00\n        /* \"#utility.yul\":508:510   */\n      0x40\n        /* \"#utility.yul\":502:511   */\n      mload\n        /* \"#utility.yul\":492:511   */\n      swap1\n      pop\n        /* \"#utility.yul\":442:517   */\n      swap1\n      jump\t// out\n        /* \"#utility.yul\":523:640   */\n    tag_154:\n        /* \"#utility.yul\":632:633   */\n      0x00\n        /* \"#utility.yul\":629:630   */\n      dup1\n        /* \"#utility.yul\":622:634   */\n      revert\n        /* \"#utility.yul\":646:763   */\n    tag_155:\n        /* \"#utility.yul\":755:756   */\n      0x00\n        /* \"#utility.yul\":752:753   */\n      dup1\n        /* \"#utility.yul\":745:757   */\n      revert\n        /* \"#utility.yul\":769:891   */\n    tag_156:\n        /* \"#utility.yul\":842:866   */\n      tag_194\n        /* \"#utility.yul\":860:865   */\n      dup2\n        /* \"#utility.yul\":842:866   */\n      tag_151\n      jump\t// in\n    tag_194:\n        /* \"#utility.yul\":835:840   */\n      dup2\n        /* \"#utility.yul\":832:867   */\n      eq\n        /* \"#utility.yul\":822:885   */\n      tag_195\n      jumpi\n        /* \"#utility.yul\":881:882   */\n      0x00\n        /* \"#utility.yul\":878:879   */\n      dup1\n        /* \"#utility.yul\":871:883   */\n      revert\n        /* \"#utility.yul\":822:885   */\n    tag_195:\n        /* \"#utility.yul\":769:891   */\n      pop\n      jump\t// out\n        /* \"#utility.yul\":897:1036   */\n    tag_157:\n        /* \"#utility.yul\":943:948   */\n      0x00\n        /* \"#utility.yul\":981:987   */\n      dup2\n        /* \"#utility.yul\":968:988   */\n      calldataload\n        /* \"#utility.yul\":959:988   */\n      swap1\n      pop\n        /* \"#utility.yul\":997:1030   */\n      tag_197\n        /* \"#utility.yul\":1024:1029   */\n      dup2\n        /* \"#utility.yul\":997:1030   */\n      tag_156\n      jump\t// in\n    tag_197:\n        /* \"#utility.yul\":897:1036   */\n      swap3\n      swap2\n      pop\n      pop\n      jump\t// out\n        /* \"#utility.yul\":1042:1371   */\n    tag_27:\n        /* \"#utility.yul\":1101:1107   */\n      0x00\n        /* \"#utility.yul\":1150:1152   */\n      0x20\n        /* \"#utility.yul\":1138:1147   */\n      dup3\n        /* \"#utility.yul\":1129:1136   */\n      dup5\n        /* \"#utility.yul\":1125:1148   */\n      sub\n        /* \"#utility.yul\":1121:1153   */\n      slt\n        /* \"#utility.yul\":1118:1237   */\n      iszero\n      tag_199\n      jumpi\n        /* \"#utility.yul\":1156:1235   */\n      tag_200\n      tag_154\n      jump\t// in\n    tag_200:\n        /* \"#utility.yul\":1118:1237   */\n    tag_199:\n        /* \"#utility.yul\":1276:1277   */\n      0x00\n        /* \"#utility.yul\":1301:1354   */\n      tag_201\n        /* \"#utility.yul\":1346:1353   */\n      dup5\n        /* \"#utility.yul\":1337:1343   */\n      dup3\n        /* \"#utility.yul\":1326:1335   */\n      dup6\n        /* \"#utility.yul\":1322:1344   */\n      add\n        /* \"#utility.yul\":1301:1354   */\n      tag_157\n      jump\t// in\n    tag_201:\n        /* \"#utility.yul\":1291:1354   */\n      swap2\n      pop\n        /* \"#utility.yul\":1247:1364   */\n      pop\n        /* \"#utility.yul\":1042:1371   */\n      swap3\n      swap2\n      pop\n      pop\n      jump\t// out\n        /* \"#utility.yul\":1377:1503   */\n    tag_158:\n        /* \"#utility.yul\":1414:1421   */\n      0x00\n        /* \"#utility.yul\":1454:1496   */\n      0xffffffffffffffffffffffffffffffffffffffff\n        /* \"#utility.yul\":1447:1452   */\n      dup3\n        /* \"#utility.yul\":1443:1497   */\n      and\n        /* \"#utility.yul\":1432:1497   */\n      swap1\n      pop\n        /* \"#utility.yul\":1377:1503   */\n      swap2\n      swap1\n      pop\n      jump\t// out\n        /* \"#utility.yul\":1509:1605   */\n    tag_159:\n        /* \"#utility.yul\":1546:1553   */\n      0x00\n        /* \"#utility.yul\":1575:1599   */\n      tag_204\n        /* \"#utility.yul\":1593:1598   */\n      dup3\n        /* \"#utility.yul\":1575:1599   */\n      tag_158\n      jump\t// in\n    tag_204:\n        /* \"#utility.yul\":1564:1599   */\n      swap1\n      pop\n        /* \"#utility.yul\":1509:1605   */\n      swap2\n      swap1\n      pop\n      jump\t// out\n        /* \"#utility.yul\":1611:1733   */\n    tag_160:\n        /* \"#utility.yul\":1684:1708   */\n      tag_206\n        /* \"#utility.yul\":1702:1707   */\n      dup2\n        /* \"#utility.yul\":1684:1708   */\n      tag_159\n      jump\t// in\n    tag_206:\n        /* \"#utility.yul\":1677:1682   */\n      dup2\n        /* \"#utility.yul\":1674:1709   */\n      eq\n        /* \"#utility.yul\":1664:1727   */\n      tag_207\n      jumpi\n        /* \"#utility.yul\":1723:1724   */\n      0x00\n        /* \"#utility.yul\":1720:1721   */\n      dup1\n        /* \"#utility.yul\":1713:1725   */\n      revert\n        /* \"#utility.yul\":1664:1727   */\n    tag_207:\n        /* \"#utility.yul\":1611:1733   */\n      pop\n      jump\t// out\n        /* \"#utility.yul\":1739:1878   */\n    tag_161:\n        /* \"#utility.yul\":1785:1790   */\n      0x00\n        /* \"#utility.yul\":1823:1829   */\n      dup2\n        /* \"#utility.yul\":1810:1830   */\n      calldataload\n        /* \"#utility.yul\":1801:1830   */\n      swap1\n      pop\n        /* \"#utility.yul\":1839:1872   */\n      tag_209\n        /* \"#utility.yul\":1866:1871   */\n      dup2\n        /* \"#utility.yul\":1839:1872   */\n      tag_160\n      jump\t// in\n    tag_209:\n        /* \"#utility.yul\":1739:1878   */\n      swap3\n      swap2\n      pop\n      pop\n      jump\t// out\n        /* \"#utility.yul\":1884:2001   */\n    tag_162:\n        /* \"#utility.yul\":1993:1994   */\n      0x00\n        /* \"#utility.yul\":1990:1991   */\n      dup1\n        /* \"#utility.yul\":1983:1995   */\n      revert\n        /* \"#utility.yul\":2007:2124   */\n    tag_163:\n        /* \"#utility.yul\":2116:2117   */\n      0x00\n        /* \"#utility.yul\":2113:2114   */\n      dup1\n        /* \"#utility.yul\":2106:2118   */\n      revert\n        /* \"#utility.yul\":2130:2232   */\n    tag_164:\n        /* \"#utility.yul\":2171:2177   */\n      0x00\n        /* \"#utility.yul\":2222:2224   */\n      0x1f\n        /* \"#utility.yul\":2218:2225   */\n      not\n        /* \"#utility.yul\":2213:2215   */\n      0x1f\n        /* \"#utility.yul\":2206:2211   */\n      dup4\n        /* \"#utility.yul\":2202:2216   */\n      add\n        /* \"#utility.yul\":2198:2226   */\n      and\n        /* \"#utility.yul\":2188:2226   */\n      swap1\n      pop\n        /* \"#utility.yul\":2130:2232   */\n      swap2\n      swap1\n      pop\n      jump\t// out\n        /* \"#utility.yul\":2238:2418   */\n    tag_165:\n        /* \"#utility.yul\":2286:2363   */\n      0x4e487b7100000000000000000000000000000000000000000000000000000000\n        /* \"#utility.yul\":2283:2284   */\n      0x00\n        /* \"#utility.yul\":2276:2364   */\n      mstore\n        /* \"#utility.yul\":2383:2387   */\n      0x41\n        /* \"#utility.yul\":2380:2381   */\n      0x04\n        /* \"#utility.yul\":2373:2388   */\n      mstore\n        /* \"#utility.yul\":2407:2411   */\n      0x24\n        /* \"#utility.yul\":2404:2405   */\n      0x00\n        /* \"#utility.yul\":2397:2412   */\n      revert\n        /* \"#utility.yul\":2424:2705   */\n    tag_166:\n        /* \"#utility.yul\":2507:2534   */\n      tag_215\n        /* \"#utility.yul\":2529:2533   */\n      dup3\n        /* \"#utility.yul\":2507:2534   */\n      tag_164\n      jump\t// in\n    tag_215:\n        /* \"#utility.yul\":2499:2505   */\n      dup2\n        /* \"#utility.yul\":2495:2535   */\n      add\n        /* \"#utility.yul\":2637:2643   */\n      dup2\n        /* \"#utility.yul\":2625:2635   */\n      dup2\n        /* \"#utility.yul\":2622:2644   */\n      lt\n        /* \"#utility.yul\":2601:2619   */\n      0xffffffffffffffff\n        /* \"#utility.yul\":2589:2599   */\n      dup3\n        /* \"#utility.yul\":2586:2620   */\n      gt\n        /* \"#utility.yul\":2583:2645   */\n      or\n        /* \"#utility.yul\":2580:2668   */\n      iszero\n      tag_216\n      jumpi\n        /* \"#utility.yul\":2648:2666   */\n      tag_217\n      tag_165\n      jump\t// in\n    tag_217:\n        /* \"#utility.yul\":2580:2668   */\n    tag_216:\n        /* \"#utility.yul\":2688:2698   */\n      dup1\n        /* \"#utility.yul\":2684:2686   */\n      0x40\n        /* \"#utility.yul\":2677:2699   */\n      mstore\n        /* \"#utility.yul\":2467:2705   */\n      pop\n        /* \"#utility.yul\":2424:2705   */\n      pop\n      pop\n      jump\t// out\n        /* \"#utility.yul\":2711:2840   */\n    tag_167:\n        /* \"#utility.yul\":2745:2751   */\n      0x00\n        /* \"#utility.yul\":2772:2792   */\n      tag_219\n      tag_153\n      jump\t// in\n    tag_219:\n        /* \"#utility.yul\":2762:2792   */\n      swap1\n      pop\n        /* \"#utility.yul\":2801:2834   */\n      tag_220\n        /* \"#utility.yul\":2829:2833   */\n      dup3\n        /* \"#utility.yul\":2821:2827   */\n      dup3\n        /* \"#utility.yul\":2801:2834   */\n      tag_166\n      jump\t// in\n    tag_220:\n        /* \"#utility.yul\":2711:2840   */\n      swap2\n      swap1\n      pop\n      jump\t// out\n        /* \"#utility.yul\":2846:3154   */\n    tag_168:\n        /* \"#utility.yul\":2908:2912   */\n      0x00\n        /* \"#utility.yul\":2998:3016   */\n      0xffffffffffffffff\n        /* \"#utility.yul\":2990:2996   */\n      dup3\n        /* \"#utility.yul\":2987:3017   */\n      gt\n        /* \"#utility.yul\":2984:3040   */\n      iszero\n      tag_222\n      jumpi\n        /* \"#utility.yul\":3020:3038   */\n      tag_223\n      tag_165\n      jump\t// in\n    tag_223:\n        /* \"#utility.yul\":2984:3040   */\n    tag_222:\n        /* \"#utility.yul\":3058:3087   */\n      tag_224\n        /* \"#utility.yul\":3080:3086   */\n      dup3\n        /* \"#utility.yul\":3058:3087   */\n      tag_164\n      jump\t// in\n    tag_224:\n        /* \"#utility.yul\":3050:3087   */\n      swap1\n      pop\n        /* \"#utility.yul\":3142:3146   */\n      0x20\n        /* \"#utility.yul\":3136:3140   */\n      dup2\n        /* \"#utility.yul\":3132:3147   */\n      add\n        /* \"#utility.yul\":3124:3147   */\n      swap1\n      pop\n        /* \"#utility.yul\":2846:3154   */\n      swap2\n      swap1\n      pop\n      jump\t// out\n        /* \"#utility.yul\":3160:3308   */\n    tag_169:\n        /* \"#utility.yul\":3258:3264   */\n      dup3\n        /* \"#utility.yul\":3253:3256   */\n      dup2\n        /* \"#utility.yul\":3248:3251   */\n      dup4\n        /* \"#utility.yul\":3235:3265   */\n      calldatacopy\n        /* \"#utility.yul\":3299:3300   */\n      0x00\n        /* \"#utility.yul\":3290:3296   */\n      dup4\n        /* \"#utility.yul\":3285:3288   */\n      dup4\n        /* \"#utility.yul\":3281:3297   */\n      add\n        /* \"#utility.yul\":3274:3301   */\n      mstore\n        /* \"#utility.yul\":3160:3308   */\n      pop\n      pop\n      pop\n      jump\t// out\n        /* \"#utility.yul\":3314:3739   */\n    tag_170:\n        /* \"#utility.yul\":3392:3397   */\n      0x00\n        /* \"#utility.yul\":3417:3483   */\n      tag_227\n        /* \"#utility.yul\":3433:3482   */\n      tag_228\n        /* \"#utility.yul\":3475:3481   */\n      dup5\n        /* \"#utility.yul\":3433:3482   */\n      tag_168\n      jump\t// in\n    tag_228:\n        /* \"#utility.yul\":3417:3483   */\n      tag_167\n      jump\t// in\n    tag_227:\n        /* \"#utility.yul\":3408:3483   */\n      swap1\n      pop\n        /* \"#utility.yul\":3506:3512   */\n      dup3\n        /* \"#utility.yul\":3499:3504   */\n      dup2\n        /* \"#utility.yul\":3492:3513   */\n      mstore\n        /* \"#utility.yul\":3544:3548   */\n      0x20\n        /* \"#utility.yul\":3537:3542   */\n      dup2\n        /* \"#utility.yul\":3533:3549   */\n      add\n        /* \"#utility.yul\":3582:3585   */\n      dup5\n        /* \"#utility.yul\":3573:3579   */\n      dup5\n        /* \"#utility.yul\":3568:3571   */\n      dup5\n        /* \"#utility.yul\":3564:3580   */\n      add\n        /* \"#utility.yul\":3561:3586   */\n      gt\n        /* \"#utility.yul\":3558:3670   */\n      iszero\n      tag_229\n      jumpi\n        /* \"#utility.yul\":3589:3668   */\n      tag_230\n      tag_163\n      jump\t// in\n    tag_230:\n        /* \"#utility.yul\":3558:3670   */\n    tag_229:\n        /* \"#utility.yul\":3679:3733   */\n      tag_231\n        /* \"#utility.yul\":3726:3732   */\n      dup5\n        /* \"#utility.yul\":3721:3724   */\n      dup3\n        /* \"#utility.yul\":3716:3719   */\n      dup6\n        /* \"#utility.yul\":3679:3733   */\n      tag_169\n      jump\t// in\n    tag_231:\n        /* \"#utility.yul\":3398:3739   */\n      pop\n        /* \"#utility.yul\":3314:3739   */\n      swap4\n      swap3\n      pop\n      pop\n      pop\n      jump\t// out\n        /* \"#utility.yul\":3759:4099   */\n    tag_171:\n        /* \"#utility.yul\":3815:3820   */\n      0x00\n        /* \"#utility.yul\":3864:3867   */\n      dup3\n        /* \"#utility.yul\":3857:3861   */\n      0x1f\n        /* \"#utility.yul\":3849:3855   */\n      dup4\n        /* \"#utility.yul\":3845:3862   */\n      add\n        /* \"#utility.yul\":3841:3868   */\n      slt\n        /* \"#utility.yul\":3831:3953   */\n      tag_233\n      jumpi\n        /* \"#utility.yul\":3872:3951   */\n      tag_234\n      tag_162\n      jump\t// in\n    tag_234:\n        /* \"#utility.yul\":3831:3953   */\n    tag_233:\n        /* \"#utility.yul\":3989:3995   */\n      dup2\n        /* \"#utility.yul\":3976:3996   */\n      calldataload\n        /* \"#utility.yul\":4014:4093   */\n      tag_235\n        /* \"#utility.yul\":4089:4092   */\n      dup5\n        /* \"#utility.yul\":4081:4087   */\n      dup3\n        /* \"#utility.yul\":4074:4078   */\n      0x20\n        /* \"#utility.yul\":4066:4072   */\n      dup7\n        /* \"#utility.yul\":4062:4079   */\n      add\n        /* \"#utility.yul\":4014:4093   */\n      tag_170\n      jump\t// in\n    tag_235:\n        /* \"#utility.yul\":4005:4093   */\n      swap2\n      pop\n        /* \"#utility.yul\":3821:4099   */\n      pop\n        /* \"#utility.yul\":3759:4099   */\n      swap3\n      swap2\n      pop\n      pop\n      jump\t// out\n        /* \"#utility.yul\":4105:4904   */\n    tag_31:\n        /* \"#utility.yul\":4192:4198   */\n      0x00\n        /* \"#utility.yul\":4200:4206   */\n      dup1\n        /* \"#utility.yul\":4208:4214   */\n      0x00\n        /* \"#utility.yul\":4257:4259   */\n      0x60\n        /* \"#utility.yul\":4245:4254   */\n      dup5\n        /* \"#utility.yul\":4236:4243   */\n      dup7\n        /* \"#utility.yul\":4232:4255   */\n      sub\n        /* \"#utility.yul\":4228:4260   */\n      slt\n        /* \"#utility.yul\":4225:4344   */\n      iszero\n      tag_237\n      jumpi\n        /* \"#utility.yul\":4263:4342   */\n      tag_238\n      tag_154\n      jump\t// in\n    tag_238:\n        /* \"#utility.yul\":4225:4344   */\n    tag_237:\n        /* \"#utility.yul\":4383:4384   */\n      0x00\n        /* \"#utility.yul\":4408:4461   */\n      tag_239\n        /* \"#utility.yul\":4453:4460   */\n      dup7\n        /* \"#utility.yul\":4444:4450   */\n      dup3\n        /* \"#utility.yul\":4433:4442   */\n      dup8\n        /* \"#utility.yul\":4429:4451   */\n      add\n        /* \"#utility.yul\":4408:4461   */\n      tag_161\n      jump\t// in\n    tag_239:\n        /* \"#utility.yul\":4398:4461   */\n      swap4\n      pop\n        /* \"#utility.yul\":4354:4471   */\n      pop\n        /* \"#utility.yul\":4538:4540   */\n      0x20\n        /* \"#utility.yul\":4527:4536   */\n      dup5\n        /* \"#utility.yul\":4523:4541   */\n      add\n        /* \"#utility.yul\":4510:4542   */\n      calldataload\n        /* \"#utility.yul\":4569:4587   */\n      0xffffffffffffffff\n        /* \"#utility.yul\":4561:4567   */\n      dup2\n        /* \"#utility.yul\":4558:4588   */\n      gt\n        /* \"#utility.yul\":4555:4672   */\n      iszero\n      tag_240\n      jumpi\n        /* \"#utility.yul\":4591:4670   */\n      tag_241\n      tag_155\n      jump\t// in\n    tag_241:\n        /* \"#utility.yul\":4555:4672   */\n    tag_240:\n        /* \"#utility.yul\":4696:4759   */\n      tag_242\n        /* \"#utility.yul\":4751:4758   */\n      dup7\n        /* \"#utility.yul\":4742:4748   */\n      dup3\n        /* \"#utility.yul\":4731:4740   */\n      dup8\n        /* \"#utility.yul\":4727:4749   */\n      add\n        /* \"#utility.yul\":4696:4759   */\n      tag_171\n      jump\t// in\n    tag_242:\n        /* \"#utility.yul\":4686:4759   */\n      swap3\n      pop\n        /* \"#utility.yul\":4481:4769   */\n      pop\n        /* \"#utility.yul\":4808:4810   */\n      0x40\n        /* \"#utility.yul\":4834:4887   */\n      tag_243\n        /* \"#utility.yul\":4879:4886   */\n      dup7\n        /* \"#utility.yul\":4870:4876   */\n      dup3\n        /* \"#utility.yul\":4859:4868   */\n      dup8\n        /* \"#utility.yul\":4855:4877   */\n      add\n        /* \"#utility.yul\":4834:4887   */\n      tag_157\n      jump\t// in\n    tag_243:\n        /* \"#utility.yul\":4824:4887   */\n      swap2\n      pop\n        /* \"#utility.yul\":4779:4897   */\n      pop\n        /* \"#utility.yul\":4105:4904   */\n      swap3\n      pop\n      swap3\n      pop\n      swap3\n      jump\t// out\n        /* \"#utility.yul\":4910:5564   */\n    tag_38:\n        /* \"#utility.yul\":4988:4994   */\n      0x00\n        /* \"#utility.yul\":4996:5002   */\n      dup1\n        /* \"#utility.yul\":5045:5047   */\n      0x40\n        /* \"#utility.yul\":5033:5042   */\n      dup4\n        /* \"#utility.yul\":5024:5031   */\n      dup6\n        /* \"#utility.yul\":5020:5043   */\n      sub\n        /* \"#utility.yul\":5016:5048   */\n      slt\n        /* \"#utility.yul\":5013:5132   */\n      iszero\n      tag_245\n      jumpi\n        /* \"#utility.yul\":5051:5130   */\n      tag_246\n      tag_154\n      jump\t// in\n    tag_246:\n        /* \"#utility.yul\":5013:5132   */\n    tag_245:\n        /* \"#utility.yul\":5171:5172   */\n      0x00\n        /* \"#utility.yul\":5196:5249   */\n      tag_247\n        /* \"#utility.yul\":5241:5248   */\n      dup6\n        /* \"#utility.yul\":5232:5238   */\n      dup3\n        /* \"#utility.yul\":5221:5230   */\n      dup7\n        /* \"#utility.yul\":5217:5239   */\n      add\n        /* \"#utility.yul\":5196:5249   */\n      tag_161\n      jump\t// in\n    tag_247:\n        /* \"#utility.yul\":5186:5249   */\n      swap3\n      pop\n        /* \"#utility.yul\":5142:5259   */\n      pop\n        /* \"#utility.yul\":5326:5328   */\n      0x20\n        /* \"#utility.yul\":5315:5324   */\n      dup4\n        /* \"#utility.yul\":5311:5329   */\n      add\n        /* \"#utility.yul\":5298:5330   */\n      calldataload\n        /* \"#utility.yul\":5357:5375   */\n      0xffffffffffffffff\n        /* \"#utility.yul\":5349:5355   */\n      dup2\n        /* \"#utility.yul\":5346:5376   */\n      gt\n        /* \"#utility.yul\":5343:5460   */\n      iszero\n      tag_248\n      jumpi\n        /* \"#utility.yul\":5379:5458   */\n      tag_249\n      tag_155\n      jump\t// in\n    tag_249:\n        /* \"#utility.yul\":5343:5460   */\n    tag_248:\n        /* \"#utility.yul\":5484:5547   */\n      tag_250\n        /* \"#utility.yul\":5539:5546   */\n      dup6\n        /* \"#utility.yul\":5530:5536   */\n      dup3\n        /* \"#utility.yul\":5519:5528   */\n      dup7\n        /* \"#utility.yul\":5515:5537   */\n      add\n        /* \"#utility.yul\":5484:5547   */\n      tag_171\n      jump\t// in\n    tag_250:\n        /* \"#utility.yul\":5474:5547   */\n      swap2\n      pop\n        /* \"#utility.yul\":5269:5557   */\n      pop\n        /* \"#utility.yul\":4910:5564   */\n      swap3\n      pop\n      swap3\n      swap1\n      pop\n      jump\t// out\n        /* \"#utility.yul\":5570:5902   */\n    tag_41:\n        /* \"#utility.yul\":5691:5695   */\n      0x00\n        /* \"#utility.yul\":5729:5731   */\n      0x40\n        /* \"#utility.yul\":5718:5727   */\n      dup3\n        /* \"#utility.yul\":5714:5732   */\n      add\n        /* \"#utility.yul\":5706:5732   */\n      swap1\n      pop\n        /* \"#utility.yul\":5742:5813   */\n      tag_252\n        /* \"#utility.yul\":5810:5811   */\n      0x00\n        /* \"#utility.yul\":5799:5808   */\n      dup4\n        /* \"#utility.yul\":5795:5812   */\n      add\n        /* \"#utility.yul\":5786:5792   */\n      dup6\n        /* \"#utility.yul\":5742:5813   */\n      tag_152\n      jump\t// in\n    tag_252:\n        /* \"#utility.yul\":5823:5895   */\n      tag_253\n        /* \"#utility.yul\":5891:5893   */\n      0x20\n        /* \"#utility.yul\":5880:5889   */\n      dup4\n        /* \"#utility.yul\":5876:5894   */\n      add\n        /* \"#utility.yul\":5867:5873   */\n      dup5\n        /* \"#utility.yul\":5823:5895   */\n      tag_152\n      jump\t// in\n    tag_253:\n        /* \"#utility.yul\":5570:5902   */\n      swap4\n      swap3\n      pop\n      pop\n      pop\n      jump\t// out\n        /* \"#utility.yul\":5908:6237   */\n    tag_44:\n        /* \"#utility.yul\":5967:5973   */\n      0x00\n        /* \"#utility.yul\":6016:6018   */\n      0x20\n        /* \"#utility.yul\":6004:6013   */\n      dup3\n        /* \"#utility.yul\":5995:6002   */\n      dup5\n        /* \"#utility.yul\":5991:6014   */\n      sub\n        /* \"#utility.yul\":5987:6019   */\n      slt\n        /* \"#utility.yul\":5984:6103   */\n      iszero\n      tag_255\n      jumpi\n        /* \"#utility.yul\":6022:6101   */\n      tag_256\n      tag_154\n      jump\t// in\n    tag_256:\n        /* \"#utility.yul\":5984:6103   */\n    tag_255:\n        /* \"#utility.yul\":6142:6143   */\n      0x00\n        /* \"#utility.yul\":6167:6220   */\n      tag_257\n        /* \"#utility.yul\":6212:6219   */\n      dup5\n        /* \"#utility.yul\":6203:6209   */\n      dup3\n        /* \"#utility.yul\":6192:6201   */\n      dup6\n        /* \"#utility.yul\":6188:6210   */\n      add\n        /* \"#utility.yul\":6167:6220   */\n      tag_161\n      jump\t// in\n    tag_257:\n        /* \"#utility.yul\":6157:6220   */\n      swap2\n      pop\n        /* \"#utility.yul\":6113:6230   */\n      pop\n        /* \"#utility.yul\":5908:6237   */\n      swap3\n      swap2\n      pop\n      pop\n      jump\t// out\n        /* \"#utility.yul\":6243:6685   */\n    tag_47:\n        /* \"#utility.yul\":6392:6396   */\n      0x00\n        /* \"#utility.yul\":6430:6432   */\n      0x60\n        /* \"#utility.yul\":6419:6428   */\n      dup3\n        /* \"#utility.yul\":6415:6433   */\n      add\n        /* \"#utility.yul\":6407:6433   */\n      swap1\n      pop\n        /* \"#utility.yul\":6443:6514   */\n      tag_259\n        /* \"#utility.yul\":6511:6512   */\n      0x00\n        /* \"#utility.yul\":6500:6509   */\n      dup4\n        /* \"#utility.yul\":6496:6513   */\n      add\n        /* \"#utility.yul\":6487:6493   */\n      dup7\n        /* \"#utility.yul\":6443:6514   */\n      tag_152\n      jump\t// in\n    tag_259:\n        /* \"#utility.yul\":6524:6596   */\n      tag_260\n        /* \"#utility.yul\":6592:6594   */\n      0x20\n        /* \"#utility.yul\":6581:6590   */\n      dup4\n        /* \"#utility.yul\":6577:6595   */\n      add\n        /* \"#utility.yul\":6568:6574   */\n      dup6\n        /* \"#utility.yul\":6524:6596   */\n      tag_152\n      jump\t// in\n    tag_260:\n        /* \"#utility.yul\":6606:6678   */\n      tag_261\n        /* \"#utility.yul\":6674:6676   */\n      0x40\n        /* \"#utility.yul\":6663:6672   */\n      dup4\n        /* \"#utility.yul\":6659:6677   */\n      add\n        /* \"#utility.yul\":6650:6656   */\n      dup5\n        /* \"#utility.yul\":6606:6678   */\n      tag_152\n      jump\t// in\n    tag_261:\n        /* \"#utility.yul\":6243:6685   */\n      swap5\n      swap4\n      pop\n      pop\n      pop\n      pop\n      jump\t// out\n        /* \"#utility.yul\":6691:6809   */\n    tag_172:\n        /* \"#utility.yul\":6778:6802   */\n      tag_263\n        /* \"#utility.yul\":6796:6801   */\n      dup2\n        /* \"#utility.yul\":6778:6802   */\n      tag_159\n      jump\t// in\n    tag_263:\n        /* \"#utility.yul\":6773:6776   */\n      dup3\n        /* \"#utility.yul\":6766:6803   */\n      mstore\n        /* \"#utility.yul\":6691:6809   */\n      pop\n      pop\n      jump\t// out\n        /* \"#utility.yul\":6815:7037   */\n    tag_51:\n        /* \"#utility.yul\":6908:6912   */\n      0x00\n        /* \"#utility.yul\":6946:6948   */\n      0x20\n        /* \"#utility.yul\":6935:6944   */\n      dup3\n        /* \"#utility.yul\":6931:6949   */\n      add\n        /* \"#utility.yul\":6923:6949   */\n      swap1\n      pop\n        /* \"#utility.yul\":6959:7030   */\n      tag_265\n        /* \"#utility.yul\":7027:7028   */\n      0x00\n        /* \"#utility.yul\":7016:7025   */\n      dup4\n        /* \"#utility.yul\":7012:7029   */\n      add\n        /* \"#utility.yul\":7003:7009   */\n      dup5\n        /* \"#utility.yul\":6959:7030   */\n      tag_172\n      jump\t// in\n    tag_265:\n        /* \"#utility.yul\":6815:7037   */\n      swap3\n      swap2\n      pop\n      pop\n      jump\t// out\n        /* \"#utility.yul\":7043:7808   */\n    tag_57:\n        /* \"#utility.yul\":7129:7135   */\n      0x00\n        /* \"#utility.yul\":7137:7143   */\n      dup1\n        /* \"#utility.yul\":7145:7151   */\n      0x00\n        /* \"#utility.yul\":7153:7159   */\n      dup1\n        /* \"#utility.yul\":7202:7205   */\n      0x80\n        /* \"#utility.yul\":7190:7199   */\n      dup6\n        /* \"#utility.yul\":7181:7188   */\n      dup8\n        /* \"#utility.yul\":7177:7200   */\n      sub\n        /* \"#utility.yul\":7173:7206   */\n      slt\n        /* \"#utility.yul\":7170:7290   */\n      iszero\n      tag_267\n      jumpi\n        /* \"#utility.yul\":7209:7288   */\n      tag_268\n      tag_154\n      jump\t// in\n    tag_268:\n        /* \"#utility.yul\":7170:7290   */\n    tag_267:\n        /* \"#utility.yul\":7329:7330   */\n      0x00\n        /* \"#utility.yul\":7354:7407   */\n      tag_269\n        /* \"#utility.yul\":7399:7406   */\n      dup8\n        /* \"#utility.yul\":7390:7396   */\n      dup3\n        /* \"#utility.yul\":7379:7388   */\n      dup9\n        /* \"#utility.yul\":7375:7397   */\n      add\n        /* \"#utility.yul\":7354:7407   */\n      tag_161\n      jump\t// in\n    tag_269:\n        /* \"#utility.yul\":7344:7407   */\n      swap5\n      pop\n        /* \"#utility.yul\":7300:7417   */\n      pop\n        /* \"#utility.yul\":7456:7458   */\n      0x20\n        /* \"#utility.yul\":7482:7535   */\n      tag_270\n        /* \"#utility.yul\":7527:7534   */\n      dup8\n        /* \"#utility.yul\":7518:7524   */\n      dup3\n        /* \"#utility.yul\":7507:7516   */\n      dup9\n        /* \"#utility.yul\":7503:7525   */\n      add\n        /* \"#utility.yul\":7482:7535   */\n      tag_157\n      jump\t// in\n    tag_270:\n        /* \"#utility.yul\":7472:7535   */\n      swap4\n      pop\n        /* \"#utility.yul\":7427:7545   */\n      pop\n        /* \"#utility.yul\":7584:7586   */\n      0x40\n        /* \"#utility.yul\":7610:7663   */\n      tag_271\n        /* \"#utility.yul\":7655:7662   */\n      dup8\n        /* \"#utility.yul\":7646:7652   */\n      dup3\n        /* \"#utility.yul\":7635:7644   */\n      dup9\n        /* \"#utility.yul\":7631:7653   */\n      add\n        /* \"#utility.yul\":7610:7663   */\n      tag_157\n      jump\t// in\n    tag_271:\n        /* \"#utility.yul\":7600:7663   */\n      swap3\n      pop\n        /* \"#utility.yul\":7555:7673   */\n      pop\n        /* \"#utility.yul\":7712:7714   */\n      0x60\n        /* \"#utility.yul\":7738:7791   */\n      tag_272\n        /* \"#utility.yul\":7783:7790   */\n      dup8\n        /* \"#utility.yul\":7774:7780   */\n      dup3\n        /* \"#utility.yul\":7763:7772   */\n      dup9\n        /* \"#utility.yul\":7759:7781   */\n      add\n        /* \"#utility.yul\":7738:7791   */\n      tag_157\n      jump\t// in\n    tag_272:\n        /* \"#utility.yul\":7728:7791   */\n      swap2\n      pop\n        /* \"#utility.yul\":7683:7801   */\n      pop\n        /* \"#utility.yul\":7043:7808   */\n      swap3\n      swap6\n      swap2\n      swap5\n      pop\n      swap3\n      pop\n      jump\t// out\n        /* \"#utility.yul\":7814:7983   */\n    tag_173:\n        /* \"#utility.yul\":7898:7909   */\n      0x00\n        /* \"#utility.yul\":7932:7938   */\n      dup3\n        /* \"#utility.yul\":7927:7930   */\n      dup3\n        /* \"#utility.yul\":7920:7939   */\n      mstore\n        /* \"#utility.yul\":7972:7976   */\n      0x20\n        /* \"#utility.yul\":7967:7970   */\n      dup3\n        /* \"#utility.yul\":7963:7977   */\n      add\n        /* \"#utility.yul\":7948:7977   */\n      swap1\n      pop\n        /* \"#utility.yul\":7814:7983   */\n      swap3\n      swap2\n      pop\n      pop\n      jump\t// out\n        /* \"#utility.yul\":7989:8160   */\n    tag_174:\n        /* \"#utility.yul\":8129:8152   */\n      0x4c6f616e206973207374696c6c206865616c7468790000000000000000000000\n        /* \"#utility.yul\":8125:8126   */\n      0x00\n        /* \"#utility.yul\":8117:8123   */\n      dup3\n        /* \"#utility.yul\":8113:8127   */\n      add\n        /* \"#utility.yul\":8106:8153   */\n      mstore\n        /* \"#utility.yul\":7989:8160   */\n      pop\n      jump\t// out\n        /* \"#utility.yul\":8166:8532   */\n    tag_175:\n        /* \"#utility.yul\":8308:8311   */\n      0x00\n        /* \"#utility.yul\":8329:8396   */\n      tag_276\n        /* \"#utility.yul\":8393:8395   */\n      0x15\n        /* \"#utility.yul\":8388:8391   */\n      dup4\n        /* \"#utility.yul\":8329:8396   */\n      tag_173\n      jump\t// in\n    tag_276:\n        /* \"#utility.yul\":8322:8396   */\n      swap2\n      pop\n        /* \"#utility.yul\":8405:8498   */\n      tag_277\n        /* \"#utility.yul\":8494:8497   */\n      dup3\n        /* \"#utility.yul\":8405:8498   */\n      tag_174\n      jump\t// in\n    tag_277:\n        /* \"#utility.yul\":8523:8525   */\n      0x20\n        /* \"#utility.yul\":8518:8521   */\n      dup3\n        /* \"#utility.yul\":8514:8526   */\n      add\n        /* \"#utility.yul\":8507:8526   */\n      swap1\n      pop\n        /* \"#utility.yul\":8166:8532   */\n      swap2\n      swap1\n      pop\n      jump\t// out\n        /* \"#utility.yul\":8538:8957   */\n    tag_74:\n        /* \"#utility.yul\":8704:8708   */\n      0x00\n        /* \"#utility.yul\":8742:8744   */\n      0x20\n        /* \"#utility.yul\":8731:8740   */\n      dup3\n        /* \"#utility.yul\":8727:8745   */\n      add\n        /* \"#utility.yul\":8719:8745   */\n      swap1\n      pop\n        /* \"#utility.yul\":8791:8800   */\n      dup2\n        /* \"#utility.yul\":8785:8789   */\n      dup2\n        /* \"#utility.yul\":8781:8801   */\n      sub\n        /* \"#utility.yul\":8777:8778   */\n      0x00\n        /* \"#utility.yul\":8766:8775   */\n      dup4\n        /* \"#utility.yul\":8762:8779   */\n      add\n        /* \"#utility.yul\":8755:8802   */\n      mstore\n        /* \"#utility.yul\":8819:8950   */\n      tag_279\n        /* \"#utility.yul\":8945:8949   */\n      dup2\n        /* \"#utility.yul\":8819:8950   */\n      tag_175\n      jump\t// in\n    tag_279:\n        /* \"#utility.yul\":8811:8950   */\n      swap1\n      pop\n        /* \"#utility.yul\":8538:8957   */\n      swap2\n      swap1\n      pop\n      jump\t// out\n        /* \"#utility.yul\":8963:9143   */\n    tag_176:\n        /* \"#utility.yul\":9011:9088   */\n      0x4e487b7100000000000000000000000000000000000000000000000000000000\n        /* \"#utility.yul\":9008:9009   */\n      0x00\n        /* \"#utility.yul\":9001:9089   */\n      mstore\n        /* \"#utility.yul\":9108:9112   */\n      0x11\n        /* \"#utility.yul\":9105:9106   */\n      0x04\n        /* \"#utility.yul\":9098:9113   */\n      mstore\n        /* \"#utility.yul\":9132:9136   */\n      0x24\n        /* \"#utility.yul\":9129:9130   */\n      0x00\n        /* \"#utility.yul\":9122:9137   */\n      revert\n        /* \"#utility.yul\":9149:9559   */\n    tag_77:\n        /* \"#utility.yul\":9189:9196   */\n      0x00\n        /* \"#utility.yul\":9212:9232   */\n      tag_282\n        /* \"#utility.yul\":9230:9231   */\n      dup3\n        /* \"#utility.yul\":9212:9232   */\n      tag_151\n      jump\t// in\n    tag_282:\n        /* \"#utility.yul\":9207:9232   */\n      swap2\n      pop\n        /* \"#utility.yul\":9246:9266   */\n      tag_283\n        /* \"#utility.yul\":9264:9265   */\n      dup4\n        /* \"#utility.yul\":9246:9266   */\n      tag_151\n      jump\t// in\n    tag_283:\n        /* \"#utility.yul\":9241:9266   */\n      swap3\n      pop\n        /* \"#utility.yul\":9301:9302   */\n      dup3\n        /* \"#utility.yul\":9298:9299   */\n      dup3\n        /* \"#utility.yul\":9294:9303   */\n      mul\n        /* \"#utility.yul\":9323:9353   */\n      tag_284\n        /* \"#utility.yul\":9341:9352   */\n      dup2\n        /* \"#utility.yul\":9323:9353   */\n      tag_151\n      jump\t// in\n    tag_284:\n        /* \"#utility.yul\":9312:9353   */\n      swap2\n      pop\n        /* \"#utility.yul\":9502:9503   */\n      dup3\n        /* \"#utility.yul\":9493:9500   */\n      dup3\n        /* \"#utility.yul\":9489:9504   */\n      div\n        /* \"#utility.yul\":9486:9487   */\n      dup5\n        /* \"#utility.yul\":9483:9505   */\n      eq\n        /* \"#utility.yul\":9463:9464   */\n      dup4\n        /* \"#utility.yul\":9456:9465   */\n      iszero\n        /* \"#utility.yul\":9436:9519   */\n      or\n        /* \"#utility.yul\":9413:9552   */\n      tag_285\n      jumpi\n        /* \"#utility.yul\":9532:9550   */\n      tag_286\n      tag_176\n      jump\t// in\n    tag_286:\n        /* \"#utility.yul\":9413:9552   */\n    tag_285:\n        /* \"#utility.yul\":9197:9559   */\n      pop\n        /* \"#utility.yul\":9149:9559   */\n      swap3\n      swap2\n      pop\n      pop\n      jump\t// out\n        /* \"#utility.yul\":9565:9745   */\n    tag_177:\n        /* \"#utility.yul\":9613:9690   */\n      0x4e487b7100000000000000000000000000000000000000000000000000000000\n        /* \"#utility.yul\":9610:9611   */\n      0x00\n        /* \"#utility.yul\":9603:9691   */\n      mstore\n        /* \"#utility.yul\":9710:9714   */\n      0x12\n        /* \"#utility.yul\":9707:9708   */\n      0x04\n        /* \"#utility.yul\":9700:9715   */\n      mstore\n        /* \"#utility.yul\":9734:9738   */\n      0x24\n        /* \"#utility.yul\":9731:9732   */\n      0x00\n        /* \"#utility.yul\":9724:9739   */\n      revert\n        /* \"#utility.yul\":9751:9936   */\n    tag_79:\n        /* \"#utility.yul\":9791:9792   */\n      0x00\n        /* \"#utility.yul\":9808:9828   */\n      tag_289\n        /* \"#utility.yul\":9826:9827   */\n      dup3\n        /* \"#utility.yul\":9808:9828   */\n      tag_151\n      jump\t// in\n    tag_289:\n        /* \"#utility.yul\":9803:9828   */\n      swap2\n      pop\n        /* \"#utility.yul\":9842:9862   */\n      tag_290\n        /* \"#utility.yul\":9860:9861   */\n      dup4\n        /* \"#utility.yul\":9842:9862   */\n      tag_151\n      jump\t// in\n    tag_290:\n        /* \"#utility.yul\":9837:9862   */\n      swap3\n      pop\n        /* \"#utility.yul\":9881:9882   */\n      dup3\n        /* \"#utility.yul\":9871:9906   */\n      tag_291\n      jumpi\n        /* \"#utility.yul\":9886:9904   */\n      tag_292\n      tag_177\n      jump\t// in\n    tag_292:\n        /* \"#utility.yul\":9871:9906   */\n    tag_291:\n        /* \"#utility.yul\":9928:9929   */\n      dup3\n        /* \"#utility.yul\":9925:9926   */\n      dup3\n        /* \"#utility.yul\":9921:9930   */\n      div\n        /* \"#utility.yul\":9916:9930   */\n      swap1\n      pop\n        /* \"#utility.yul\":9751:9936   */\n      swap3\n      swap2\n      pop\n      pop\n      jump\t// out\n        /* \"#utility.yul\":9942:10133   */\n    tag_86:\n        /* \"#utility.yul\":9982:9985   */\n      0x00\n        /* \"#utility.yul\":10001:10021   */\n      tag_294\n        /* \"#utility.yul\":10019:10020   */\n      dup3\n        /* \"#utility.yul\":10001:10021   */\n      tag_151\n      jump\t// in\n    tag_294:\n        /* \"#utility.yul\":9996:10021   */\n      swap2\n      pop\n        /* \"#utility.yul\":10035:10055   */\n      tag_295\n        /* \"#utility.yul\":10053:10054   */\n      dup4\n        /* \"#utility.yul\":10035:10055   */\n      tag_151\n      jump\t// in\n    tag_295:\n        /* \"#utility.yul\":10030:10055   */\n      swap3\n      pop\n        /* \"#utility.yul\":10078:10079   */\n      dup3\n        /* \"#utility.yul\":10075:10076   */\n      dup3\n        /* \"#utility.yul\":10071:10080   */\n      add\n        /* \"#utility.yul\":10064:10080   */\n      swap1\n      pop\n        /* \"#utility.yul\":10099:10102   */\n      dup1\n        /* \"#utility.yul\":10096:10097   */\n      dup3\n        /* \"#utility.yul\":10093:10103   */\n      gt\n        /* \"#utility.yul\":10090:10126   */\n      iszero\n      tag_296\n      jumpi\n        /* \"#utility.yul\":10106:10124   */\n      tag_297\n      tag_176\n      jump\t// in\n    tag_297:\n        /* \"#utility.yul\":10090:10126   */\n    tag_296:\n        /* \"#utility.yul\":9942:10133   */\n      swap3\n      swap2\n      pop\n      pop\n      jump\t// out\n        /* \"#utility.yul\":10139:10333   */\n    tag_88:\n        /* \"#utility.yul\":10179:10183   */\n      0x00\n        /* \"#utility.yul\":10199:10219   */\n      tag_299\n        /* \"#utility.yul\":10217:10218   */\n      dup3\n        /* \"#utility.yul\":10199:10219   */\n      tag_151\n      jump\t// in\n    tag_299:\n        /* \"#utility.yul\":10194:10219   */\n      swap2\n      pop\n        /* \"#utility.yul\":10233:10253   */\n      tag_300\n        /* \"#utility.yul\":10251:10252   */\n      dup4\n        /* \"#utility.yul\":10233:10253   */\n      tag_151\n      jump\t// in\n    tag_300:\n        /* \"#utility.yul\":10228:10253   */\n      swap3\n      pop\n        /* \"#utility.yul\":10277:10278   */\n      dup3\n        /* \"#utility.yul\":10274:10275   */\n      dup3\n        /* \"#utility.yul\":10270:10279   */\n      sub\n        /* \"#utility.yul\":10262:10279   */\n      swap1\n      pop\n        /* \"#utility.yul\":10301:10302   */\n      dup2\n        /* \"#utility.yul\":10295:10299   */\n      dup2\n        /* \"#utility.yul\":10292:10303   */\n      gt\n        /* \"#utility.yul\":10289:10326   */\n      iszero\n      tag_301\n      jumpi\n        /* \"#utility.yul\":10306:10324   */\n      tag_302\n      tag_176\n      jump\t// in\n    tag_302:\n        /* \"#utility.yul\":10289:10326   */\n    tag_301:\n        /* \"#utility.yul\":10139:10333   */\n      swap3\n      swap2\n      pop\n      pop\n      jump\t// out\n        /* \"#utility.yul\":10339:10560   */\n    tag_178:\n        /* \"#utility.yul\":10479:10513   */\n      0x4e6f7420656e6f75676820636f6c6c61746572616c20746f206c697175696461\n        /* \"#utility.yul\":10475:10476   */\n      0x00\n        /* \"#utility.yul\":10467:10473   */\n      dup3\n        /* \"#utility.yul\":10463:10477   */\n      add\n        /* \"#utility.yul\":10456:10514   */\n      mstore\n        /* \"#utility.yul\":10548:10552   */\n      0x7465000000000000000000000000000000000000000000000000000000000000\n        /* \"#utility.yul\":10543:10545   */\n      0x20\n        /* \"#utility.yul\":10535:10541   */\n      dup3\n        /* \"#utility.yul\":10531:10546   */\n      add\n        /* \"#utility.yul\":10524:10553   */\n      mstore\n        /* \"#utility.yul\":10339:10560   */\n      pop\n      jump\t// out\n        /* \"#utility.yul\":10566:10932   */\n    tag_179:\n        /* \"#utility.yul\":10708:10711   */\n      0x00\n        /* \"#utility.yul\":10729:10796   */\n      tag_305\n        /* \"#utility.yul\":10793:10795   */\n      0x22\n        /* \"#utility.yul\":10788:10791   */\n      dup4\n        /* \"#utility.yul\":10729:10796   */\n      tag_173\n      jump\t// in\n    tag_305:\n        /* \"#utility.yul\":10722:10796   */\n      swap2\n      pop\n        /* \"#utility.yul\":10805:10898   */\n      tag_306\n        /* \"#utility.yul\":10894:10897   */\n      dup3\n        /* \"#utility.yul\":10805:10898   */\n      tag_178\n      jump\t// in\n    tag_306:\n        /* \"#utility.yul\":10923:10925   */\n      0x40\n        /* \"#utility.yul\":10918:10921   */\n      dup3\n        /* \"#utility.yul\":10914:10926   */\n      add\n        /* \"#utility.yul\":10907:10926   */\n      swap1\n      pop\n        /* \"#utility.yul\":10566:10932   */\n      swap2\n      swap1\n      pop\n      jump\t// out\n        /* \"#utility.yul\":10938:11357   */\n    tag_101:\n        /* \"#utility.yul\":11104:11108   */\n      0x00\n        /* \"#utility.yul\":11142:11144   */\n      0x20\n        /* \"#utility.yul\":11131:11140   */\n      dup3\n        /* \"#utility.yul\":11127:11145   */\n      add\n        /* \"#utility.yul\":11119:11145   */\n      swap1\n      pop\n        /* \"#utility.yul\":11191:11200   */\n      dup2\n        /* \"#utility.yul\":11185:11189   */\n      dup2\n        /* \"#utility.yul\":11181:11201   */\n      sub\n        /* \"#utility.yul\":11177:11178   */\n      0x00\n        /* \"#utility.yul\":11166:11175   */\n      dup4\n        /* \"#utility.yul\":11162:11179   */\n      add\n        /* \"#utility.yul\":11155:11202   */\n      mstore\n        /* \"#utility.yul\":11219:11350   */\n      tag_308\n        /* \"#utility.yul\":11345:11349   */\n      dup2\n        /* \"#utility.yul\":11219:11350   */\n      tag_179\n      jump\t// in\n    tag_308:\n        /* \"#utility.yul\":11211:11350   */\n      swap1\n      pop\n        /* \"#utility.yul\":10938:11357   */\n      swap2\n      swap1\n      pop\n      jump\t// out\n        /* \"#utility.yul\":11363:11805   */\n    tag_105:\n        /* \"#utility.yul\":11512:11516   */\n      0x00\n        /* \"#utility.yul\":11550:11552   */\n      0x60\n        /* \"#utility.yul\":11539:11548   */\n      dup3\n        /* \"#utility.yul\":11535:11553   */\n      add\n        /* \"#utility.yul\":11527:11553   */\n      swap1\n      pop\n        /* \"#utility.yul\":11563:11634   */\n      tag_310\n        /* \"#utility.yul\":11631:11632   */\n      0x00\n        /* \"#utility.yul\":11620:11629   */\n      dup4\n        /* \"#utility.yul\":11616:11633   */\n      add\n        /* \"#utility.yul\":11607:11613   */\n      dup7\n        /* \"#utility.yul\":11563:11634   */\n      tag_172\n      jump\t// in\n    tag_310:\n        /* \"#utility.yul\":11644:11716   */\n      tag_311\n        /* \"#utility.yul\":11712:11714   */\n      0x20\n        /* \"#utility.yul\":11701:11710   */\n      dup4\n        /* \"#utility.yul\":11697:11715   */\n      add\n        /* \"#utility.yul\":11688:11694   */\n      dup6\n        /* \"#utility.yul\":11644:11716   */\n      tag_152\n      jump\t// in\n    tag_311:\n        /* \"#utility.yul\":11726:11798   */\n      tag_312\n        /* \"#utility.yul\":11794:11796   */\n      0x40\n        /* \"#utility.yul\":11783:11792   */\n      dup4\n        /* \"#utility.yul\":11779:11797   */\n      add\n        /* \"#utility.yul\":11770:11776   */\n      dup5\n        /* \"#utility.yul\":11726:11798   */\n      tag_152\n      jump\t// in\n    tag_312:\n        /* \"#utility.yul\":11363:11805   */\n      swap5\n      swap4\n      pop\n      pop\n      pop\n      pop\n      jump\t// out\n        /* \"#utility.yul\":11811:12036   */\n    tag_180:\n        /* \"#utility.yul\":11951:11985   */\n      0x496e76616c696420617373657420747970653a20557365202745544827206f72\n        /* \"#utility.yul\":11947:11948   */\n      0x00\n        /* \"#utility.yul\":11939:11945   */\n      dup3\n        /* \"#utility.yul\":11935:11949   */\n      add\n        /* \"#utility.yul\":11928:11986   */\n      mstore\n        /* \"#utility.yul\":12020:12028   */\n      0x2027415853270000000000000000000000000000000000000000000000000000\n        /* \"#utility.yul\":12015:12017   */\n      0x20\n        /* \"#utility.yul\":12007:12013   */\n      dup3\n        /* \"#utility.yul\":12003:12018   */\n      add\n        /* \"#utility.yul\":11996:12029   */\n      mstore\n        /* \"#utility.yul\":11811:12036   */\n      pop\n      jump\t// out\n        /* \"#utility.yul\":12042:12408   */\n    tag_181:\n        /* \"#utility.yul\":12184:12187   */\n      0x00\n        /* \"#utility.yul\":12205:12272   */\n      tag_315\n        /* \"#utility.yul\":12269:12271   */\n      0x26\n        /* \"#utility.yul\":12264:12267   */\n      dup4\n        /* \"#utility.yul\":12205:12272   */\n      tag_173\n      jump\t// in\n    tag_315:\n        /* \"#utility.yul\":12198:12272   */\n      swap2\n      pop\n        /* \"#utility.yul\":12281:12374   */\n      tag_316\n        /* \"#utility.yul\":12370:12373   */\n      dup3\n        /* \"#utility.yul\":12281:12374   */\n      tag_180\n      jump\t// in\n    tag_316:\n        /* \"#utility.yul\":12399:12401   */\n      0x40\n        /* \"#utility.yul\":12394:12397   */\n      dup3\n        /* \"#utility.yul\":12390:12402   */\n      add\n        /* \"#utility.yul\":12383:12402   */\n      swap1\n      pop\n        /* \"#utility.yul\":12042:12408   */\n      swap2\n      swap1\n      pop\n      jump\t// out\n        /* \"#utility.yul\":12414:12833   */\n    tag_131:\n        /* \"#utility.yul\":12580:12584   */\n      0x00\n        /* \"#utility.yul\":12618:12620   */\n      0x20\n        /* \"#utility.yul\":12607:12616   */\n      dup3\n        /* \"#utility.yul\":12603:12621   */\n      add\n        /* \"#utility.yul\":12595:12621   */\n      swap1\n      pop\n        /* \"#utility.yul\":12667:12676   */\n      dup2\n        /* \"#utility.yul\":12661:12665   */\n      dup2\n        /* \"#utility.yul\":12657:12677   */\n      sub\n        /* \"#utility.yul\":12653:12654   */\n      0x00\n        /* \"#utility.yul\":12642:12651   */\n      dup4\n        /* \"#utility.yul\":12638:12655   */\n      add\n        /* \"#utility.yul\":12631:12678   */\n      mstore\n        /* \"#utility.yul\":12695:12826   */\n      tag_318\n        /* \"#utility.yul\":12821:12825   */\n      dup2\n        /* \"#utility.yul\":12695:12826   */\n      tag_181\n      jump\t// in\n    tag_318:\n        /* \"#utility.yul\":12687:12826   */\n      swap1\n      pop\n        /* \"#utility.yul\":12414:12833   */\n      swap2\n      swap1\n      pop\n      jump\t// out\n        /* \"#utility.yul\":12839:13013   */\n    tag_182:\n        /* \"#utility.yul\":12979:13005   */\n      0x4f6e6c79206f776e65722063616e20616464206c6f616e730000000000000000\n        /* \"#utility.yul\":12975:12976   */\n      0x00\n        /* \"#utility.yul\":12967:12973   */\n      dup3\n        /* \"#utility.yul\":12963:12977   */\n      add\n        /* \"#utility.yul\":12956:13006   */\n      mstore\n        /* \"#utility.yul\":12839:13013   */\n      pop\n      jump\t// out\n        /* \"#utility.yul\":13019:13385   */\n    tag_183:\n        /* \"#utility.yul\":13161:13164   */\n      0x00\n        /* \"#utility.yul\":13182:13249   */\n      tag_321\n        /* \"#utility.yul\":13246:13248   */\n      0x18\n        /* \"#utility.yul\":13241:13244   */\n      dup4\n        /* \"#utility.yul\":13182:13249   */\n      tag_173\n      jump\t// in\n    tag_321:\n        /* \"#utility.yul\":13175:13249   */\n      swap2\n      pop\n        /* \"#utility.yul\":13258:13351   */\n      tag_322\n        /* \"#utility.yul\":13347:13350   */\n      dup3\n        /* \"#utility.yul\":13258:13351   */\n      tag_182\n      jump\t// in\n    tag_322:\n        /* \"#utility.yul\":13376:13378   */\n      0x20\n        /* \"#utility.yul\":13371:13374   */\n      dup3\n        /* \"#utility.yul\":13367:13379   */\n      add\n        /* \"#utility.yul\":13360:13379   */\n      swap1\n      pop\n        /* \"#utility.yul\":13019:13385   */\n      swap2\n      swap1\n      pop\n      jump\t// out\n        /* \"#utility.yul\":13391:13810   */\n    tag_135:\n        /* \"#utility.yul\":13557:13561   */\n      0x00\n        /* \"#utility.yul\":13595:13597   */\n      0x20\n        /* \"#utility.yul\":13584:13593   */\n      dup3\n        /* \"#utility.yul\":13580:13598   */\n      add\n        /* \"#utility.yul\":13572:13598   */\n      swap1\n      pop\n        /* \"#utility.yul\":13644:13653   */\n      dup2\n        /* \"#utility.yul\":13638:13642   */\n      dup2\n        /* \"#utility.yul\":13634:13654   */\n      sub\n        /* \"#utility.yul\":13630:13631   */\n      0x00\n        /* \"#utility.yul\":13619:13628   */\n      dup4\n        /* \"#utility.yul\":13615:13632   */\n      add\n        /* \"#utility.yul\":13608:13655   */\n      mstore\n        /* \"#utility.yul\":13672:13803   */\n      tag_324\n        /* \"#utility.yul\":13798:13802   */\n      dup2\n        /* \"#utility.yul\":13672:13803   */\n      tag_183\n      jump\t// in\n    tag_324:\n        /* \"#utility.yul\":13664:13803   */\n      swap1\n      pop\n        /* \"#utility.yul\":13391:13810   */\n      swap2\n      swap1\n      pop\n      jump\t// out\n        /* \"#utility.yul\":13816:14369   */\n    tag_150:\n        /* \"#utility.yul\":13993:13997   */\n      0x00\n        /* \"#utility.yul\":14031:14034   */\n      0x80\n        /* \"#utility.yul\":14020:14029   */\n      dup3\n        /* \"#utility.yul\":14016:14035   */\n      add\n        /* \"#utility.yul\":14008:14035   */\n      swap1\n      pop\n        /* \"#utility.yul\":14045:14116   */\n      tag_326\n        /* \"#utility.yul\":14113:14114   */\n      0x00\n        /* \"#utility.yul\":14102:14111   */\n      dup4\n        /* \"#utility.yul\":14098:14115   */\n      add\n        /* \"#utility.yul\":14089:14095   */\n      dup8\n        /* \"#utility.yul\":14045:14116   */\n      tag_172\n      jump\t// in\n    tag_326:\n        /* \"#utility.yul\":14126:14198   */\n      tag_327\n        /* \"#utility.yul\":14194:14196   */\n      0x20\n        /* \"#utility.yul\":14183:14192   */\n      dup4\n        /* \"#utility.yul\":14179:14197   */\n      add\n        /* \"#utility.yul\":14170:14176   */\n      dup7\n        /* \"#utility.yul\":14126:14198   */\n      tag_152\n      jump\t// in\n    tag_327:\n        /* \"#utility.yul\":14208:14280   */\n      tag_328\n        /* \"#utility.yul\":14276:14278   */\n      0x40\n        /* \"#utility.yul\":14265:14274   */\n      dup4\n        /* \"#utility.yul\":14261:14279   */\n      add\n        /* \"#utility.yul\":14252:14258   */\n      dup6\n        /* \"#utility.yul\":14208:14280   */\n      tag_152\n      jump\t// in\n    tag_328:\n        /* \"#utility.yul\":14290:14362   */\n      tag_329\n        /* \"#utility.yul\":14358:14360   */\n      0x60\n        /* \"#utility.yul\":14347:14356   */\n      dup4\n        /* \"#utility.yul\":14343:14361   */\n      add\n        /* \"#utility.yul\":14334:14340   */\n      dup5\n        /* \"#utility.yul\":14290:14362   */\n      tag_152\n      jump\t// in\n    tag_329:\n        /* \"#utility.yul\":13816:14369   */\n      swap6\n      swap5\n      pop\n      pop\n      pop\n      pop\n      pop\n      jump\t// out\n\n    auxdata: 0xa2646970667358221220ba1d2af5b7ab082533bd14016e8649184585f0b9c3c4c5b90f636ee414aa8de064736f6c634300081a0033\n}\n",
				"bytecode": {
					"linkReferences": {},
					"object": "6080604052605a600255605060035560466004556105dc60055560646006553480156028575f80fd5b50335f806101000a81548173ffffffffffffffffffffffffffffffffffffffff021916908373ffffffffffffffffffffffffffffffffffffffff160217905550611298806100755f395ff3fe608060405234801561000f575f80fd5b50600436106100cd575f3560e01c806373b4086b1161008a578063ad24a33611610064578063ad24a33614610202578063c56e40971461021e578063f894ea861461023c578063fe6bcd7c14610258576100cd565b806373b4086b146101945780638da5cb5b146101c65780639b923cc9146101e4576100cd565b806304632a66146100d157806311c9c304146100ef5780631f71462e1461010d5780632e2951cd146101295780634bfa16e91461014557806355de75a914610163575b5f80fd5b6100d9610288565b6040516100e69190610acf565b60405180910390f35b6100f761028e565b6040516101049190610acf565b60405180910390f35b61012760048036038101906101229190610b23565b610294565b005b610143600480360381019061013e9190610ce4565b61029e565b005b61014d61053a565b60405161015a9190610acf565b60405180910390f35b61017d60048036038101906101789190610d50565b610540565b60405161018b929190610daa565b60405180910390f35b6101ae60048036038101906101a99190610dd1565b6107c9565b6040516101bd93929190610dfc565b60405180910390f35b6101ce6107ef565b6040516101db9190610e40565b60405180910390f35b6101ec610812565b6040516101f99190610acf565b60405180910390f35b61021c60048036038101906102179190610e59565b610818565b005b610226610922565b6040516102339190610acf565b60405180910390f35b61025660048036038101906102519190610b23565b610928565b005b610272600480360381019061026d9190610dd1565b610932565b60405161027f9190610acf565b60405180910390f35b60065481565b60035481565b8060068190555050565b60646102a984610932565b106102e9576040517f08c379a00000000000000000000000000000000000000000000000000000000081526004016102e090610f17565b60405180910390fd5b5f60015f8573ffffffffffffffffffffffffffffffffffffffff1673ffffffffffffffffffffffffffffffffffffffff1681526020019081526020015f2090505f806040518060400160405280600381526020017f45544800000000000000000000000000000000000000000000000000000000008152508051906020012085805190602001200361045c575f6064845f01546002546103899190610f62565b6103939190610fd0565b620f424060055460065487600201546103ac9190610f62565b6103b69190610f62565b6103c09190610fd0565b6103e860055487600101546103d59190610f62565b6103df9190610fd0565b6103e99190611000565b6103f39190611033565b90505f6064866002546104069190610f62565b6104109190610fd0565b60055461041d9190611033565b9050806103e88361042e9190610f62565b6104389190610fd0565b93506103e886856104499190610f62565b6104539190610fd0565b9250505061047e565b6002836001015461046d9190610fd0565b9150838261047b9190610f62565b90505b80835f015410156104c4576040517f08c379a00000000000000000000000000000000000000000000000000000000081526004016104bb906110d6565b60405180910390fd5b80835f015f8282546104d69190611033565b9250508190555081836001015f8282546104f09190611033565b925050819055507f09c223cfcd8c93e245f558f5f8de755fc0930fd9bc257441155ef5d54a170e0f86828460405161052a939291906110f4565b60405180910390a1505050505050565b60045481565b5f805f60015f8673ffffffffffffffffffffffffffffffffffffffff1673ffffffffffffffffffffffffffffffffffffffff1681526020019081526020015f206040518060600160405290815f82015481526020016001820154815260200160028201548152505090505f815f015190505f826020015190505f836040015190505f620f4240600554600654846105d79190610f62565b6105e19190610f62565b6105eb9190610fd0565b600554846105f99190610f62565b6106039190611000565b90505f6064600254866106169190610f62565b6106209190610fd0565b905080821161063a575f80975097505050505050506107c2565b5f81836106479190611033565b90506040518060400160405280600381526020017f4554480000000000000000000000000000000000000000000000000000000000815250805190602001208a80519060200120036106d457600554620f4240826106a59190610f62565b6106af9190610fd0565b9750620f4240600554896106c39190610f62565b6106cd9190610fd0565b98506107ba565b6040518060400160405280600381526020017f4158530000000000000000000000000000000000000000000000000000000000815250805190602001208a805190602001200361077e575f60055460065461072f9190610f62565b620f42408361073e9190610f62565b6107489190610fd0565b9050809850620f42406005546006548b6107629190610f62565b61076c9190610f62565b6107769190610fd0565b9950506107b9565b6040517f08c379a00000000000000000000000000000000000000000000000000000000081526004016107b090611199565b60405180910390fd5b5b505050505050505b9250929050565b6001602052805f5260405f205f91509050805f0154908060010154908060020154905083565b5f8054906101000a900473ffffffffffffffffffffffffffffffffffffffff1681565b60055481565b5f8054906101000a900473ffffffffffffffffffffffffffffffffffffffff1673ffffffffffffffffffffffffffffffffffffffff163373ffffffffffffffffffffffffffffffffffffffff16146108a5576040517f08c379a000000000000000000000000000000000000000000000000000000000815260040161089c90611201565b60405180910390fd5b60405180606001604052808481526020018381526020018281525060015f8673ffffffffffffffffffffffffffffffffffffffff1673ffffffffffffffffffffffffffffffffffffffff1681526020019081526020015f205f820151815f0155602082015181600101556040820151816002015590505050505050565b60025481565b8060058190555050565b5f8060015f8473ffffffffffffffffffffffffffffffffffffffff1673ffffffffffffffffffffffffffffffffffffffff1681526020019081526020015f206040518060600160405290815f82015481526020016001820154815260200160028201548152505090505f6064600254835f01516109af9190610f62565b6109b99190610fd0565b90505f6103e860055484602001516109d19190610f62565b6109db9190610fd0565b90505f620186a060055460065486604001516109f79190610f62565b610a019190610f62565b610a0b9190610fd0565b90505f8183610a1a9190611000565b90505f8103610a50577fffffffffffffffffffffffffffffffffffffffffffffffffffffffffffffffff95505050505050610ab2565b5f81606486610a5f9190610f62565b610a699190610fd0565b90507f96df9b99931636b730287949d80832331a9fd2fd69bc2bb6ce2145403af8068888868484604051610aa0949392919061121f565b60405180910390a18096505050505050505b919050565b5f819050919050565b610ac981610ab7565b82525050565b5f602082019050610ae25f830184610ac0565b92915050565b5f604051905090565b5f80fd5b5f80fd5b610b0281610ab7565b8114610b0c575f80fd5b50565b5f81359050610b1d81610af9565b92915050565b5f60208284031215610b3857610b37610af1565b5b5f610b4584828501610b0f565b91505092915050565b5f73ffffffffffffffffffffffffffffffffffffffff82169050919050565b5f610b7782610b4e565b9050919050565b610b8781610b6d565b8114610b91575f80fd5b50565b5f81359050610ba281610b7e565b92915050565b5f80fd5b5f80fd5b5f601f19601f8301169050919050565b7f4e487b71000000000000000000000000000000000000000000000000000000005f52604160045260245ffd5b610bf682610bb0565b810181811067ffffffffffffffff82111715610c1557610c14610bc0565b5b80604052505050565b5f610c27610ae8565b9050610c338282610bed565b919050565b5f67ffffffffffffffff821115610c5257610c51610bc0565b5b610c5b82610bb0565b9050602081019050919050565b828183375f83830152505050565b5f610c88610c8384610c38565b610c1e565b905082815260208101848484011115610ca457610ca3610bac565b5b610caf848285610c68565b509392505050565b5f82601f830112610ccb57610cca610ba8565b5b8135610cdb848260208601610c76565b91505092915050565b5f805f60608486031215610cfb57610cfa610af1565b5b5f610d0886828701610b94565b935050602084013567ffffffffffffffff811115610d2957610d28610af5565b5b610d3586828701610cb7565b9250506040610d4686828701610b0f565b9150509250925092565b5f8060408385031215610d6657610d65610af1565b5b5f610d7385828601610b94565b925050602083013567ffffffffffffffff811115610d9457610d93610af5565b5b610da085828601610cb7565b9150509250929050565b5f604082019050610dbd5f830185610ac0565b610dca6020830184610ac0565b9392505050565b5f60208284031215610de657610de5610af1565b5b5f610df384828501610b94565b91505092915050565b5f606082019050610e0f5f830186610ac0565b610e1c6020830185610ac0565b610e296040830184610ac0565b949350505050565b610e3a81610b6d565b82525050565b5f602082019050610e535f830184610e31565b92915050565b5f805f8060808587031215610e7157610e70610af1565b5b5f610e7e87828801610b94565b9450506020610e8f87828801610b0f565b9350506040610ea087828801610b0f565b9250506060610eb187828801610b0f565b91505092959194509250565b5f82825260208201905092915050565b7f4c6f616e206973207374696c6c206865616c74687900000000000000000000005f82015250565b5f610f01601583610ebd565b9150610f0c82610ecd565b602082019050919050565b5f6020820190508181035f830152610f2e81610ef5565b9050919050565b7f4e487b71000000000000000000000000000000000000000000000000000000005f52601160045260245ffd5b5f610f6c82610ab7565b9150610f7783610ab7565b9250828202610f8581610ab7565b91508282048414831517610f9c57610f9b610f35565b5b5092915050565b7f4e487b71000000000000000000000000000000000000000000000000000000005f52601260045260245ffd5b5f610fda82610ab7565b9150610fe583610ab7565b925082610ff557610ff4610fa3565b5b828204905092915050565b5f61100a82610ab7565b915061101583610ab7565b925082820190508082111561102d5761102c610f35565b5b92915050565b5f61103d82610ab7565b915061104883610ab7565b92508282039050818111156110605761105f610f35565b5b92915050565b7f4e6f7420656e6f75676820636f6c6c61746572616c20746f206c6971756964615f8201527f7465000000000000000000000000000000000000000000000000000000000000602082015250565b5f6110c0602283610ebd565b91506110cb82611066565b604082019050919050565b5f6020820190508181035f8301526110ed816110b4565b9050919050565b5f6060820190506111075f830186610e31565b6111146020830185610ac0565b6111216040830184610ac0565b949350505050565b7f496e76616c696420617373657420747970653a20557365202745544827206f725f8201527f2027415853270000000000000000000000000000000000000000000000000000602082015250565b5f611183602683610ebd565b915061118e82611129565b604082019050919050565b5f6020820190508181035f8301526111b081611177565b9050919050565b7f4f6e6c79206f776e65722063616e20616464206c6f616e7300000000000000005f82015250565b5f6111eb601883610ebd565b91506111f6826111b7565b602082019050919050565b5f6020820190508181035f830152611218816111df565b9050919050565b5f6080820190506112325f830187610e31565b61123f6020830186610ac0565b61124c6040830185610ac0565b6112596060830184610ac0565b9594505050505056fea2646970667358221220ba1d2af5b7ab082533bd14016e8649184585f0b9c3c4c5b90f636ee414aa8de064736f6c634300081a0033",
					"opcodes": "PUSH1 0x80 PUSH1 0x40 MSTORE PUSH1 0x5A PUSH1 0x2 SSTORE PUSH1 0x50 PUSH1 0x3 SSTORE PUSH1 0x46 PUSH1 0x4 SSTORE PUSH2 0x5DC PUSH1 0x5 SSTORE PUSH1 0x64 PUSH1 0x6 SSTORE CALLVALUE DUP1 ISZERO PUSH1 0x28 JUMPI PUSH0 DUP1 REVERT JUMPDEST POP CALLER PUSH0 DUP1 PUSH2 0x100 EXP DUP2 SLOAD DUP2 PUSH20 0xFFFFFFFFFFFFFFFFFFFFFFFFFFFFFFFFFFFFFFFF MUL NOT AND SWAP1 DUP4 PUSH20 0xFFFFFFFFFFFFFFFFFFFFFFFFFFFFFFFFFFFFFFFF AND MUL OR SWAP1 SSTORE POP PUSH2 0x1298 DUP1 PUSH2 0x75 PUSH0 CODECOPY PUSH0 RETURN INVALID PUSH1 0x80 PUSH1 0x40 MSTORE CALLVALUE DUP1 ISZERO PUSH2 0xF JUMPI PUSH0 DUP1 REVERT JUMPDEST POP PUSH1 0x4 CALLDATASIZE LT PUSH2 0xCD JUMPI PUSH0 CALLDATALOAD PUSH1 0xE0 SHR DUP1 PUSH4 0x73B4086B GT PUSH2 0x8A JUMPI DUP1 PUSH4 0xAD24A336 GT PUSH2 0x64 JUMPI DUP1 PUSH4 0xAD24A336 EQ PUSH2 0x202 JUMPI DUP1 PUSH4 0xC56E4097 EQ PUSH2 0x21E JUMPI DUP1 PUSH4 0xF894EA86 EQ PUSH2 0x23C JUMPI DUP1 PUSH4 0xFE6BCD7C EQ PUSH2 0x258 JUMPI PUSH2 0xCD JUMP JUMPDEST DUP1 PUSH4 0x73B4086B EQ PUSH2 0x194 JUMPI DUP1 PUSH4 0x8DA5CB5B EQ PUSH2 0x1C6 JUMPI DUP1 PUSH4 0x9B923CC9 EQ PUSH2 0x1E4 JUMPI PUSH2 0xCD JUMP JUMPDEST DUP1 PUSH4 0x4632A66 EQ PUSH2 0xD1 JUMPI DUP1 PUSH4 0x11C9C304 EQ PUSH2 0xEF JUMPI DUP1 PUSH4 0x1F71462E EQ PUSH2 0x10D JUMPI DUP1 PUSH4 0x2E2951CD EQ PUSH2 0x129 JUMPI DUP1 PUSH4 0x4BFA16E9 EQ PUSH2 0x145 JUMPI DUP1 PUSH4 0x55DE75A9 EQ PUSH2 0x163 JUMPI JUMPDEST PUSH0 DUP1 REVERT JUMPDEST PUSH2 0xD9 PUSH2 0x288 JUMP JUMPDEST PUSH1 0x40 MLOAD PUSH2 0xE6 SWAP2 SWAP1 PUSH2 0xACF JUMP JUMPDEST PUSH1 0x40 MLOAD DUP1 SWAP2 SUB SWAP1 RETURN JUMPDEST PUSH2 0xF7 PUSH2 0x28E JUMP JUMPDEST PUSH1 0x40 MLOAD PUSH2 0x104 SWAP2 SWAP1 PUSH2 0xACF JUMP JUMPDEST PUSH1 0x40 MLOAD DUP1 SWAP2 SUB SWAP1 RETURN JUMPDEST PUSH2 0x127 PUSH1 0x4 DUP1 CALLDATASIZE SUB DUP2 ADD SWAP1 PUSH2 0x122 SWAP2 SWAP1 PUSH2 0xB23 JUMP JUMPDEST PUSH2 0x294 JUMP JUMPDEST STOP JUMPDEST PUSH2 0x143 PUSH1 0x4 DUP1 CALLDATASIZE SUB DUP2 ADD SWAP1 PUSH2 0x13E SWAP2 SWAP1 PUSH2 0xCE4 JUMP JUMPDEST PUSH2 0x29E JUMP JUMPDEST STOP JUMPDEST PUSH2 0x14D PUSH2 0x53A JUMP JUMPDEST PUSH1 0x40 MLOAD PUSH2 0x15A SWAP2 SWAP1 PUSH2 0xACF JUMP JUMPDEST PUSH1 0x40 MLOAD DUP1 SWAP2 SUB SWAP1 RETURN JUMPDEST PUSH2 0x17D PUSH1 0x4 DUP1 CALLDATASIZE SUB DUP2 ADD SWAP1 PUSH2 0x178 SWAP2 SWAP1 PUSH2 0xD50 JUMP JUMPDEST PUSH2 0x540 JUMP JUMPDEST PUSH1 0x40 MLOAD PUSH2 0x18B SWAP3 SWAP2 SWAP1 PUSH2 0xDAA JUMP JUMPDEST PUSH1 0x40 MLOAD DUP1 SWAP2 SUB SWAP1 RETURN JUMPDEST PUSH2 0x1AE PUSH1 0x4 DUP1 CALLDATASIZE SUB DUP2 ADD SWAP1 PUSH2 0x1A9 SWAP2 SWAP1 PUSH2 0xDD1 JUMP JUMPDEST PUSH2 0x7C9 JUMP JUMPDEST PUSH1 0x40 MLOAD PUSH2 0x1BD SWAP4 SWAP3 SWAP2 SWAP1 PUSH2 0xDFC JUMP JUMPDEST PUSH1 0x40 MLOAD DUP1 SWAP2 SUB SWAP1 RETURN JUMPDEST PUSH2 0x1CE PUSH2 0x7EF JUMP JUMPDEST PUSH1 0x40 MLOAD PUSH2 0x1DB SWAP2 SWAP1 PUSH2 0xE40 JUMP JUMPDEST PUSH1 0x40 MLOAD DUP1 SWAP2 SUB SWAP1 RETURN JUMPDEST PUSH2 0x1EC PUSH2 0x812 JUMP JUMPDEST PUSH1 0x40 MLOAD PUSH2 0x1F9 SWAP2 SWAP1 PUSH2 0xACF JUMP JUMPDEST PUSH1 0x40 MLOAD DUP1 SWAP2 SUB SWAP1 RETURN JUMPDEST PUSH2 0x21C PUSH1 0x4 DUP1 CALLDATASIZE SUB DUP2 ADD SWAP1 PUSH2 0x217 SWAP2 SWAP1 PUSH2 0xE59 JUMP JUMPDEST PUSH2 0x818 JUMP JUMPDEST STOP JUMPDEST PUSH2 0x226 PUSH2 0x922 JUMP JUMPDEST PUSH1 0x40 MLOAD PUSH2 0x233 SWAP2 SWAP1 PUSH2 0xACF JUMP JUMPDEST PUSH1 0x40 MLOAD DUP1 SWAP2 SUB SWAP1 RETURN JUMPDEST PUSH2 0x256 PUSH1 0x4 DUP1 CALLDATASIZE SUB DUP2 ADD SWAP1 PUSH2 0x251 SWAP2 SWAP1 PUSH2 0xB23 JUMP JUMPDEST PUSH2 0x928 JUMP JUMPDEST STOP JUMPDEST PUSH2 0x272 PUSH1 0x4 DUP1 CALLDATASIZE SUB DUP2 ADD SWAP1 PUSH2 0x26D SWAP2 SWAP1 PUSH2 0xDD1 JUMP JUMPDEST PUSH2 0x932 JUMP JUMPDEST PUSH1 0x40 MLOAD PUSH2 0x27F SWAP2 SWAP1 PUSH2 0xACF JUMP JUMPDEST PUSH1 0x40 MLOAD DUP1 SWAP2 SUB SWAP1 RETURN JUMPDEST PUSH1 0x6 SLOAD DUP2 JUMP JUMPDEST PUSH1 0x3 SLOAD DUP2 JUMP JUMPDEST DUP1 PUSH1 0x6 DUP2 SWAP1 SSTORE POP POP JUMP JUMPDEST PUSH1 0x64 PUSH2 0x2A9 DUP5 PUSH2 0x932 JUMP JUMPDEST LT PUSH2 0x2E9 JUMPI PUSH1 0x40 MLOAD PUSH32 0x8C379A000000000000000000000000000000000000000000000000000000000 DUP2 MSTORE PUSH1 0x4 ADD PUSH2 0x2E0 SWAP1 PUSH2 0xF17 JUMP JUMPDEST PUSH1 0x40 MLOAD DUP1 SWAP2 SUB SWAP1 REVERT JUMPDEST PUSH0 PUSH1 0x1 PUSH0 DUP6 PUSH20 0xFFFFFFFFFFFFFFFFFFFFFFFFFFFFFFFFFFFFFFFF AND PUSH20 0xFFFFFFFFFFFFFFFFFFFFFFFFFFFFFFFFFFFFFFFF AND DUP2 MSTORE PUSH1 0x20 ADD SWAP1 DUP2 MSTORE PUSH1 0x20 ADD PUSH0 KECCAK256 SWAP1 POP PUSH0 DUP1 PUSH1 0x40 MLOAD DUP1 PUSH1 0x40 ADD PUSH1 0x40 MSTORE DUP1 PUSH1 0x3 DUP2 MSTORE PUSH1 0x20 ADD PUSH32 0x4554480000000000000000000000000000000000000000000000000000000000 DUP2 MSTORE POP DUP1 MLOAD SWAP1 PUSH1 0x20 ADD KECCAK256 DUP6 DUP1 MLOAD SWAP1 PUSH1 0x20 ADD KECCAK256 SUB PUSH2 0x45C JUMPI PUSH0 PUSH1 0x64 DUP5 PUSH0 ADD SLOAD PUSH1 0x2 SLOAD PUSH2 0x389 SWAP2 SWAP1 PUSH2 0xF62 JUMP JUMPDEST PUSH2 0x393 SWAP2 SWAP1 PUSH2 0xFD0 JUMP JUMPDEST PUSH3 0xF4240 PUSH1 0x5 SLOAD PUSH1 0x6 SLOAD DUP8 PUSH1 0x2 ADD SLOAD PUSH2 0x3AC SWAP2 SWAP1 PUSH2 0xF62 JUMP JUMPDEST PUSH2 0x3B6 SWAP2 SWAP1 PUSH2 0xF62 JUMP JUMPDEST PUSH2 0x3C0 SWAP2 SWAP1 PUSH2 0xFD0 JUMP JUMPDEST PUSH2 0x3E8 PUSH1 0x5 SLOAD DUP8 PUSH1 0x1 ADD SLOAD PUSH2 0x3D5 SWAP2 SWAP1 PUSH2 0xF62 JUMP JUMPDEST PUSH2 0x3DF SWAP2 SWAP1 PUSH2 0xFD0 JUMP JUMPDEST PUSH2 0x3E9 SWAP2 SWAP1 PUSH2 0x1000 JUMP JUMPDEST PUSH2 0x3F3 SWAP2 SWAP1 PUSH2 0x1033 JUMP JUMPDEST SWAP1 POP PUSH0 PUSH1 0x64 DUP7 PUSH1 0x2 SLOAD PUSH2 0x406 SWAP2 SWAP1 PUSH2 0xF62 JUMP JUMPDEST PUSH2 0x410 SWAP2 SWAP1 PUSH2 0xFD0 JUMP JUMPDEST PUSH1 0x5 SLOAD PUSH2 0x41D SWAP2 SWAP1 PUSH2 0x1033 JUMP JUMPDEST SWAP1 POP DUP1 PUSH2 0x3E8 DUP4 PUSH2 0x42E SWAP2 SWAP1 PUSH2 0xF62 JUMP JUMPDEST PUSH2 0x438 SWAP2 SWAP1 PUSH2 0xFD0 JUMP JUMPDEST SWAP4 POP PUSH2 0x3E8 DUP7 DUP6 PUSH2 0x449 SWAP2 SWAP1 PUSH2 0xF62 JUMP JUMPDEST PUSH2 0x453 SWAP2 SWAP1 PUSH2 0xFD0 JUMP JUMPDEST SWAP3 POP POP POP PUSH2 0x47E JUMP JUMPDEST PUSH1 0x2 DUP4 PUSH1 0x1 ADD SLOAD PUSH2 0x46D SWAP2 SWAP1 PUSH2 0xFD0 JUMP JUMPDEST SWAP2 POP DUP4 DUP3 PUSH2 0x47B SWAP2 SWAP1 PUSH2 0xF62 JUMP JUMPDEST SWAP1 POP JUMPDEST DUP1 DUP4 PUSH0 ADD SLOAD LT ISZERO PUSH2 0x4C4 JUMPI PUSH1 0x40 MLOAD PUSH32 0x8C379A000000000000000000000000000000000000000000000000000000000 DUP2 MSTORE PUSH1 0x4 ADD PUSH2 0x4BB SWAP1 PUSH2 0x10D6 JUMP JUMPDEST PUSH1 0x40 MLOAD DUP1 SWAP2 SUB SWAP1 REVERT JUMPDEST DUP1 DUP4 PUSH0 ADD PUSH0 DUP3 DUP3 SLOAD PUSH2 0x4D6 SWAP2 SWAP1 PUSH2 0x1033 JUMP JUMPDEST SWAP3 POP POP DUP2 SWAP1 SSTORE POP DUP2 DUP4 PUSH1 0x1 ADD PUSH0 DUP3 DUP3 SLOAD PUSH2 0x4F0 SWAP2 SWAP1 PUSH2 0x1033 JUMP JUMPDEST SWAP3 POP POP DUP2 SWAP1 SSTORE POP PUSH32 0x9C223CFCD8C93E245F558F5F8DE755FC0930FD9BC257441155EF5D54A170E0F DUP7 DUP3 DUP5 PUSH1 0x40 MLOAD PUSH2 0x52A SWAP4 SWAP3 SWAP2 SWAP1 PUSH2 0x10F4 JUMP JUMPDEST PUSH1 0x40 MLOAD DUP1 SWAP2 SUB SWAP1 LOG1 POP POP POP POP POP POP JUMP JUMPDEST PUSH1 0x4 SLOAD DUP2 JUMP JUMPDEST PUSH0 DUP1 PUSH0 PUSH1 0x1 PUSH0 DUP7 PUSH20 0xFFFFFFFFFFFFFFFFFFFFFFFFFFFFFFFFFFFFFFFF AND PUSH20 0xFFFFFFFFFFFFFFFFFFFFFFFFFFFFFFFFFFFFFFFF AND DUP2 MSTORE PUSH1 0x20 ADD SWAP1 DUP2 MSTORE PUSH1 0x20 ADD PUSH0 KECCAK256 PUSH1 0x40 MLOAD DUP1 PUSH1 0x60 ADD PUSH1 0x40 MSTORE SWAP1 DUP2 PUSH0 DUP3 ADD SLOAD DUP2 MSTORE PUSH1 0x20 ADD PUSH1 0x1 DUP3 ADD SLOAD DUP2 MSTORE PUSH1 0x20 ADD PUSH1 0x2 DUP3 ADD SLOAD DUP2 MSTORE POP POP SWAP1 POP PUSH0 DUP2 PUSH0 ADD MLOAD SWAP1 POP PUSH0 DUP3 PUSH1 0x20 ADD MLOAD SWAP1 POP PUSH0 DUP4 PUSH1 0x40 ADD MLOAD SWAP1 POP PUSH0 PUSH3 0xF4240 PUSH1 0x5 SLOAD PUSH1 0x6 SLOAD DUP5 PUSH2 0x5D7 SWAP2 SWAP1 PUSH2 0xF62 JUMP JUMPDEST PUSH2 0x5E1 SWAP2 SWAP1 PUSH2 0xF62 JUMP JUMPDEST PUSH2 0x5EB SWAP2 SWAP1 PUSH2 0xFD0 JUMP JUMPDEST PUSH1 0x5 SLOAD DUP5 PUSH2 0x5F9 SWAP2 SWAP1 PUSH2 0xF62 JUMP JUMPDEST PUSH2 0x603 SWAP2 SWAP1 PUSH2 0x1000 JUMP JUMPDEST SWAP1 POP PUSH0 PUSH1 0x64 PUSH1 0x2 SLOAD DUP7 PUSH2 0x616 SWAP2 SWAP1 PUSH2 0xF62 JUMP JUMPDEST PUSH2 0x620 SWAP2 SWAP1 PUSH2 0xFD0 JUMP JUMPDEST SWAP1 POP DUP1 DUP3 GT PUSH2 0x63A JUMPI PUSH0 DUP1 SWAP8 POP SWAP8 POP POP POP POP POP POP POP PUSH2 0x7C2 JUMP JUMPDEST PUSH0 DUP2 DUP4 PUSH2 0x647 SWAP2 SWAP1 PUSH2 0x1033 JUMP JUMPDEST SWAP1 POP PUSH1 0x40 MLOAD DUP1 PUSH1 0x40 ADD PUSH1 0x40 MSTORE DUP1 PUSH1 0x3 DUP2 MSTORE PUSH1 0x20 ADD PUSH32 0x4554480000000000000000000000000000000000000000000000000000000000 DUP2 MSTORE POP DUP1 MLOAD SWAP1 PUSH1 0x20 ADD KECCAK256 DUP11 DUP1 MLOAD SWAP1 PUSH1 0x20 ADD KECCAK256 SUB PUSH2 0x6D4 JUMPI PUSH1 0x5 SLOAD PUSH3 0xF4240 DUP3 PUSH2 0x6A5 SWAP2 SWAP1 PUSH2 0xF62 JUMP JUMPDEST PUSH2 0x6AF SWAP2 SWAP1 PUSH2 0xFD0 JUMP JUMPDEST SWAP8 POP PUSH3 0xF4240 PUSH1 0x5 SLOAD DUP10 PUSH2 0x6C3 SWAP2 SWAP1 PUSH2 0xF62 JUMP JUMPDEST PUSH2 0x6CD SWAP2 SWAP1 PUSH2 0xFD0 JUMP JUMPDEST SWAP9 POP PUSH2 0x7BA JUMP JUMPDEST PUSH1 0x40 MLOAD DUP1 PUSH1 0x40 ADD PUSH1 0x40 MSTORE DUP1 PUSH1 0x3 DUP2 MSTORE PUSH1 0x20 ADD PUSH32 0x4158530000000000000000000000000000000000000000000000000000000000 DUP2 MSTORE POP DUP1 MLOAD SWAP1 PUSH1 0x20 ADD KECCAK256 DUP11 DUP1 MLOAD SWAP1 PUSH1 0x20 ADD KECCAK256 SUB PUSH2 0x77E JUMPI PUSH0 PUSH1 0x5 SLOAD PUSH1 0x6 SLOAD PUSH2 0x72F SWAP2 SWAP1 PUSH2 0xF62 JUMP JUMPDEST PUSH3 0xF4240 DUP4 PUSH2 0x73E SWAP2 SWAP1 PUSH2 0xF62 JUMP JUMPDEST PUSH2 0x748 SWAP2 SWAP1 PUSH2 0xFD0 JUMP JUMPDEST SWAP1 POP DUP1 SWAP9 POP PUSH3 0xF4240 PUSH1 0x5 SLOAD PUSH1 0x6 SLOAD DUP12 PUSH2 0x762 SWAP2 SWAP1 PUSH2 0xF62 JUMP JUMPDEST PUSH2 0x76C SWAP2 SWAP1 PUSH2 0xF62 JUMP JUMPDEST PUSH2 0x776 SWAP2 SWAP1 PUSH2 0xFD0 JUMP JUMPDEST SWAP10 POP POP PUSH2 0x7B9 JUMP JUMPDEST PUSH1 0x40 MLOAD PUSH32 0x8C379A000000000000000000000000000000000000000000000000000000000 DUP2 MSTORE PUSH1 0x4 ADD PUSH2 0x7B0 SWAP1 PUSH2 0x1199 JUMP JUMPDEST PUSH1 0x40 MLOAD DUP1 SWAP2 SUB SWAP1 REVERT JUMPDEST JUMPDEST POP POP POP POP POP POP POP JUMPDEST SWAP3 POP SWAP3 SWAP1 POP JUMP JUMPDEST PUSH1 0x1 PUSH1 0x20 MSTORE DUP1 PUSH0 MSTORE PUSH1 0x40 PUSH0 KECCAK256 PUSH0 SWAP2 POP SWAP1 POP DUP1 PUSH0 ADD SLOAD SWAP1 DUP1 PUSH1 0x1 ADD SLOAD SWAP1 DUP1 PUSH1 0x2 ADD SLOAD SWAP1 POP DUP4 JUMP JUMPDEST PUSH0 DUP1 SLOAD SWAP1 PUSH2 0x100 EXP SWAP1 DIV PUSH20 0xFFFFFFFFFFFFFFFFFFFFFFFFFFFFFFFFFFFFFFFF AND DUP2 JUMP JUMPDEST PUSH1 0x5 SLOAD DUP2 JUMP JUMPDEST PUSH0 DUP1 SLOAD SWAP1 PUSH2 0x100 EXP SWAP1 DIV PUSH20 0xFFFFFFFFFFFFFFFFFFFFFFFFFFFFFFFFFFFFFFFF AND PUSH20 0xFFFFFFFFFFFFFFFFFFFFFFFFFFFFFFFFFFFFFFFF AND CALLER PUSH20 0xFFFFFFFFFFFFFFFFFFFFFFFFFFFFFFFFFFFFFFFF AND EQ PUSH2 0x8A5 JUMPI PUSH1 0x40 MLOAD PUSH32 0x8C379A000000000000000000000000000000000000000000000000000000000 DUP2 MSTORE PUSH1 0x4 ADD PUSH2 0x89C SWAP1 PUSH2 0x1201 JUMP JUMPDEST PUSH1 0x40 MLOAD DUP1 SWAP2 SUB SWAP1 REVERT JUMPDEST PUSH1 0x40 MLOAD DUP1 PUSH1 0x60 ADD PUSH1 0x40 MSTORE DUP1 DUP5 DUP2 MSTORE PUSH1 0x20 ADD DUP4 DUP2 MSTORE PUSH1 0x20 ADD DUP3 DUP2 MSTORE POP PUSH1 0x1 PUSH0 DUP7 PUSH20 0xFFFFFFFFFFFFFFFFFFFFFFFFFFFFFFFFFFFFFFFF AND PUSH20 0xFFFFFFFFFFFFFFFFFFFFFFFFFFFFFFFFFFFFFFFF AND DUP2 MSTORE PUSH1 0x20 ADD SWAP1 DUP2 MSTORE PUSH1 0x20 ADD PUSH0 KECCAK256 PUSH0 DUP3 ADD MLOAD DUP2 PUSH0 ADD SSTORE PUSH1 0x20 DUP3 ADD MLOAD DUP2 PUSH1 0x1 ADD SSTORE PUSH1 0x40 DUP3 ADD MLOAD DUP2 PUSH1 0x2 ADD SSTORE SWAP1 POP POP POP POP POP POP JUMP JUMPDEST PUSH1 0x2 SLOAD DUP2 JUMP JUMPDEST DUP1 PUSH1 0x5 DUP2 SWAP1 SSTORE POP POP JUMP JUMPDEST PUSH0 DUP1 PUSH1 0x1 PUSH0 DUP5 PUSH20 0xFFFFFFFFFFFFFFFFFFFFFFFFFFFFFFFFFFFFFFFF AND PUSH20 0xFFFFFFFFFFFFFFFFFFFFFFFFFFFFFFFFFFFFFFFF AND DUP2 MSTORE PUSH1 0x20 ADD SWAP1 DUP2 MSTORE PUSH1 0x20 ADD PUSH0 KECCAK256 PUSH1 0x40 MLOAD DUP1 PUSH1 0x60 ADD PUSH1 0x40 MSTORE SWAP1 DUP2 PUSH0 DUP3 ADD SLOAD DUP2 MSTORE PUSH1 0x20 ADD PUSH1 0x1 DUP3 ADD SLOAD DUP2 MSTORE PUSH1 0x20 ADD PUSH1 0x2 DUP3 ADD SLOAD DUP2 MSTORE POP POP SWAP1 POP PUSH0 PUSH1 0x64 PUSH1 0x2 SLOAD DUP4 PUSH0 ADD MLOAD PUSH2 0x9AF SWAP2 SWAP1 PUSH2 0xF62 JUMP JUMPDEST PUSH2 0x9B9 SWAP2 SWAP1 PUSH2 0xFD0 JUMP JUMPDEST SWAP1 POP PUSH0 PUSH2 0x3E8 PUSH1 0x5 SLOAD DUP5 PUSH1 0x20 ADD MLOAD PUSH2 0x9D1 SWAP2 SWAP1 PUSH2 0xF62 JUMP JUMPDEST PUSH2 0x9DB SWAP2 SWAP1 PUSH2 0xFD0 JUMP JUMPDEST SWAP1 POP PUSH0 PUSH3 0x186A0 PUSH1 0x5 SLOAD PUSH1 0x6 SLOAD DUP7 PUSH1 0x40 ADD MLOAD PUSH2 0x9F7 SWAP2 SWAP1 PUSH2 0xF62 JUMP JUMPDEST PUSH2 0xA01 SWAP2 SWAP1 PUSH2 0xF62 JUMP JUMPDEST PUSH2 0xA0B SWAP2 SWAP1 PUSH2 0xFD0 JUMP JUMPDEST SWAP1 POP PUSH0 DUP2 DUP4 PUSH2 0xA1A SWAP2 SWAP1 PUSH2 0x1000 JUMP JUMPDEST SWAP1 POP PUSH0 DUP2 SUB PUSH2 0xA50 JUMPI PUSH32 0xFFFFFFFFFFFFFFFFFFFFFFFFFFFFFFFFFFFFFFFFFFFFFFFFFFFFFFFFFFFFFFFF SWAP6 POP POP POP POP POP POP PUSH2 0xAB2 JUMP JUMPDEST PUSH0 DUP2 PUSH1 0x64 DUP7 PUSH2 0xA5F SWAP2 SWAP1 PUSH2 0xF62 JUMP JUMPDEST PUSH2 0xA69 SWAP2 SWAP1 PUSH2 0xFD0 JUMP JUMPDEST SWAP1 POP PUSH32 0x96DF9B99931636B730287949D80832331A9FD2FD69BC2BB6CE2145403AF80688 DUP9 DUP7 DUP5 DUP5 PUSH1 0x40 MLOAD PUSH2 0xAA0 SWAP5 SWAP4 SWAP3 SWAP2 SWAP1 PUSH2 0x121F JUMP JUMPDEST PUSH1 0x40 MLOAD DUP1 SWAP2 SUB SWAP1 LOG1 DUP1 SWAP7 POP POP POP POP POP POP POP JUMPDEST SWAP2 SWAP1 POP JUMP JUMPDEST PUSH0 DUP2 SWAP1 POP SWAP2 SWAP1 POP JUMP JUMPDEST PUSH2 0xAC9 DUP2 PUSH2 0xAB7 JUMP JUMPDEST DUP3 MSTORE POP POP JUMP JUMPDEST PUSH0 PUSH1 0x20 DUP3 ADD SWAP1 POP PUSH2 0xAE2 PUSH0 DUP4 ADD DUP5 PUSH2 0xAC0 JUMP JUMPDEST SWAP3 SWAP2 POP POP JUMP JUMPDEST PUSH0 PUSH1 0x40 MLOAD SWAP1 POP SWAP1 JUMP JUMPDEST PUSH0 DUP1 REVERT JUMPDEST PUSH0 DUP1 REVERT JUMPDEST PUSH2 0xB02 DUP2 PUSH2 0xAB7 JUMP JUMPDEST DUP2 EQ PUSH2 0xB0C JUMPI PUSH0 DUP1 REVERT JUMPDEST POP JUMP JUMPDEST PUSH0 DUP2 CALLDATALOAD SWAP1 POP PUSH2 0xB1D DUP2 PUSH2 0xAF9 JUMP JUMPDEST SWAP3 SWAP2 POP POP JUMP JUMPDEST PUSH0 PUSH1 0x20 DUP3 DUP5 SUB SLT ISZERO PUSH2 0xB38 JUMPI PUSH2 0xB37 PUSH2 0xAF1 JUMP JUMPDEST JUMPDEST PUSH0 PUSH2 0xB45 DUP5 DUP3 DUP6 ADD PUSH2 0xB0F JUMP JUMPDEST SWAP2 POP POP SWAP3 SWAP2 POP POP JUMP JUMPDEST PUSH0 PUSH20 0xFFFFFFFFFFFFFFFFFFFFFFFFFFFFFFFFFFFFFFFF DUP3 AND SWAP1 POP SWAP2 SWAP1 POP JUMP JUMPDEST PUSH0 PUSH2 0xB77 DUP3 PUSH2 0xB4E JUMP JUMPDEST SWAP1 POP SWAP2 SWAP1 POP JUMP JUMPDEST PUSH2 0xB87 DUP2 PUSH2 0xB6D JUMP JUMPDEST DUP2 EQ PUSH2 0xB91 JUMPI PUSH0 DUP1 REVERT JUMPDEST POP JUMP JUMPDEST PUSH0 DUP2 CALLDATALOAD SWAP1 POP PUSH2 0xBA2 DUP2 PUSH2 0xB7E JUMP JUMPDEST SWAP3 SWAP2 POP POP JUMP JUMPDEST PUSH0 DUP1 REVERT JUMPDEST PUSH0 DUP1 REVERT JUMPDEST PUSH0 PUSH1 0x1F NOT PUSH1 0x1F DUP4 ADD AND SWAP1 POP SWAP2 SWAP1 POP JUMP JUMPDEST PUSH32 0x4E487B7100000000000000000000000000000000000000000000000000000000 PUSH0 MSTORE PUSH1 0x41 PUSH1 0x4 MSTORE PUSH1 0x24 PUSH0 REVERT JUMPDEST PUSH2 0xBF6 DUP3 PUSH2 0xBB0 JUMP JUMPDEST DUP2 ADD DUP2 DUP2 LT PUSH8 0xFFFFFFFFFFFFFFFF DUP3 GT OR ISZERO PUSH2 0xC15 JUMPI PUSH2 0xC14 PUSH2 0xBC0 JUMP JUMPDEST JUMPDEST DUP1 PUSH1 0x40 MSTORE POP POP POP JUMP JUMPDEST PUSH0 PUSH2 0xC27 PUSH2 0xAE8 JUMP JUMPDEST SWAP1 POP PUSH2 0xC33 DUP3 DUP3 PUSH2 0xBED JUMP JUMPDEST SWAP2 SWAP1 POP JUMP JUMPDEST PUSH0 PUSH8 0xFFFFFFFFFFFFFFFF DUP3 GT ISZERO PUSH2 0xC52 JUMPI PUSH2 0xC51 PUSH2 0xBC0 JUMP JUMPDEST JUMPDEST PUSH2 0xC5B DUP3 PUSH2 0xBB0 JUMP JUMPDEST SWAP1 POP PUSH1 0x20 DUP2 ADD SWAP1 POP SWAP2 SWAP1 POP JUMP JUMPDEST DUP3 DUP2 DUP4 CALLDATACOPY PUSH0 DUP4 DUP4 ADD MSTORE POP POP POP JUMP JUMPDEST PUSH0 PUSH2 0xC88 PUSH2 0xC83 DUP5 PUSH2 0xC38 JUMP JUMPDEST PUSH2 0xC1E JUMP JUMPDEST SWAP1 POP DUP3 DUP2 MSTORE PUSH1 0x20 DUP2 ADD DUP5 DUP5 DUP5 ADD GT ISZERO PUSH2 0xCA4 JUMPI PUSH2 0xCA3 PUSH2 0xBAC JUMP JUMPDEST JUMPDEST PUSH2 0xCAF DUP5 DUP3 DUP6 PUSH2 0xC68 JUMP JUMPDEST POP SWAP4 SWAP3 POP POP POP JUMP JUMPDEST PUSH0 DUP3 PUSH1 0x1F DUP4 ADD SLT PUSH2 0xCCB JUMPI PUSH2 0xCCA PUSH2 0xBA8 JUMP JUMPDEST JUMPDEST DUP2 CALLDATALOAD PUSH2 0xCDB DUP5 DUP3 PUSH1 0x20 DUP7 ADD PUSH2 0xC76 JUMP JUMPDEST SWAP2 POP POP SWAP3 SWAP2 POP POP JUMP JUMPDEST PUSH0 DUP1 PUSH0 PUSH1 0x60 DUP5 DUP7 SUB SLT ISZERO PUSH2 0xCFB JUMPI PUSH2 0xCFA PUSH2 0xAF1 JUMP JUMPDEST JUMPDEST PUSH0 PUSH2 0xD08 DUP7 DUP3 DUP8 ADD PUSH2 0xB94 JUMP JUMPDEST SWAP4 POP POP PUSH1 0x20 DUP5 ADD CALLDATALOAD PUSH8 0xFFFFFFFFFFFFFFFF DUP2 GT ISZERO PUSH2 0xD29 JUMPI PUSH2 0xD28 PUSH2 0xAF5 JUMP JUMPDEST JUMPDEST PUSH2 0xD35 DUP7 DUP3 DUP8 ADD PUSH2 0xCB7 JUMP JUMPDEST SWAP3 POP POP PUSH1 0x40 PUSH2 0xD46 DUP7 DUP3 DUP8 ADD PUSH2 0xB0F JUMP JUMPDEST SWAP2 POP POP SWAP3 POP SWAP3 POP SWAP3 JUMP JUMPDEST PUSH0 DUP1 PUSH1 0x40 DUP4 DUP6 SUB SLT ISZERO PUSH2 0xD66 JUMPI PUSH2 0xD65 PUSH2 0xAF1 JUMP JUMPDEST JUMPDEST PUSH0 PUSH2 0xD73 DUP6 DUP3 DUP7 ADD PUSH2 0xB94 JUMP JUMPDEST SWAP3 POP POP PUSH1 0x20 DUP4 ADD CALLDATALOAD PUSH8 0xFFFFFFFFFFFFFFFF DUP2 GT ISZERO PUSH2 0xD94 JUMPI PUSH2 0xD93 PUSH2 0xAF5 JUMP JUMPDEST JUMPDEST PUSH2 0xDA0 DUP6 DUP3 DUP7 ADD PUSH2 0xCB7 JUMP JUMPDEST SWAP2 POP POP SWAP3 POP SWAP3 SWAP1 POP JUMP JUMPDEST PUSH0 PUSH1 0x40 DUP3 ADD SWAP1 POP PUSH2 0xDBD PUSH0 DUP4 ADD DUP6 PUSH2 0xAC0 JUMP JUMPDEST PUSH2 0xDCA PUSH1 0x20 DUP4 ADD DUP5 PUSH2 0xAC0 JUMP JUMPDEST SWAP4 SWAP3 POP POP POP JUMP JUMPDEST PUSH0 PUSH1 0x20 DUP3 DUP5 SUB SLT ISZERO PUSH2 0xDE6 JUMPI PUSH2 0xDE5 PUSH2 0xAF1 JUMP JUMPDEST JUMPDEST PUSH0 PUSH2 0xDF3 DUP5 DUP3 DUP6 ADD PUSH2 0xB94 JUMP JUMPDEST SWAP2 POP POP SWAP3 SWAP2 POP POP JUMP JUMPDEST PUSH0 PUSH1 0x60 DUP3 ADD SWAP1 POP PUSH2 0xE0F PUSH0 DUP4 ADD DUP7 PUSH2 0xAC0 JUMP JUMPDEST PUSH2 0xE1C PUSH1 0x20 DUP4 ADD DUP6 PUSH2 0xAC0 JUMP JUMPDEST PUSH2 0xE29 PUSH1 0x40 DUP4 ADD DUP5 PUSH2 0xAC0 JUMP JUMPDEST SWAP5 SWAP4 POP POP POP POP JUMP JUMPDEST PUSH2 0xE3A DUP2 PUSH2 0xB6D JUMP JUMPDEST DUP3 MSTORE POP POP JUMP JUMPDEST PUSH0 PUSH1 0x20 DUP3 ADD SWAP1 POP PUSH2 0xE53 PUSH0 DUP4 ADD DUP5 PUSH2 0xE31 JUMP JUMPDEST SWAP3 SWAP2 POP POP JUMP JUMPDEST PUSH0 DUP1 PUSH0 DUP1 PUSH1 0x80 DUP6 DUP8 SUB SLT ISZERO PUSH2 0xE71 JUMPI PUSH2 0xE70 PUSH2 0xAF1 JUMP JUMPDEST JUMPDEST PUSH0 PUSH2 0xE7E DUP8 DUP3 DUP9 ADD PUSH2 0xB94 JUMP JUMPDEST SWAP5 POP POP PUSH1 0x20 PUSH2 0xE8F DUP8 DUP3 DUP9 ADD PUSH2 0xB0F JUMP JUMPDEST SWAP4 POP POP PUSH1 0x40 PUSH2 0xEA0 DUP8 DUP3 DUP9 ADD PUSH2 0xB0F JUMP JUMPDEST SWAP3 POP POP PUSH1 0x60 PUSH2 0xEB1 DUP8 DUP3 DUP9 ADD PUSH2 0xB0F JUMP JUMPDEST SWAP2 POP POP SWAP3 SWAP6 SWAP2 SWAP5 POP SWAP3 POP JUMP JUMPDEST PUSH0 DUP3 DUP3 MSTORE PUSH1 0x20 DUP3 ADD SWAP1 POP SWAP3 SWAP2 POP POP JUMP JUMPDEST PUSH32 0x4C6F616E206973207374696C6C206865616C7468790000000000000000000000 PUSH0 DUP3 ADD MSTORE POP JUMP JUMPDEST PUSH0 PUSH2 0xF01 PUSH1 0x15 DUP4 PUSH2 0xEBD JUMP JUMPDEST SWAP2 POP PUSH2 0xF0C DUP3 PUSH2 0xECD JUMP JUMPDEST PUSH1 0x20 DUP3 ADD SWAP1 POP SWAP2 SWAP1 POP JUMP JUMPDEST PUSH0 PUSH1 0x20 DUP3 ADD SWAP1 POP DUP2 DUP2 SUB PUSH0 DUP4 ADD MSTORE PUSH2 0xF2E DUP2 PUSH2 0xEF5 JUMP JUMPDEST SWAP1 POP SWAP2 SWAP1 POP JUMP JUMPDEST PUSH32 0x4E487B7100000000000000000000000000000000000000000000000000000000 PUSH0 MSTORE PUSH1 0x11 PUSH1 0x4 MSTORE PUSH1 0x24 PUSH0 REVERT JUMPDEST PUSH0 PUSH2 0xF6C DUP3 PUSH2 0xAB7 JUMP JUMPDEST SWAP2 POP PUSH2 0xF77 DUP4 PUSH2 0xAB7 JUMP JUMPDEST SWAP3 POP DUP3 DUP3 MUL PUSH2 0xF85 DUP2 PUSH2 0xAB7 JUMP JUMPDEST SWAP2 POP DUP3 DUP3 DIV DUP5 EQ DUP4 ISZERO OR PUSH2 0xF9C JUMPI PUSH2 0xF9B PUSH2 0xF35 JUMP JUMPDEST JUMPDEST POP SWAP3 SWAP2 POP POP JUMP JUMPDEST PUSH32 0x4E487B7100000000000000000000000000000000000000000000000000000000 PUSH0 MSTORE PUSH1 0x12 PUSH1 0x4 MSTORE PUSH1 0x24 PUSH0 REVERT JUMPDEST PUSH0 PUSH2 0xFDA DUP3 PUSH2 0xAB7 JUMP JUMPDEST SWAP2 POP PUSH2 0xFE5 DUP4 PUSH2 0xAB7 JUMP JUMPDEST SWAP3 POP DUP3 PUSH2 0xFF5 JUMPI PUSH2 0xFF4 PUSH2 0xFA3 JUMP JUMPDEST JUMPDEST DUP3 DUP3 DIV SWAP1 POP SWAP3 SWAP2 POP POP JUMP JUMPDEST PUSH0 PUSH2 0x100A DUP3 PUSH2 0xAB7 JUMP JUMPDEST SWAP2 POP PUSH2 0x1015 DUP4 PUSH2 0xAB7 JUMP JUMPDEST SWAP3 POP DUP3 DUP3 ADD SWAP1 POP DUP1 DUP3 GT ISZERO PUSH2 0x102D JUMPI PUSH2 0x102C PUSH2 0xF35 JUMP JUMPDEST JUMPDEST SWAP3 SWAP2 POP POP JUMP JUMPDEST PUSH0 PUSH2 0x103D DUP3 PUSH2 0xAB7 JUMP JUMPDEST SWAP2 POP PUSH2 0x1048 DUP4 PUSH2 0xAB7 JUMP JUMPDEST SWAP3 POP DUP3 DUP3 SUB SWAP1 POP DUP2 DUP2 GT ISZERO PUSH2 0x1060 JUMPI PUSH2 0x105F PUSH2 0xF35 JUMP JUMPDEST JUMPDEST SWAP3 SWAP2 POP POP JUMP JUMPDEST PUSH32 0x4E6F7420656E6F75676820636F6C6C61746572616C20746F206C697175696461 PUSH0 DUP3 ADD MSTORE PUSH32 0x7465000000000000000000000000000000000000000000000000000000000000 PUSH1 0x20 DUP3 ADD MSTORE POP JUMP JUMPDEST PUSH0 PUSH2 0x10C0 PUSH1 0x22 DUP4 PUSH2 0xEBD JUMP JUMPDEST SWAP2 POP PUSH2 0x10CB DUP3 PUSH2 0x1066 JUMP JUMPDEST PUSH1 0x40 DUP3 ADD SWAP1 POP SWAP2 SWAP1 POP JUMP JUMPDEST PUSH0 PUSH1 0x20 DUP3 ADD SWAP1 POP DUP2 DUP2 SUB PUSH0 DUP4 ADD MSTORE PUSH2 0x10ED DUP2 PUSH2 0x10B4 JUMP JUMPDEST SWAP1 POP SWAP2 SWAP1 POP JUMP JUMPDEST PUSH0 PUSH1 0x60 DUP3 ADD SWAP1 POP PUSH2 0x1107 PUSH0 DUP4 ADD DUP7 PUSH2 0xE31 JUMP JUMPDEST PUSH2 0x1114 PUSH1 0x20 DUP4 ADD DUP6 PUSH2 0xAC0 JUMP JUMPDEST PUSH2 0x1121 PUSH1 0x40 DUP4 ADD DUP5 PUSH2 0xAC0 JUMP JUMPDEST SWAP5 SWAP4 POP POP POP POP JUMP JUMPDEST PUSH32 0x496E76616C696420617373657420747970653A20557365202745544827206F72 PUSH0 DUP3 ADD MSTORE PUSH32 0x2027415853270000000000000000000000000000000000000000000000000000 PUSH1 0x20 DUP3 ADD MSTORE POP JUMP JUMPDEST PUSH0 PUSH2 0x1183 PUSH1 0x26 DUP4 PUSH2 0xEBD JUMP JUMPDEST SWAP2 POP PUSH2 0x118E DUP3 PUSH2 0x1129 JUMP JUMPDEST PUSH1 0x40 DUP3 ADD SWAP1 POP SWAP2 SWAP1 POP JUMP JUMPDEST PUSH0 PUSH1 0x20 DUP3 ADD SWAP1 POP DUP2 DUP2 SUB PUSH0 DUP4 ADD MSTORE PUSH2 0x11B0 DUP2 PUSH2 0x1177 JUMP JUMPDEST SWAP1 POP SWAP2 SWAP1 POP JUMP JUMPDEST PUSH32 0x4F6E6C79206F776E65722063616E20616464206C6F616E730000000000000000 PUSH0 DUP3 ADD MSTORE POP JUMP JUMPDEST PUSH0 PUSH2 0x11EB PUSH1 0x18 DUP4 PUSH2 0xEBD JUMP JUMPDEST SWAP2 POP PUSH2 0x11F6 DUP3 PUSH2 0x11B7 JUMP JUMPDEST PUSH1 0x20 DUP3 ADD SWAP1 POP SWAP2 SWAP1 POP JUMP JUMPDEST PUSH0 PUSH1 0x20 DUP3 ADD SWAP1 POP DUP2 DUP2 SUB PUSH0 DUP4 ADD MSTORE PUSH2 0x1218 DUP2 PUSH2 0x11DF JUMP JUMPDEST SWAP1 POP SWAP2 SWAP1 POP JUMP JUMPDEST PUSH0 PUSH1 0x80 DUP3 ADD SWAP1 POP PUSH2 0x1232 PUSH0 DUP4 ADD DUP8 PUSH2 0xE31 JUMP JUMPDEST PUSH2 0x123F PUSH1 0x20 DUP4 ADD DUP7 PUSH2 0xAC0 JUMP JUMPDEST PUSH2 0x124C PUSH1 0x40 DUP4 ADD DUP6 PUSH2 0xAC0 JUMP JUMPDEST PUSH2 0x1259 PUSH1 0x60 DUP4 ADD DUP5 PUSH2 0xAC0 JUMP JUMPDEST SWAP6 SWAP5 POP POP POP POP POP JUMP INVALID LOG2 PUSH5 0x6970667358 0x22 SLT KECCAK256 0xBA SAR 0x2A CREATE2 0xB7 0xAB ADDMOD 0x25 CALLER 0xBD EQ ADD PUSH15 0x8649184585F0B9C3C4C5B90F636EE4 EQ 0xAA DUP14 0xE0 PUSH5 0x736F6C6343 STOP ADDMOD BYTE STOP CALLER "
				},
				"gasEstimates": {
					"creation": {
						"codeDepositCost": "952000",
						"executionCost": "135781",
						"totalCost": "1087781"
					},
					"external": {
						"addLoan(address,uint256,uint256,uint256)": "infinite",
						"axsToETHPrice()": "2426",
						"calculateLiquidationAmount(address,string)": "infinite",
						"changeAXSRate(uint256)": "22560",
						"changeETHRate(uint256)": "22581",
						"collateralRatioAXS()": "2514",
						"collateralRatioETH()": "2448",
						"collateralRatioUSDC()": "2469",
						"ethPriceOnUSDC()": "2492",
						"getHealthFactor(address)": "infinite",
						"liquidate(address,string,uint256)": "infinite",
						"loans(address)": "infinite",
						"owner()": "2550"
					}
				},
				"methodIdentifiers": {
					"addLoan(address,uint256,uint256,uint256)": "ad24a336",
					"axsToETHPrice()": "04632a66",
					"calculateLiquidationAmount(address,string)": "55de75a9",
					"changeAXSRate(uint256)": "1f71462e",
					"changeETHRate(uint256)": "f894ea86",
					"collateralRatioAXS()": "4bfa16e9",
					"collateralRatioETH()": "11c9c304",
					"collateralRatioUSDC()": "c56e4097",
					"ethPriceOnUSDC()": "9b923cc9",
					"getHealthFactor(address)": "fe6bcd7c",
					"liquidate(address,string,uint256)": "2e2951cd",
					"loans(address)": "73b4086b",
					"owner()": "8da5cb5b"
				}
			},
			"storageLayout": {
				"storage": [
					{
						"astId": 3,
						"contract": "contracts/liquidation_temp.sol:Liquidation",
						"label": "owner",
						"offset": 0,
						"slot": "0",
						"type": "t_address"
					},
					{
						"astId": 15,
						"contract": "contracts/liquidation_temp.sol:Liquidation",
						"label": "loans",
						"offset": 0,
						"slot": "1",
						"type": "t_mapping(t_address,t_struct(Loan)10_storage)"
					},
					{
						"astId": 18,
						"contract": "contracts/liquidation_temp.sol:Liquidation",
						"label": "collateralRatioUSDC",
						"offset": 0,
						"slot": "2",
						"type": "t_uint256"
					},
					{
						"astId": 21,
						"contract": "contracts/liquidation_temp.sol:Liquidation",
						"label": "collateralRatioETH",
						"offset": 0,
						"slot": "3",
						"type": "t_uint256"
					},
					{
						"astId": 24,
						"contract": "contracts/liquidation_temp.sol:Liquidation",
						"label": "collateralRatioAXS",
						"offset": 0,
						"slot": "4",
						"type": "t_uint256"
					},
					{
						"astId": 27,
						"contract": "contracts/liquidation_temp.sol:Liquidation",
						"label": "ethPriceOnUSDC",
						"offset": 0,
						"slot": "5",
						"type": "t_uint256"
					},
					{
						"astId": 30,
						"contract": "contracts/liquidation_temp.sol:Liquidation",
						"label": "axsToETHPrice",
						"offset": 0,
						"slot": "6",
						"type": "t_uint256"
					}
				],
				"types": {
					"t_address": {
						"encoding": "inplace",
						"label": "address",
						"numberOfBytes": "20"
					},
					"t_mapping(t_address,t_struct(Loan)10_storage)": {
						"encoding": "mapping",
						"key": "t_address",
						"label": "mapping(address => struct Liquidation.Loan)",
						"numberOfBytes": "32",
						"value": "t_struct(Loan)10_storage"
					},
					"t_struct(Loan)10_storage": {
						"encoding": "inplace",
						"label": "struct Liquidation.Loan",
						"members": [
							{
								"astId": 5,
								"contract": "contracts/liquidation_temp.sol:Liquidation",
								"label": "usdcCollateral",
								"offset": 0,
								"slot": "0",
								"type": "t_uint256"
							},
							{
								"astId": 7,
								"contract": "contracts/liquidation_temp.sol:Liquidation",
								"label": "ethDebt",
								"offset": 0,
								"slot": "1",
								"type": "t_uint256"
							},
							{
								"astId": 9,
								"contract": "contracts/liquidation_temp.sol:Liquidation",
								"label": "axsDebt",
								"offset": 0,
								"slot": "2",
								"type": "t_uint256"
							}
						],
						"numberOfBytes": "96"
					},
					"t_uint256": {
						"encoding": "inplace",
						"label": "uint256",
						"numberOfBytes": "32"
					}
				}
			},
			"userdoc": {
				"kind": "user",
				"methods": {},
				"version": 1
			}
		}
	}
}