{
	"contracts/learn.sol": {
		"Liquidation": {
			"abi": [
				{
					"inputs": [],
					"stateMutability": "nonpayable",
					"type": "constructor"
				},
				{
					"anonymous": false,
					"inputs": [
						{
							"indexed": false,
							"internalType": "address",
							"name": "borrower",
							"type": "address"
						},
						{
							"indexed": false,
							"internalType": "uint256",
							"name": "totalCollateral",
							"type": "uint256"
						},
						{
							"indexed": false,
							"internalType": "uint256",
							"name": "totalDebtOnUSDC",
							"type": "uint256"
						},
						{
							"indexed": false,
							"internalType": "uint256",
							"name": "healthFactor",
							"type": "uint256"
						}
					],
					"name": "HealthFactorCalculated",
					"type": "event"
				},
				{
					"anonymous": false,
					"inputs": [
						{
							"indexed": false,
							"internalType": "address",
							"name": "user",
							"type": "address"
						},
						{
							"indexed": false,
							"internalType": "uint256",
							"name": "usdcLost",
							"type": "uint256"
						},
						{
							"indexed": false,
							"internalType": "uint256",
							"name": "ethLiquidated",
							"type": "uint256"
						}
					],
					"name": "Liquidated",
					"type": "event"
				},
				{
					"inputs": [
						{
							"internalType": "address",
							"name": "_borrower",
							"type": "address"
						},
						{
							"internalType": "uint256",
							"name": "_usdcCollateral",
							"type": "uint256"
						},
						{
							"internalType": "uint256",
							"name": "_ethDebt",
							"type": "uint256"
						},
						{
							"internalType": "uint256",
							"name": "_axsDebt",
							"type": "uint256"
						}
					],
					"name": "addLoan",
					"outputs": [],
					"stateMutability": "nonpayable",
					"type": "function"
				},
				{
					"inputs": [],
					"name": "axsToETHPrice",
					"outputs": [
						{
							"internalType": "uint256",
							"name": "",
							"type": "uint256"
						}
					],
					"stateMutability": "view",
					"type": "function"
				},
				{
					"inputs": [
						{
							"internalType": "uint256",
							"name": "_axsPrice",
							"type": "uint256"
						}
					],
					"name": "changeAXSRate",
					"outputs": [],
					"stateMutability": "nonpayable",
					"type": "function"
				},
				{
					"inputs": [
						{
							"internalType": "uint256",
							"name": "_ethPrice",
							"type": "uint256"
						}
					],
					"name": "changeETHRate",
					"outputs": [],
					"stateMutability": "nonpayable",
					"type": "function"
				},
				{
					"inputs": [],
					"name": "collateralRatioAXS",
					"outputs": [
						{
							"internalType": "uint256",
							"name": "",
							"type": "uint256"
						}
					],
					"stateMutability": "view",
					"type": "function"
				},
				{
					"inputs": [],
					"name": "collateralRatioETH",
					"outputs": [
						{
							"internalType": "uint256",
							"name": "",
							"type": "uint256"
						}
					],
					"stateMutability": "view",
					"type": "function"
				},
				{
					"inputs": [],
					"name": "collateralRatioUSDC",
					"outputs": [
						{
							"internalType": "uint256",
							"name": "",
							"type": "uint256"
						}
					],
					"stateMutability": "view",
					"type": "function"
				},
				{
					"inputs": [],
					"name": "ethPriceOnUSDC",
					"outputs": [
						{
							"internalType": "uint256",
							"name": "",
							"type": "uint256"
						}
					],
					"stateMutability": "view",
					"type": "function"
				},
				{
					"inputs": [
						{
							"internalType": "address",
							"name": "_borrower",
							"type": "address"
						}
					],
					"name": "getHealthFactor",
					"outputs": [
						{
							"internalType": "uint256",
							"name": "",
							"type": "uint256"
						}
					],
					"stateMutability": "nonpayable",
					"type": "function"
				},
				{
					"inputs": [
						{
							"internalType": "address",
							"name": "",
							"type": "address"
						}
					],
					"name": "loans",
					"outputs": [
						{
							"internalType": "uint256",
							"name": "usdcCollateral",
							"type": "uint256"
						},
						{
							"internalType": "uint256",
							"name": "ethDebt",
							"type": "uint256"
						},
						{
							"internalType": "uint256",
							"name": "axsDebt",
							"type": "uint256"
						}
					],
					"stateMutability": "view",
					"type": "function"
				},
				{
					"inputs": [],
					"name": "owner",
					"outputs": [
						{
							"internalType": "address",
							"name": "",
							"type": "address"
						}
					],
					"stateMutability": "view",
					"type": "function"
				}
			],
			"devdoc": {
				"kind": "dev",
				"methods": {},
				"version": 1
			},
			"evm": {
				"assembly": "    /* \"contracts/learn.sol\":58:2198  contract Liquidation {... */\n  mstore(0x40, 0x80)\n    /* \"contracts/learn.sol\":301:303  90 */\n  0x5a\n    /* \"contracts/learn.sol\":264:303  uint256 public collateralRatioUSDC = 90 */\n  0x02\n  sstore\n    /* \"contracts/learn.sol\":345:347  80 */\n  0x50\n    /* \"contracts/learn.sol\":309:347  uint256 public collateralRatioETH = 80 */\n  0x03\n  sstore\n    /* \"contracts/learn.sol\":389:391  70 */\n  0x46\n    /* \"contracts/learn.sol\":353:391  uint256 public collateralRatioAXS = 70 */\n  0x04\n  sstore\n    /* \"contracts/learn.sol\":430:434  1500 */\n  0x05dc\n    /* \"contracts/learn.sol\":398:434  uint256 public ethPriceOnUSDC = 1500 */\n  0x05\n  sstore\n    /* \"contracts/learn.sol\":492:495  100 */\n  0x64\n    /* \"contracts/learn.sol\":461:495  uint256 public axsToETHPrice = 100 */\n  0x06\n  sstore\n    /* \"contracts/learn.sol\":724:773  constructor() {... */\n  callvalue\n  dup1\n  iszero\n  tag_1\n  jumpi\n  0x00\n  dup1\n  revert\ntag_1:\n  pop\n    /* \"contracts/learn.sol\":756:766  msg.sender */\n  caller\n    /* \"contracts/learn.sol\":748:753  owner */\n  0x00\n  dup1\n    /* \"contracts/learn.sol\":748:766  owner = msg.sender */\n  0x0100\n  exp\n  dup2\n  sload\n  dup2\n  0xffffffffffffffffffffffffffffffffffffffff\n  mul\n  not\n  and\n  swap1\n  dup4\n  0xffffffffffffffffffffffffffffffffffffffff\n  and\n  mul\n  or\n  swap1\n  sstore\n  pop\n    /* \"contracts/learn.sol\":58:2198  contract Liquidation {... */\n  dataSize(sub_0)\n  dup1\n  dataOffset(sub_0)\n  0x00\n  codecopy\n  0x00\n  return\nstop\n\nsub_0: assembly {\n        /* \"contracts/learn.sol\":58:2198  contract Liquidation {... */\n      mstore(0x40, 0x80)\n      callvalue\n      dup1\n      iszero\n      tag_1\n      jumpi\n      0x00\n      dup1\n      revert\n    tag_1:\n      pop\n      jumpi(tag_2, lt(calldatasize, 0x04))\n      shr(0xe0, calldataload(0x00))\n      dup1\n      0x8da5cb5b\n      gt\n      tag_14\n      jumpi\n      dup1\n      0x8da5cb5b\n      eq\n      tag_8\n      jumpi\n      dup1\n      0x9b923cc9\n      eq\n      tag_9\n      jumpi\n      dup1\n      0xad24a336\n      eq\n      tag_10\n      jumpi\n      dup1\n      0xc56e4097\n      eq\n      tag_11\n      jumpi\n      dup1\n      0xf894ea86\n      eq\n      tag_12\n      jumpi\n      dup1\n      0xfe6bcd7c\n      eq\n      tag_13\n      jumpi\n      jump(tag_2)\n    tag_14:\n      dup1\n      0x04632a66\n      eq\n      tag_3\n      jumpi\n      dup1\n      0x11c9c304\n      eq\n      tag_4\n      jumpi\n      dup1\n      0x1f71462e\n      eq\n      tag_5\n      jumpi\n      dup1\n      0x4bfa16e9\n      eq\n      tag_6\n      jumpi\n      dup1\n      0x73b4086b\n      eq\n      tag_7\n      jumpi\n    tag_2:\n      0x00\n      dup1\n      revert\n        /* \"contracts/learn.sol\":461:495  uint256 public axsToETHPrice = 100 */\n    tag_3:\n      tag_15\n      tag_16\n      jump\t// in\n    tag_15:\n      mload(0x40)\n      tag_17\n      swap2\n      swap1\n      tag_18\n      jump\t// in\n    tag_17:\n      mload(0x40)\n      dup1\n      swap2\n      sub\n      swap1\n      return\n        /* \"contracts/learn.sol\":309:347  uint256 public collateralRatioETH = 80 */\n    tag_4:\n      tag_19\n      tag_20\n      jump\t// in\n    tag_19:\n      mload(0x40)\n      tag_21\n      swap2\n      swap1\n      tag_18\n      jump\t// in\n    tag_21:\n      mload(0x40)\n      dup1\n      swap2\n      sub\n      swap1\n      return\n        /* \"contracts/learn.sol\":2105:2196  function changeAXSRate(uint256 _axsPrice) public {... */\n    tag_5:\n      tag_22\n      0x04\n      dup1\n      calldatasize\n      sub\n      dup2\n      add\n      swap1\n      tag_23\n      swap2\n      swap1\n      tag_24\n      jump\t// in\n    tag_23:\n      tag_25\n      jump\t// in\n    tag_22:\n      stop\n        /* \"contracts/learn.sol\":353:391  uint256 public collateralRatioAXS = 70 */\n    tag_6:\n      tag_26\n      tag_27\n      jump\t// in\n    tag_26:\n      mload(0x40)\n      tag_28\n      swap2\n      swap1\n      tag_18\n      jump\t// in\n    tag_28:\n      mload(0x40)\n      dup1\n      swap2\n      sub\n      swap1\n      return\n        /* \"contracts/learn.sol\":220:257  mapping(address => Loan) public loans */\n    tag_7:\n      tag_29\n      0x04\n      dup1\n      calldatasize\n      sub\n      dup2\n      add\n      swap1\n      tag_30\n      swap2\n      swap1\n      tag_31\n      jump\t// in\n    tag_30:\n      tag_32\n      jump\t// in\n    tag_29:\n      mload(0x40)\n      tag_33\n      swap4\n      swap3\n      swap2\n      swap1\n      tag_34\n      jump\t// in\n    tag_33:\n      mload(0x40)\n      dup1\n      swap2\n      sub\n      swap1\n      return\n        /* \"contracts/learn.sol\":86:106  address public owner */\n    tag_8:\n      tag_35\n      tag_36\n      jump\t// in\n    tag_35:\n      mload(0x40)\n      tag_37\n      swap2\n      swap1\n      tag_38\n      jump\t// in\n    tag_37:\n      mload(0x40)\n      dup1\n      swap2\n      sub\n      swap1\n      return\n        /* \"contracts/learn.sol\":398:434  uint256 public ethPriceOnUSDC = 1500 */\n    tag_9:\n      tag_39\n      tag_40\n      jump\t// in\n    tag_39:\n      mload(0x40)\n      tag_41\n      swap2\n      swap1\n      tag_18\n      jump\t// in\n    tag_41:\n      mload(0x40)\n      dup1\n      swap2\n      sub\n      swap1\n      return\n        /* \"contracts/learn.sol\":779:1026  function addLoan(address _borrower, uint256 _usdcCollateral, uint256 _ethDebt, uint256 _axsDebt) public {... */\n    tag_10:\n      tag_42\n      0x04\n      dup1\n      calldatasize\n      sub\n      dup2\n      add\n      swap1\n      tag_43\n      swap2\n      swap1\n      tag_44\n      jump\t// in\n    tag_43:\n      tag_45\n      jump\t// in\n    tag_42:\n      stop\n        /* \"contracts/learn.sol\":264:303  uint256 public collateralRatioUSDC = 90 */\n    tag_11:\n      tag_46\n      tag_47\n      jump\t// in\n    tag_46:\n      mload(0x40)\n      tag_48\n      swap2\n      swap1\n      tag_18\n      jump\t// in\n    tag_48:\n      mload(0x40)\n      dup1\n      swap2\n      sub\n      swap1\n      return\n        /* \"contracts/learn.sol\":2007:2099  function changeETHRate(uint256 _ethPrice) public {... */\n    tag_12:\n      tag_49\n      0x04\n      dup1\n      calldatasize\n      sub\n      dup2\n      add\n      swap1\n      tag_50\n      swap2\n      swap1\n      tag_24\n      jump\t// in\n    tag_50:\n      tag_51\n      jump\t// in\n    tag_49:\n      stop\n        /* \"contracts/learn.sol\":1032:2001  function getHealthFactor(address _borrower) public returns (uint256) {... */\n    tag_13:\n      tag_52\n      0x04\n      dup1\n      calldatasize\n      sub\n      dup2\n      add\n      swap1\n      tag_53\n      swap2\n      swap1\n      tag_31\n      jump\t// in\n    tag_53:\n      tag_54\n      jump\t// in\n    tag_52:\n      mload(0x40)\n      tag_55\n      swap2\n      swap1\n      tag_18\n      jump\t// in\n    tag_55:\n      mload(0x40)\n      dup1\n      swap2\n      sub\n      swap1\n      return\n        /* \"contracts/learn.sol\":461:495  uint256 public axsToETHPrice = 100 */\n    tag_16:\n      sload(0x06)\n      dup2\n      jump\t// out\n        /* \"contracts/learn.sol\":309:347  uint256 public collateralRatioETH = 80 */\n    tag_20:\n      sload(0x03)\n      dup2\n      jump\t// out\n        /* \"contracts/learn.sol\":2105:2196  function changeAXSRate(uint256 _axsPrice) public {... */\n    tag_25:\n        /* \"contracts/learn.sol\":2180:2189  _axsPrice */\n      dup1\n        /* \"contracts/learn.sol\":2164:2177  axsToETHPrice */\n      0x06\n        /* \"contracts/learn.sol\":2164:2189  axsToETHPrice = _axsPrice */\n      dup2\n      swap1\n      sstore\n      pop\n        /* \"contracts/learn.sol\":2105:2196  function changeAXSRate(uint256 _axsPrice) public {... */\n      pop\n      jump\t// out\n        /* \"contracts/learn.sol\":353:391  uint256 public collateralRatioAXS = 70 */\n    tag_27:\n      sload(0x04)\n      dup2\n      jump\t// out\n        /* \"contracts/learn.sol\":220:257  mapping(address => Loan) public loans */\n    tag_32:\n      mstore(0x20, 0x01)\n      dup1\n      0x00\n      mstore\n      keccak256(0x00, 0x40)\n      0x00\n      swap2\n      pop\n      swap1\n      pop\n      dup1\n      0x00\n      add\n      sload\n      swap1\n      dup1\n      0x01\n      add\n      sload\n      swap1\n      dup1\n      0x02\n      add\n      sload\n      swap1\n      pop\n      dup4\n      jump\t// out\n        /* \"contracts/learn.sol\":86:106  address public owner */\n    tag_36:\n      0x00\n      dup1\n      sload\n      swap1\n      0x0100\n      exp\n      swap1\n      div\n      0xffffffffffffffffffffffffffffffffffffffff\n      and\n      dup2\n      jump\t// out\n        /* \"contracts/learn.sol\":398:434  uint256 public ethPriceOnUSDC = 1500 */\n    tag_40:\n      sload(0x05)\n      dup2\n      jump\t// out\n        /* \"contracts/learn.sol\":779:1026  function addLoan(address _borrower, uint256 _usdcCollateral, uint256 _ethDebt, uint256 _axsDebt) public {... */\n    tag_45:\n        /* \"contracts/learn.sol\":915:920  owner */\n      0x00\n      dup1\n      sload\n      swap1\n      0x0100\n      exp\n      swap1\n      div\n      0xffffffffffffffffffffffffffffffffffffffff\n      and\n        /* \"contracts/learn.sol\":901:920  msg.sender == owner */\n      0xffffffffffffffffffffffffffffffffffffffff\n      and\n        /* \"contracts/learn.sol\":901:911  msg.sender */\n      caller\n        /* \"contracts/learn.sol\":901:920  msg.sender == owner */\n      0xffffffffffffffffffffffffffffffffffffffff\n      and\n      eq\n        /* \"contracts/learn.sol\":893:949  require(msg.sender == owner, \"Only owner can add loans\") */\n      tag_58\n      jumpi\n      mload(0x40)\n      0x08c379a000000000000000000000000000000000000000000000000000000000\n      dup2\n      mstore\n      0x04\n      add\n      tag_59\n      swap1\n      tag_60\n      jump\t// in\n    tag_59:\n      mload(0x40)\n      dup1\n      swap2\n      sub\n      swap1\n      revert\n    tag_58:\n        /* \"contracts/learn.sol\":978:1019  Loan(_usdcCollateral, _ethDebt, _axsDebt) */\n      mload(0x40)\n      dup1\n      0x60\n      add\n      0x40\n      mstore\n      dup1\n        /* \"contracts/learn.sol\":983:998  _usdcCollateral */\n      dup5\n        /* \"contracts/learn.sol\":978:1019  Loan(_usdcCollateral, _ethDebt, _axsDebt) */\n      dup2\n      mstore\n      0x20\n      add\n        /* \"contracts/learn.sol\":1000:1008  _ethDebt */\n      dup4\n        /* \"contracts/learn.sol\":978:1019  Loan(_usdcCollateral, _ethDebt, _axsDebt) */\n      dup2\n      mstore\n      0x20\n      add\n        /* \"contracts/learn.sol\":1010:1018  _axsDebt */\n      dup3\n        /* \"contracts/learn.sol\":978:1019  Loan(_usdcCollateral, _ethDebt, _axsDebt) */\n      dup2\n      mstore\n      pop\n        /* \"contracts/learn.sol\":959:964  loans */\n      0x01\n        /* \"contracts/learn.sol\":959:975  loans[_borrower] */\n      0x00\n        /* \"contracts/learn.sol\":965:974  _borrower */\n      dup7\n        /* \"contracts/learn.sol\":959:975  loans[_borrower] */\n      0xffffffffffffffffffffffffffffffffffffffff\n      and\n      0xffffffffffffffffffffffffffffffffffffffff\n      and\n      dup2\n      mstore\n      0x20\n      add\n      swap1\n      dup2\n      mstore\n      0x20\n      add\n      0x00\n      keccak256\n        /* \"contracts/learn.sol\":959:1019  loans[_borrower] = Loan(_usdcCollateral, _ethDebt, _axsDebt) */\n      0x00\n      dup3\n      add\n      mload\n      dup2\n      0x00\n      add\n      sstore\n      0x20\n      dup3\n      add\n      mload\n      dup2\n      0x01\n      add\n      sstore\n      0x40\n      dup3\n      add\n      mload\n      dup2\n      0x02\n      add\n      sstore\n      swap1\n      pop\n      pop\n        /* \"contracts/learn.sol\":779:1026  function addLoan(address _borrower, uint256 _usdcCollateral, uint256 _ethDebt, uint256 _axsDebt) public {... */\n      pop\n      pop\n      pop\n      pop\n      jump\t// out\n        /* \"contracts/learn.sol\":264:303  uint256 public collateralRatioUSDC = 90 */\n    tag_47:\n      sload(0x02)\n      dup2\n      jump\t// out\n        /* \"contracts/learn.sol\":2007:2099  function changeETHRate(uint256 _ethPrice) public {... */\n    tag_51:\n        /* \"contracts/learn.sol\":2083:2092  _ethPrice */\n      dup1\n        /* \"contracts/learn.sol\":2066:2080  ethPriceOnUSDC */\n      0x05\n        /* \"contracts/learn.sol\":2066:2092  ethPriceOnUSDC = _ethPrice */\n      dup2\n      swap1\n      sstore\n      pop\n        /* \"contracts/learn.sol\":2007:2099  function changeETHRate(uint256 _ethPrice) public {... */\n      pop\n      jump\t// out\n        /* \"contracts/learn.sol\":1032:2001  function getHealthFactor(address _borrower) public returns (uint256) {... */\n    tag_54:\n        /* \"contracts/learn.sol\":1092:1099  uint256 */\n      0x00\n        /* \"contracts/learn.sol\":1111:1127  Loan memory loan */\n      dup1\n        /* \"contracts/learn.sol\":1130:1135  loans */\n      0x01\n        /* \"contracts/learn.sol\":1130:1146  loans[_borrower] */\n      0x00\n        /* \"contracts/learn.sol\":1136:1145  _borrower */\n      dup5\n        /* \"contracts/learn.sol\":1130:1146  loans[_borrower] */\n      0xffffffffffffffffffffffffffffffffffffffff\n      and\n      0xffffffffffffffffffffffffffffffffffffffff\n      and\n      dup2\n      mstore\n      0x20\n      add\n      swap1\n      dup2\n      mstore\n      0x20\n      add\n      0x00\n      keccak256\n        /* \"contracts/learn.sol\":1111:1146  Loan memory loan = loans[_borrower] */\n      mload(0x40)\n      dup1\n      0x60\n      add\n      0x40\n      mstore\n      swap1\n      dup2\n      0x00\n      dup3\n      add\n      sload\n      dup2\n      mstore\n      0x20\n      add\n      0x01\n      dup3\n      add\n      sload\n      dup2\n      mstore\n      0x20\n      add\n      0x02\n      dup3\n      add\n      sload\n      dup2\n      mstore\n      pop\n      pop\n      swap1\n      pop\n        /* \"contracts/learn.sol\":1247:1270  uint256 totalCollateral */\n      0x00\n        /* \"contracts/learn.sol\":1319:1322  100 */\n      0x64\n        /* \"contracts/learn.sol\":1296:1315  collateralRatioUSDC */\n      sload(0x02)\n        /* \"contracts/learn.sol\":1274:1278  loan */\n      dup4\n        /* \"contracts/learn.sol\":1274:1293  loan.usdcCollateral */\n      0x00\n      add\n      mload\n        /* \"contracts/learn.sol\":1274:1315  loan.usdcCollateral * collateralRatioUSDC */\n      tag_63\n      swap2\n      swap1\n      tag_64\n      jump\t// in\n    tag_63:\n        /* \"contracts/learn.sol\":1273:1322  (loan.usdcCollateral * collateralRatioUSDC) / 100 */\n      tag_65\n      swap2\n      swap1\n      tag_66\n      jump\t// in\n    tag_65:\n        /* \"contracts/learn.sol\":1247:1322  uint256 totalCollateral = (loan.usdcCollateral * collateralRatioUSDC) / 100 */\n      swap1\n      pop\n        /* \"contracts/learn.sol\":1376:1397  uint256 ethDebtInUSDC */\n      0x00\n        /* \"contracts/learn.sol\":1434:1436  10 */\n      0x0a\n        /* \"contracts/learn.sol\":1416:1430  ethPriceOnUSDC */\n      sload(0x05)\n        /* \"contracts/learn.sol\":1401:1405  loan */\n      dup5\n        /* \"contracts/learn.sol\":1401:1413  loan.ethDebt */\n      0x20\n      add\n      mload\n        /* \"contracts/learn.sol\":1401:1430  loan.ethDebt * ethPriceOnUSDC */\n      tag_67\n      swap2\n      swap1\n      tag_64\n      jump\t// in\n    tag_67:\n        /* \"contracts/learn.sol\":1400:1436  (loan.ethDebt * ethPriceOnUSDC) / 10 */\n      tag_68\n      swap2\n      swap1\n      tag_66\n      jump\t// in\n    tag_68:\n        /* \"contracts/learn.sol\":1376:1436  uint256 ethDebtInUSDC = (loan.ethDebt * ethPriceOnUSDC) / 10 */\n      swap1\n      pop\n        /* \"contracts/learn.sol\":1491:1512  uint256 axsDebtInUSDC */\n      0x00\n        /* \"contracts/learn.sol\":1565:1570  10000 */\n      0x2710\n        /* \"contracts/learn.sol\":1547:1561  ethPriceOnUSDC */\n      sload(0x05)\n        /* \"contracts/learn.sol\":1531:1544  axsToETHPrice */\n      sload(0x06)\n        /* \"contracts/learn.sol\":1516:1520  loan */\n      dup7\n        /* \"contracts/learn.sol\":1516:1528  loan.axsDebt */\n      0x40\n      add\n      mload\n        /* \"contracts/learn.sol\":1516:1544  loan.axsDebt * axsToETHPrice */\n      tag_69\n      swap2\n      swap1\n      tag_64\n      jump\t// in\n    tag_69:\n        /* \"contracts/learn.sol\":1516:1561  loan.axsDebt * axsToETHPrice * ethPriceOnUSDC */\n      tag_70\n      swap2\n      swap1\n      tag_64\n      jump\t// in\n    tag_70:\n        /* \"contracts/learn.sol\":1515:1570  (loan.axsDebt * axsToETHPrice * ethPriceOnUSDC) / 10000 */\n      tag_71\n      swap2\n      swap1\n      tag_66\n      jump\t// in\n    tag_71:\n        /* \"contracts/learn.sol\":1491:1570  uint256 axsDebtInUSDC = (loan.axsDebt * axsToETHPrice * ethPriceOnUSDC) / 10000 */\n      swap1\n      pop\n        /* \"contracts/learn.sol\":1580:1597  uint256 totalDebt */\n      0x00\n        /* \"contracts/learn.sol\":1616:1629  axsDebtInUSDC */\n      dup2\n        /* \"contracts/learn.sol\":1600:1613  ethDebtInUSDC */\n      dup4\n        /* \"contracts/learn.sol\":1600:1629  ethDebtInUSDC + axsDebtInUSDC */\n      tag_72\n      swap2\n      swap1\n      tag_73\n      jump\t// in\n    tag_72:\n        /* \"contracts/learn.sol\":1580:1629  uint256 totalDebt = ethDebtInUSDC + axsDebtInUSDC */\n      swap1\n      pop\n        /* \"contracts/learn.sol\":1657:1658  0 */\n      0x00\n        /* \"contracts/learn.sol\":1644:1653  totalDebt */\n      dup2\n        /* \"contracts/learn.sol\":1644:1658  totalDebt == 0 */\n      sub\n        /* \"contracts/learn.sol\":1640:1730  if (totalDebt == 0) {... */\n      tag_74\n      jumpi\n        /* \"contracts/learn.sol\":1681:1698  type(uint256).max */\n      0xffffffffffffffffffffffffffffffffffffffffffffffffffffffffffffffff\n        /* \"contracts/learn.sol\":1674:1698  return type(uint256).max */\n      swap6\n      pop\n      pop\n      pop\n      pop\n      pop\n      pop\n      jump(tag_62)\n        /* \"contracts/learn.sol\":1640:1730  if (totalDebt == 0) {... */\n    tag_74:\n        /* \"contracts/learn.sol\":1771:1791  uint256 healthFactor */\n      0x00\n        /* \"contracts/learn.sol\":1820:1829  totalDebt */\n      dup2\n        /* \"contracts/learn.sol\":1813:1816  100 */\n      0x64\n        /* \"contracts/learn.sol\":1795:1810  totalCollateral */\n      dup7\n        /* \"contracts/learn.sol\":1795:1816  totalCollateral * 100 */\n      tag_75\n      swap2\n      swap1\n      tag_64\n      jump\t// in\n    tag_75:\n        /* \"contracts/learn.sol\":1794:1829  (totalCollateral * 100) / totalDebt */\n      tag_76\n      swap2\n      swap1\n      tag_66\n      jump\t// in\n    tag_76:\n        /* \"contracts/learn.sol\":1771:1829  uint256 healthFactor = (totalCollateral * 100) / totalDebt */\n      swap1\n      pop\n        /* \"contracts/learn.sol\":1889:1964  HealthFactorCalculated(_borrower, totalCollateral, totalDebt, healthFactor) */\n      0x96df9b99931636b730287949d80832331a9fd2fd69bc2bb6ce2145403af80688\n        /* \"contracts/learn.sol\":1912:1921  _borrower */\n      dup9\n        /* \"contracts/learn.sol\":1923:1938  totalCollateral */\n      dup7\n        /* \"contracts/learn.sol\":1940:1949  totalDebt */\n      dup5\n        /* \"contracts/learn.sol\":1951:1963  healthFactor */\n      dup5\n        /* \"contracts/learn.sol\":1889:1964  HealthFactorCalculated(_borrower, totalCollateral, totalDebt, healthFactor) */\n      mload(0x40)\n      tag_77\n      swap5\n      swap4\n      swap3\n      swap2\n      swap1\n      tag_78\n      jump\t// in\n    tag_77:\n      mload(0x40)\n      dup1\n      swap2\n      sub\n      swap1\n      log1\n        /* \"contracts/learn.sol\":1982:1994  healthFactor */\n      dup1\n        /* \"contracts/learn.sol\":1975:1994  return healthFactor */\n      swap7\n      pop\n      pop\n      pop\n      pop\n      pop\n      pop\n      pop\n        /* \"contracts/learn.sol\":1032:2001  function getHealthFactor(address _borrower) public returns (uint256) {... */\n    tag_62:\n      swap2\n      swap1\n      pop\n      jump\t// out\n        /* \"#utility.yul\":7:84   */\n    tag_79:\n        /* \"#utility.yul\":44:51   */\n      0x00\n        /* \"#utility.yul\":73:78   */\n      dup2\n        /* \"#utility.yul\":62:78   */\n      swap1\n      pop\n        /* \"#utility.yul\":7:84   */\n      swap2\n      swap1\n      pop\n      jump\t// out\n        /* \"#utility.yul\":90:208   */\n    tag_80:\n        /* \"#utility.yul\":177:201   */\n      tag_99\n        /* \"#utility.yul\":195:200   */\n      dup2\n        /* \"#utility.yul\":177:201   */\n      tag_79\n      jump\t// in\n    tag_99:\n        /* \"#utility.yul\":172:175   */\n      dup3\n        /* \"#utility.yul\":165:202   */\n      mstore\n        /* \"#utility.yul\":90:208   */\n      pop\n      pop\n      jump\t// out\n        /* \"#utility.yul\":214:436   */\n    tag_18:\n        /* \"#utility.yul\":307:311   */\n      0x00\n        /* \"#utility.yul\":345:347   */\n      0x20\n        /* \"#utility.yul\":334:343   */\n      dup3\n        /* \"#utility.yul\":330:348   */\n      add\n        /* \"#utility.yul\":322:348   */\n      swap1\n      pop\n        /* \"#utility.yul\":358:429   */\n      tag_101\n        /* \"#utility.yul\":426:427   */\n      0x00\n        /* \"#utility.yul\":415:424   */\n      dup4\n        /* \"#utility.yul\":411:428   */\n      add\n        /* \"#utility.yul\":402:408   */\n      dup5\n        /* \"#utility.yul\":358:429   */\n      tag_80\n      jump\t// in\n    tag_101:\n        /* \"#utility.yul\":214:436   */\n      swap3\n      swap2\n      pop\n      pop\n      jump\t// out\n        /* \"#utility.yul\":523:640   */\n    tag_82:\n        /* \"#utility.yul\":632:633   */\n      0x00\n        /* \"#utility.yul\":629:630   */\n      dup1\n        /* \"#utility.yul\":622:634   */\n      revert\n        /* \"#utility.yul\":769:891   */\n    tag_84:\n        /* \"#utility.yul\":842:866   */\n      tag_106\n        /* \"#utility.yul\":860:865   */\n      dup2\n        /* \"#utility.yul\":842:866   */\n      tag_79\n      jump\t// in\n    tag_106:\n        /* \"#utility.yul\":835:840   */\n      dup2\n        /* \"#utility.yul\":832:867   */\n      eq\n        /* \"#utility.yul\":822:885   */\n      tag_107\n      jumpi\n        /* \"#utility.yul\":881:882   */\n      0x00\n        /* \"#utility.yul\":878:879   */\n      dup1\n        /* \"#utility.yul\":871:883   */\n      revert\n        /* \"#utility.yul\":822:885   */\n    tag_107:\n        /* \"#utility.yul\":769:891   */\n      pop\n      jump\t// out\n        /* \"#utility.yul\":897:1036   */\n    tag_85:\n        /* \"#utility.yul\":943:948   */\n      0x00\n        /* \"#utility.yul\":981:987   */\n      dup2\n        /* \"#utility.yul\":968:988   */\n      calldataload\n        /* \"#utility.yul\":959:988   */\n      swap1\n      pop\n        /* \"#utility.yul\":997:1030   */\n      tag_109\n        /* \"#utility.yul\":1024:1029   */\n      dup2\n        /* \"#utility.yul\":997:1030   */\n      tag_84\n      jump\t// in\n    tag_109:\n        /* \"#utility.yul\":897:1036   */\n      swap3\n      swap2\n      pop\n      pop\n      jump\t// out\n        /* \"#utility.yul\":1042:1371   */\n    tag_24:\n        /* \"#utility.yul\":1101:1107   */\n      0x00\n        /* \"#utility.yul\":1150:1152   */\n      0x20\n        /* \"#utility.yul\":1138:1147   */\n      dup3\n        /* \"#utility.yul\":1129:1136   */\n      dup5\n        /* \"#utility.yul\":1125:1148   */\n      sub\n        /* \"#utility.yul\":1121:1153   */\n      slt\n        /* \"#utility.yul\":1118:1237   */\n      iszero\n      tag_111\n      jumpi\n        /* \"#utility.yul\":1156:1235   */\n      tag_112\n      tag_82\n      jump\t// in\n    tag_112:\n        /* \"#utility.yul\":1118:1237   */\n    tag_111:\n        /* \"#utility.yul\":1276:1277   */\n      0x00\n        /* \"#utility.yul\":1301:1354   */\n      tag_113\n        /* \"#utility.yul\":1346:1353   */\n      dup5\n        /* \"#utility.yul\":1337:1343   */\n      dup3\n        /* \"#utility.yul\":1326:1335   */\n      dup6\n        /* \"#utility.yul\":1322:1344   */\n      add\n        /* \"#utility.yul\":1301:1354   */\n      tag_85\n      jump\t// in\n    tag_113:\n        /* \"#utility.yul\":1291:1354   */\n      swap2\n      pop\n        /* \"#utility.yul\":1247:1364   */\n      pop\n        /* \"#utility.yul\":1042:1371   */\n      swap3\n      swap2\n      pop\n      pop\n      jump\t// out\n        /* \"#utility.yul\":1377:1503   */\n    tag_86:\n        /* \"#utility.yul\":1414:1421   */\n      0x00\n        /* \"#utility.yul\":1454:1496   */\n      0xffffffffffffffffffffffffffffffffffffffff\n        /* \"#utility.yul\":1447:1452   */\n      dup3\n        /* \"#utility.yul\":1443:1497   */\n      and\n        /* \"#utility.yul\":1432:1497   */\n      swap1\n      pop\n        /* \"#utility.yul\":1377:1503   */\n      swap2\n      swap1\n      pop\n      jump\t// out\n        /* \"#utility.yul\":1509:1605   */\n    tag_87:\n        /* \"#utility.yul\":1546:1553   */\n      0x00\n        /* \"#utility.yul\":1575:1599   */\n      tag_116\n        /* \"#utility.yul\":1593:1598   */\n      dup3\n        /* \"#utility.yul\":1575:1599   */\n      tag_86\n      jump\t// in\n    tag_116:\n        /* \"#utility.yul\":1564:1599   */\n      swap1\n      pop\n        /* \"#utility.yul\":1509:1605   */\n      swap2\n      swap1\n      pop\n      jump\t// out\n        /* \"#utility.yul\":1611:1733   */\n    tag_88:\n        /* \"#utility.yul\":1684:1708   */\n      tag_118\n        /* \"#utility.yul\":1702:1707   */\n      dup2\n        /* \"#utility.yul\":1684:1708   */\n      tag_87\n      jump\t// in\n    tag_118:\n        /* \"#utility.yul\":1677:1682   */\n      dup2\n        /* \"#utility.yul\":1674:1709   */\n      eq\n        /* \"#utility.yul\":1664:1727   */\n      tag_119\n      jumpi\n        /* \"#utility.yul\":1723:1724   */\n      0x00\n        /* \"#utility.yul\":1720:1721   */\n      dup1\n        /* \"#utility.yul\":1713:1725   */\n      revert\n        /* \"#utility.yul\":1664:1727   */\n    tag_119:\n        /* \"#utility.yul\":1611:1733   */\n      pop\n      jump\t// out\n        /* \"#utility.yul\":1739:1878   */\n    tag_89:\n        /* \"#utility.yul\":1785:1790   */\n      0x00\n        /* \"#utility.yul\":1823:1829   */\n      dup2\n        /* \"#utility.yul\":1810:1830   */\n      calldataload\n        /* \"#utility.yul\":1801:1830   */\n      swap1\n      pop\n        /* \"#utility.yul\":1839:1872   */\n      tag_121\n        /* \"#utility.yul\":1866:1871   */\n      dup2\n        /* \"#utility.yul\":1839:1872   */\n      tag_88\n      jump\t// in\n    tag_121:\n        /* \"#utility.yul\":1739:1878   */\n      swap3\n      swap2\n      pop\n      pop\n      jump\t// out\n        /* \"#utility.yul\":1884:2213   */\n    tag_31:\n        /* \"#utility.yul\":1943:1949   */\n      0x00\n        /* \"#utility.yul\":1992:1994   */\n      0x20\n        /* \"#utility.yul\":1980:1989   */\n      dup3\n        /* \"#utility.yul\":1971:1978   */\n      dup5\n        /* \"#utility.yul\":1967:1990   */\n      sub\n        /* \"#utility.yul\":1963:1995   */\n      slt\n        /* \"#utility.yul\":1960:2079   */\n      iszero\n      tag_123\n      jumpi\n        /* \"#utility.yul\":1998:2077   */\n      tag_124\n      tag_82\n      jump\t// in\n    tag_124:\n        /* \"#utility.yul\":1960:2079   */\n    tag_123:\n        /* \"#utility.yul\":2118:2119   */\n      0x00\n        /* \"#utility.yul\":2143:2196   */\n      tag_125\n        /* \"#utility.yul\":2188:2195   */\n      dup5\n        /* \"#utility.yul\":2179:2185   */\n      dup3\n        /* \"#utility.yul\":2168:2177   */\n      dup6\n        /* \"#utility.yul\":2164:2186   */\n      add\n        /* \"#utility.yul\":2143:2196   */\n      tag_89\n      jump\t// in\n    tag_125:\n        /* \"#utility.yul\":2133:2196   */\n      swap2\n      pop\n        /* \"#utility.yul\":2089:2206   */\n      pop\n        /* \"#utility.yul\":1884:2213   */\n      swap3\n      swap2\n      pop\n      pop\n      jump\t// out\n        /* \"#utility.yul\":2219:2661   */\n    tag_34:\n        /* \"#utility.yul\":2368:2372   */\n      0x00\n        /* \"#utility.yul\":2406:2408   */\n      0x60\n        /* \"#utility.yul\":2395:2404   */\n      dup3\n        /* \"#utility.yul\":2391:2409   */\n      add\n        /* \"#utility.yul\":2383:2409   */\n      swap1\n      pop\n        /* \"#utility.yul\":2419:2490   */\n      tag_127\n        /* \"#utility.yul\":2487:2488   */\n      0x00\n        /* \"#utility.yul\":2476:2485   */\n      dup4\n        /* \"#utility.yul\":2472:2489   */\n      add\n        /* \"#utility.yul\":2463:2469   */\n      dup7\n        /* \"#utility.yul\":2419:2490   */\n      tag_80\n      jump\t// in\n    tag_127:\n        /* \"#utility.yul\":2500:2572   */\n      tag_128\n        /* \"#utility.yul\":2568:2570   */\n      0x20\n        /* \"#utility.yul\":2557:2566   */\n      dup4\n        /* \"#utility.yul\":2553:2571   */\n      add\n        /* \"#utility.yul\":2544:2550   */\n      dup6\n        /* \"#utility.yul\":2500:2572   */\n      tag_80\n      jump\t// in\n    tag_128:\n        /* \"#utility.yul\":2582:2654   */\n      tag_129\n        /* \"#utility.yul\":2650:2652   */\n      0x40\n        /* \"#utility.yul\":2639:2648   */\n      dup4\n        /* \"#utility.yul\":2635:2653   */\n      add\n        /* \"#utility.yul\":2626:2632   */\n      dup5\n        /* \"#utility.yul\":2582:2654   */\n      tag_80\n      jump\t// in\n    tag_129:\n        /* \"#utility.yul\":2219:2661   */\n      swap5\n      swap4\n      pop\n      pop\n      pop\n      pop\n      jump\t// out\n        /* \"#utility.yul\":2667:2785   */\n    tag_90:\n        /* \"#utility.yul\":2754:2778   */\n      tag_131\n        /* \"#utility.yul\":2772:2777   */\n      dup2\n        /* \"#utility.yul\":2754:2778   */\n      tag_87\n      jump\t// in\n    tag_131:\n        /* \"#utility.yul\":2749:2752   */\n      dup3\n        /* \"#utility.yul\":2742:2779   */\n      mstore\n        /* \"#utility.yul\":2667:2785   */\n      pop\n      pop\n      jump\t// out\n        /* \"#utility.yul\":2791:3013   */\n    tag_38:\n        /* \"#utility.yul\":2884:2888   */\n      0x00\n        /* \"#utility.yul\":2922:2924   */\n      0x20\n        /* \"#utility.yul\":2911:2920   */\n      dup3\n        /* \"#utility.yul\":2907:2925   */\n      add\n        /* \"#utility.yul\":2899:2925   */\n      swap1\n      pop\n        /* \"#utility.yul\":2935:3006   */\n      tag_133\n        /* \"#utility.yul\":3003:3004   */\n      0x00\n        /* \"#utility.yul\":2992:3001   */\n      dup4\n        /* \"#utility.yul\":2988:3005   */\n      add\n        /* \"#utility.yul\":2979:2985   */\n      dup5\n        /* \"#utility.yul\":2935:3006   */\n      tag_90\n      jump\t// in\n    tag_133:\n        /* \"#utility.yul\":2791:3013   */\n      swap3\n      swap2\n      pop\n      pop\n      jump\t// out\n        /* \"#utility.yul\":3019:3784   */\n    tag_44:\n        /* \"#utility.yul\":3105:3111   */\n      0x00\n        /* \"#utility.yul\":3113:3119   */\n      dup1\n        /* \"#utility.yul\":3121:3127   */\n      0x00\n        /* \"#utility.yul\":3129:3135   */\n      dup1\n        /* \"#utility.yul\":3178:3181   */\n      0x80\n        /* \"#utility.yul\":3166:3175   */\n      dup6\n        /* \"#utility.yul\":3157:3164   */\n      dup8\n        /* \"#utility.yul\":3153:3176   */\n      sub\n        /* \"#utility.yul\":3149:3182   */\n      slt\n        /* \"#utility.yul\":3146:3266   */\n      iszero\n      tag_135\n      jumpi\n        /* \"#utility.yul\":3185:3264   */\n      tag_136\n      tag_82\n      jump\t// in\n    tag_136:\n        /* \"#utility.yul\":3146:3266   */\n    tag_135:\n        /* \"#utility.yul\":3305:3306   */\n      0x00\n        /* \"#utility.yul\":3330:3383   */\n      tag_137\n        /* \"#utility.yul\":3375:3382   */\n      dup8\n        /* \"#utility.yul\":3366:3372   */\n      dup3\n        /* \"#utility.yul\":3355:3364   */\n      dup9\n        /* \"#utility.yul\":3351:3373   */\n      add\n        /* \"#utility.yul\":3330:3383   */\n      tag_89\n      jump\t// in\n    tag_137:\n        /* \"#utility.yul\":3320:3383   */\n      swap5\n      pop\n        /* \"#utility.yul\":3276:3393   */\n      pop\n        /* \"#utility.yul\":3432:3434   */\n      0x20\n        /* \"#utility.yul\":3458:3511   */\n      tag_138\n        /* \"#utility.yul\":3503:3510   */\n      dup8\n        /* \"#utility.yul\":3494:3500   */\n      dup3\n        /* \"#utility.yul\":3483:3492   */\n      dup9\n        /* \"#utility.yul\":3479:3501   */\n      add\n        /* \"#utility.yul\":3458:3511   */\n      tag_85\n      jump\t// in\n    tag_138:\n        /* \"#utility.yul\":3448:3511   */\n      swap4\n      pop\n        /* \"#utility.yul\":3403:3521   */\n      pop\n        /* \"#utility.yul\":3560:3562   */\n      0x40\n        /* \"#utility.yul\":3586:3639   */\n      tag_139\n        /* \"#utility.yul\":3631:3638   */\n      dup8\n        /* \"#utility.yul\":3622:3628   */\n      dup3\n        /* \"#utility.yul\":3611:3620   */\n      dup9\n        /* \"#utility.yul\":3607:3629   */\n      add\n        /* \"#utility.yul\":3586:3639   */\n      tag_85\n      jump\t// in\n    tag_139:\n        /* \"#utility.yul\":3576:3639   */\n      swap3\n      pop\n        /* \"#utility.yul\":3531:3649   */\n      pop\n        /* \"#utility.yul\":3688:3690   */\n      0x60\n        /* \"#utility.yul\":3714:3767   */\n      tag_140\n        /* \"#utility.yul\":3759:3766   */\n      dup8\n        /* \"#utility.yul\":3750:3756   */\n      dup3\n        /* \"#utility.yul\":3739:3748   */\n      dup9\n        /* \"#utility.yul\":3735:3757   */\n      add\n        /* \"#utility.yul\":3714:3767   */\n      tag_85\n      jump\t// in\n    tag_140:\n        /* \"#utility.yul\":3704:3767   */\n      swap2\n      pop\n        /* \"#utility.yul\":3659:3777   */\n      pop\n        /* \"#utility.yul\":3019:3784   */\n      swap3\n      swap6\n      swap2\n      swap5\n      pop\n      swap3\n      pop\n      jump\t// out\n        /* \"#utility.yul\":3790:3959   */\n    tag_91:\n        /* \"#utility.yul\":3874:3885   */\n      0x00\n        /* \"#utility.yul\":3908:3914   */\n      dup3\n        /* \"#utility.yul\":3903:3906   */\n      dup3\n        /* \"#utility.yul\":3896:3915   */\n      mstore\n        /* \"#utility.yul\":3948:3952   */\n      0x20\n        /* \"#utility.yul\":3943:3946   */\n      dup3\n        /* \"#utility.yul\":3939:3953   */\n      add\n        /* \"#utility.yul\":3924:3953   */\n      swap1\n      pop\n        /* \"#utility.yul\":3790:3959   */\n      swap3\n      swap2\n      pop\n      pop\n      jump\t// out\n        /* \"#utility.yul\":3965:4139   */\n    tag_92:\n        /* \"#utility.yul\":4105:4131   */\n      0x4f6e6c79206f776e65722063616e20616464206c6f616e730000000000000000\n        /* \"#utility.yul\":4101:4102   */\n      0x00\n        /* \"#utility.yul\":4093:4099   */\n      dup3\n        /* \"#utility.yul\":4089:4103   */\n      add\n        /* \"#utility.yul\":4082:4132   */\n      mstore\n        /* \"#utility.yul\":3965:4139   */\n      pop\n      jump\t// out\n        /* \"#utility.yul\":4145:4511   */\n    tag_93:\n        /* \"#utility.yul\":4287:4290   */\n      0x00\n        /* \"#utility.yul\":4308:4375   */\n      tag_144\n        /* \"#utility.yul\":4372:4374   */\n      0x18\n        /* \"#utility.yul\":4367:4370   */\n      dup4\n        /* \"#utility.yul\":4308:4375   */\n      tag_91\n      jump\t// in\n    tag_144:\n        /* \"#utility.yul\":4301:4375   */\n      swap2\n      pop\n        /* \"#utility.yul\":4384:4477   */\n      tag_145\n        /* \"#utility.yul\":4473:4476   */\n      dup3\n        /* \"#utility.yul\":4384:4477   */\n      tag_92\n      jump\t// in\n    tag_145:\n        /* \"#utility.yul\":4502:4504   */\n      0x20\n        /* \"#utility.yul\":4497:4500   */\n      dup3\n        /* \"#utility.yul\":4493:4505   */\n      add\n        /* \"#utility.yul\":4486:4505   */\n      swap1\n      pop\n        /* \"#utility.yul\":4145:4511   */\n      swap2\n      swap1\n      pop\n      jump\t// out\n        /* \"#utility.yul\":4517:4936   */\n    tag_60:\n        /* \"#utility.yul\":4683:4687   */\n      0x00\n        /* \"#utility.yul\":4721:4723   */\n      0x20\n        /* \"#utility.yul\":4710:4719   */\n      dup3\n        /* \"#utility.yul\":4706:4724   */\n      add\n        /* \"#utility.yul\":4698:4724   */\n      swap1\n      pop\n        /* \"#utility.yul\":4770:4779   */\n      dup2\n        /* \"#utility.yul\":4764:4768   */\n      dup2\n        /* \"#utility.yul\":4760:4780   */\n      sub\n        /* \"#utility.yul\":4756:4757   */\n      0x00\n        /* \"#utility.yul\":4745:4754   */\n      dup4\n        /* \"#utility.yul\":4741:4758   */\n      add\n        /* \"#utility.yul\":4734:4781   */\n      mstore\n        /* \"#utility.yul\":4798:4929   */\n      tag_147\n        /* \"#utility.yul\":4924:4928   */\n      dup2\n        /* \"#utility.yul\":4798:4929   */\n      tag_93\n      jump\t// in\n    tag_147:\n        /* \"#utility.yul\":4790:4929   */\n      swap1\n      pop\n        /* \"#utility.yul\":4517:4936   */\n      swap2\n      swap1\n      pop\n      jump\t// out\n        /* \"#utility.yul\":4942:5122   */\n    tag_94:\n        /* \"#utility.yul\":4990:5067   */\n      0x4e487b7100000000000000000000000000000000000000000000000000000000\n        /* \"#utility.yul\":4987:4988   */\n      0x00\n        /* \"#utility.yul\":4980:5068   */\n      mstore\n        /* \"#utility.yul\":5087:5091   */\n      0x11\n        /* \"#utility.yul\":5084:5085   */\n      0x04\n        /* \"#utility.yul\":5077:5092   */\n      mstore\n        /* \"#utility.yul\":5111:5115   */\n      0x24\n        /* \"#utility.yul\":5108:5109   */\n      0x00\n        /* \"#utility.yul\":5101:5116   */\n      revert\n        /* \"#utility.yul\":5128:5538   */\n    tag_64:\n        /* \"#utility.yul\":5168:5175   */\n      0x00\n        /* \"#utility.yul\":5191:5211   */\n      tag_150\n        /* \"#utility.yul\":5209:5210   */\n      dup3\n        /* \"#utility.yul\":5191:5211   */\n      tag_79\n      jump\t// in\n    tag_150:\n        /* \"#utility.yul\":5186:5211   */\n      swap2\n      pop\n        /* \"#utility.yul\":5225:5245   */\n      tag_151\n        /* \"#utility.yul\":5243:5244   */\n      dup4\n        /* \"#utility.yul\":5225:5245   */\n      tag_79\n      jump\t// in\n    tag_151:\n        /* \"#utility.yul\":5220:5245   */\n      swap3\n      pop\n        /* \"#utility.yul\":5280:5281   */\n      dup3\n        /* \"#utility.yul\":5277:5278   */\n      dup3\n        /* \"#utility.yul\":5273:5282   */\n      mul\n        /* \"#utility.yul\":5302:5332   */\n      tag_152\n        /* \"#utility.yul\":5320:5331   */\n      dup2\n        /* \"#utility.yul\":5302:5332   */\n      tag_79\n      jump\t// in\n    tag_152:\n        /* \"#utility.yul\":5291:5332   */\n      swap2\n      pop\n        /* \"#utility.yul\":5481:5482   */\n      dup3\n        /* \"#utility.yul\":5472:5479   */\n      dup3\n        /* \"#utility.yul\":5468:5483   */\n      div\n        /* \"#utility.yul\":5465:5466   */\n      dup5\n        /* \"#utility.yul\":5462:5484   */\n      eq\n        /* \"#utility.yul\":5442:5443   */\n      dup4\n        /* \"#utility.yul\":5435:5444   */\n      iszero\n        /* \"#utility.yul\":5415:5498   */\n      or\n        /* \"#utility.yul\":5392:5531   */\n      tag_153\n      jumpi\n        /* \"#utility.yul\":5511:5529   */\n      tag_154\n      tag_94\n      jump\t// in\n    tag_154:\n        /* \"#utility.yul\":5392:5531   */\n    tag_153:\n        /* \"#utility.yul\":5176:5538   */\n      pop\n        /* \"#utility.yul\":5128:5538   */\n      swap3\n      swap2\n      pop\n      pop\n      jump\t// out\n        /* \"#utility.yul\":5544:5724   */\n    tag_95:\n        /* \"#utility.yul\":5592:5669   */\n      0x4e487b7100000000000000000000000000000000000000000000000000000000\n        /* \"#utility.yul\":5589:5590   */\n      0x00\n        /* \"#utility.yul\":5582:5670   */\n      mstore\n        /* \"#utility.yul\":5689:5693   */\n      0x12\n        /* \"#utility.yul\":5686:5687   */\n      0x04\n        /* \"#utility.yul\":5679:5694   */\n      mstore\n        /* \"#utility.yul\":5713:5717   */\n      0x24\n        /* \"#utility.yul\":5710:5711   */\n      0x00\n        /* \"#utility.yul\":5703:5718   */\n      revert\n        /* \"#utility.yul\":5730:5915   */\n    tag_66:\n        /* \"#utility.yul\":5770:5771   */\n      0x00\n        /* \"#utility.yul\":5787:5807   */\n      tag_157\n        /* \"#utility.yul\":5805:5806   */\n      dup3\n        /* \"#utility.yul\":5787:5807   */\n      tag_79\n      jump\t// in\n    tag_157:\n        /* \"#utility.yul\":5782:5807   */\n      swap2\n      pop\n        /* \"#utility.yul\":5821:5841   */\n      tag_158\n        /* \"#utility.yul\":5839:5840   */\n      dup4\n        /* \"#utility.yul\":5821:5841   */\n      tag_79\n      jump\t// in\n    tag_158:\n        /* \"#utility.yul\":5816:5841   */\n      swap3\n      pop\n        /* \"#utility.yul\":5860:5861   */\n      dup3\n        /* \"#utility.yul\":5850:5885   */\n      tag_159\n      jumpi\n        /* \"#utility.yul\":5865:5883   */\n      tag_160\n      tag_95\n      jump\t// in\n    tag_160:\n        /* \"#utility.yul\":5850:5885   */\n    tag_159:\n        /* \"#utility.yul\":5907:5908   */\n      dup3\n        /* \"#utility.yul\":5904:5905   */\n      dup3\n        /* \"#utility.yul\":5900:5909   */\n      div\n        /* \"#utility.yul\":5895:5909   */\n      swap1\n      pop\n        /* \"#utility.yul\":5730:5915   */\n      swap3\n      swap2\n      pop\n      pop\n      jump\t// out\n        /* \"#utility.yul\":5921:6112   */\n    tag_73:\n        /* \"#utility.yul\":5961:5964   */\n      0x00\n        /* \"#utility.yul\":5980:6000   */\n      tag_162\n        /* \"#utility.yul\":5998:5999   */\n      dup3\n        /* \"#utility.yul\":5980:6000   */\n      tag_79\n      jump\t// in\n    tag_162:\n        /* \"#utility.yul\":5975:6000   */\n      swap2\n      pop\n        /* \"#utility.yul\":6014:6034   */\n      tag_163\n        /* \"#utility.yul\":6032:6033   */\n      dup4\n        /* \"#utility.yul\":6014:6034   */\n      tag_79\n      jump\t// in\n    tag_163:\n        /* \"#utility.yul\":6009:6034   */\n      swap3\n      pop\n        /* \"#utility.yul\":6057:6058   */\n      dup3\n        /* \"#utility.yul\":6054:6055   */\n      dup3\n        /* \"#utility.yul\":6050:6059   */\n      add\n        /* \"#utility.yul\":6043:6059   */\n      swap1\n      pop\n        /* \"#utility.yul\":6078:6081   */\n      dup1\n        /* \"#utility.yul\":6075:6076   */\n      dup3\n        /* \"#utility.yul\":6072:6082   */\n      gt\n        /* \"#utility.yul\":6069:6105   */\n      iszero\n      tag_164\n      jumpi\n        /* \"#utility.yul\":6085:6103   */\n      tag_165\n      tag_94\n      jump\t// in\n    tag_165:\n        /* \"#utility.yul\":6069:6105   */\n    tag_164:\n        /* \"#utility.yul\":5921:6112   */\n      swap3\n      swap2\n      pop\n      pop\n      jump\t// out\n        /* \"#utility.yul\":6118:6671   */\n    tag_78:\n        /* \"#utility.yul\":6295:6299   */\n      0x00\n        /* \"#utility.yul\":6333:6336   */\n      0x80\n        /* \"#utility.yul\":6322:6331   */\n      dup3\n        /* \"#utility.yul\":6318:6337   */\n      add\n        /* \"#utility.yul\":6310:6337   */\n      swap1\n      pop\n        /* \"#utility.yul\":6347:6418   */\n      tag_167\n        /* \"#utility.yul\":6415:6416   */\n      0x00\n        /* \"#utility.yul\":6404:6413   */\n      dup4\n        /* \"#utility.yul\":6400:6417   */\n      add\n        /* \"#utility.yul\":6391:6397   */\n      dup8\n        /* \"#utility.yul\":6347:6418   */\n      tag_90\n      jump\t// in\n    tag_167:\n        /* \"#utility.yul\":6428:6500   */\n      tag_168\n        /* \"#utility.yul\":6496:6498   */\n      0x20\n        /* \"#utility.yul\":6485:6494   */\n      dup4\n        /* \"#utility.yul\":6481:6499   */\n      add\n        /* \"#utility.yul\":6472:6478   */\n      dup7\n        /* \"#utility.yul\":6428:6500   */\n      tag_80\n      jump\t// in\n    tag_168:\n        /* \"#utility.yul\":6510:6582   */\n      tag_169\n        /* \"#utility.yul\":6578:6580   */\n      0x40\n        /* \"#utility.yul\":6567:6576   */\n      dup4\n        /* \"#utility.yul\":6563:6581   */\n      add\n        /* \"#utility.yul\":6554:6560   */\n      dup6\n        /* \"#utility.yul\":6510:6582   */\n      tag_80\n      jump\t// in\n    tag_169:\n        /* \"#utility.yul\":6592:6664   */\n      tag_170\n        /* \"#utility.yul\":6660:6662   */\n      0x60\n        /* \"#utility.yul\":6649:6658   */\n      dup4\n        /* \"#utility.yul\":6645:6663   */\n      add\n        /* \"#utility.yul\":6636:6642   */\n      dup5\n        /* \"#utility.yul\":6592:6664   */\n      tag_80\n      jump\t// in\n    tag_170:\n        /* \"#utility.yul\":6118:6671   */\n      swap6\n      swap5\n      pop\n      pop\n      pop\n      pop\n      pop\n      jump\t// out\n\n    auxdata: 0xa264697066735822122057a3255fdc0b63547ebebdcf1705252b3470d487b5c237607120b4e66aec67bd64736f6c634300081a0033\n}\n",
				"bytecode": {
					"linkReferences": {},
					"object": "6080604052605a600255605060035560466004556105dc60055560646006553480156028575f80fd5b50335f806101000a81548173ffffffffffffffffffffffffffffffffffffffff021916908373ffffffffffffffffffffffffffffffffffffffff1602179055506108dc806100755f395ff3fe608060405234801561000f575f80fd5b50600436106100a7575f3560e01c80638da5cb5b1161006f5780638da5cb5b146101535780639b923cc914610171578063ad24a3361461018f578063c56e4097146101ab578063f894ea86146101c9578063fe6bcd7c146101e5576100a7565b806304632a66146100ab57806311c9c304146100c95780631f71462e146100e75780634bfa16e91461010357806373b4086b14610121575b5f80fd5b6100b3610215565b6040516100c09190610535565b60405180910390f35b6100d161021b565b6040516100de9190610535565b60405180910390f35b61010160048036038101906100fc919061057c565b610221565b005b61010b61022b565b6040516101189190610535565b60405180910390f35b61013b60048036038101906101369190610601565b610231565b60405161014a9392919061062c565b60405180910390f35b61015b610257565b6040516101689190610670565b60405180910390f35b61017961027a565b6040516101869190610535565b60405180910390f35b6101a960048036038101906101a49190610689565b610280565b005b6101b361038a565b6040516101c09190610535565b60405180910390f35b6101e360048036038101906101de919061057c565b610390565b005b6101ff60048036038101906101fa9190610601565b61039a565b60405161020c9190610535565b60405180910390f35b60065481565b60035481565b8060068190555050565b60045481565b6001602052805f5260405f205f91509050805f0154908060010154908060020154905083565b5f8054906101000a900473ffffffffffffffffffffffffffffffffffffffff1681565b60055481565b5f8054906101000a900473ffffffffffffffffffffffffffffffffffffffff1673ffffffffffffffffffffffffffffffffffffffff163373ffffffffffffffffffffffffffffffffffffffff161461030d576040517f08c379a000000000000000000000000000000000000000000000000000000000815260040161030490610747565b60405180910390fd5b60405180606001604052808481526020018381526020018281525060015f8673ffffffffffffffffffffffffffffffffffffffff1673ffffffffffffffffffffffffffffffffffffffff1681526020019081526020015f205f820151815f0155602082015181600101556040820151816002015590505050505050565b60025481565b8060058190555050565b5f8060015f8473ffffffffffffffffffffffffffffffffffffffff1673ffffffffffffffffffffffffffffffffffffffff1681526020019081526020015f206040518060600160405290815f82015481526020016001820154815260200160028201548152505090505f6064600254835f01516104179190610792565b6104219190610800565b90505f600a60055484602001516104389190610792565b6104429190610800565b90505f612710600554600654866040015161045d9190610792565b6104679190610792565b6104719190610800565b90505f81836104809190610830565b90505f81036104b6577fffffffffffffffffffffffffffffffffffffffffffffffffffffffffffffffff95505050505050610518565b5f816064866104c59190610792565b6104cf9190610800565b90507f96df9b99931636b730287949d80832331a9fd2fd69bc2bb6ce2145403af80688888684846040516105069493929190610863565b60405180910390a18096505050505050505b919050565b5f819050919050565b61052f8161051d565b82525050565b5f6020820190506105485f830184610526565b92915050565b5f80fd5b61055b8161051d565b8114610565575f80fd5b50565b5f8135905061057681610552565b92915050565b5f602082840312156105915761059061054e565b5b5f61059e84828501610568565b91505092915050565b5f73ffffffffffffffffffffffffffffffffffffffff82169050919050565b5f6105d0826105a7565b9050919050565b6105e0816105c6565b81146105ea575f80fd5b50565b5f813590506105fb816105d7565b92915050565b5f602082840312156106165761061561054e565b5b5f610623848285016105ed565b91505092915050565b5f60608201905061063f5f830186610526565b61064c6020830185610526565b6106596040830184610526565b949350505050565b61066a816105c6565b82525050565b5f6020820190506106835f830184610661565b92915050565b5f805f80608085870312156106a1576106a061054e565b5b5f6106ae878288016105ed565b94505060206106bf87828801610568565b93505060406106d087828801610568565b92505060606106e187828801610568565b91505092959194509250565b5f82825260208201905092915050565b7f4f6e6c79206f776e65722063616e20616464206c6f616e7300000000000000005f82015250565b5f6107316018836106ed565b915061073c826106fd565b602082019050919050565b5f6020820190508181035f83015261075e81610725565b9050919050565b7f4e487b71000000000000000000000000000000000000000000000000000000005f52601160045260245ffd5b5f61079c8261051d565b91506107a78361051d565b92508282026107b58161051d565b915082820484148315176107cc576107cb610765565b5b5092915050565b7f4e487b71000000000000000000000000000000000000000000000000000000005f52601260045260245ffd5b5f61080a8261051d565b91506108158361051d565b925082610825576108246107d3565b5b828204905092915050565b5f61083a8261051d565b91506108458361051d565b925082820190508082111561085d5761085c610765565b5b92915050565b5f6080820190506108765f830187610661565b6108836020830186610526565b6108906040830185610526565b61089d6060830184610526565b9594505050505056fea264697066735822122057a3255fdc0b63547ebebdcf1705252b3470d487b5c237607120b4e66aec67bd64736f6c634300081a0033",
					"opcodes": "PUSH1 0x80 PUSH1 0x40 MSTORE PUSH1 0x5A PUSH1 0x2 SSTORE PUSH1 0x50 PUSH1 0x3 SSTORE PUSH1 0x46 PUSH1 0x4 SSTORE PUSH2 0x5DC PUSH1 0x5 SSTORE PUSH1 0x64 PUSH1 0x6 SSTORE CALLVALUE DUP1 ISZERO PUSH1 0x28 JUMPI PUSH0 DUP1 REVERT JUMPDEST POP CALLER PUSH0 DUP1 PUSH2 0x100 EXP DUP2 SLOAD DUP2 PUSH20 0xFFFFFFFFFFFFFFFFFFFFFFFFFFFFFFFFFFFFFFFF MUL NOT AND SWAP1 DUP4 PUSH20 0xFFFFFFFFFFFFFFFFFFFFFFFFFFFFFFFFFFFFFFFF AND MUL OR SWAP1 SSTORE POP PUSH2 0x8DC DUP1 PUSH2 0x75 PUSH0 CODECOPY PUSH0 RETURN INVALID PUSH1 0x80 PUSH1 0x40 MSTORE CALLVALUE DUP1 ISZERO PUSH2 0xF JUMPI PUSH0 DUP1 REVERT JUMPDEST POP PUSH1 0x4 CALLDATASIZE LT PUSH2 0xA7 JUMPI PUSH0 CALLDATALOAD PUSH1 0xE0 SHR DUP1 PUSH4 0x8DA5CB5B GT PUSH2 0x6F JUMPI DUP1 PUSH4 0x8DA5CB5B EQ PUSH2 0x153 JUMPI DUP1 PUSH4 0x9B923CC9 EQ PUSH2 0x171 JUMPI DUP1 PUSH4 0xAD24A336 EQ PUSH2 0x18F JUMPI DUP1 PUSH4 0xC56E4097 EQ PUSH2 0x1AB JUMPI DUP1 PUSH4 0xF894EA86 EQ PUSH2 0x1C9 JUMPI DUP1 PUSH4 0xFE6BCD7C EQ PUSH2 0x1E5 JUMPI PUSH2 0xA7 JUMP JUMPDEST DUP1 PUSH4 0x4632A66 EQ PUSH2 0xAB JUMPI DUP1 PUSH4 0x11C9C304 EQ PUSH2 0xC9 JUMPI DUP1 PUSH4 0x1F71462E EQ PUSH2 0xE7 JUMPI DUP1 PUSH4 0x4BFA16E9 EQ PUSH2 0x103 JUMPI DUP1 PUSH4 0x73B4086B EQ PUSH2 0x121 JUMPI JUMPDEST PUSH0 DUP1 REVERT JUMPDEST PUSH2 0xB3 PUSH2 0x215 JUMP JUMPDEST PUSH1 0x40 MLOAD PUSH2 0xC0 SWAP2 SWAP1 PUSH2 0x535 JUMP JUMPDEST PUSH1 0x40 MLOAD DUP1 SWAP2 SUB SWAP1 RETURN JUMPDEST PUSH2 0xD1 PUSH2 0x21B JUMP JUMPDEST PUSH1 0x40 MLOAD PUSH2 0xDE SWAP2 SWAP1 PUSH2 0x535 JUMP JUMPDEST PUSH1 0x40 MLOAD DUP1 SWAP2 SUB SWAP1 RETURN JUMPDEST PUSH2 0x101 PUSH1 0x4 DUP1 CALLDATASIZE SUB DUP2 ADD SWAP1 PUSH2 0xFC SWAP2 SWAP1 PUSH2 0x57C JUMP JUMPDEST PUSH2 0x221 JUMP JUMPDEST STOP JUMPDEST PUSH2 0x10B PUSH2 0x22B JUMP JUMPDEST PUSH1 0x40 MLOAD PUSH2 0x118 SWAP2 SWAP1 PUSH2 0x535 JUMP JUMPDEST PUSH1 0x40 MLOAD DUP1 SWAP2 SUB SWAP1 RETURN JUMPDEST PUSH2 0x13B PUSH1 0x4 DUP1 CALLDATASIZE SUB DUP2 ADD SWAP1 PUSH2 0x136 SWAP2 SWAP1 PUSH2 0x601 JUMP JUMPDEST PUSH2 0x231 JUMP JUMPDEST PUSH1 0x40 MLOAD PUSH2 0x14A SWAP4 SWAP3 SWAP2 SWAP1 PUSH2 0x62C JUMP JUMPDEST PUSH1 0x40 MLOAD DUP1 SWAP2 SUB SWAP1 RETURN JUMPDEST PUSH2 0x15B PUSH2 0x257 JUMP JUMPDEST PUSH1 0x40 MLOAD PUSH2 0x168 SWAP2 SWAP1 PUSH2 0x670 JUMP JUMPDEST PUSH1 0x40 MLOAD DUP1 SWAP2 SUB SWAP1 RETURN JUMPDEST PUSH2 0x179 PUSH2 0x27A JUMP JUMPDEST PUSH1 0x40 MLOAD PUSH2 0x186 SWAP2 SWAP1 PUSH2 0x535 JUMP JUMPDEST PUSH1 0x40 MLOAD DUP1 SWAP2 SUB SWAP1 RETURN JUMPDEST PUSH2 0x1A9 PUSH1 0x4 DUP1 CALLDATASIZE SUB DUP2 ADD SWAP1 PUSH2 0x1A4 SWAP2 SWAP1 PUSH2 0x689 JUMP JUMPDEST PUSH2 0x280 JUMP JUMPDEST STOP JUMPDEST PUSH2 0x1B3 PUSH2 0x38A JUMP JUMPDEST PUSH1 0x40 MLOAD PUSH2 0x1C0 SWAP2 SWAP1 PUSH2 0x535 JUMP JUMPDEST PUSH1 0x40 MLOAD DUP1 SWAP2 SUB SWAP1 RETURN JUMPDEST PUSH2 0x1E3 PUSH1 0x4 DUP1 CALLDATASIZE SUB DUP2 ADD SWAP1 PUSH2 0x1DE SWAP2 SWAP1 PUSH2 0x57C JUMP JUMPDEST PUSH2 0x390 JUMP JUMPDEST STOP JUMPDEST PUSH2 0x1FF PUSH1 0x4 DUP1 CALLDATASIZE SUB DUP2 ADD SWAP1 PUSH2 0x1FA SWAP2 SWAP1 PUSH2 0x601 JUMP JUMPDEST PUSH2 0x39A JUMP JUMPDEST PUSH1 0x40 MLOAD PUSH2 0x20C SWAP2 SWAP1 PUSH2 0x535 JUMP JUMPDEST PUSH1 0x40 MLOAD DUP1 SWAP2 SUB SWAP1 RETURN JUMPDEST PUSH1 0x6 SLOAD DUP2 JUMP JUMPDEST PUSH1 0x3 SLOAD DUP2 JUMP JUMPDEST DUP1 PUSH1 0x6 DUP2 SWAP1 SSTORE POP POP JUMP JUMPDEST PUSH1 0x4 SLOAD DUP2 JUMP JUMPDEST PUSH1 0x1 PUSH1 0x20 MSTORE DUP1 PUSH0 MSTORE PUSH1 0x40 PUSH0 KECCAK256 PUSH0 SWAP2 POP SWAP1 POP DUP1 PUSH0 ADD SLOAD SWAP1 DUP1 PUSH1 0x1 ADD SLOAD SWAP1 DUP1 PUSH1 0x2 ADD SLOAD SWAP1 POP DUP4 JUMP JUMPDEST PUSH0 DUP1 SLOAD SWAP1 PUSH2 0x100 EXP SWAP1 DIV PUSH20 0xFFFFFFFFFFFFFFFFFFFFFFFFFFFFFFFFFFFFFFFF AND DUP2 JUMP JUMPDEST PUSH1 0x5 SLOAD DUP2 JUMP JUMPDEST PUSH0 DUP1 SLOAD SWAP1 PUSH2 0x100 EXP SWAP1 DIV PUSH20 0xFFFFFFFFFFFFFFFFFFFFFFFFFFFFFFFFFFFFFFFF AND PUSH20 0xFFFFFFFFFFFFFFFFFFFFFFFFFFFFFFFFFFFFFFFF AND CALLER PUSH20 0xFFFFFFFFFFFFFFFFFFFFFFFFFFFFFFFFFFFFFFFF AND EQ PUSH2 0x30D JUMPI PUSH1 0x40 MLOAD PUSH32 0x8C379A000000000000000000000000000000000000000000000000000000000 DUP2 MSTORE PUSH1 0x4 ADD PUSH2 0x304 SWAP1 PUSH2 0x747 JUMP JUMPDEST PUSH1 0x40 MLOAD DUP1 SWAP2 SUB SWAP1 REVERT JUMPDEST PUSH1 0x40 MLOAD DUP1 PUSH1 0x60 ADD PUSH1 0x40 MSTORE DUP1 DUP5 DUP2 MSTORE PUSH1 0x20 ADD DUP4 DUP2 MSTORE PUSH1 0x20 ADD DUP3 DUP2 MSTORE POP PUSH1 0x1 PUSH0 DUP7 PUSH20 0xFFFFFFFFFFFFFFFFFFFFFFFFFFFFFFFFFFFFFFFF AND PUSH20 0xFFFFFFFFFFFFFFFFFFFFFFFFFFFFFFFFFFFFFFFF AND DUP2 MSTORE PUSH1 0x20 ADD SWAP1 DUP2 MSTORE PUSH1 0x20 ADD PUSH0 KECCAK256 PUSH0 DUP3 ADD MLOAD DUP2 PUSH0 ADD SSTORE PUSH1 0x20 DUP3 ADD MLOAD DUP2 PUSH1 0x1 ADD SSTORE PUSH1 0x40 DUP3 ADD MLOAD DUP2 PUSH1 0x2 ADD SSTORE SWAP1 POP POP POP POP POP POP JUMP JUMPDEST PUSH1 0x2 SLOAD DUP2 JUMP JUMPDEST DUP1 PUSH1 0x5 DUP2 SWAP1 SSTORE POP POP JUMP JUMPDEST PUSH0 DUP1 PUSH1 0x1 PUSH0 DUP5 PUSH20 0xFFFFFFFFFFFFFFFFFFFFFFFFFFFFFFFFFFFFFFFF AND PUSH20 0xFFFFFFFFFFFFFFFFFFFFFFFFFFFFFFFFFFFFFFFF AND DUP2 MSTORE PUSH1 0x20 ADD SWAP1 DUP2 MSTORE PUSH1 0x20 ADD PUSH0 KECCAK256 PUSH1 0x40 MLOAD DUP1 PUSH1 0x60 ADD PUSH1 0x40 MSTORE SWAP1 DUP2 PUSH0 DUP3 ADD SLOAD DUP2 MSTORE PUSH1 0x20 ADD PUSH1 0x1 DUP3 ADD SLOAD DUP2 MSTORE PUSH1 0x20 ADD PUSH1 0x2 DUP3 ADD SLOAD DUP2 MSTORE POP POP SWAP1 POP PUSH0 PUSH1 0x64 PUSH1 0x2 SLOAD DUP4 PUSH0 ADD MLOAD PUSH2 0x417 SWAP2 SWAP1 PUSH2 0x792 JUMP JUMPDEST PUSH2 0x421 SWAP2 SWAP1 PUSH2 0x800 JUMP JUMPDEST SWAP1 POP PUSH0 PUSH1 0xA PUSH1 0x5 SLOAD DUP5 PUSH1 0x20 ADD MLOAD PUSH2 0x438 SWAP2 SWAP1 PUSH2 0x792 JUMP JUMPDEST PUSH2 0x442 SWAP2 SWAP1 PUSH2 0x800 JUMP JUMPDEST SWAP1 POP PUSH0 PUSH2 0x2710 PUSH1 0x5 SLOAD PUSH1 0x6 SLOAD DUP7 PUSH1 0x40 ADD MLOAD PUSH2 0x45D SWAP2 SWAP1 PUSH2 0x792 JUMP JUMPDEST PUSH2 0x467 SWAP2 SWAP1 PUSH2 0x792 JUMP JUMPDEST PUSH2 0x471 SWAP2 SWAP1 PUSH2 0x800 JUMP JUMPDEST SWAP1 POP PUSH0 DUP2 DUP4 PUSH2 0x480 SWAP2 SWAP1 PUSH2 0x830 JUMP JUMPDEST SWAP1 POP PUSH0 DUP2 SUB PUSH2 0x4B6 JUMPI PUSH32 0xFFFFFFFFFFFFFFFFFFFFFFFFFFFFFFFFFFFFFFFFFFFFFFFFFFFFFFFFFFFFFFFF SWAP6 POP POP POP POP POP POP PUSH2 0x518 JUMP JUMPDEST PUSH0 DUP2 PUSH1 0x64 DUP7 PUSH2 0x4C5 SWAP2 SWAP1 PUSH2 0x792 JUMP JUMPDEST PUSH2 0x4CF SWAP2 SWAP1 PUSH2 0x800 JUMP JUMPDEST SWAP1 POP PUSH32 0x96DF9B99931636B730287949D80832331A9FD2FD69BC2BB6CE2145403AF80688 DUP9 DUP7 DUP5 DUP5 PUSH1 0x40 MLOAD PUSH2 0x506 SWAP5 SWAP4 SWAP3 SWAP2 SWAP1 PUSH2 0x863 JUMP JUMPDEST PUSH1 0x40 MLOAD DUP1 SWAP2 SUB SWAP1 LOG1 DUP1 SWAP7 POP POP POP POP POP POP POP JUMPDEST SWAP2 SWAP1 POP JUMP JUMPDEST PUSH0 DUP2 SWAP1 POP SWAP2 SWAP1 POP JUMP JUMPDEST PUSH2 0x52F DUP2 PUSH2 0x51D JUMP JUMPDEST DUP3 MSTORE POP POP JUMP JUMPDEST PUSH0 PUSH1 0x20 DUP3 ADD SWAP1 POP PUSH2 0x548 PUSH0 DUP4 ADD DUP5 PUSH2 0x526 JUMP JUMPDEST SWAP3 SWAP2 POP POP JUMP JUMPDEST PUSH0 DUP1 REVERT JUMPDEST PUSH2 0x55B DUP2 PUSH2 0x51D JUMP JUMPDEST DUP2 EQ PUSH2 0x565 JUMPI PUSH0 DUP1 REVERT JUMPDEST POP JUMP JUMPDEST PUSH0 DUP2 CALLDATALOAD SWAP1 POP PUSH2 0x576 DUP2 PUSH2 0x552 JUMP JUMPDEST SWAP3 SWAP2 POP POP JUMP JUMPDEST PUSH0 PUSH1 0x20 DUP3 DUP5 SUB SLT ISZERO PUSH2 0x591 JUMPI PUSH2 0x590 PUSH2 0x54E JUMP JUMPDEST JUMPDEST PUSH0 PUSH2 0x59E DUP5 DUP3 DUP6 ADD PUSH2 0x568 JUMP JUMPDEST SWAP2 POP POP SWAP3 SWAP2 POP POP JUMP JUMPDEST PUSH0 PUSH20 0xFFFFFFFFFFFFFFFFFFFFFFFFFFFFFFFFFFFFFFFF DUP3 AND SWAP1 POP SWAP2 SWAP1 POP JUMP JUMPDEST PUSH0 PUSH2 0x5D0 DUP3 PUSH2 0x5A7 JUMP JUMPDEST SWAP1 POP SWAP2 SWAP1 POP JUMP JUMPDEST PUSH2 0x5E0 DUP2 PUSH2 0x5C6 JUMP JUMPDEST DUP2 EQ PUSH2 0x5EA JUMPI PUSH0 DUP1 REVERT JUMPDEST POP JUMP JUMPDEST PUSH0 DUP2 CALLDATALOAD SWAP1 POP PUSH2 0x5FB DUP2 PUSH2 0x5D7 JUMP JUMPDEST SWAP3 SWAP2 POP POP JUMP JUMPDEST PUSH0 PUSH1 0x20 DUP3 DUP5 SUB SLT ISZERO PUSH2 0x616 JUMPI PUSH2 0x615 PUSH2 0x54E JUMP JUMPDEST JUMPDEST PUSH0 PUSH2 0x623 DUP5 DUP3 DUP6 ADD PUSH2 0x5ED JUMP JUMPDEST SWAP2 POP POP SWAP3 SWAP2 POP POP JUMP JUMPDEST PUSH0 PUSH1 0x60 DUP3 ADD SWAP1 POP PUSH2 0x63F PUSH0 DUP4 ADD DUP7 PUSH2 0x526 JUMP JUMPDEST PUSH2 0x64C PUSH1 0x20 DUP4 ADD DUP6 PUSH2 0x526 JUMP JUMPDEST PUSH2 0x659 PUSH1 0x40 DUP4 ADD DUP5 PUSH2 0x526 JUMP JUMPDEST SWAP5 SWAP4 POP POP POP POP JUMP JUMPDEST PUSH2 0x66A DUP2 PUSH2 0x5C6 JUMP JUMPDEST DUP3 MSTORE POP POP JUMP JUMPDEST PUSH0 PUSH1 0x20 DUP3 ADD SWAP1 POP PUSH2 0x683 PUSH0 DUP4 ADD DUP5 PUSH2 0x661 JUMP JUMPDEST SWAP3 SWAP2 POP POP JUMP JUMPDEST PUSH0 DUP1 PUSH0 DUP1 PUSH1 0x80 DUP6 DUP8 SUB SLT ISZERO PUSH2 0x6A1 JUMPI PUSH2 0x6A0 PUSH2 0x54E JUMP JUMPDEST JUMPDEST PUSH0 PUSH2 0x6AE DUP8 DUP3 DUP9 ADD PUSH2 0x5ED JUMP JUMPDEST SWAP5 POP POP PUSH1 0x20 PUSH2 0x6BF DUP8 DUP3 DUP9 ADD PUSH2 0x568 JUMP JUMPDEST SWAP4 POP POP PUSH1 0x40 PUSH2 0x6D0 DUP8 DUP3 DUP9 ADD PUSH2 0x568 JUMP JUMPDEST SWAP3 POP POP PUSH1 0x60 PUSH2 0x6E1 DUP8 DUP3 DUP9 ADD PUSH2 0x568 JUMP JUMPDEST SWAP2 POP POP SWAP3 SWAP6 SWAP2 SWAP5 POP SWAP3 POP JUMP JUMPDEST PUSH0 DUP3 DUP3 MSTORE PUSH1 0x20 DUP3 ADD SWAP1 POP SWAP3 SWAP2 POP POP JUMP JUMPDEST PUSH32 0x4F6E6C79206F776E65722063616E20616464206C6F616E730000000000000000 PUSH0 DUP3 ADD MSTORE POP JUMP JUMPDEST PUSH0 PUSH2 0x731 PUSH1 0x18 DUP4 PUSH2 0x6ED JUMP JUMPDEST SWAP2 POP PUSH2 0x73C DUP3 PUSH2 0x6FD JUMP JUMPDEST PUSH1 0x20 DUP3 ADD SWAP1 POP SWAP2 SWAP1 POP JUMP JUMPDEST PUSH0 PUSH1 0x20 DUP3 ADD SWAP1 POP DUP2 DUP2 SUB PUSH0 DUP4 ADD MSTORE PUSH2 0x75E DUP2 PUSH2 0x725 JUMP JUMPDEST SWAP1 POP SWAP2 SWAP1 POP JUMP JUMPDEST PUSH32 0x4E487B7100000000000000000000000000000000000000000000000000000000 PUSH0 MSTORE PUSH1 0x11 PUSH1 0x4 MSTORE PUSH1 0x24 PUSH0 REVERT JUMPDEST PUSH0 PUSH2 0x79C DUP3 PUSH2 0x51D JUMP JUMPDEST SWAP2 POP PUSH2 0x7A7 DUP4 PUSH2 0x51D JUMP JUMPDEST SWAP3 POP DUP3 DUP3 MUL PUSH2 0x7B5 DUP2 PUSH2 0x51D JUMP JUMPDEST SWAP2 POP DUP3 DUP3 DIV DUP5 EQ DUP4 ISZERO OR PUSH2 0x7CC JUMPI PUSH2 0x7CB PUSH2 0x765 JUMP JUMPDEST JUMPDEST POP SWAP3 SWAP2 POP POP JUMP JUMPDEST PUSH32 0x4E487B7100000000000000000000000000000000000000000000000000000000 PUSH0 MSTORE PUSH1 0x12 PUSH1 0x4 MSTORE PUSH1 0x24 PUSH0 REVERT JUMPDEST PUSH0 PUSH2 0x80A DUP3 PUSH2 0x51D JUMP JUMPDEST SWAP2 POP PUSH2 0x815 DUP4 PUSH2 0x51D JUMP JUMPDEST SWAP3 POP DUP3 PUSH2 0x825 JUMPI PUSH2 0x824 PUSH2 0x7D3 JUMP JUMPDEST JUMPDEST DUP3 DUP3 DIV SWAP1 POP SWAP3 SWAP2 POP POP JUMP JUMPDEST PUSH0 PUSH2 0x83A DUP3 PUSH2 0x51D JUMP JUMPDEST SWAP2 POP PUSH2 0x845 DUP4 PUSH2 0x51D JUMP JUMPDEST SWAP3 POP DUP3 DUP3 ADD SWAP1 POP DUP1 DUP3 GT ISZERO PUSH2 0x85D JUMPI PUSH2 0x85C PUSH2 0x765 JUMP JUMPDEST JUMPDEST SWAP3 SWAP2 POP POP JUMP JUMPDEST PUSH0 PUSH1 0x80 DUP3 ADD SWAP1 POP PUSH2 0x876 PUSH0 DUP4 ADD DUP8 PUSH2 0x661 JUMP JUMPDEST PUSH2 0x883 PUSH1 0x20 DUP4 ADD DUP7 PUSH2 0x526 JUMP JUMPDEST PUSH2 0x890 PUSH1 0x40 DUP4 ADD DUP6 PUSH2 0x526 JUMP JUMPDEST PUSH2 0x89D PUSH1 0x60 DUP4 ADD DUP5 PUSH2 0x526 JUMP JUMPDEST SWAP6 SWAP5 POP POP POP POP POP JUMP INVALID LOG2 PUSH5 0x6970667358 0x22 SLT KECCAK256 JUMPI LOG3 0x25 PUSH0 0xDC SIGNEXTEND PUSH4 0x547EBEBD 0xCF OR SDIV 0x25 0x2B CALLVALUE PUSH17 0xD487B5C237607120B4E66AEC67BD64736F PUSH13 0x634300081A0033000000000000 "
				},
				"gasEstimates": {
					"creation": {
						"codeDepositCost": "453600",
						"executionCost": "135279",
						"totalCost": "588879"
					},
					"external": {
						"addLoan(address,uint256,uint256,uint256)": "infinite",
						"axsToETHPrice()": "2426",
						"changeAXSRate(uint256)": "22560",
						"changeETHRate(uint256)": "22603",
						"collateralRatioAXS()": "2492",
						"collateralRatioETH()": "2448",
						"collateralRatioUSDC()": "2491",
						"ethPriceOnUSDC()": "2447",
						"getHealthFactor(address)": "infinite",
						"loans(address)": "infinite",
						"owner()": "2505"
					}
				},
				"methodIdentifiers": {
					"addLoan(address,uint256,uint256,uint256)": "ad24a336",
					"axsToETHPrice()": "04632a66",
					"changeAXSRate(uint256)": "1f71462e",
					"changeETHRate(uint256)": "f894ea86",
					"collateralRatioAXS()": "4bfa16e9",
					"collateralRatioETH()": "11c9c304",
					"collateralRatioUSDC()": "c56e4097",
					"ethPriceOnUSDC()": "9b923cc9",
					"getHealthFactor(address)": "fe6bcd7c",
					"loans(address)": "73b4086b",
					"owner()": "8da5cb5b"
				}
			},
			"storageLayout": {
				"storage": [
					{
						"astId": 3,
						"contract": "contracts/learn.sol:Liquidation",
						"label": "owner",
						"offset": 0,
						"slot": "0",
						"type": "t_address"
					},
					{
						"astId": 15,
						"contract": "contracts/learn.sol:Liquidation",
						"label": "loans",
						"offset": 0,
						"slot": "1",
						"type": "t_mapping(t_address,t_struct(Loan)10_storage)"
					},
					{
						"astId": 18,
						"contract": "contracts/learn.sol:Liquidation",
						"label": "collateralRatioUSDC",
						"offset": 0,
						"slot": "2",
						"type": "t_uint256"
					},
					{
						"astId": 21,
						"contract": "contracts/learn.sol:Liquidation",
						"label": "collateralRatioETH",
						"offset": 0,
						"slot": "3",
						"type": "t_uint256"
					},
					{
						"astId": 24,
						"contract": "contracts/learn.sol:Liquidation",
						"label": "collateralRatioAXS",
						"offset": 0,
						"slot": "4",
						"type": "t_uint256"
					},
					{
						"astId": 27,
						"contract": "contracts/learn.sol:Liquidation",
						"label": "ethPriceOnUSDC",
						"offset": 0,
						"slot": "5",
						"type": "t_uint256"
					},
					{
						"astId": 30,
						"contract": "contracts/learn.sol:Liquidation",
						"label": "axsToETHPrice",
						"offset": 0,
						"slot": "6",
						"type": "t_uint256"
					}
				],
				"types": {
					"t_address": {
						"encoding": "inplace",
						"label": "address",
						"numberOfBytes": "20"
					},
					"t_mapping(t_address,t_struct(Loan)10_storage)": {
						"encoding": "mapping",
						"key": "t_address",
						"label": "mapping(address => struct Liquidation.Loan)",
						"numberOfBytes": "32",
						"value": "t_struct(Loan)10_storage"
					},
					"t_struct(Loan)10_storage": {
						"encoding": "inplace",
						"label": "struct Liquidation.Loan",
						"members": [
							{
								"astId": 5,
								"contract": "contracts/learn.sol:Liquidation",
								"label": "usdcCollateral",
								"offset": 0,
								"slot": "0",
								"type": "t_uint256"
							},
							{
								"astId": 7,
								"contract": "contracts/learn.sol:Liquidation",
								"label": "ethDebt",
								"offset": 0,
								"slot": "1",
								"type": "t_uint256"
							},
							{
								"astId": 9,
								"contract": "contracts/learn.sol:Liquidation",
								"label": "axsDebt",
								"offset": 0,
								"slot": "2",
								"type": "t_uint256"
							}
						],
						"numberOfBytes": "96"
					},
					"t_uint256": {
						"encoding": "inplace",
						"label": "uint256",
						"numberOfBytes": "32"
					}
				}
			},
			"userdoc": {
				"kind": "user",
				"methods": {},
				"version": 1
			}
		}
	}
}