{
	"contracts/temp.sol": {
		"Liquidation": {
			"abi": [
				{
					"inputs": [],
					"stateMutability": "nonpayable",
					"type": "constructor"
				},
				{
					"anonymous": false,
					"inputs": [
						{
							"indexed": false,
							"internalType": "address",
							"name": "user",
							"type": "address"
						},
						{
							"indexed": false,
							"internalType": "uint256",
							"name": "usdcLost",
							"type": "uint256"
						},
						{
							"indexed": false,
							"internalType": "uint256",
							"name": "ethLiquidated",
							"type": "uint256"
						}
					],
					"name": "Liquidated",
					"type": "event"
				},
				{
					"inputs": [
						{
							"internalType": "address",
							"name": "_borrower",
							"type": "address"
						},
						{
							"internalType": "uint256",
							"name": "_usdcCollateral",
							"type": "uint256"
						},
						{
							"internalType": "uint256",
							"name": "_ethDebt",
							"type": "uint256"
						},
						{
							"internalType": "uint256",
							"name": "_axsDebt",
							"type": "uint256"
						}
					],
					"name": "addLoan",
					"outputs": [],
					"stateMutability": "nonpayable",
					"type": "function"
				},
				{
					"inputs": [],
					"name": "axsPrice",
					"outputs": [
						{
							"internalType": "uint256",
							"name": "",
							"type": "uint256"
						}
					],
					"stateMutability": "view",
					"type": "function"
				},
				{
					"inputs": [],
					"name": "collateralFactorAXS",
					"outputs": [
						{
							"internalType": "uint256",
							"name": "",
							"type": "uint256"
						}
					],
					"stateMutability": "view",
					"type": "function"
				},
				{
					"inputs": [],
					"name": "collateralFactorETH",
					"outputs": [
						{
							"internalType": "uint256",
							"name": "",
							"type": "uint256"
						}
					],
					"stateMutability": "view",
					"type": "function"
				},
				{
					"inputs": [],
					"name": "collateralFactorUSDC",
					"outputs": [
						{
							"internalType": "uint256",
							"name": "",
							"type": "uint256"
						}
					],
					"stateMutability": "view",
					"type": "function"
				},
				{
					"inputs": [],
					"name": "ethPrice",
					"outputs": [
						{
							"internalType": "uint256",
							"name": "",
							"type": "uint256"
						}
					],
					"stateMutability": "view",
					"type": "function"
				},
				{
					"inputs": [
						{
							"internalType": "address",
							"name": "_borrower",
							"type": "address"
						}
					],
					"name": "getHealthFactor",
					"outputs": [
						{
							"internalType": "uint256",
							"name": "",
							"type": "uint256"
						}
					],
					"stateMutability": "view",
					"type": "function"
				},
				{
					"inputs": [
						{
							"internalType": "address",
							"name": "_borrower",
							"type": "address"
						}
					],
					"name": "liquidate",
					"outputs": [],
					"stateMutability": "nonpayable",
					"type": "function"
				},
				{
					"inputs": [
						{
							"internalType": "address",
							"name": "",
							"type": "address"
						}
					],
					"name": "loans",
					"outputs": [
						{
							"internalType": "uint256",
							"name": "usdcCollateral",
							"type": "uint256"
						},
						{
							"internalType": "uint256",
							"name": "ethDebt",
							"type": "uint256"
						},
						{
							"internalType": "uint256",
							"name": "axsDebt",
							"type": "uint256"
						}
					],
					"stateMutability": "view",
					"type": "function"
				},
				{
					"inputs": [],
					"name": "owner",
					"outputs": [
						{
							"internalType": "address",
							"name": "",
							"type": "address"
						}
					],
					"stateMutability": "view",
					"type": "function"
				}
			],
			"devdoc": {
				"kind": "dev",
				"methods": {},
				"version": 1
			},
			"evm": {
				"assembly": "    /* \"contracts/temp.sol\":58:2036  contract Liquidation {... */\n  mstore(0x40, 0x80)\n    /* \"contracts/temp.sol\":373:375  90 */\n  0x5a\n    /* \"contracts/temp.sol\":335:375  uint256 public collateralFactorUSDC = 90 */\n  0x02\n  sstore\n    /* \"contracts/temp.sol\":426:428  80 */\n  0x50\n    /* \"contracts/temp.sol\":389:428  uint256 public collateralFactorETH = 80 */\n  0x03\n  sstore\n    /* \"contracts/temp.sol\":480:482  70 */\n  0x46\n    /* \"contracts/temp.sol\":443:482  uint256 public collateralFactorAXS = 70 */\n  0x04\n  sstore\n    /* \"contracts/temp.sol\":524:528  1500 */\n  0x05dc\n    /* \"contracts/temp.sol\":498:528  uint256 public ethPrice = 1500 */\n  0x05\n  sstore\n    /* \"contracts/temp.sol\":572:575  100 */\n  0x64\n    /* \"contracts/temp.sol\":546:575  uint256 public axsPrice = 100 */\n  0x06\n  sstore\n    /* \"contracts/temp.sol\":672:721  constructor() {... */\n  callvalue\n  dup1\n  iszero\n  tag_1\n  jumpi\n  0x00\n  dup1\n  revert\ntag_1:\n  pop\n    /* \"contracts/temp.sol\":704:714  msg.sender */\n  caller\n    /* \"contracts/temp.sol\":696:701  owner */\n  0x00\n  dup1\n    /* \"contracts/temp.sol\":696:714  owner = msg.sender */\n  0x0100\n  exp\n  dup2\n  sload\n  dup2\n  0xffffffffffffffffffffffffffffffffffffffff\n  mul\n  not\n  and\n  swap1\n  dup4\n  0xffffffffffffffffffffffffffffffffffffffff\n  and\n  mul\n  or\n  swap1\n  sstore\n  pop\n    /* \"contracts/temp.sol\":58:2036  contract Liquidation {... */\n  dataSize(sub_0)\n  dup1\n  dataOffset(sub_0)\n  0x00\n  codecopy\n  0x00\n  return\nstop\n\nsub_0: assembly {\n        /* \"contracts/temp.sol\":58:2036  contract Liquidation {... */\n      mstore(0x40, 0x80)\n      callvalue\n      dup1\n      iszero\n      tag_1\n      jumpi\n      0x00\n      dup1\n      revert\n    tag_1:\n      pop\n      jumpi(tag_2, lt(calldatasize, 0x04))\n      shr(0xe0, calldataload(0x00))\n      dup1\n      0x8da5cb5b\n      gt\n      tag_13\n      jumpi\n      dup1\n      0x8da5cb5b\n      eq\n      tag_8\n      jumpi\n      dup1\n      0xad24a336\n      eq\n      tag_9\n      jumpi\n      dup1\n      0xda53cf8b\n      eq\n      tag_10\n      jumpi\n      dup1\n      0xfe6bcd7c\n      eq\n      tag_11\n      jumpi\n      dup1\n      0xff186b2e\n      eq\n      tag_12\n      jumpi\n      jump(tag_2)\n    tag_13:\n      dup1\n      0x15d67769\n      eq\n      tag_3\n      jumpi\n      dup1\n      0x2f865568\n      eq\n      tag_4\n      jumpi\n      dup1\n      0x45edae0b\n      eq\n      tag_5\n      jumpi\n      dup1\n      0x73b4086b\n      eq\n      tag_6\n      jumpi\n      dup1\n      0x7e3df479\n      eq\n      tag_7\n      jumpi\n    tag_2:\n      0x00\n      dup1\n      revert\n        /* \"contracts/temp.sol\":443:482  uint256 public collateralFactorAXS = 70 */\n    tag_3:\n      tag_14\n      tag_15\n      jump\t// in\n    tag_14:\n      mload(0x40)\n      tag_16\n      swap2\n      swap1\n      tag_17\n      jump\t// in\n    tag_16:\n      mload(0x40)\n      dup1\n      swap2\n      sub\n      swap1\n      return\n        /* \"contracts/temp.sol\":1434:2034  function liquidate(address _borrower) public {... */\n    tag_4:\n      tag_18\n      0x04\n      dup1\n      calldatasize\n      sub\n      dup2\n      add\n      swap1\n      tag_19\n      swap2\n      swap1\n      tag_20\n      jump\t// in\n    tag_19:\n      tag_21\n      jump\t// in\n    tag_18:\n      stop\n        /* \"contracts/temp.sol\":546:575  uint256 public axsPrice = 100 */\n    tag_5:\n      tag_22\n      tag_23\n      jump\t// in\n    tag_22:\n      mload(0x40)\n      tag_24\n      swap2\n      swap1\n      tag_17\n      jump\t// in\n    tag_24:\n      mload(0x40)\n      dup1\n      swap2\n      sub\n      swap1\n      return\n        /* \"contracts/temp.sol\":291:328  mapping(address => Loan) public loans */\n    tag_6:\n      tag_25\n      0x04\n      dup1\n      calldatasize\n      sub\n      dup2\n      add\n      swap1\n      tag_26\n      swap2\n      swap1\n      tag_20\n      jump\t// in\n    tag_26:\n      tag_27\n      jump\t// in\n    tag_25:\n      mload(0x40)\n      tag_28\n      swap4\n      swap3\n      swap2\n      swap1\n      tag_29\n      jump\t// in\n    tag_28:\n      mload(0x40)\n      dup1\n      swap2\n      sub\n      swap1\n      return\n        /* \"contracts/temp.sol\":389:428  uint256 public collateralFactorETH = 80 */\n    tag_7:\n      tag_30\n      tag_31\n      jump\t// in\n    tag_30:\n      mload(0x40)\n      tag_32\n      swap2\n      swap1\n      tag_17\n      jump\t// in\n    tag_32:\n      mload(0x40)\n      dup1\n      swap2\n      sub\n      swap1\n      return\n        /* \"contracts/temp.sol\":85:105  address public owner */\n    tag_8:\n      tag_33\n      tag_34\n      jump\t// in\n    tag_33:\n      mload(0x40)\n      tag_35\n      swap2\n      swap1\n      tag_36\n      jump\t// in\n    tag_35:\n      mload(0x40)\n      dup1\n      swap2\n      sub\n      swap1\n      return\n        /* \"contracts/temp.sol\":727:974  function addLoan(address _borrower, uint256 _usdcCollateral, uint256 _ethDebt, uint256 _axsDebt) public {... */\n    tag_9:\n      tag_37\n      0x04\n      dup1\n      calldatasize\n      sub\n      dup2\n      add\n      swap1\n      tag_38\n      swap2\n      swap1\n      tag_39\n      jump\t// in\n    tag_38:\n      tag_40\n      jump\t// in\n    tag_37:\n      stop\n        /* \"contracts/temp.sol\":335:375  uint256 public collateralFactorUSDC = 90 */\n    tag_10:\n      tag_41\n      tag_42\n      jump\t// in\n    tag_41:\n      mload(0x40)\n      tag_43\n      swap2\n      swap1\n      tag_17\n      jump\t// in\n    tag_43:\n      mload(0x40)\n      dup1\n      swap2\n      sub\n      swap1\n      return\n        /* \"contracts/temp.sol\":980:1428  function getHealthFactor(address _borrower) public view returns (uint256) {... */\n    tag_11:\n      tag_44\n      0x04\n      dup1\n      calldatasize\n      sub\n      dup2\n      add\n      swap1\n      tag_45\n      swap2\n      swap1\n      tag_20\n      jump\t// in\n    tag_45:\n      tag_46\n      jump\t// in\n    tag_44:\n      mload(0x40)\n      tag_47\n      swap2\n      swap1\n      tag_17\n      jump\t// in\n    tag_47:\n      mload(0x40)\n      dup1\n      swap2\n      sub\n      swap1\n      return\n        /* \"contracts/temp.sol\":498:528  uint256 public ethPrice = 1500 */\n    tag_12:\n      tag_48\n      tag_49\n      jump\t// in\n    tag_48:\n      mload(0x40)\n      tag_50\n      swap2\n      swap1\n      tag_17\n      jump\t// in\n    tag_50:\n      mload(0x40)\n      dup1\n      swap2\n      sub\n      swap1\n      return\n        /* \"contracts/temp.sol\":443:482  uint256 public collateralFactorAXS = 70 */\n    tag_15:\n      sload(0x04)\n      dup2\n      jump\t// out\n        /* \"contracts/temp.sol\":1434:2034  function liquidate(address _borrower) public {... */\n    tag_21:\n        /* \"contracts/temp.sol\":1526:1529  100 */\n      0x64\n        /* \"contracts/temp.sol\":1497:1523  getHealthFactor(_borrower) */\n      tag_52\n        /* \"contracts/temp.sol\":1513:1522  _borrower */\n      dup3\n        /* \"contracts/temp.sol\":1497:1512  getHealthFactor */\n      tag_46\n        /* \"contracts/temp.sol\":1497:1523  getHealthFactor(_borrower) */\n      jump\t// in\n    tag_52:\n        /* \"contracts/temp.sol\":1497:1529  getHealthFactor(_borrower) < 100 */\n      lt\n        /* \"contracts/temp.sol\":1489:1555  require(getHealthFactor(_borrower) < 100, \"Loan is still healthy\") */\n      tag_53\n      jumpi\n      mload(0x40)\n      0x08c379a000000000000000000000000000000000000000000000000000000000\n      dup2\n      mstore\n      0x04\n      add\n      tag_54\n      swap1\n      tag_55\n      jump\t// in\n    tag_54:\n      mload(0x40)\n      dup1\n      swap2\n      sub\n      swap1\n      revert\n    tag_53:\n        /* \"contracts/temp.sol\":1566:1583  Loan storage loan */\n      0x00\n        /* \"contracts/temp.sol\":1586:1591  loans */\n      0x01\n        /* \"contracts/temp.sol\":1586:1602  loans[_borrower] */\n      0x00\n        /* \"contracts/temp.sol\":1592:1601  _borrower */\n      dup4\n        /* \"contracts/temp.sol\":1586:1602  loans[_borrower] */\n      0xffffffffffffffffffffffffffffffffffffffff\n      and\n      0xffffffffffffffffffffffffffffffffffffffff\n      and\n      dup2\n      mstore\n      0x20\n      add\n      swap1\n      dup2\n      mstore\n      0x20\n      add\n      0x00\n      keccak256\n        /* \"contracts/temp.sol\":1566:1602  Loan storage loan = loans[_borrower] */\n      swap1\n      pop\n        /* \"contracts/temp.sol\":1613:1635  uint256 ethToLiquidate */\n      0x00\n        /* \"contracts/temp.sol\":1653:1654  2 */\n      0x02\n        /* \"contracts/temp.sol\":1638:1642  loan */\n      dup3\n        /* \"contracts/temp.sol\":1638:1650  loan.ethDebt */\n      0x01\n      add\n      sload\n        /* \"contracts/temp.sol\":1638:1654  loan.ethDebt / 2 */\n      tag_56\n      swap2\n      swap1\n      tag_57\n      jump\t// in\n    tag_56:\n        /* \"contracts/temp.sol\":1613:1654  uint256 ethToLiquidate = loan.ethDebt / 2 */\n      swap1\n      pop\n        /* \"contracts/temp.sol\":1716:1732  uint256 usdcLost */\n      0x00\n        /* \"contracts/temp.sol\":1752:1756  1520 */\n      0x05f0\n        /* \"contracts/temp.sol\":1735:1749  ethToLiquidate */\n      dup3\n        /* \"contracts/temp.sol\":1735:1756  ethToLiquidate * 1520 */\n      tag_58\n      swap2\n      swap1\n      tag_59\n      jump\t// in\n    tag_58:\n        /* \"contracts/temp.sol\":1716:1756  uint256 usdcLost = ethToLiquidate * 1520 */\n      swap1\n      pop\n        /* \"contracts/temp.sol\":1835:1843  usdcLost */\n      dup1\n        /* \"contracts/temp.sol\":1812:1816  loan */\n      dup4\n        /* \"contracts/temp.sol\":1812:1831  loan.usdcCollateral */\n      0x00\n      add\n      sload\n        /* \"contracts/temp.sol\":1812:1843  loan.usdcCollateral >= usdcLost */\n      lt\n      iszero\n        /* \"contracts/temp.sol\":1804:1882  require(loan.usdcCollateral >= usdcLost, \"Not enough collateral to liquidate\") */\n      tag_60\n      jumpi\n      mload(0x40)\n      0x08c379a000000000000000000000000000000000000000000000000000000000\n      dup2\n      mstore\n      0x04\n      add\n      tag_61\n      swap1\n      tag_62\n      jump\t// in\n    tag_61:\n      mload(0x40)\n      dup1\n      swap2\n      sub\n      swap1\n      revert\n    tag_60:\n        /* \"contracts/temp.sol\":1916:1924  usdcLost */\n      dup1\n        /* \"contracts/temp.sol\":1893:1897  loan */\n      dup4\n        /* \"contracts/temp.sol\":1893:1912  loan.usdcCollateral */\n      0x00\n      add\n      0x00\n        /* \"contracts/temp.sol\":1893:1924  loan.usdcCollateral -= usdcLost */\n      dup3\n      dup3\n      sload\n      tag_63\n      swap2\n      swap1\n      tag_64\n      jump\t// in\n    tag_63:\n      swap3\n      pop\n      pop\n      dup2\n      swap1\n      sstore\n      pop\n        /* \"contracts/temp.sol\":1950:1964  ethToLiquidate */\n      dup2\n        /* \"contracts/temp.sol\":1934:1938  loan */\n      dup4\n        /* \"contracts/temp.sol\":1934:1946  loan.ethDebt */\n      0x01\n      add\n      0x00\n        /* \"contracts/temp.sol\":1934:1964  loan.ethDebt -= ethToLiquidate */\n      dup3\n      dup3\n      sload\n      tag_65\n      swap2\n      swap1\n      tag_64\n      jump\t// in\n    tag_65:\n      swap3\n      pop\n      pop\n      dup2\n      swap1\n      sstore\n      pop\n        /* \"contracts/temp.sol\":1980:2027  Liquidated(_borrower, usdcLost, ethToLiquidate) */\n      0x09c223cfcd8c93e245f558f5f8de755fc0930fd9bc257441155ef5d54a170e0f\n        /* \"contracts/temp.sol\":1991:2000  _borrower */\n      dup5\n        /* \"contracts/temp.sol\":2002:2010  usdcLost */\n      dup3\n        /* \"contracts/temp.sol\":2012:2026  ethToLiquidate */\n      dup5\n        /* \"contracts/temp.sol\":1980:2027  Liquidated(_borrower, usdcLost, ethToLiquidate) */\n      mload(0x40)\n      tag_66\n      swap4\n      swap3\n      swap2\n      swap1\n      tag_67\n      jump\t// in\n    tag_66:\n      mload(0x40)\n      dup1\n      swap2\n      sub\n      swap1\n      log1\n        /* \"contracts/temp.sol\":1479:2034  {... */\n      pop\n      pop\n      pop\n        /* \"contracts/temp.sol\":1434:2034  function liquidate(address _borrower) public {... */\n      pop\n      jump\t// out\n        /* \"contracts/temp.sol\":546:575  uint256 public axsPrice = 100 */\n    tag_23:\n      sload(0x06)\n      dup2\n      jump\t// out\n        /* \"contracts/temp.sol\":291:328  mapping(address => Loan) public loans */\n    tag_27:\n      mstore(0x20, 0x01)\n      dup1\n      0x00\n      mstore\n      keccak256(0x00, 0x40)\n      0x00\n      swap2\n      pop\n      swap1\n      pop\n      dup1\n      0x00\n      add\n      sload\n      swap1\n      dup1\n      0x01\n      add\n      sload\n      swap1\n      dup1\n      0x02\n      add\n      sload\n      swap1\n      pop\n      dup4\n      jump\t// out\n        /* \"contracts/temp.sol\":389:428  uint256 public collateralFactorETH = 80 */\n    tag_31:\n      sload(0x03)\n      dup2\n      jump\t// out\n        /* \"contracts/temp.sol\":85:105  address public owner */\n    tag_34:\n      0x00\n      dup1\n      sload\n      swap1\n      0x0100\n      exp\n      swap1\n      div\n      0xffffffffffffffffffffffffffffffffffffffff\n      and\n      dup2\n      jump\t// out\n        /* \"contracts/temp.sol\":727:974  function addLoan(address _borrower, uint256 _usdcCollateral, uint256 _ethDebt, uint256 _axsDebt) public {... */\n    tag_40:\n        /* \"contracts/temp.sol\":863:868  owner */\n      0x00\n      dup1\n      sload\n      swap1\n      0x0100\n      exp\n      swap1\n      div\n      0xffffffffffffffffffffffffffffffffffffffff\n      and\n        /* \"contracts/temp.sol\":849:868  msg.sender == owner */\n      0xffffffffffffffffffffffffffffffffffffffff\n      and\n        /* \"contracts/temp.sol\":849:859  msg.sender */\n      caller\n        /* \"contracts/temp.sol\":849:868  msg.sender == owner */\n      0xffffffffffffffffffffffffffffffffffffffff\n      and\n      eq\n        /* \"contracts/temp.sol\":841:897  require(msg.sender == owner, \"Only owner can add loans\") */\n      tag_69\n      jumpi\n      mload(0x40)\n      0x08c379a000000000000000000000000000000000000000000000000000000000\n      dup2\n      mstore\n      0x04\n      add\n      tag_70\n      swap1\n      tag_71\n      jump\t// in\n    tag_70:\n      mload(0x40)\n      dup1\n      swap2\n      sub\n      swap1\n      revert\n    tag_69:\n        /* \"contracts/temp.sol\":926:967  Loan(_usdcCollateral, _ethDebt, _axsDebt) */\n      mload(0x40)\n      dup1\n      0x60\n      add\n      0x40\n      mstore\n      dup1\n        /* \"contracts/temp.sol\":931:946  _usdcCollateral */\n      dup5\n        /* \"contracts/temp.sol\":926:967  Loan(_usdcCollateral, _ethDebt, _axsDebt) */\n      dup2\n      mstore\n      0x20\n      add\n        /* \"contracts/temp.sol\":948:956  _ethDebt */\n      dup4\n        /* \"contracts/temp.sol\":926:967  Loan(_usdcCollateral, _ethDebt, _axsDebt) */\n      dup2\n      mstore\n      0x20\n      add\n        /* \"contracts/temp.sol\":958:966  _axsDebt */\n      dup3\n        /* \"contracts/temp.sol\":926:967  Loan(_usdcCollateral, _ethDebt, _axsDebt) */\n      dup2\n      mstore\n      pop\n        /* \"contracts/temp.sol\":907:912  loans */\n      0x01\n        /* \"contracts/temp.sol\":907:923  loans[_borrower] */\n      0x00\n        /* \"contracts/temp.sol\":913:922  _borrower */\n      dup7\n        /* \"contracts/temp.sol\":907:923  loans[_borrower] */\n      0xffffffffffffffffffffffffffffffffffffffff\n      and\n      0xffffffffffffffffffffffffffffffffffffffff\n      and\n      dup2\n      mstore\n      0x20\n      add\n      swap1\n      dup2\n      mstore\n      0x20\n      add\n      0x00\n      keccak256\n        /* \"contracts/temp.sol\":907:967  loans[_borrower] = Loan(_usdcCollateral, _ethDebt, _axsDebt) */\n      0x00\n      dup3\n      add\n      mload\n      dup2\n      0x00\n      add\n      sstore\n      0x20\n      dup3\n      add\n      mload\n      dup2\n      0x01\n      add\n      sstore\n      0x40\n      dup3\n      add\n      mload\n      dup2\n      0x02\n      add\n      sstore\n      swap1\n      pop\n      pop\n        /* \"contracts/temp.sol\":727:974  function addLoan(address _borrower, uint256 _usdcCollateral, uint256 _ethDebt, uint256 _axsDebt) public {... */\n      pop\n      pop\n      pop\n      pop\n      jump\t// out\n        /* \"contracts/temp.sol\":335:375  uint256 public collateralFactorUSDC = 90 */\n    tag_42:\n      sload(0x02)\n      dup2\n      jump\t// out\n        /* \"contracts/temp.sol\":980:1428  function getHealthFactor(address _borrower) public view returns (uint256) {... */\n    tag_46:\n        /* \"contracts/temp.sol\":1045:1052  uint256 */\n      0x00\n        /* \"contracts/temp.sol\":1064:1080  Loan memory loan */\n      dup1\n        /* \"contracts/temp.sol\":1083:1088  loans */\n      0x01\n        /* \"contracts/temp.sol\":1083:1099  loans[_borrower] */\n      0x00\n        /* \"contracts/temp.sol\":1089:1098  _borrower */\n      dup5\n        /* \"contracts/temp.sol\":1083:1099  loans[_borrower] */\n      0xffffffffffffffffffffffffffffffffffffffff\n      and\n      0xffffffffffffffffffffffffffffffffffffffff\n      and\n      dup2\n      mstore\n      0x20\n      add\n      swap1\n      dup2\n      mstore\n      0x20\n      add\n      0x00\n      keccak256\n        /* \"contracts/temp.sol\":1064:1099  Loan memory loan = loans[_borrower] */\n      mload(0x40)\n      dup1\n      0x60\n      add\n      0x40\n      mstore\n      swap1\n      dup2\n      0x00\n      dup3\n      add\n      sload\n      dup2\n      mstore\n      0x20\n      add\n      0x01\n      dup3\n      add\n      sload\n      dup2\n      mstore\n      0x20\n      add\n      0x02\n      dup3\n      add\n      sload\n      dup2\n      mstore\n      pop\n      pop\n      swap1\n      pop\n        /* \"contracts/temp.sol\":1110:1133  uint256 totalCollateral */\n      0x00\n        /* \"contracts/temp.sol\":1183:1186  100 */\n      0x64\n        /* \"contracts/temp.sol\":1159:1179  collateralFactorUSDC */\n      sload(0x02)\n        /* \"contracts/temp.sol\":1137:1141  loan */\n      dup4\n        /* \"contracts/temp.sol\":1137:1156  loan.usdcCollateral */\n      0x00\n      add\n      mload\n        /* \"contracts/temp.sol\":1137:1179  loan.usdcCollateral * collateralFactorUSDC */\n      tag_73\n      swap2\n      swap1\n      tag_59\n      jump\t// in\n    tag_73:\n        /* \"contracts/temp.sol\":1136:1186  (loan.usdcCollateral * collateralFactorUSDC) / 100 */\n      tag_74\n      swap2\n      swap1\n      tag_57\n      jump\t// in\n    tag_74:\n        /* \"contracts/temp.sol\":1110:1186  uint256 totalCollateral = (loan.usdcCollateral * collateralFactorUSDC) / 100 */\n      swap1\n      pop\n        /* \"contracts/temp.sol\":1196:1213  uint256 totalDebt */\n      0x00\n        /* \"contracts/temp.sol\":1260:1268  axsPrice */\n      sload(0x06)\n        /* \"contracts/temp.sol\":1245:1249  loan */\n      dup4\n        /* \"contracts/temp.sol\":1245:1257  loan.axsDebt */\n      0x40\n      add\n      mload\n        /* \"contracts/temp.sol\":1245:1268  loan.axsDebt * axsPrice */\n      tag_75\n      swap2\n      swap1\n      tag_59\n      jump\t// in\n    tag_75:\n        /* \"contracts/temp.sol\":1232:1240  ethPrice */\n      sload(0x05)\n        /* \"contracts/temp.sol\":1217:1221  loan */\n      dup5\n        /* \"contracts/temp.sol\":1217:1229  loan.ethDebt */\n      0x20\n      add\n      mload\n        /* \"contracts/temp.sol\":1217:1240  loan.ethDebt * ethPrice */\n      tag_76\n      swap2\n      swap1\n      tag_59\n      jump\t// in\n    tag_76:\n        /* \"contracts/temp.sol\":1216:1269  (loan.ethDebt * ethPrice) + (loan.axsDebt * axsPrice) */\n      tag_77\n      swap2\n      swap1\n      tag_78\n      jump\t// in\n    tag_77:\n        /* \"contracts/temp.sol\":1196:1269  uint256 totalDebt = (loan.ethDebt * ethPrice) + (loan.axsDebt * axsPrice) */\n      swap1\n      pop\n        /* \"contracts/temp.sol\":1297:1298  0 */\n      0x00\n        /* \"contracts/temp.sol\":1284:1293  totalDebt */\n      dup2\n        /* \"contracts/temp.sol\":1284:1298  totalDebt == 0 */\n      sub\n        /* \"contracts/temp.sol\":1280:1370  if (totalDebt == 0) {... */\n      tag_79\n      jumpi\n        /* \"contracts/temp.sol\":1321:1338  type(uint256).max */\n      0xffffffffffffffffffffffffffffffffffffffffffffffffffffffffffffffff\n        /* \"contracts/temp.sol\":1314:1338  return type(uint256).max */\n      swap4\n      pop\n      pop\n      pop\n      pop\n      jump(tag_72)\n        /* \"contracts/temp.sol\":1280:1370  if (totalDebt == 0) {... */\n    tag_79:\n        /* \"contracts/temp.sol\":1412:1421  totalDebt */\n      dup1\n        /* \"contracts/temp.sol\":1405:1408  100 */\n      0x64\n        /* \"contracts/temp.sol\":1387:1402  totalCollateral */\n      dup4\n        /* \"contracts/temp.sol\":1387:1408  totalCollateral * 100 */\n      tag_80\n      swap2\n      swap1\n      tag_59\n      jump\t// in\n    tag_80:\n        /* \"contracts/temp.sol\":1386:1421  (totalCollateral * 100) / totalDebt */\n      tag_81\n      swap2\n      swap1\n      tag_57\n      jump\t// in\n    tag_81:\n        /* \"contracts/temp.sol\":1379:1421  return (totalCollateral * 100) / totalDebt */\n      swap4\n      pop\n      pop\n      pop\n      pop\n        /* \"contracts/temp.sol\":980:1428  function getHealthFactor(address _borrower) public view returns (uint256) {... */\n    tag_72:\n      swap2\n      swap1\n      pop\n      jump\t// out\n        /* \"contracts/temp.sol\":498:528  uint256 public ethPrice = 1500 */\n    tag_49:\n      sload(0x05)\n      dup2\n      jump\t// out\n        /* \"#utility.yul\":7:84   */\n    tag_82:\n        /* \"#utility.yul\":44:51   */\n      0x00\n        /* \"#utility.yul\":73:78   */\n      dup2\n        /* \"#utility.yul\":62:78   */\n      swap1\n      pop\n        /* \"#utility.yul\":7:84   */\n      swap2\n      swap1\n      pop\n      jump\t// out\n        /* \"#utility.yul\":90:208   */\n    tag_83:\n        /* \"#utility.yul\":177:201   */\n      tag_106\n        /* \"#utility.yul\":195:200   */\n      dup2\n        /* \"#utility.yul\":177:201   */\n      tag_82\n      jump\t// in\n    tag_106:\n        /* \"#utility.yul\":172:175   */\n      dup3\n        /* \"#utility.yul\":165:202   */\n      mstore\n        /* \"#utility.yul\":90:208   */\n      pop\n      pop\n      jump\t// out\n        /* \"#utility.yul\":214:436   */\n    tag_17:\n        /* \"#utility.yul\":307:311   */\n      0x00\n        /* \"#utility.yul\":345:347   */\n      0x20\n        /* \"#utility.yul\":334:343   */\n      dup3\n        /* \"#utility.yul\":330:348   */\n      add\n        /* \"#utility.yul\":322:348   */\n      swap1\n      pop\n        /* \"#utility.yul\":358:429   */\n      tag_108\n        /* \"#utility.yul\":426:427   */\n      0x00\n        /* \"#utility.yul\":415:424   */\n      dup4\n        /* \"#utility.yul\":411:428   */\n      add\n        /* \"#utility.yul\":402:408   */\n      dup5\n        /* \"#utility.yul\":358:429   */\n      tag_83\n      jump\t// in\n    tag_108:\n        /* \"#utility.yul\":214:436   */\n      swap3\n      swap2\n      pop\n      pop\n      jump\t// out\n        /* \"#utility.yul\":523:640   */\n    tag_85:\n        /* \"#utility.yul\":632:633   */\n      0x00\n        /* \"#utility.yul\":629:630   */\n      dup1\n        /* \"#utility.yul\":622:634   */\n      revert\n        /* \"#utility.yul\":769:895   */\n    tag_87:\n        /* \"#utility.yul\":806:813   */\n      0x00\n        /* \"#utility.yul\":846:888   */\n      0xffffffffffffffffffffffffffffffffffffffff\n        /* \"#utility.yul\":839:844   */\n      dup3\n        /* \"#utility.yul\":835:889   */\n      and\n        /* \"#utility.yul\":824:889   */\n      swap1\n      pop\n        /* \"#utility.yul\":769:895   */\n      swap2\n      swap1\n      pop\n      jump\t// out\n        /* \"#utility.yul\":901:997   */\n    tag_88:\n        /* \"#utility.yul\":938:945   */\n      0x00\n        /* \"#utility.yul\":967:991   */\n      tag_114\n        /* \"#utility.yul\":985:990   */\n      dup3\n        /* \"#utility.yul\":967:991   */\n      tag_87\n      jump\t// in\n    tag_114:\n        /* \"#utility.yul\":956:991   */\n      swap1\n      pop\n        /* \"#utility.yul\":901:997   */\n      swap2\n      swap1\n      pop\n      jump\t// out\n        /* \"#utility.yul\":1003:1125   */\n    tag_89:\n        /* \"#utility.yul\":1076:1100   */\n      tag_116\n        /* \"#utility.yul\":1094:1099   */\n      dup2\n        /* \"#utility.yul\":1076:1100   */\n      tag_88\n      jump\t// in\n    tag_116:\n        /* \"#utility.yul\":1069:1074   */\n      dup2\n        /* \"#utility.yul\":1066:1101   */\n      eq\n        /* \"#utility.yul\":1056:1119   */\n      tag_117\n      jumpi\n        /* \"#utility.yul\":1115:1116   */\n      0x00\n        /* \"#utility.yul\":1112:1113   */\n      dup1\n        /* \"#utility.yul\":1105:1117   */\n      revert\n        /* \"#utility.yul\":1056:1119   */\n    tag_117:\n        /* \"#utility.yul\":1003:1125   */\n      pop\n      jump\t// out\n        /* \"#utility.yul\":1131:1270   */\n    tag_90:\n        /* \"#utility.yul\":1177:1182   */\n      0x00\n        /* \"#utility.yul\":1215:1221   */\n      dup2\n        /* \"#utility.yul\":1202:1222   */\n      calldataload\n        /* \"#utility.yul\":1193:1222   */\n      swap1\n      pop\n        /* \"#utility.yul\":1231:1264   */\n      tag_119\n        /* \"#utility.yul\":1258:1263   */\n      dup2\n        /* \"#utility.yul\":1231:1264   */\n      tag_89\n      jump\t// in\n    tag_119:\n        /* \"#utility.yul\":1131:1270   */\n      swap3\n      swap2\n      pop\n      pop\n      jump\t// out\n        /* \"#utility.yul\":1276:1605   */\n    tag_20:\n        /* \"#utility.yul\":1335:1341   */\n      0x00\n        /* \"#utility.yul\":1384:1386   */\n      0x20\n        /* \"#utility.yul\":1372:1381   */\n      dup3\n        /* \"#utility.yul\":1363:1370   */\n      dup5\n        /* \"#utility.yul\":1359:1382   */\n      sub\n        /* \"#utility.yul\":1355:1387   */\n      slt\n        /* \"#utility.yul\":1352:1471   */\n      iszero\n      tag_121\n      jumpi\n        /* \"#utility.yul\":1390:1469   */\n      tag_122\n      tag_85\n      jump\t// in\n    tag_122:\n        /* \"#utility.yul\":1352:1471   */\n    tag_121:\n        /* \"#utility.yul\":1510:1511   */\n      0x00\n        /* \"#utility.yul\":1535:1588   */\n      tag_123\n        /* \"#utility.yul\":1580:1587   */\n      dup5\n        /* \"#utility.yul\":1571:1577   */\n      dup3\n        /* \"#utility.yul\":1560:1569   */\n      dup6\n        /* \"#utility.yul\":1556:1578   */\n      add\n        /* \"#utility.yul\":1535:1588   */\n      tag_90\n      jump\t// in\n    tag_123:\n        /* \"#utility.yul\":1525:1588   */\n      swap2\n      pop\n        /* \"#utility.yul\":1481:1598   */\n      pop\n        /* \"#utility.yul\":1276:1605   */\n      swap3\n      swap2\n      pop\n      pop\n      jump\t// out\n        /* \"#utility.yul\":1611:2053   */\n    tag_29:\n        /* \"#utility.yul\":1760:1764   */\n      0x00\n        /* \"#utility.yul\":1798:1800   */\n      0x60\n        /* \"#utility.yul\":1787:1796   */\n      dup3\n        /* \"#utility.yul\":1783:1801   */\n      add\n        /* \"#utility.yul\":1775:1801   */\n      swap1\n      pop\n        /* \"#utility.yul\":1811:1882   */\n      tag_125\n        /* \"#utility.yul\":1879:1880   */\n      0x00\n        /* \"#utility.yul\":1868:1877   */\n      dup4\n        /* \"#utility.yul\":1864:1881   */\n      add\n        /* \"#utility.yul\":1855:1861   */\n      dup7\n        /* \"#utility.yul\":1811:1882   */\n      tag_83\n      jump\t// in\n    tag_125:\n        /* \"#utility.yul\":1892:1964   */\n      tag_126\n        /* \"#utility.yul\":1960:1962   */\n      0x20\n        /* \"#utility.yul\":1949:1958   */\n      dup4\n        /* \"#utility.yul\":1945:1963   */\n      add\n        /* \"#utility.yul\":1936:1942   */\n      dup6\n        /* \"#utility.yul\":1892:1964   */\n      tag_83\n      jump\t// in\n    tag_126:\n        /* \"#utility.yul\":1974:2046   */\n      tag_127\n        /* \"#utility.yul\":2042:2044   */\n      0x40\n        /* \"#utility.yul\":2031:2040   */\n      dup4\n        /* \"#utility.yul\":2027:2045   */\n      add\n        /* \"#utility.yul\":2018:2024   */\n      dup5\n        /* \"#utility.yul\":1974:2046   */\n      tag_83\n      jump\t// in\n    tag_127:\n        /* \"#utility.yul\":1611:2053   */\n      swap5\n      swap4\n      pop\n      pop\n      pop\n      pop\n      jump\t// out\n        /* \"#utility.yul\":2059:2177   */\n    tag_91:\n        /* \"#utility.yul\":2146:2170   */\n      tag_129\n        /* \"#utility.yul\":2164:2169   */\n      dup2\n        /* \"#utility.yul\":2146:2170   */\n      tag_88\n      jump\t// in\n    tag_129:\n        /* \"#utility.yul\":2141:2144   */\n      dup3\n        /* \"#utility.yul\":2134:2171   */\n      mstore\n        /* \"#utility.yul\":2059:2177   */\n      pop\n      pop\n      jump\t// out\n        /* \"#utility.yul\":2183:2405   */\n    tag_36:\n        /* \"#utility.yul\":2276:2280   */\n      0x00\n        /* \"#utility.yul\":2314:2316   */\n      0x20\n        /* \"#utility.yul\":2303:2312   */\n      dup3\n        /* \"#utility.yul\":2299:2317   */\n      add\n        /* \"#utility.yul\":2291:2317   */\n      swap1\n      pop\n        /* \"#utility.yul\":2327:2398   */\n      tag_131\n        /* \"#utility.yul\":2395:2396   */\n      0x00\n        /* \"#utility.yul\":2384:2393   */\n      dup4\n        /* \"#utility.yul\":2380:2397   */\n      add\n        /* \"#utility.yul\":2371:2377   */\n      dup5\n        /* \"#utility.yul\":2327:2398   */\n      tag_91\n      jump\t// in\n    tag_131:\n        /* \"#utility.yul\":2183:2405   */\n      swap3\n      swap2\n      pop\n      pop\n      jump\t// out\n        /* \"#utility.yul\":2411:2533   */\n    tag_92:\n        /* \"#utility.yul\":2484:2508   */\n      tag_133\n        /* \"#utility.yul\":2502:2507   */\n      dup2\n        /* \"#utility.yul\":2484:2508   */\n      tag_82\n      jump\t// in\n    tag_133:\n        /* \"#utility.yul\":2477:2482   */\n      dup2\n        /* \"#utility.yul\":2474:2509   */\n      eq\n        /* \"#utility.yul\":2464:2527   */\n      tag_134\n      jumpi\n        /* \"#utility.yul\":2523:2524   */\n      0x00\n        /* \"#utility.yul\":2520:2521   */\n      dup1\n        /* \"#utility.yul\":2513:2525   */\n      revert\n        /* \"#utility.yul\":2464:2527   */\n    tag_134:\n        /* \"#utility.yul\":2411:2533   */\n      pop\n      jump\t// out\n        /* \"#utility.yul\":2539:2678   */\n    tag_93:\n        /* \"#utility.yul\":2585:2590   */\n      0x00\n        /* \"#utility.yul\":2623:2629   */\n      dup2\n        /* \"#utility.yul\":2610:2630   */\n      calldataload\n        /* \"#utility.yul\":2601:2630   */\n      swap1\n      pop\n        /* \"#utility.yul\":2639:2672   */\n      tag_136\n        /* \"#utility.yul\":2666:2671   */\n      dup2\n        /* \"#utility.yul\":2639:2672   */\n      tag_92\n      jump\t// in\n    tag_136:\n        /* \"#utility.yul\":2539:2678   */\n      swap3\n      swap2\n      pop\n      pop\n      jump\t// out\n        /* \"#utility.yul\":2684:3449   */\n    tag_39:\n        /* \"#utility.yul\":2770:2776   */\n      0x00\n        /* \"#utility.yul\":2778:2784   */\n      dup1\n        /* \"#utility.yul\":2786:2792   */\n      0x00\n        /* \"#utility.yul\":2794:2800   */\n      dup1\n        /* \"#utility.yul\":2843:2846   */\n      0x80\n        /* \"#utility.yul\":2831:2840   */\n      dup6\n        /* \"#utility.yul\":2822:2829   */\n      dup8\n        /* \"#utility.yul\":2818:2841   */\n      sub\n        /* \"#utility.yul\":2814:2847   */\n      slt\n        /* \"#utility.yul\":2811:2931   */\n      iszero\n      tag_138\n      jumpi\n        /* \"#utility.yul\":2850:2929   */\n      tag_139\n      tag_85\n      jump\t// in\n    tag_139:\n        /* \"#utility.yul\":2811:2931   */\n    tag_138:\n        /* \"#utility.yul\":2970:2971   */\n      0x00\n        /* \"#utility.yul\":2995:3048   */\n      tag_140\n        /* \"#utility.yul\":3040:3047   */\n      dup8\n        /* \"#utility.yul\":3031:3037   */\n      dup3\n        /* \"#utility.yul\":3020:3029   */\n      dup9\n        /* \"#utility.yul\":3016:3038   */\n      add\n        /* \"#utility.yul\":2995:3048   */\n      tag_90\n      jump\t// in\n    tag_140:\n        /* \"#utility.yul\":2985:3048   */\n      swap5\n      pop\n        /* \"#utility.yul\":2941:3058   */\n      pop\n        /* \"#utility.yul\":3097:3099   */\n      0x20\n        /* \"#utility.yul\":3123:3176   */\n      tag_141\n        /* \"#utility.yul\":3168:3175   */\n      dup8\n        /* \"#utility.yul\":3159:3165   */\n      dup3\n        /* \"#utility.yul\":3148:3157   */\n      dup9\n        /* \"#utility.yul\":3144:3166   */\n      add\n        /* \"#utility.yul\":3123:3176   */\n      tag_93\n      jump\t// in\n    tag_141:\n        /* \"#utility.yul\":3113:3176   */\n      swap4\n      pop\n        /* \"#utility.yul\":3068:3186   */\n      pop\n        /* \"#utility.yul\":3225:3227   */\n      0x40\n        /* \"#utility.yul\":3251:3304   */\n      tag_142\n        /* \"#utility.yul\":3296:3303   */\n      dup8\n        /* \"#utility.yul\":3287:3293   */\n      dup3\n        /* \"#utility.yul\":3276:3285   */\n      dup9\n        /* \"#utility.yul\":3272:3294   */\n      add\n        /* \"#utility.yul\":3251:3304   */\n      tag_93\n      jump\t// in\n    tag_142:\n        /* \"#utility.yul\":3241:3304   */\n      swap3\n      pop\n        /* \"#utility.yul\":3196:3314   */\n      pop\n        /* \"#utility.yul\":3353:3355   */\n      0x60\n        /* \"#utility.yul\":3379:3432   */\n      tag_143\n        /* \"#utility.yul\":3424:3431   */\n      dup8\n        /* \"#utility.yul\":3415:3421   */\n      dup3\n        /* \"#utility.yul\":3404:3413   */\n      dup9\n        /* \"#utility.yul\":3400:3422   */\n      add\n        /* \"#utility.yul\":3379:3432   */\n      tag_93\n      jump\t// in\n    tag_143:\n        /* \"#utility.yul\":3369:3432   */\n      swap2\n      pop\n        /* \"#utility.yul\":3324:3442   */\n      pop\n        /* \"#utility.yul\":2684:3449   */\n      swap3\n      swap6\n      swap2\n      swap5\n      pop\n      swap3\n      pop\n      jump\t// out\n        /* \"#utility.yul\":3455:3624   */\n    tag_94:\n        /* \"#utility.yul\":3539:3550   */\n      0x00\n        /* \"#utility.yul\":3573:3579   */\n      dup3\n        /* \"#utility.yul\":3568:3571   */\n      dup3\n        /* \"#utility.yul\":3561:3580   */\n      mstore\n        /* \"#utility.yul\":3613:3617   */\n      0x20\n        /* \"#utility.yul\":3608:3611   */\n      dup3\n        /* \"#utility.yul\":3604:3618   */\n      add\n        /* \"#utility.yul\":3589:3618   */\n      swap1\n      pop\n        /* \"#utility.yul\":3455:3624   */\n      swap3\n      swap2\n      pop\n      pop\n      jump\t// out\n        /* \"#utility.yul\":3630:3801   */\n    tag_95:\n        /* \"#utility.yul\":3770:3793   */\n      0x4c6f616e206973207374696c6c206865616c7468790000000000000000000000\n        /* \"#utility.yul\":3766:3767   */\n      0x00\n        /* \"#utility.yul\":3758:3764   */\n      dup3\n        /* \"#utility.yul\":3754:3768   */\n      add\n        /* \"#utility.yul\":3747:3794   */\n      mstore\n        /* \"#utility.yul\":3630:3801   */\n      pop\n      jump\t// out\n        /* \"#utility.yul\":3807:4173   */\n    tag_96:\n        /* \"#utility.yul\":3949:3952   */\n      0x00\n        /* \"#utility.yul\":3970:4037   */\n      tag_147\n        /* \"#utility.yul\":4034:4036   */\n      0x15\n        /* \"#utility.yul\":4029:4032   */\n      dup4\n        /* \"#utility.yul\":3970:4037   */\n      tag_94\n      jump\t// in\n    tag_147:\n        /* \"#utility.yul\":3963:4037   */\n      swap2\n      pop\n        /* \"#utility.yul\":4046:4139   */\n      tag_148\n        /* \"#utility.yul\":4135:4138   */\n      dup3\n        /* \"#utility.yul\":4046:4139   */\n      tag_95\n      jump\t// in\n    tag_148:\n        /* \"#utility.yul\":4164:4166   */\n      0x20\n        /* \"#utility.yul\":4159:4162   */\n      dup3\n        /* \"#utility.yul\":4155:4167   */\n      add\n        /* \"#utility.yul\":4148:4167   */\n      swap1\n      pop\n        /* \"#utility.yul\":3807:4173   */\n      swap2\n      swap1\n      pop\n      jump\t// out\n        /* \"#utility.yul\":4179:4598   */\n    tag_55:\n        /* \"#utility.yul\":4345:4349   */\n      0x00\n        /* \"#utility.yul\":4383:4385   */\n      0x20\n        /* \"#utility.yul\":4372:4381   */\n      dup3\n        /* \"#utility.yul\":4368:4386   */\n      add\n        /* \"#utility.yul\":4360:4386   */\n      swap1\n      pop\n        /* \"#utility.yul\":4432:4441   */\n      dup2\n        /* \"#utility.yul\":4426:4430   */\n      dup2\n        /* \"#utility.yul\":4422:4442   */\n      sub\n        /* \"#utility.yul\":4418:4419   */\n      0x00\n        /* \"#utility.yul\":4407:4416   */\n      dup4\n        /* \"#utility.yul\":4403:4420   */\n      add\n        /* \"#utility.yul\":4396:4443   */\n      mstore\n        /* \"#utility.yul\":4460:4591   */\n      tag_150\n        /* \"#utility.yul\":4586:4590   */\n      dup2\n        /* \"#utility.yul\":4460:4591   */\n      tag_96\n      jump\t// in\n    tag_150:\n        /* \"#utility.yul\":4452:4591   */\n      swap1\n      pop\n        /* \"#utility.yul\":4179:4598   */\n      swap2\n      swap1\n      pop\n      jump\t// out\n        /* \"#utility.yul\":4604:4784   */\n    tag_97:\n        /* \"#utility.yul\":4652:4729   */\n      0x4e487b7100000000000000000000000000000000000000000000000000000000\n        /* \"#utility.yul\":4649:4650   */\n      0x00\n        /* \"#utility.yul\":4642:4730   */\n      mstore\n        /* \"#utility.yul\":4749:4753   */\n      0x12\n        /* \"#utility.yul\":4746:4747   */\n      0x04\n        /* \"#utility.yul\":4739:4754   */\n      mstore\n        /* \"#utility.yul\":4773:4777   */\n      0x24\n        /* \"#utility.yul\":4770:4771   */\n      0x00\n        /* \"#utility.yul\":4763:4778   */\n      revert\n        /* \"#utility.yul\":4790:4970   */\n    tag_98:\n        /* \"#utility.yul\":4838:4915   */\n      0x4e487b7100000000000000000000000000000000000000000000000000000000\n        /* \"#utility.yul\":4835:4836   */\n      0x00\n        /* \"#utility.yul\":4828:4916   */\n      mstore\n        /* \"#utility.yul\":4935:4939   */\n      0x11\n        /* \"#utility.yul\":4932:4933   */\n      0x04\n        /* \"#utility.yul\":4925:4940   */\n      mstore\n        /* \"#utility.yul\":4959:4963   */\n      0x24\n        /* \"#utility.yul\":4956:4957   */\n      0x00\n        /* \"#utility.yul\":4949:4964   */\n      revert\n        /* \"#utility.yul\":4976:5161   */\n    tag_57:\n        /* \"#utility.yul\":5016:5017   */\n      0x00\n        /* \"#utility.yul\":5033:5053   */\n      tag_154\n        /* \"#utility.yul\":5051:5052   */\n      dup3\n        /* \"#utility.yul\":5033:5053   */\n      tag_82\n      jump\t// in\n    tag_154:\n        /* \"#utility.yul\":5028:5053   */\n      swap2\n      pop\n        /* \"#utility.yul\":5067:5087   */\n      tag_155\n        /* \"#utility.yul\":5085:5086   */\n      dup4\n        /* \"#utility.yul\":5067:5087   */\n      tag_82\n      jump\t// in\n    tag_155:\n        /* \"#utility.yul\":5062:5087   */\n      swap3\n      pop\n        /* \"#utility.yul\":5106:5107   */\n      dup3\n        /* \"#utility.yul\":5096:5131   */\n      tag_156\n      jumpi\n        /* \"#utility.yul\":5111:5129   */\n      tag_157\n      tag_97\n      jump\t// in\n    tag_157:\n        /* \"#utility.yul\":5096:5131   */\n    tag_156:\n        /* \"#utility.yul\":5153:5154   */\n      dup3\n        /* \"#utility.yul\":5150:5151   */\n      dup3\n        /* \"#utility.yul\":5146:5155   */\n      div\n        /* \"#utility.yul\":5141:5155   */\n      swap1\n      pop\n        /* \"#utility.yul\":4976:5161   */\n      swap3\n      swap2\n      pop\n      pop\n      jump\t// out\n        /* \"#utility.yul\":5167:5577   */\n    tag_59:\n        /* \"#utility.yul\":5207:5214   */\n      0x00\n        /* \"#utility.yul\":5230:5250   */\n      tag_159\n        /* \"#utility.yul\":5248:5249   */\n      dup3\n        /* \"#utility.yul\":5230:5250   */\n      tag_82\n      jump\t// in\n    tag_159:\n        /* \"#utility.yul\":5225:5250   */\n      swap2\n      pop\n        /* \"#utility.yul\":5264:5284   */\n      tag_160\n        /* \"#utility.yul\":5282:5283   */\n      dup4\n        /* \"#utility.yul\":5264:5284   */\n      tag_82\n      jump\t// in\n    tag_160:\n        /* \"#utility.yul\":5259:5284   */\n      swap3\n      pop\n        /* \"#utility.yul\":5319:5320   */\n      dup3\n        /* \"#utility.yul\":5316:5317   */\n      dup3\n        /* \"#utility.yul\":5312:5321   */\n      mul\n        /* \"#utility.yul\":5341:5371   */\n      tag_161\n        /* \"#utility.yul\":5359:5370   */\n      dup2\n        /* \"#utility.yul\":5341:5371   */\n      tag_82\n      jump\t// in\n    tag_161:\n        /* \"#utility.yul\":5330:5371   */\n      swap2\n      pop\n        /* \"#utility.yul\":5520:5521   */\n      dup3\n        /* \"#utility.yul\":5511:5518   */\n      dup3\n        /* \"#utility.yul\":5507:5522   */\n      div\n        /* \"#utility.yul\":5504:5505   */\n      dup5\n        /* \"#utility.yul\":5501:5523   */\n      eq\n        /* \"#utility.yul\":5481:5482   */\n      dup4\n        /* \"#utility.yul\":5474:5483   */\n      iszero\n        /* \"#utility.yul\":5454:5537   */\n      or\n        /* \"#utility.yul\":5431:5570   */\n      tag_162\n      jumpi\n        /* \"#utility.yul\":5550:5568   */\n      tag_163\n      tag_98\n      jump\t// in\n    tag_163:\n        /* \"#utility.yul\":5431:5570   */\n    tag_162:\n        /* \"#utility.yul\":5215:5577   */\n      pop\n        /* \"#utility.yul\":5167:5577   */\n      swap3\n      swap2\n      pop\n      pop\n      jump\t// out\n        /* \"#utility.yul\":5583:5804   */\n    tag_99:\n        /* \"#utility.yul\":5723:5757   */\n      0x4e6f7420656e6f75676820636f6c6c61746572616c20746f206c697175696461\n        /* \"#utility.yul\":5719:5720   */\n      0x00\n        /* \"#utility.yul\":5711:5717   */\n      dup3\n        /* \"#utility.yul\":5707:5721   */\n      add\n        /* \"#utility.yul\":5700:5758   */\n      mstore\n        /* \"#utility.yul\":5792:5796   */\n      0x7465000000000000000000000000000000000000000000000000000000000000\n        /* \"#utility.yul\":5787:5789   */\n      0x20\n        /* \"#utility.yul\":5779:5785   */\n      dup3\n        /* \"#utility.yul\":5775:5790   */\n      add\n        /* \"#utility.yul\":5768:5797   */\n      mstore\n        /* \"#utility.yul\":5583:5804   */\n      pop\n      jump\t// out\n        /* \"#utility.yul\":5810:6176   */\n    tag_100:\n        /* \"#utility.yul\":5952:5955   */\n      0x00\n        /* \"#utility.yul\":5973:6040   */\n      tag_166\n        /* \"#utility.yul\":6037:6039   */\n      0x22\n        /* \"#utility.yul\":6032:6035   */\n      dup4\n        /* \"#utility.yul\":5973:6040   */\n      tag_94\n      jump\t// in\n    tag_166:\n        /* \"#utility.yul\":5966:6040   */\n      swap2\n      pop\n        /* \"#utility.yul\":6049:6142   */\n      tag_167\n        /* \"#utility.yul\":6138:6141   */\n      dup3\n        /* \"#utility.yul\":6049:6142   */\n      tag_99\n      jump\t// in\n    tag_167:\n        /* \"#utility.yul\":6167:6169   */\n      0x40\n        /* \"#utility.yul\":6162:6165   */\n      dup3\n        /* \"#utility.yul\":6158:6170   */\n      add\n        /* \"#utility.yul\":6151:6170   */\n      swap1\n      pop\n        /* \"#utility.yul\":5810:6176   */\n      swap2\n      swap1\n      pop\n      jump\t// out\n        /* \"#utility.yul\":6182:6601   */\n    tag_62:\n        /* \"#utility.yul\":6348:6352   */\n      0x00\n        /* \"#utility.yul\":6386:6388   */\n      0x20\n        /* \"#utility.yul\":6375:6384   */\n      dup3\n        /* \"#utility.yul\":6371:6389   */\n      add\n        /* \"#utility.yul\":6363:6389   */\n      swap1\n      pop\n        /* \"#utility.yul\":6435:6444   */\n      dup2\n        /* \"#utility.yul\":6429:6433   */\n      dup2\n        /* \"#utility.yul\":6425:6445   */\n      sub\n        /* \"#utility.yul\":6421:6422   */\n      0x00\n        /* \"#utility.yul\":6410:6419   */\n      dup4\n        /* \"#utility.yul\":6406:6423   */\n      add\n        /* \"#utility.yul\":6399:6446   */\n      mstore\n        /* \"#utility.yul\":6463:6594   */\n      tag_169\n        /* \"#utility.yul\":6589:6593   */\n      dup2\n        /* \"#utility.yul\":6463:6594   */\n      tag_100\n      jump\t// in\n    tag_169:\n        /* \"#utility.yul\":6455:6594   */\n      swap1\n      pop\n        /* \"#utility.yul\":6182:6601   */\n      swap2\n      swap1\n      pop\n      jump\t// out\n        /* \"#utility.yul\":6607:6801   */\n    tag_64:\n        /* \"#utility.yul\":6647:6651   */\n      0x00\n        /* \"#utility.yul\":6667:6687   */\n      tag_171\n        /* \"#utility.yul\":6685:6686   */\n      dup3\n        /* \"#utility.yul\":6667:6687   */\n      tag_82\n      jump\t// in\n    tag_171:\n        /* \"#utility.yul\":6662:6687   */\n      swap2\n      pop\n        /* \"#utility.yul\":6701:6721   */\n      tag_172\n        /* \"#utility.yul\":6719:6720   */\n      dup4\n        /* \"#utility.yul\":6701:6721   */\n      tag_82\n      jump\t// in\n    tag_172:\n        /* \"#utility.yul\":6696:6721   */\n      swap3\n      pop\n        /* \"#utility.yul\":6745:6746   */\n      dup3\n        /* \"#utility.yul\":6742:6743   */\n      dup3\n        /* \"#utility.yul\":6738:6747   */\n      sub\n        /* \"#utility.yul\":6730:6747   */\n      swap1\n      pop\n        /* \"#utility.yul\":6769:6770   */\n      dup2\n        /* \"#utility.yul\":6763:6767   */\n      dup2\n        /* \"#utility.yul\":6760:6771   */\n      gt\n        /* \"#utility.yul\":6757:6794   */\n      iszero\n      tag_173\n      jumpi\n        /* \"#utility.yul\":6774:6792   */\n      tag_174\n      tag_98\n      jump\t// in\n    tag_174:\n        /* \"#utility.yul\":6757:6794   */\n    tag_173:\n        /* \"#utility.yul\":6607:6801   */\n      swap3\n      swap2\n      pop\n      pop\n      jump\t// out\n        /* \"#utility.yul\":6807:7249   */\n    tag_67:\n        /* \"#utility.yul\":6956:6960   */\n      0x00\n        /* \"#utility.yul\":6994:6996   */\n      0x60\n        /* \"#utility.yul\":6983:6992   */\n      dup3\n        /* \"#utility.yul\":6979:6997   */\n      add\n        /* \"#utility.yul\":6971:6997   */\n      swap1\n      pop\n        /* \"#utility.yul\":7007:7078   */\n      tag_176\n        /* \"#utility.yul\":7075:7076   */\n      0x00\n        /* \"#utility.yul\":7064:7073   */\n      dup4\n        /* \"#utility.yul\":7060:7077   */\n      add\n        /* \"#utility.yul\":7051:7057   */\n      dup7\n        /* \"#utility.yul\":7007:7078   */\n      tag_91\n      jump\t// in\n    tag_176:\n        /* \"#utility.yul\":7088:7160   */\n      tag_177\n        /* \"#utility.yul\":7156:7158   */\n      0x20\n        /* \"#utility.yul\":7145:7154   */\n      dup4\n        /* \"#utility.yul\":7141:7159   */\n      add\n        /* \"#utility.yul\":7132:7138   */\n      dup6\n        /* \"#utility.yul\":7088:7160   */\n      tag_83\n      jump\t// in\n    tag_177:\n        /* \"#utility.yul\":7170:7242   */\n      tag_178\n        /* \"#utility.yul\":7238:7240   */\n      0x40\n        /* \"#utility.yul\":7227:7236   */\n      dup4\n        /* \"#utility.yul\":7223:7241   */\n      add\n        /* \"#utility.yul\":7214:7220   */\n      dup5\n        /* \"#utility.yul\":7170:7242   */\n      tag_83\n      jump\t// in\n    tag_178:\n        /* \"#utility.yul\":6807:7249   */\n      swap5\n      swap4\n      pop\n      pop\n      pop\n      pop\n      jump\t// out\n        /* \"#utility.yul\":7255:7429   */\n    tag_101:\n        /* \"#utility.yul\":7395:7421   */\n      0x4f6e6c79206f776e65722063616e20616464206c6f616e730000000000000000\n        /* \"#utility.yul\":7391:7392   */\n      0x00\n        /* \"#utility.yul\":7383:7389   */\n      dup3\n        /* \"#utility.yul\":7379:7393   */\n      add\n        /* \"#utility.yul\":7372:7422   */\n      mstore\n        /* \"#utility.yul\":7255:7429   */\n      pop\n      jump\t// out\n        /* \"#utility.yul\":7435:7801   */\n    tag_102:\n        /* \"#utility.yul\":7577:7580   */\n      0x00\n        /* \"#utility.yul\":7598:7665   */\n      tag_181\n        /* \"#utility.yul\":7662:7664   */\n      0x18\n        /* \"#utility.yul\":7657:7660   */\n      dup4\n        /* \"#utility.yul\":7598:7665   */\n      tag_94\n      jump\t// in\n    tag_181:\n        /* \"#utility.yul\":7591:7665   */\n      swap2\n      pop\n        /* \"#utility.yul\":7674:7767   */\n      tag_182\n        /* \"#utility.yul\":7763:7766   */\n      dup3\n        /* \"#utility.yul\":7674:7767   */\n      tag_101\n      jump\t// in\n    tag_182:\n        /* \"#utility.yul\":7792:7794   */\n      0x20\n        /* \"#utility.yul\":7787:7790   */\n      dup3\n        /* \"#utility.yul\":7783:7795   */\n      add\n        /* \"#utility.yul\":7776:7795   */\n      swap1\n      pop\n        /* \"#utility.yul\":7435:7801   */\n      swap2\n      swap1\n      pop\n      jump\t// out\n        /* \"#utility.yul\":7807:8226   */\n    tag_71:\n        /* \"#utility.yul\":7973:7977   */\n      0x00\n        /* \"#utility.yul\":8011:8013   */\n      0x20\n        /* \"#utility.yul\":8000:8009   */\n      dup3\n        /* \"#utility.yul\":7996:8014   */\n      add\n        /* \"#utility.yul\":7988:8014   */\n      swap1\n      pop\n        /* \"#utility.yul\":8060:8069   */\n      dup2\n        /* \"#utility.yul\":8054:8058   */\n      dup2\n        /* \"#utility.yul\":8050:8070   */\n      sub\n        /* \"#utility.yul\":8046:8047   */\n      0x00\n        /* \"#utility.yul\":8035:8044   */\n      dup4\n        /* \"#utility.yul\":8031:8048   */\n      add\n        /* \"#utility.yul\":8024:8071   */\n      mstore\n        /* \"#utility.yul\":8088:8219   */\n      tag_184\n        /* \"#utility.yul\":8214:8218   */\n      dup2\n        /* \"#utility.yul\":8088:8219   */\n      tag_102\n      jump\t// in\n    tag_184:\n        /* \"#utility.yul\":8080:8219   */\n      swap1\n      pop\n        /* \"#utility.yul\":7807:8226   */\n      swap2\n      swap1\n      pop\n      jump\t// out\n        /* \"#utility.yul\":8232:8423   */\n    tag_78:\n        /* \"#utility.yul\":8272:8275   */\n      0x00\n        /* \"#utility.yul\":8291:8311   */\n      tag_186\n        /* \"#utility.yul\":8309:8310   */\n      dup3\n        /* \"#utility.yul\":8291:8311   */\n      tag_82\n      jump\t// in\n    tag_186:\n        /* \"#utility.yul\":8286:8311   */\n      swap2\n      pop\n        /* \"#utility.yul\":8325:8345   */\n      tag_187\n        /* \"#utility.yul\":8343:8344   */\n      dup4\n        /* \"#utility.yul\":8325:8345   */\n      tag_82\n      jump\t// in\n    tag_187:\n        /* \"#utility.yul\":8320:8345   */\n      swap3\n      pop\n        /* \"#utility.yul\":8368:8369   */\n      dup3\n        /* \"#utility.yul\":8365:8366   */\n      dup3\n        /* \"#utility.yul\":8361:8370   */\n      add\n        /* \"#utility.yul\":8354:8370   */\n      swap1\n      pop\n        /* \"#utility.yul\":8389:8392   */\n      dup1\n        /* \"#utility.yul\":8386:8387   */\n      dup3\n        /* \"#utility.yul\":8383:8393   */\n      gt\n        /* \"#utility.yul\":8380:8416   */\n      iszero\n      tag_188\n      jumpi\n        /* \"#utility.yul\":8396:8414   */\n      tag_189\n      tag_98\n      jump\t// in\n    tag_189:\n        /* \"#utility.yul\":8380:8416   */\n    tag_188:\n        /* \"#utility.yul\":8232:8423   */\n      swap3\n      swap2\n      pop\n      pop\n      jump\t// out\n\n    auxdata: 0xa2646970667358221220998451695b2f3fcc811ffc56b6cd8113c029a0c90ecb806aafa3fba78fadd66d64736f6c634300081a0033\n}\n",
				"bytecode": {
					"linkReferences": {},
					"object": "6080604052605a600255605060035560466004556105dc60055560646006553480156028575f80fd5b50335f806101000a81548173ffffffffffffffffffffffffffffffffffffffff021916908373ffffffffffffffffffffffffffffffffffffffff160217905550610a87806100755f395ff3fe608060405234801561000f575f80fd5b506004361061009c575f3560e01c80638da5cb5b116100645780638da5cb5b14610148578063ad24a33614610166578063da53cf8b14610182578063fe6bcd7c146101a0578063ff186b2e146101d05761009c565b806315d67769146100a05780632f865568146100be57806345edae0b146100da57806373b4086b146100f85780637e3df4791461012a575b5f80fd5b6100a86101ee565b6040516100b591906105f0565b60405180910390f35b6100d860048036038101906100d39190610667565b6101f4565b005b6100e261035e565b6040516100ef91906105f0565b60405180910390f35b610112600480360381019061010d9190610667565b610364565b60405161012193929190610692565b60405180910390f35b61013261038a565b60405161013f91906105f0565b60405180910390f35b610150610390565b60405161015d91906106d6565b60405180910390f35b610180600480360381019061017b9190610719565b6103b3565b005b61018a6104bd565b60405161019791906105f0565b60405180910390f35b6101ba60048036038101906101b59190610667565b6104c3565b6040516101c791906105f0565b60405180910390f35b6101d86105d2565b6040516101e591906105f0565b60405180910390f35b60045481565b60646101ff826104c3565b1061023f576040517f08c379a0000000000000000000000000000000000000000000000000000000008152600401610236906107d7565b60405180910390fd5b5f60015f8373ffffffffffffffffffffffffffffffffffffffff1673ffffffffffffffffffffffffffffffffffffffff1681526020019081526020015f2090505f60028260010154610291919061084f565b90505f6105f0826102a2919061087f565b905080835f015410156102ea576040517f08c379a00000000000000000000000000000000000000000000000000000000081526004016102e190610930565b60405180910390fd5b80835f015f8282546102fc919061094e565b9250508190555081836001015f828254610316919061094e565b925050819055507f09c223cfcd8c93e245f558f5f8de755fc0930fd9bc257441155ef5d54a170e0f84828460405161035093929190610981565b60405180910390a150505050565b60065481565b6001602052805f5260405f205f91509050805f0154908060010154908060020154905083565b60035481565b5f8054906101000a900473ffffffffffffffffffffffffffffffffffffffff1681565b5f8054906101000a900473ffffffffffffffffffffffffffffffffffffffff1673ffffffffffffffffffffffffffffffffffffffff163373ffffffffffffffffffffffffffffffffffffffff1614610440576040517f08c379a000000000000000000000000000000000000000000000000000000000815260040161043790610a00565b60405180910390fd5b60405180606001604052808481526020018381526020018281525060015f8673ffffffffffffffffffffffffffffffffffffffff1673ffffffffffffffffffffffffffffffffffffffff1681526020019081526020015f205f820151815f0155602082015181600101556040820151816002015590505050505050565b60025481565b5f8060015f8473ffffffffffffffffffffffffffffffffffffffff1673ffffffffffffffffffffffffffffffffffffffff1681526020019081526020015f206040518060600160405290815f82015481526020016001820154815260200160028201548152505090505f6064600254835f0151610540919061087f565b61054a919061084f565b90505f600654836040015161055f919061087f565b6005548460200151610571919061087f565b61057b9190610a1e565b90505f81036105af577fffffffffffffffffffffffffffffffffffffffffffffffffffffffffffffffff93505050506105cd565b806064836105bd919061087f565b6105c7919061084f565b93505050505b919050565b60055481565b5f819050919050565b6105ea816105d8565b82525050565b5f6020820190506106035f8301846105e1565b92915050565b5f80fd5b5f73ffffffffffffffffffffffffffffffffffffffff82169050919050565b5f6106368261060d565b9050919050565b6106468161062c565b8114610650575f80fd5b50565b5f813590506106618161063d565b92915050565b5f6020828403121561067c5761067b610609565b5b5f61068984828501610653565b91505092915050565b5f6060820190506106a55f8301866105e1565b6106b260208301856105e1565b6106bf60408301846105e1565b949350505050565b6106d08161062c565b82525050565b5f6020820190506106e95f8301846106c7565b92915050565b6106f8816105d8565b8114610702575f80fd5b50565b5f81359050610713816106ef565b92915050565b5f805f806080858703121561073157610730610609565b5b5f61073e87828801610653565b945050602061074f87828801610705565b935050604061076087828801610705565b925050606061077187828801610705565b91505092959194509250565b5f82825260208201905092915050565b7f4c6f616e206973207374696c6c206865616c74687900000000000000000000005f82015250565b5f6107c160158361077d565b91506107cc8261078d565b602082019050919050565b5f6020820190508181035f8301526107ee816107b5565b9050919050565b7f4e487b71000000000000000000000000000000000000000000000000000000005f52601260045260245ffd5b7f4e487b71000000000000000000000000000000000000000000000000000000005f52601160045260245ffd5b5f610859826105d8565b9150610864836105d8565b925082610874576108736107f5565b5b828204905092915050565b5f610889826105d8565b9150610894836105d8565b92508282026108a2816105d8565b915082820484148315176108b9576108b8610822565b5b5092915050565b7f4e6f7420656e6f75676820636f6c6c61746572616c20746f206c6971756964615f8201527f7465000000000000000000000000000000000000000000000000000000000000602082015250565b5f61091a60228361077d565b9150610925826108c0565b604082019050919050565b5f6020820190508181035f8301526109478161090e565b9050919050565b5f610958826105d8565b9150610963836105d8565b925082820390508181111561097b5761097a610822565b5b92915050565b5f6060820190506109945f8301866106c7565b6109a160208301856105e1565b6109ae60408301846105e1565b949350505050565b7f4f6e6c79206f776e65722063616e20616464206c6f616e7300000000000000005f82015250565b5f6109ea60188361077d565b91506109f5826109b6565b602082019050919050565b5f6020820190508181035f830152610a17816109de565b9050919050565b5f610a28826105d8565b9150610a33836105d8565b9250828201905080821115610a4b57610a4a610822565b5b9291505056fea2646970667358221220998451695b2f3fcc811ffc56b6cd8113c029a0c90ecb806aafa3fba78fadd66d64736f6c634300081a0033",
					"opcodes": "PUSH1 0x80 PUSH1 0x40 MSTORE PUSH1 0x5A PUSH1 0x2 SSTORE PUSH1 0x50 PUSH1 0x3 SSTORE PUSH1 0x46 PUSH1 0x4 SSTORE PUSH2 0x5DC PUSH1 0x5 SSTORE PUSH1 0x64 PUSH1 0x6 SSTORE CALLVALUE DUP1 ISZERO PUSH1 0x28 JUMPI PUSH0 DUP1 REVERT JUMPDEST POP CALLER PUSH0 DUP1 PUSH2 0x100 EXP DUP2 SLOAD DUP2 PUSH20 0xFFFFFFFFFFFFFFFFFFFFFFFFFFFFFFFFFFFFFFFF MUL NOT AND SWAP1 DUP4 PUSH20 0xFFFFFFFFFFFFFFFFFFFFFFFFFFFFFFFFFFFFFFFF AND MUL OR SWAP1 SSTORE POP PUSH2 0xA87 DUP1 PUSH2 0x75 PUSH0 CODECOPY PUSH0 RETURN INVALID PUSH1 0x80 PUSH1 0x40 MSTORE CALLVALUE DUP1 ISZERO PUSH2 0xF JUMPI PUSH0 DUP1 REVERT JUMPDEST POP PUSH1 0x4 CALLDATASIZE LT PUSH2 0x9C JUMPI PUSH0 CALLDATALOAD PUSH1 0xE0 SHR DUP1 PUSH4 0x8DA5CB5B GT PUSH2 0x64 JUMPI DUP1 PUSH4 0x8DA5CB5B EQ PUSH2 0x148 JUMPI DUP1 PUSH4 0xAD24A336 EQ PUSH2 0x166 JUMPI DUP1 PUSH4 0xDA53CF8B EQ PUSH2 0x182 JUMPI DUP1 PUSH4 0xFE6BCD7C EQ PUSH2 0x1A0 JUMPI DUP1 PUSH4 0xFF186B2E EQ PUSH2 0x1D0 JUMPI PUSH2 0x9C JUMP JUMPDEST DUP1 PUSH4 0x15D67769 EQ PUSH2 0xA0 JUMPI DUP1 PUSH4 0x2F865568 EQ PUSH2 0xBE JUMPI DUP1 PUSH4 0x45EDAE0B EQ PUSH2 0xDA JUMPI DUP1 PUSH4 0x73B4086B EQ PUSH2 0xF8 JUMPI DUP1 PUSH4 0x7E3DF479 EQ PUSH2 0x12A JUMPI JUMPDEST PUSH0 DUP1 REVERT JUMPDEST PUSH2 0xA8 PUSH2 0x1EE JUMP JUMPDEST PUSH1 0x40 MLOAD PUSH2 0xB5 SWAP2 SWAP1 PUSH2 0x5F0 JUMP JUMPDEST PUSH1 0x40 MLOAD DUP1 SWAP2 SUB SWAP1 RETURN JUMPDEST PUSH2 0xD8 PUSH1 0x4 DUP1 CALLDATASIZE SUB DUP2 ADD SWAP1 PUSH2 0xD3 SWAP2 SWAP1 PUSH2 0x667 JUMP JUMPDEST PUSH2 0x1F4 JUMP JUMPDEST STOP JUMPDEST PUSH2 0xE2 PUSH2 0x35E JUMP JUMPDEST PUSH1 0x40 MLOAD PUSH2 0xEF SWAP2 SWAP1 PUSH2 0x5F0 JUMP JUMPDEST PUSH1 0x40 MLOAD DUP1 SWAP2 SUB SWAP1 RETURN JUMPDEST PUSH2 0x112 PUSH1 0x4 DUP1 CALLDATASIZE SUB DUP2 ADD SWAP1 PUSH2 0x10D SWAP2 SWAP1 PUSH2 0x667 JUMP JUMPDEST PUSH2 0x364 JUMP JUMPDEST PUSH1 0x40 MLOAD PUSH2 0x121 SWAP4 SWAP3 SWAP2 SWAP1 PUSH2 0x692 JUMP JUMPDEST PUSH1 0x40 MLOAD DUP1 SWAP2 SUB SWAP1 RETURN JUMPDEST PUSH2 0x132 PUSH2 0x38A JUMP JUMPDEST PUSH1 0x40 MLOAD PUSH2 0x13F SWAP2 SWAP1 PUSH2 0x5F0 JUMP JUMPDEST PUSH1 0x40 MLOAD DUP1 SWAP2 SUB SWAP1 RETURN JUMPDEST PUSH2 0x150 PUSH2 0x390 JUMP JUMPDEST PUSH1 0x40 MLOAD PUSH2 0x15D SWAP2 SWAP1 PUSH2 0x6D6 JUMP JUMPDEST PUSH1 0x40 MLOAD DUP1 SWAP2 SUB SWAP1 RETURN JUMPDEST PUSH2 0x180 PUSH1 0x4 DUP1 CALLDATASIZE SUB DUP2 ADD SWAP1 PUSH2 0x17B SWAP2 SWAP1 PUSH2 0x719 JUMP JUMPDEST PUSH2 0x3B3 JUMP JUMPDEST STOP JUMPDEST PUSH2 0x18A PUSH2 0x4BD JUMP JUMPDEST PUSH1 0x40 MLOAD PUSH2 0x197 SWAP2 SWAP1 PUSH2 0x5F0 JUMP JUMPDEST PUSH1 0x40 MLOAD DUP1 SWAP2 SUB SWAP1 RETURN JUMPDEST PUSH2 0x1BA PUSH1 0x4 DUP1 CALLDATASIZE SUB DUP2 ADD SWAP1 PUSH2 0x1B5 SWAP2 SWAP1 PUSH2 0x667 JUMP JUMPDEST PUSH2 0x4C3 JUMP JUMPDEST PUSH1 0x40 MLOAD PUSH2 0x1C7 SWAP2 SWAP1 PUSH2 0x5F0 JUMP JUMPDEST PUSH1 0x40 MLOAD DUP1 SWAP2 SUB SWAP1 RETURN JUMPDEST PUSH2 0x1D8 PUSH2 0x5D2 JUMP JUMPDEST PUSH1 0x40 MLOAD PUSH2 0x1E5 SWAP2 SWAP1 PUSH2 0x5F0 JUMP JUMPDEST PUSH1 0x40 MLOAD DUP1 SWAP2 SUB SWAP1 RETURN JUMPDEST PUSH1 0x4 SLOAD DUP2 JUMP JUMPDEST PUSH1 0x64 PUSH2 0x1FF DUP3 PUSH2 0x4C3 JUMP JUMPDEST LT PUSH2 0x23F JUMPI PUSH1 0x40 MLOAD PUSH32 0x8C379A000000000000000000000000000000000000000000000000000000000 DUP2 MSTORE PUSH1 0x4 ADD PUSH2 0x236 SWAP1 PUSH2 0x7D7 JUMP JUMPDEST PUSH1 0x40 MLOAD DUP1 SWAP2 SUB SWAP1 REVERT JUMPDEST PUSH0 PUSH1 0x1 PUSH0 DUP4 PUSH20 0xFFFFFFFFFFFFFFFFFFFFFFFFFFFFFFFFFFFFFFFF AND PUSH20 0xFFFFFFFFFFFFFFFFFFFFFFFFFFFFFFFFFFFFFFFF AND DUP2 MSTORE PUSH1 0x20 ADD SWAP1 DUP2 MSTORE PUSH1 0x20 ADD PUSH0 KECCAK256 SWAP1 POP PUSH0 PUSH1 0x2 DUP3 PUSH1 0x1 ADD SLOAD PUSH2 0x291 SWAP2 SWAP1 PUSH2 0x84F JUMP JUMPDEST SWAP1 POP PUSH0 PUSH2 0x5F0 DUP3 PUSH2 0x2A2 SWAP2 SWAP1 PUSH2 0x87F JUMP JUMPDEST SWAP1 POP DUP1 DUP4 PUSH0 ADD SLOAD LT ISZERO PUSH2 0x2EA JUMPI PUSH1 0x40 MLOAD PUSH32 0x8C379A000000000000000000000000000000000000000000000000000000000 DUP2 MSTORE PUSH1 0x4 ADD PUSH2 0x2E1 SWAP1 PUSH2 0x930 JUMP JUMPDEST PUSH1 0x40 MLOAD DUP1 SWAP2 SUB SWAP1 REVERT JUMPDEST DUP1 DUP4 PUSH0 ADD PUSH0 DUP3 DUP3 SLOAD PUSH2 0x2FC SWAP2 SWAP1 PUSH2 0x94E JUMP JUMPDEST SWAP3 POP POP DUP2 SWAP1 SSTORE POP DUP2 DUP4 PUSH1 0x1 ADD PUSH0 DUP3 DUP3 SLOAD PUSH2 0x316 SWAP2 SWAP1 PUSH2 0x94E JUMP JUMPDEST SWAP3 POP POP DUP2 SWAP1 SSTORE POP PUSH32 0x9C223CFCD8C93E245F558F5F8DE755FC0930FD9BC257441155EF5D54A170E0F DUP5 DUP3 DUP5 PUSH1 0x40 MLOAD PUSH2 0x350 SWAP4 SWAP3 SWAP2 SWAP1 PUSH2 0x981 JUMP JUMPDEST PUSH1 0x40 MLOAD DUP1 SWAP2 SUB SWAP1 LOG1 POP POP POP POP JUMP JUMPDEST PUSH1 0x6 SLOAD DUP2 JUMP JUMPDEST PUSH1 0x1 PUSH1 0x20 MSTORE DUP1 PUSH0 MSTORE PUSH1 0x40 PUSH0 KECCAK256 PUSH0 SWAP2 POP SWAP1 POP DUP1 PUSH0 ADD SLOAD SWAP1 DUP1 PUSH1 0x1 ADD SLOAD SWAP1 DUP1 PUSH1 0x2 ADD SLOAD SWAP1 POP DUP4 JUMP JUMPDEST PUSH1 0x3 SLOAD DUP2 JUMP JUMPDEST PUSH0 DUP1 SLOAD SWAP1 PUSH2 0x100 EXP SWAP1 DIV PUSH20 0xFFFFFFFFFFFFFFFFFFFFFFFFFFFFFFFFFFFFFFFF AND DUP2 JUMP JUMPDEST PUSH0 DUP1 SLOAD SWAP1 PUSH2 0x100 EXP SWAP1 DIV PUSH20 0xFFFFFFFFFFFFFFFFFFFFFFFFFFFFFFFFFFFFFFFF AND PUSH20 0xFFFFFFFFFFFFFFFFFFFFFFFFFFFFFFFFFFFFFFFF AND CALLER PUSH20 0xFFFFFFFFFFFFFFFFFFFFFFFFFFFFFFFFFFFFFFFF AND EQ PUSH2 0x440 JUMPI PUSH1 0x40 MLOAD PUSH32 0x8C379A000000000000000000000000000000000000000000000000000000000 DUP2 MSTORE PUSH1 0x4 ADD PUSH2 0x437 SWAP1 PUSH2 0xA00 JUMP JUMPDEST PUSH1 0x40 MLOAD DUP1 SWAP2 SUB SWAP1 REVERT JUMPDEST PUSH1 0x40 MLOAD DUP1 PUSH1 0x60 ADD PUSH1 0x40 MSTORE DUP1 DUP5 DUP2 MSTORE PUSH1 0x20 ADD DUP4 DUP2 MSTORE PUSH1 0x20 ADD DUP3 DUP2 MSTORE POP PUSH1 0x1 PUSH0 DUP7 PUSH20 0xFFFFFFFFFFFFFFFFFFFFFFFFFFFFFFFFFFFFFFFF AND PUSH20 0xFFFFFFFFFFFFFFFFFFFFFFFFFFFFFFFFFFFFFFFF AND DUP2 MSTORE PUSH1 0x20 ADD SWAP1 DUP2 MSTORE PUSH1 0x20 ADD PUSH0 KECCAK256 PUSH0 DUP3 ADD MLOAD DUP2 PUSH0 ADD SSTORE PUSH1 0x20 DUP3 ADD MLOAD DUP2 PUSH1 0x1 ADD SSTORE PUSH1 0x40 DUP3 ADD MLOAD DUP2 PUSH1 0x2 ADD SSTORE SWAP1 POP POP POP POP POP POP JUMP JUMPDEST PUSH1 0x2 SLOAD DUP2 JUMP JUMPDEST PUSH0 DUP1 PUSH1 0x1 PUSH0 DUP5 PUSH20 0xFFFFFFFFFFFFFFFFFFFFFFFFFFFFFFFFFFFFFFFF AND PUSH20 0xFFFFFFFFFFFFFFFFFFFFFFFFFFFFFFFFFFFFFFFF AND DUP2 MSTORE PUSH1 0x20 ADD SWAP1 DUP2 MSTORE PUSH1 0x20 ADD PUSH0 KECCAK256 PUSH1 0x40 MLOAD DUP1 PUSH1 0x60 ADD PUSH1 0x40 MSTORE SWAP1 DUP2 PUSH0 DUP3 ADD SLOAD DUP2 MSTORE PUSH1 0x20 ADD PUSH1 0x1 DUP3 ADD SLOAD DUP2 MSTORE PUSH1 0x20 ADD PUSH1 0x2 DUP3 ADD SLOAD DUP2 MSTORE POP POP SWAP1 POP PUSH0 PUSH1 0x64 PUSH1 0x2 SLOAD DUP4 PUSH0 ADD MLOAD PUSH2 0x540 SWAP2 SWAP1 PUSH2 0x87F JUMP JUMPDEST PUSH2 0x54A SWAP2 SWAP1 PUSH2 0x84F JUMP JUMPDEST SWAP1 POP PUSH0 PUSH1 0x6 SLOAD DUP4 PUSH1 0x40 ADD MLOAD PUSH2 0x55F SWAP2 SWAP1 PUSH2 0x87F JUMP JUMPDEST PUSH1 0x5 SLOAD DUP5 PUSH1 0x20 ADD MLOAD PUSH2 0x571 SWAP2 SWAP1 PUSH2 0x87F JUMP JUMPDEST PUSH2 0x57B SWAP2 SWAP1 PUSH2 0xA1E JUMP JUMPDEST SWAP1 POP PUSH0 DUP2 SUB PUSH2 0x5AF JUMPI PUSH32 0xFFFFFFFFFFFFFFFFFFFFFFFFFFFFFFFFFFFFFFFFFFFFFFFFFFFFFFFFFFFFFFFF SWAP4 POP POP POP POP PUSH2 0x5CD JUMP JUMPDEST DUP1 PUSH1 0x64 DUP4 PUSH2 0x5BD SWAP2 SWAP1 PUSH2 0x87F JUMP JUMPDEST PUSH2 0x5C7 SWAP2 SWAP1 PUSH2 0x84F JUMP JUMPDEST SWAP4 POP POP POP POP JUMPDEST SWAP2 SWAP1 POP JUMP JUMPDEST PUSH1 0x5 SLOAD DUP2 JUMP JUMPDEST PUSH0 DUP2 SWAP1 POP SWAP2 SWAP1 POP JUMP JUMPDEST PUSH2 0x5EA DUP2 PUSH2 0x5D8 JUMP JUMPDEST DUP3 MSTORE POP POP JUMP JUMPDEST PUSH0 PUSH1 0x20 DUP3 ADD SWAP1 POP PUSH2 0x603 PUSH0 DUP4 ADD DUP5 PUSH2 0x5E1 JUMP JUMPDEST SWAP3 SWAP2 POP POP JUMP JUMPDEST PUSH0 DUP1 REVERT JUMPDEST PUSH0 PUSH20 0xFFFFFFFFFFFFFFFFFFFFFFFFFFFFFFFFFFFFFFFF DUP3 AND SWAP1 POP SWAP2 SWAP1 POP JUMP JUMPDEST PUSH0 PUSH2 0x636 DUP3 PUSH2 0x60D JUMP JUMPDEST SWAP1 POP SWAP2 SWAP1 POP JUMP JUMPDEST PUSH2 0x646 DUP2 PUSH2 0x62C JUMP JUMPDEST DUP2 EQ PUSH2 0x650 JUMPI PUSH0 DUP1 REVERT JUMPDEST POP JUMP JUMPDEST PUSH0 DUP2 CALLDATALOAD SWAP1 POP PUSH2 0x661 DUP2 PUSH2 0x63D JUMP JUMPDEST SWAP3 SWAP2 POP POP JUMP JUMPDEST PUSH0 PUSH1 0x20 DUP3 DUP5 SUB SLT ISZERO PUSH2 0x67C JUMPI PUSH2 0x67B PUSH2 0x609 JUMP JUMPDEST JUMPDEST PUSH0 PUSH2 0x689 DUP5 DUP3 DUP6 ADD PUSH2 0x653 JUMP JUMPDEST SWAP2 POP POP SWAP3 SWAP2 POP POP JUMP JUMPDEST PUSH0 PUSH1 0x60 DUP3 ADD SWAP1 POP PUSH2 0x6A5 PUSH0 DUP4 ADD DUP7 PUSH2 0x5E1 JUMP JUMPDEST PUSH2 0x6B2 PUSH1 0x20 DUP4 ADD DUP6 PUSH2 0x5E1 JUMP JUMPDEST PUSH2 0x6BF PUSH1 0x40 DUP4 ADD DUP5 PUSH2 0x5E1 JUMP JUMPDEST SWAP5 SWAP4 POP POP POP POP JUMP JUMPDEST PUSH2 0x6D0 DUP2 PUSH2 0x62C JUMP JUMPDEST DUP3 MSTORE POP POP JUMP JUMPDEST PUSH0 PUSH1 0x20 DUP3 ADD SWAP1 POP PUSH2 0x6E9 PUSH0 DUP4 ADD DUP5 PUSH2 0x6C7 JUMP JUMPDEST SWAP3 SWAP2 POP POP JUMP JUMPDEST PUSH2 0x6F8 DUP2 PUSH2 0x5D8 JUMP JUMPDEST DUP2 EQ PUSH2 0x702 JUMPI PUSH0 DUP1 REVERT JUMPDEST POP JUMP JUMPDEST PUSH0 DUP2 CALLDATALOAD SWAP1 POP PUSH2 0x713 DUP2 PUSH2 0x6EF JUMP JUMPDEST SWAP3 SWAP2 POP POP JUMP JUMPDEST PUSH0 DUP1 PUSH0 DUP1 PUSH1 0x80 DUP6 DUP8 SUB SLT ISZERO PUSH2 0x731 JUMPI PUSH2 0x730 PUSH2 0x609 JUMP JUMPDEST JUMPDEST PUSH0 PUSH2 0x73E DUP8 DUP3 DUP9 ADD PUSH2 0x653 JUMP JUMPDEST SWAP5 POP POP PUSH1 0x20 PUSH2 0x74F DUP8 DUP3 DUP9 ADD PUSH2 0x705 JUMP JUMPDEST SWAP4 POP POP PUSH1 0x40 PUSH2 0x760 DUP8 DUP3 DUP9 ADD PUSH2 0x705 JUMP JUMPDEST SWAP3 POP POP PUSH1 0x60 PUSH2 0x771 DUP8 DUP3 DUP9 ADD PUSH2 0x705 JUMP JUMPDEST SWAP2 POP POP SWAP3 SWAP6 SWAP2 SWAP5 POP SWAP3 POP JUMP JUMPDEST PUSH0 DUP3 DUP3 MSTORE PUSH1 0x20 DUP3 ADD SWAP1 POP SWAP3 SWAP2 POP POP JUMP JUMPDEST PUSH32 0x4C6F616E206973207374696C6C206865616C7468790000000000000000000000 PUSH0 DUP3 ADD MSTORE POP JUMP JUMPDEST PUSH0 PUSH2 0x7C1 PUSH1 0x15 DUP4 PUSH2 0x77D JUMP JUMPDEST SWAP2 POP PUSH2 0x7CC DUP3 PUSH2 0x78D JUMP JUMPDEST PUSH1 0x20 DUP3 ADD SWAP1 POP SWAP2 SWAP1 POP JUMP JUMPDEST PUSH0 PUSH1 0x20 DUP3 ADD SWAP1 POP DUP2 DUP2 SUB PUSH0 DUP4 ADD MSTORE PUSH2 0x7EE DUP2 PUSH2 0x7B5 JUMP JUMPDEST SWAP1 POP SWAP2 SWAP1 POP JUMP JUMPDEST PUSH32 0x4E487B7100000000000000000000000000000000000000000000000000000000 PUSH0 MSTORE PUSH1 0x12 PUSH1 0x4 MSTORE PUSH1 0x24 PUSH0 REVERT JUMPDEST PUSH32 0x4E487B7100000000000000000000000000000000000000000000000000000000 PUSH0 MSTORE PUSH1 0x11 PUSH1 0x4 MSTORE PUSH1 0x24 PUSH0 REVERT JUMPDEST PUSH0 PUSH2 0x859 DUP3 PUSH2 0x5D8 JUMP JUMPDEST SWAP2 POP PUSH2 0x864 DUP4 PUSH2 0x5D8 JUMP JUMPDEST SWAP3 POP DUP3 PUSH2 0x874 JUMPI PUSH2 0x873 PUSH2 0x7F5 JUMP JUMPDEST JUMPDEST DUP3 DUP3 DIV SWAP1 POP SWAP3 SWAP2 POP POP JUMP JUMPDEST PUSH0 PUSH2 0x889 DUP3 PUSH2 0x5D8 JUMP JUMPDEST SWAP2 POP PUSH2 0x894 DUP4 PUSH2 0x5D8 JUMP JUMPDEST SWAP3 POP DUP3 DUP3 MUL PUSH2 0x8A2 DUP2 PUSH2 0x5D8 JUMP JUMPDEST SWAP2 POP DUP3 DUP3 DIV DUP5 EQ DUP4 ISZERO OR PUSH2 0x8B9 JUMPI PUSH2 0x8B8 PUSH2 0x822 JUMP JUMPDEST JUMPDEST POP SWAP3 SWAP2 POP POP JUMP JUMPDEST PUSH32 0x4E6F7420656E6F75676820636F6C6C61746572616C20746F206C697175696461 PUSH0 DUP3 ADD MSTORE PUSH32 0x7465000000000000000000000000000000000000000000000000000000000000 PUSH1 0x20 DUP3 ADD MSTORE POP JUMP JUMPDEST PUSH0 PUSH2 0x91A PUSH1 0x22 DUP4 PUSH2 0x77D JUMP JUMPDEST SWAP2 POP PUSH2 0x925 DUP3 PUSH2 0x8C0 JUMP JUMPDEST PUSH1 0x40 DUP3 ADD SWAP1 POP SWAP2 SWAP1 POP JUMP JUMPDEST PUSH0 PUSH1 0x20 DUP3 ADD SWAP1 POP DUP2 DUP2 SUB PUSH0 DUP4 ADD MSTORE PUSH2 0x947 DUP2 PUSH2 0x90E JUMP JUMPDEST SWAP1 POP SWAP2 SWAP1 POP JUMP JUMPDEST PUSH0 PUSH2 0x958 DUP3 PUSH2 0x5D8 JUMP JUMPDEST SWAP2 POP PUSH2 0x963 DUP4 PUSH2 0x5D8 JUMP JUMPDEST SWAP3 POP DUP3 DUP3 SUB SWAP1 POP DUP2 DUP2 GT ISZERO PUSH2 0x97B JUMPI PUSH2 0x97A PUSH2 0x822 JUMP JUMPDEST JUMPDEST SWAP3 SWAP2 POP POP JUMP JUMPDEST PUSH0 PUSH1 0x60 DUP3 ADD SWAP1 POP PUSH2 0x994 PUSH0 DUP4 ADD DUP7 PUSH2 0x6C7 JUMP JUMPDEST PUSH2 0x9A1 PUSH1 0x20 DUP4 ADD DUP6 PUSH2 0x5E1 JUMP JUMPDEST PUSH2 0x9AE PUSH1 0x40 DUP4 ADD DUP5 PUSH2 0x5E1 JUMP JUMPDEST SWAP5 SWAP4 POP POP POP POP JUMP JUMPDEST PUSH32 0x4F6E6C79206F776E65722063616E20616464206C6F616E730000000000000000 PUSH0 DUP3 ADD MSTORE POP JUMP JUMPDEST PUSH0 PUSH2 0x9EA PUSH1 0x18 DUP4 PUSH2 0x77D JUMP JUMPDEST SWAP2 POP PUSH2 0x9F5 DUP3 PUSH2 0x9B6 JUMP JUMPDEST PUSH1 0x20 DUP3 ADD SWAP1 POP SWAP2 SWAP1 POP JUMP JUMPDEST PUSH0 PUSH1 0x20 DUP3 ADD SWAP1 POP DUP2 DUP2 SUB PUSH0 DUP4 ADD MSTORE PUSH2 0xA17 DUP2 PUSH2 0x9DE JUMP JUMPDEST SWAP1 POP SWAP2 SWAP1 POP JUMP JUMPDEST PUSH0 PUSH2 0xA28 DUP3 PUSH2 0x5D8 JUMP JUMPDEST SWAP2 POP PUSH2 0xA33 DUP4 PUSH2 0x5D8 JUMP JUMPDEST SWAP3 POP DUP3 DUP3 ADD SWAP1 POP DUP1 DUP3 GT ISZERO PUSH2 0xA4B JUMPI PUSH2 0xA4A PUSH2 0x822 JUMP JUMPDEST JUMPDEST SWAP3 SWAP2 POP POP JUMP INVALID LOG2 PUSH5 0x6970667358 0x22 SLT KECCAK256 SWAP10 DUP5 MLOAD PUSH10 0x5B2F3FCC811FFC56B6CD DUP2 SGT 0xC0 0x29 LOG0 0xC9 0xE 0xCB DUP1 PUSH11 0xAFA3FBA78FADD66D64736F PUSH13 0x634300081A0033000000000000 "
				},
				"gasEstimates": {
					"creation": {
						"codeDepositCost": "539000",
						"executionCost": "135368",
						"totalCost": "674368"
					},
					"external": {
						"addLoan(address,uint256,uint256,uint256)": "infinite",
						"axsPrice()": "2470",
						"collateralFactorAXS()": "2426",
						"collateralFactorETH()": "2514",
						"collateralFactorUSDC()": "2469",
						"ethPrice()": "2513",
						"getHealthFactor(address)": "infinite",
						"liquidate(address)": "infinite",
						"loans(address)": "infinite",
						"owner()": "2505"
					}
				},
				"methodIdentifiers": {
					"addLoan(address,uint256,uint256,uint256)": "ad24a336",
					"axsPrice()": "45edae0b",
					"collateralFactorAXS()": "15d67769",
					"collateralFactorETH()": "7e3df479",
					"collateralFactorUSDC()": "da53cf8b",
					"ethPrice()": "ff186b2e",
					"getHealthFactor(address)": "fe6bcd7c",
					"liquidate(address)": "2f865568",
					"loans(address)": "73b4086b",
					"owner()": "8da5cb5b"
				}
			},
			"storageLayout": {
				"storage": [
					{
						"astId": 3,
						"contract": "contracts/temp.sol:Liquidation",
						"label": "owner",
						"offset": 0,
						"slot": "0",
						"type": "t_address"
					},
					{
						"astId": 15,
						"contract": "contracts/temp.sol:Liquidation",
						"label": "loans",
						"offset": 0,
						"slot": "1",
						"type": "t_mapping(t_address,t_struct(Loan)10_storage)"
					},
					{
						"astId": 18,
						"contract": "contracts/temp.sol:Liquidation",
						"label": "collateralFactorUSDC",
						"offset": 0,
						"slot": "2",
						"type": "t_uint256"
					},
					{
						"astId": 21,
						"contract": "contracts/temp.sol:Liquidation",
						"label": "collateralFactorETH",
						"offset": 0,
						"slot": "3",
						"type": "t_uint256"
					},
					{
						"astId": 24,
						"contract": "contracts/temp.sol:Liquidation",
						"label": "collateralFactorAXS",
						"offset": 0,
						"slot": "4",
						"type": "t_uint256"
					},
					{
						"astId": 27,
						"contract": "contracts/temp.sol:Liquidation",
						"label": "ethPrice",
						"offset": 0,
						"slot": "5",
						"type": "t_uint256"
					},
					{
						"astId": 30,
						"contract": "contracts/temp.sol:Liquidation",
						"label": "axsPrice",
						"offset": 0,
						"slot": "6",
						"type": "t_uint256"
					}
				],
				"types": {
					"t_address": {
						"encoding": "inplace",
						"label": "address",
						"numberOfBytes": "20"
					},
					"t_mapping(t_address,t_struct(Loan)10_storage)": {
						"encoding": "mapping",
						"key": "t_address",
						"label": "mapping(address => struct Liquidation.Loan)",
						"numberOfBytes": "32",
						"value": "t_struct(Loan)10_storage"
					},
					"t_struct(Loan)10_storage": {
						"encoding": "inplace",
						"label": "struct Liquidation.Loan",
						"members": [
							{
								"astId": 5,
								"contract": "contracts/temp.sol:Liquidation",
								"label": "usdcCollateral",
								"offset": 0,
								"slot": "0",
								"type": "t_uint256"
							},
							{
								"astId": 7,
								"contract": "contracts/temp.sol:Liquidation",
								"label": "ethDebt",
								"offset": 0,
								"slot": "1",
								"type": "t_uint256"
							},
							{
								"astId": 9,
								"contract": "contracts/temp.sol:Liquidation",
								"label": "axsDebt",
								"offset": 0,
								"slot": "2",
								"type": "t_uint256"
							}
						],
						"numberOfBytes": "96"
					},
					"t_uint256": {
						"encoding": "inplace",
						"label": "uint256",
						"numberOfBytes": "32"
					}
				}
			},
			"userdoc": {
				"kind": "user",
				"methods": {},
				"version": 1
			}
		}
	}
}