{
	"contracts/learn.sol": {
		"Liquidation": {
			"abi": [
				{
					"inputs": [],
					"stateMutability": "nonpayable",
					"type": "constructor"
				},
				{
					"anonymous": false,
					"inputs": [
						{
							"indexed": false,
							"internalType": "address",
							"name": "borrower",
							"type": "address"
						},
						{
							"indexed": false,
							"internalType": "uint256",
							"name": "totalCollateral",
							"type": "uint256"
						},
						{
							"indexed": false,
							"internalType": "uint256",
							"name": "totalDebtOnUSDC",
							"type": "uint256"
						},
						{
							"indexed": false,
							"internalType": "uint256",
							"name": "healthFactor",
							"type": "uint256"
						}
					],
					"name": "HealthFactorCalculated",
					"type": "event"
				},
				{
					"anonymous": false,
					"inputs": [
						{
							"indexed": false,
							"internalType": "address",
							"name": "user",
							"type": "address"
						},
						{
							"indexed": false,
							"internalType": "uint256",
							"name": "usdcLost",
							"type": "uint256"
						},
						{
							"indexed": false,
							"internalType": "uint256",
							"name": "ethLiquidated",
							"type": "uint256"
						}
					],
					"name": "Liquidated",
					"type": "event"
				},
				{
					"anonymous": false,
					"inputs": [
						{
							"indexed": false,
							"internalType": "address",
							"name": "user",
							"type": "address"
						},
						{
							"indexed": false,
							"internalType": "uint256",
							"name": "path1",
							"type": "uint256"
						},
						{
							"indexed": false,
							"internalType": "uint256",
							"name": "path2",
							"type": "uint256"
						},
						{
							"indexed": false,
							"internalType": "uint256",
							"name": "path3",
							"type": "uint256"
						},
						{
							"indexed": false,
							"internalType": "uint256",
							"name": "path_1",
							"type": "uint256"
						},
						{
							"indexed": false,
							"internalType": "uint256",
							"name": "path_2",
							"type": "uint256"
						}
					],
					"name": "TempEvent",
					"type": "event"
				},
				{
					"inputs": [
						{
							"internalType": "address",
							"name": "_borrower",
							"type": "address"
						},
						{
							"internalType": "uint256",
							"name": "_usdcCollateral",
							"type": "uint256"
						},
						{
							"internalType": "uint256",
							"name": "_ethDebt",
							"type": "uint256"
						},
						{
							"internalType": "uint256",
							"name": "_axsDebt",
							"type": "uint256"
						}
					],
					"name": "addLoan",
					"outputs": [],
					"stateMutability": "nonpayable",
					"type": "function"
				},
				{
					"inputs": [],
					"name": "axsToETHPrice",
					"outputs": [
						{
							"internalType": "uint256",
							"name": "",
							"type": "uint256"
						}
					],
					"stateMutability": "view",
					"type": "function"
				},
				{
					"inputs": [
						{
							"internalType": "address",
							"name": "_borrower",
							"type": "address"
						},
						{
							"internalType": "string",
							"name": "assetType",
							"type": "string"
						}
					],
					"name": "calculateLiquidationAmount",
					"outputs": [
						{
							"internalType": "uint256",
							"name": "usdcToLiquidate",
							"type": "uint256"
						},
						{
							"internalType": "uint256",
							"name": "assetToLiquidate",
							"type": "uint256"
						}
					],
					"stateMutability": "view",
					"type": "function"
				},
				{
					"inputs": [
						{
							"internalType": "uint256",
							"name": "_axsPrice",
							"type": "uint256"
						}
					],
					"name": "changeAXSRate",
					"outputs": [],
					"stateMutability": "nonpayable",
					"type": "function"
				},
				{
					"inputs": [
						{
							"internalType": "uint256",
							"name": "_ethPrice",
							"type": "uint256"
						}
					],
					"name": "changeETHRate",
					"outputs": [],
					"stateMutability": "nonpayable",
					"type": "function"
				},
				{
					"inputs": [],
					"name": "collateralRatioAXS",
					"outputs": [
						{
							"internalType": "uint256",
							"name": "",
							"type": "uint256"
						}
					],
					"stateMutability": "view",
					"type": "function"
				},
				{
					"inputs": [],
					"name": "collateralRatioETH",
					"outputs": [
						{
							"internalType": "uint256",
							"name": "",
							"type": "uint256"
						}
					],
					"stateMutability": "view",
					"type": "function"
				},
				{
					"inputs": [],
					"name": "collateralRatioUSDC",
					"outputs": [
						{
							"internalType": "uint256",
							"name": "",
							"type": "uint256"
						}
					],
					"stateMutability": "view",
					"type": "function"
				},
				{
					"inputs": [],
					"name": "ethPriceOnUSDC",
					"outputs": [
						{
							"internalType": "uint256",
							"name": "",
							"type": "uint256"
						}
					],
					"stateMutability": "view",
					"type": "function"
				},
				{
					"inputs": [
						{
							"internalType": "address",
							"name": "_borrower",
							"type": "address"
						}
					],
					"name": "getHealthFactor",
					"outputs": [
						{
							"internalType": "uint256",
							"name": "",
							"type": "uint256"
						}
					],
					"stateMutability": "nonpayable",
					"type": "function"
				},
				{
					"inputs": [
						{
							"internalType": "address",
							"name": "_borrower",
							"type": "address"
						},
						{
							"internalType": "string",
							"name": "assetType",
							"type": "string"
						},
						{
							"internalType": "uint256",
							"name": "newUSDCPrice",
							"type": "uint256"
						}
					],
					"name": "liquidate",
					"outputs": [],
					"stateMutability": "nonpayable",
					"type": "function"
				},
				{
					"inputs": [
						{
							"internalType": "address",
							"name": "",
							"type": "address"
						}
					],
					"name": "loans",
					"outputs": [
						{
							"internalType": "uint256",
							"name": "usdcCollateral",
							"type": "uint256"
						},
						{
							"internalType": "uint256",
							"name": "ethDebt",
							"type": "uint256"
						},
						{
							"internalType": "uint256",
							"name": "axsDebt",
							"type": "uint256"
						}
					],
					"stateMutability": "view",
					"type": "function"
				},
				{
					"inputs": [],
					"name": "owner",
					"outputs": [
						{
							"internalType": "address",
							"name": "",
							"type": "address"
						}
					],
					"stateMutability": "view",
					"type": "function"
				}
			],
			"devdoc": {
				"kind": "dev",
				"methods": {},
				"version": 1
			},
			"evm": {
				"assembly": "    /* \"contracts/learn.sol\":58:5531  contract Liquidation {... */\n  mstore(0x40, 0x80)\n    /* \"contracts/learn.sol\":301:303  90 */\n  0x5a\n    /* \"contracts/learn.sol\":264:303  uint256 public collateralRatioUSDC = 90 */\n  0x02\n  sstore\n    /* \"contracts/learn.sol\":345:347  80 */\n  0x50\n    /* \"contracts/learn.sol\":309:347  uint256 public collateralRatioETH = 80 */\n  0x03\n  sstore\n    /* \"contracts/learn.sol\":389:391  70 */\n  0x46\n    /* \"contracts/learn.sol\":353:391  uint256 public collateralRatioAXS = 70 */\n  0x04\n  sstore\n    /* \"contracts/learn.sol\":430:434  1500 */\n  0x05dc\n    /* \"contracts/learn.sol\":398:434  uint256 public ethPriceOnUSDC = 1500 */\n  0x05\n  sstore\n    /* \"contracts/learn.sol\":492:495  100 */\n  0x64\n    /* \"contracts/learn.sol\":461:495  uint256 public axsToETHPrice = 100 */\n  0x06\n  sstore\n    /* \"contracts/learn.sol\":837:886  constructor() {... */\n  callvalue\n  dup1\n  iszero\n  tag_1\n  jumpi\n  0x00\n  dup1\n  revert\ntag_1:\n  pop\n    /* \"contracts/learn.sol\":869:879  msg.sender */\n  caller\n    /* \"contracts/learn.sol\":861:866  owner */\n  0x00\n  dup1\n    /* \"contracts/learn.sol\":861:879  owner = msg.sender */\n  0x0100\n  exp\n  dup2\n  sload\n  dup2\n  0xffffffffffffffffffffffffffffffffffffffff\n  mul\n  not\n  and\n  swap1\n  dup4\n  0xffffffffffffffffffffffffffffffffffffffff\n  and\n  mul\n  or\n  swap1\n  sstore\n  pop\n    /* \"contracts/learn.sol\":58:5531  contract Liquidation {... */\n  dataSize(sub_0)\n  dup1\n  dataOffset(sub_0)\n  0x00\n  codecopy\n  0x00\n  return\nstop\n\nsub_0: assembly {\n        /* \"contracts/learn.sol\":58:5531  contract Liquidation {... */\n      mstore(0x40, 0x80)\n      callvalue\n      dup1\n      iszero\n      tag_1\n      jumpi\n      0x00\n      dup1\n      revert\n    tag_1:\n      pop\n      jumpi(tag_2, lt(calldatasize, 0x04))\n      shr(0xe0, calldataload(0x00))\n      dup1\n      0x73b4086b\n      gt\n      tag_16\n      jumpi\n      dup1\n      0xad24a336\n      gt\n      tag_17\n      jumpi\n      dup1\n      0xad24a336\n      eq\n      tag_12\n      jumpi\n      dup1\n      0xc56e4097\n      eq\n      tag_13\n      jumpi\n      dup1\n      0xf894ea86\n      eq\n      tag_14\n      jumpi\n      dup1\n      0xfe6bcd7c\n      eq\n      tag_15\n      jumpi\n      jump(tag_2)\n    tag_17:\n      dup1\n      0x73b4086b\n      eq\n      tag_9\n      jumpi\n      dup1\n      0x8da5cb5b\n      eq\n      tag_10\n      jumpi\n      dup1\n      0x9b923cc9\n      eq\n      tag_11\n      jumpi\n      jump(tag_2)\n    tag_16:\n      dup1\n      0x04632a66\n      eq\n      tag_3\n      jumpi\n      dup1\n      0x11c9c304\n      eq\n      tag_4\n      jumpi\n      dup1\n      0x1f71462e\n      eq\n      tag_5\n      jumpi\n      dup1\n      0x2e2951cd\n      eq\n      tag_6\n      jumpi\n      dup1\n      0x4bfa16e9\n      eq\n      tag_7\n      jumpi\n      dup1\n      0x55de75a9\n      eq\n      tag_8\n      jumpi\n    tag_2:\n      0x00\n      dup1\n      revert\n        /* \"contracts/learn.sol\":461:495  uint256 public axsToETHPrice = 100 */\n    tag_3:\n      tag_18\n      tag_19\n      jump\t// in\n    tag_18:\n      mload(0x40)\n      tag_20\n      swap2\n      swap1\n      tag_21\n      jump\t// in\n    tag_20:\n      mload(0x40)\n      dup1\n      swap2\n      sub\n      swap1\n      return\n        /* \"contracts/learn.sol\":309:347  uint256 public collateralRatioETH = 80 */\n    tag_4:\n      tag_22\n      tag_23\n      jump\t// in\n    tag_22:\n      mload(0x40)\n      tag_24\n      swap2\n      swap1\n      tag_21\n      jump\t// in\n    tag_24:\n      mload(0x40)\n      dup1\n      swap2\n      sub\n      swap1\n      return\n        /* \"contracts/learn.sol\":5408:5529  function changeAXSRate(uint256 _axsPrice) public {... */\n    tag_5:\n      tag_25\n      0x04\n      dup1\n      calldatasize\n      sub\n      dup2\n      add\n      swap1\n      tag_26\n      swap2\n      swap1\n      tag_27\n      jump\t// in\n    tag_26:\n      tag_28\n      jump\t// in\n    tag_25:\n      stop\n        /* \"contracts/learn.sol\":3729:5304  function liquidate(address _borrower, string memory assetType, uint256 newUSDCPrice) public {... */\n    tag_6:\n      tag_29\n      0x04\n      dup1\n      calldatasize\n      sub\n      dup2\n      add\n      swap1\n      tag_30\n      swap2\n      swap1\n      tag_31\n      jump\t// in\n    tag_30:\n      tag_32\n      jump\t// in\n    tag_29:\n      stop\n        /* \"contracts/learn.sol\":353:391  uint256 public collateralRatioAXS = 70 */\n    tag_7:\n      tag_33\n      tag_34\n      jump\t// in\n    tag_33:\n      mload(0x40)\n      tag_35\n      swap2\n      swap1\n      tag_21\n      jump\t// in\n    tag_35:\n      mload(0x40)\n      dup1\n      swap2\n      sub\n      swap1\n      return\n        /* \"contracts/learn.sol\":2232:3692  function calculateLiquidationAmount(address _borrower, string memory assetType) public view returns (uint256 usdcToLiquidate, uint256 assetToLiquidate) {... */\n    tag_8:\n      tag_36\n      0x04\n      dup1\n      calldatasize\n      sub\n      dup2\n      add\n      swap1\n      tag_37\n      swap2\n      swap1\n      tag_38\n      jump\t// in\n    tag_37:\n      tag_39\n      jump\t// in\n    tag_36:\n      mload(0x40)\n      tag_40\n      swap3\n      swap2\n      swap1\n      tag_41\n      jump\t// in\n    tag_40:\n      mload(0x40)\n      dup1\n      swap2\n      sub\n      swap1\n      return\n        /* \"contracts/learn.sol\":220:257  mapping(address => Loan) public loans */\n    tag_9:\n      tag_42\n      0x04\n      dup1\n      calldatasize\n      sub\n      dup2\n      add\n      swap1\n      tag_43\n      swap2\n      swap1\n      tag_44\n      jump\t// in\n    tag_43:\n      tag_45\n      jump\t// in\n    tag_42:\n      mload(0x40)\n      tag_46\n      swap4\n      swap3\n      swap2\n      swap1\n      tag_47\n      jump\t// in\n    tag_46:\n      mload(0x40)\n      dup1\n      swap2\n      sub\n      swap1\n      return\n        /* \"contracts/learn.sol\":86:106  address public owner */\n    tag_10:\n      tag_48\n      tag_49\n      jump\t// in\n    tag_48:\n      mload(0x40)\n      tag_50\n      swap2\n      swap1\n      tag_51\n      jump\t// in\n    tag_50:\n      mload(0x40)\n      dup1\n      swap2\n      sub\n      swap1\n      return\n        /* \"contracts/learn.sol\":398:434  uint256 public ethPriceOnUSDC = 1500 */\n    tag_11:\n      tag_52\n      tag_53\n      jump\t// in\n    tag_52:\n      mload(0x40)\n      tag_54\n      swap2\n      swap1\n      tag_21\n      jump\t// in\n    tag_54:\n      mload(0x40)\n      dup1\n      swap2\n      sub\n      swap1\n      return\n        /* \"contracts/learn.sol\":892:1139  function addLoan(address _borrower, uint256 _usdcCollateral, uint256 _ethDebt, uint256 _axsDebt) public {... */\n    tag_12:\n      tag_55\n      0x04\n      dup1\n      calldatasize\n      sub\n      dup2\n      add\n      swap1\n      tag_56\n      swap2\n      swap1\n      tag_57\n      jump\t// in\n    tag_56:\n      tag_58\n      jump\t// in\n    tag_55:\n      stop\n        /* \"contracts/learn.sol\":264:303  uint256 public collateralRatioUSDC = 90 */\n    tag_13:\n      tag_59\n      tag_60\n      jump\t// in\n    tag_59:\n      mload(0x40)\n      tag_61\n      swap2\n      swap1\n      tag_21\n      jump\t// in\n    tag_61:\n      mload(0x40)\n      dup1\n      swap2\n      sub\n      swap1\n      return\n        /* \"contracts/learn.sol\":5310:5402  function changeETHRate(uint256 _ethPrice) public {... */\n    tag_14:\n      tag_62\n      0x04\n      dup1\n      calldatasize\n      sub\n      dup2\n      add\n      swap1\n      tag_63\n      swap2\n      swap1\n      tag_27\n      jump\t// in\n    tag_63:\n      tag_64\n      jump\t// in\n    tag_62:\n      stop\n        /* \"contracts/learn.sol\":1145:2151  function getHealthFactor(address _borrower) public returns (uint256) {... */\n    tag_15:\n      tag_65\n      0x04\n      dup1\n      calldatasize\n      sub\n      dup2\n      add\n      swap1\n      tag_66\n      swap2\n      swap1\n      tag_44\n      jump\t// in\n    tag_66:\n      tag_67\n      jump\t// in\n    tag_65:\n      mload(0x40)\n      tag_68\n      swap2\n      swap1\n      tag_21\n      jump\t// in\n    tag_68:\n      mload(0x40)\n      dup1\n      swap2\n      sub\n      swap1\n      return\n        /* \"contracts/learn.sol\":461:495  uint256 public axsToETHPrice = 100 */\n    tag_19:\n      sload(0x06)\n      dup2\n      jump\t// out\n        /* \"contracts/learn.sol\":309:347  uint256 public collateralRatioETH = 80 */\n    tag_23:\n      sload(0x03)\n      dup2\n      jump\t// out\n        /* \"contracts/learn.sol\":5408:5529  function changeAXSRate(uint256 _axsPrice) public {... */\n    tag_28:\n        /* \"contracts/learn.sol\":5483:5492  _axsPrice */\n      dup1\n        /* \"contracts/learn.sol\":5467:5480  axsToETHPrice */\n      0x06\n        /* \"contracts/learn.sol\":5467:5492  axsToETHPrice = _axsPrice */\n      dup2\n      swap1\n      sstore\n      pop\n        /* \"contracts/learn.sol\":5408:5529  function changeAXSRate(uint256 _axsPrice) public {... */\n      pop\n      jump\t// out\n        /* \"contracts/learn.sol\":3729:5304  function liquidate(address _borrower, string memory assetType, uint256 newUSDCPrice) public {... */\n    tag_32:\n        /* \"contracts/learn.sol\":3868:3871  100 */\n      0x64\n        /* \"contracts/learn.sol\":3839:3865  getHealthFactor(_borrower) */\n      tag_71\n        /* \"contracts/learn.sol\":3855:3864  _borrower */\n      dup5\n        /* \"contracts/learn.sol\":3839:3854  getHealthFactor */\n      tag_67\n        /* \"contracts/learn.sol\":3839:3865  getHealthFactor(_borrower) */\n      jump\t// in\n    tag_71:\n        /* \"contracts/learn.sol\":3839:3871  getHealthFactor(_borrower) < 100 */\n      lt\n        /* \"contracts/learn.sol\":3831:3897  require(getHealthFactor(_borrower) < 100, \"Loan is still healthy\") */\n      tag_72\n      jumpi\n      mload(0x40)\n      0x08c379a000000000000000000000000000000000000000000000000000000000\n      dup2\n      mstore\n      0x04\n      add\n      tag_73\n      swap1\n      tag_74\n      jump\t// in\n    tag_73:\n      mload(0x40)\n      dup1\n      swap2\n      sub\n      swap1\n      revert\n    tag_72:\n        /* \"contracts/learn.sol\":3908:3925  Loan storage loan */\n      0x00\n        /* \"contracts/learn.sol\":3928:3933  loans */\n      0x01\n        /* \"contracts/learn.sol\":3928:3944  loans[_borrower] */\n      0x00\n        /* \"contracts/learn.sol\":3934:3943  _borrower */\n      dup6\n        /* \"contracts/learn.sol\":3928:3944  loans[_borrower] */\n      0xffffffffffffffffffffffffffffffffffffffff\n      and\n      0xffffffffffffffffffffffffffffffffffffffff\n      and\n      dup2\n      mstore\n      0x20\n      add\n      swap1\n      dup2\n      mstore\n      0x20\n      add\n      0x00\n      keccak256\n        /* \"contracts/learn.sol\":3908:3944  Loan storage loan = loans[_borrower] */\n      swap1\n      pop\n        /* \"contracts/learn.sol\":3954:3976  uint256 ethToLiquidate */\n      0x00\n        /* \"contracts/learn.sol\":3986:4002  uint256 usdcLost */\n      dup1\n        /* \"contracts/learn.sol\":4012:4026  uint256 path_1 */\n      0x00\n        /* \"contracts/learn.sol\":4036:4050  uint256 path_2 */\n      dup1\n        /* \"contracts/learn.sol\":4106:4118  bytes(\"ETH\") */\n      mload(0x40)\n      dup1\n      0x40\n      add\n      0x40\n      mstore\n      dup1\n      0x03\n      dup2\n      mstore\n      0x20\n      add\n      0x4554480000000000000000000000000000000000000000000000000000000000\n      dup2\n      mstore\n      pop\n        /* \"contracts/learn.sol\":4096:4119  keccak256(bytes(\"ETH\")) */\n      dup1\n      mload\n      swap1\n      0x20\n      add\n      keccak256\n        /* \"contracts/learn.sol\":4081:4090  assetType */\n      dup8\n        /* \"contracts/learn.sol\":4065:4092  keccak256(bytes(assetType)) */\n      dup1\n      mload\n      swap1\n      0x20\n      add\n      keccak256\n        /* \"contracts/learn.sol\":4065:4119  keccak256(bytes(assetType)) == keccak256(bytes(\"ETH\")) */\n      sub\n        /* \"contracts/learn.sol\":4061:5062  if (keccak256(bytes(assetType)) == keccak256(bytes(\"ETH\"))) {... */\n      tag_75\n      jumpi\n        /* \"contracts/learn.sol\":4289:4292  100 */\n      0x64\n        /* \"contracts/learn.sol\":4266:4270  loan */\n      dup6\n        /* \"contracts/learn.sol\":4266:4285  loan.usdcCollateral */\n      0x00\n      add\n      sload\n        /* \"contracts/learn.sol\":4244:4263  collateralRatioUSDC */\n      sload(0x02)\n        /* \"contracts/learn.sol\":4244:4285  collateralRatioUSDC * loan.usdcCollateral */\n      tag_76\n      swap2\n      swap1\n      tag_77\n      jump\t// in\n    tag_76:\n        /* \"contracts/learn.sol\":4243:4292  (collateralRatioUSDC * loan.usdcCollateral) / 100 */\n      tag_78\n      swap2\n      swap1\n      tag_79\n      jump\t// in\n    tag_78:\n        /* \"contracts/learn.sol\":4235:4240  10000 */\n      0x2710\n        /* \"contracts/learn.sol\":4217:4231  ethPriceOnUSDC */\n      sload(0x05)\n        /* \"contracts/learn.sol\":4201:4214  axsToETHPrice */\n      sload(0x06)\n        /* \"contracts/learn.sol\":4186:4190  loan */\n      dup9\n        /* \"contracts/learn.sol\":4186:4198  loan.axsDebt */\n      0x02\n      add\n      sload\n        /* \"contracts/learn.sol\":4186:4214  loan.axsDebt * axsToETHPrice */\n      tag_80\n      swap2\n      swap1\n      tag_77\n      jump\t// in\n    tag_80:\n        /* \"contracts/learn.sol\":4186:4231  loan.axsDebt * axsToETHPrice * ethPriceOnUSDC */\n      tag_81\n      swap2\n      swap1\n      tag_77\n      jump\t// in\n    tag_81:\n        /* \"contracts/learn.sol\":4185:4240  (loan.axsDebt * axsToETHPrice * ethPriceOnUSDC) / 10000 */\n      tag_82\n      swap2\n      swap1\n      tag_79\n      jump\t// in\n    tag_82:\n        /* \"contracts/learn.sol\":4178:4182  1000 */\n      0x03e8\n        /* \"contracts/learn.sol\":4160:4174  ethPriceOnUSDC */\n      sload(0x05)\n        /* \"contracts/learn.sol\":4145:4149  loan */\n      dup9\n        /* \"contracts/learn.sol\":4145:4157  loan.ethDebt */\n      0x01\n      add\n      sload\n        /* \"contracts/learn.sol\":4145:4174  loan.ethDebt * ethPriceOnUSDC */\n      tag_83\n      swap2\n      swap1\n      tag_77\n      jump\t// in\n    tag_83:\n        /* \"contracts/learn.sol\":4144:4182  (loan.ethDebt * ethPriceOnUSDC) / 1000 */\n      tag_84\n      swap2\n      swap1\n      tag_79\n      jump\t// in\n    tag_84:\n        /* \"contracts/learn.sol\":4144:4240  (loan.ethDebt * ethPriceOnUSDC) / 1000 + (loan.axsDebt * axsToETHPrice * ethPriceOnUSDC) / 10000 */\n      tag_85\n      swap2\n      swap1\n      tag_86\n      jump\t// in\n    tag_85:\n        /* \"contracts/learn.sol\":4144:4292  (loan.ethDebt * ethPriceOnUSDC) / 1000 + (loan.axsDebt * axsToETHPrice * ethPriceOnUSDC) / 10000 - (collateralRatioUSDC * loan.usdcCollateral) / 100 */\n      tag_87\n      swap2\n      swap1\n      tag_88\n      jump\t// in\n    tag_87:\n        /* \"contracts/learn.sol\":4135:4292  path_1 = (loan.ethDebt * ethPriceOnUSDC) / 1000 + (loan.axsDebt * axsToETHPrice * ethPriceOnUSDC) / 10000 - (collateralRatioUSDC * loan.usdcCollateral) / 100 */\n      swap2\n      pop\n        /* \"contracts/learn.sol\":4371:4374  100 */\n      0x64\n        /* \"contracts/learn.sol\":4355:4367  newUSDCPrice */\n      dup7\n        /* \"contracts/learn.sol\":4333:4352  collateralRatioUSDC */\n      sload(0x02)\n        /* \"contracts/learn.sol\":4333:4367  collateralRatioUSDC * newUSDCPrice */\n      tag_89\n      swap2\n      swap1\n      tag_77\n      jump\t// in\n    tag_89:\n        /* \"contracts/learn.sol\":4332:4374  (collateralRatioUSDC * newUSDCPrice) / 100 */\n      tag_90\n      swap2\n      swap1\n      tag_79\n      jump\t// in\n    tag_90:\n        /* \"contracts/learn.sol\":4315:4329  ethPriceOnUSDC */\n      sload(0x05)\n        /* \"contracts/learn.sol\":4315:4374  ethPriceOnUSDC - (collateralRatioUSDC * newUSDCPrice) / 100 */\n      tag_91\n      swap2\n      swap1\n      tag_88\n      jump\t// in\n    tag_91:\n        /* \"contracts/learn.sol\":4306:4374  path_2 = ethPriceOnUSDC - (collateralRatioUSDC * newUSDCPrice) / 100 */\n      swap1\n      pop\n        /* \"contracts/learn.sol\":4423:4429  path_2 */\n      dup1\n        /* \"contracts/learn.sol\":4415:4419  1000 */\n      0x03e8\n        /* \"contracts/learn.sol\":4406:4412  path_1 */\n      dup4\n        /* \"contracts/learn.sol\":4406:4419  path_1 * 1000 */\n      tag_92\n      swap2\n      swap1\n      tag_77\n      jump\t// in\n    tag_92:\n        /* \"contracts/learn.sol\":4405:4429  (path_1 * 1000) / path_2 */\n      tag_93\n      swap2\n      swap1\n      tag_79\n      jump\t// in\n    tag_93:\n        /* \"contracts/learn.sol\":4388:4429  ethToLiquidate = (path_1 * 1000) / path_2 */\n      swap4\n      pop\n        /* \"contracts/learn.sol\":4488:4492  1000 */\n      0x03e8\n        /* \"contracts/learn.sol\":4472:4484  newUSDCPrice */\n      dup7\n        /* \"contracts/learn.sol\":4455:4469  ethToLiquidate */\n      dup6\n        /* \"contracts/learn.sol\":4455:4484  ethToLiquidate * newUSDCPrice */\n      tag_94\n      swap2\n      swap1\n      tag_77\n      jump\t// in\n    tag_94:\n        /* \"contracts/learn.sol\":4454:4492  (ethToLiquidate * newUSDCPrice) / 1000 */\n      tag_95\n      swap2\n      swap1\n      tag_79\n      jump\t// in\n    tag_95:\n        /* \"contracts/learn.sol\":4443:4492  usdcLost = (ethToLiquidate * newUSDCPrice) / 1000 */\n      swap3\n      pop\n        /* \"contracts/learn.sol\":4511:4703  TempEvent(_borrower, (loan.ethDebt * ethPriceOnUSDC) / 100, (loan.axsDebt * axsToETHPrice * ethPriceOnUSDC) / 10000, ... */\n      0x624416f1270776df0e25d5db2d0648f7487ec8cb0d4b483e73a60f977dbd16b7\n        /* \"contracts/learn.sol\":4521:4530  _borrower */\n      dup9\n        /* \"contracts/learn.sol\":4566:4569  100 */\n      0x64\n        /* \"contracts/learn.sol\":4548:4562  ethPriceOnUSDC */\n      sload(0x05)\n        /* \"contracts/learn.sol\":4533:4537  loan */\n      dup9\n        /* \"contracts/learn.sol\":4533:4545  loan.ethDebt */\n      0x01\n      add\n      sload\n        /* \"contracts/learn.sol\":4533:4562  loan.ethDebt * ethPriceOnUSDC */\n      tag_96\n      swap2\n      swap1\n      tag_77\n      jump\t// in\n    tag_96:\n        /* \"contracts/learn.sol\":4532:4569  (loan.ethDebt * ethPriceOnUSDC) / 100 */\n      tag_97\n      swap2\n      swap1\n      tag_79\n      jump\t// in\n    tag_97:\n        /* \"contracts/learn.sol\":4621:4626  10000 */\n      0x2710\n        /* \"contracts/learn.sol\":4603:4617  ethPriceOnUSDC */\n      sload(0x05)\n        /* \"contracts/learn.sol\":4587:4600  axsToETHPrice */\n      sload(0x06)\n        /* \"contracts/learn.sol\":4572:4576  loan */\n      dup11\n        /* \"contracts/learn.sol\":4572:4584  loan.axsDebt */\n      0x02\n      add\n      sload\n        /* \"contracts/learn.sol\":4572:4600  loan.axsDebt * axsToETHPrice */\n      tag_98\n      swap2\n      swap1\n      tag_77\n      jump\t// in\n    tag_98:\n        /* \"contracts/learn.sol\":4572:4617  loan.axsDebt * axsToETHPrice * ethPriceOnUSDC */\n      tag_99\n      swap2\n      swap1\n      tag_77\n      jump\t// in\n    tag_99:\n        /* \"contracts/learn.sol\":4571:4626  (loan.axsDebt * axsToETHPrice * ethPriceOnUSDC) / 10000 */\n      tag_100\n      swap2\n      swap1\n      tag_79\n      jump\t// in\n    tag_100:\n        /* \"contracts/learn.sol\":4683:4686  100 */\n      0x64\n        /* \"contracts/learn.sol\":4660:4664  loan */\n      dup10\n        /* \"contracts/learn.sol\":4660:4679  loan.usdcCollateral */\n      0x00\n      add\n      sload\n        /* \"contracts/learn.sol\":4638:4657  collateralRatioUSDC */\n      sload(0x02)\n        /* \"contracts/learn.sol\":4638:4679  collateralRatioUSDC * loan.usdcCollateral */\n      tag_101\n      swap2\n      swap1\n      tag_77\n      jump\t// in\n    tag_101:\n        /* \"contracts/learn.sol\":4637:4686  (collateralRatioUSDC * loan.usdcCollateral) / 100 */\n      tag_102\n      swap2\n      swap1\n      tag_79\n      jump\t// in\n    tag_102:\n        /* \"contracts/learn.sol\":4688:4694  path_1 */\n      dup7\n        /* \"contracts/learn.sol\":4696:4702  path_2 */\n      dup7\n        /* \"contracts/learn.sol\":4511:4703  TempEvent(_borrower, (loan.ethDebt * ethPriceOnUSDC) / 100, (loan.axsDebt * axsToETHPrice * ethPriceOnUSDC) / 10000, ... */\n      mload(0x40)\n      tag_103\n      swap7\n      swap6\n      swap5\n      swap4\n      swap3\n      swap2\n      swap1\n      tag_104\n      jump\t// in\n    tag_103:\n      mload(0x40)\n      dup1\n      swap2\n      sub\n      swap1\n      log1\n        /* \"contracts/learn.sol\":4061:5062  if (keccak256(bytes(assetType)) == keccak256(bytes(\"ETH\"))) {... */\n      jump(tag_105)\n    tag_75:\n        /* \"contracts/learn.sol\":4765:4777  bytes(\"ALL\") */\n      mload(0x40)\n      dup1\n      0x40\n      add\n      0x40\n      mstore\n      dup1\n      0x03\n      dup2\n      mstore\n      0x20\n      add\n      0x414c4c0000000000000000000000000000000000000000000000000000000000\n      dup2\n      mstore\n      pop\n        /* \"contracts/learn.sol\":4755:4778  keccak256(bytes(\"ALL\")) */\n      dup1\n      mload\n      swap1\n      0x20\n      add\n      keccak256\n        /* \"contracts/learn.sol\":4740:4749  assetType */\n      dup8\n        /* \"contracts/learn.sol\":4724:4751  keccak256(bytes(assetType)) */\n      dup1\n      mload\n      swap1\n      0x20\n      add\n      keccak256\n        /* \"contracts/learn.sol\":4724:4778  keccak256(bytes(assetType)) == keccak256(bytes(\"ALL\")) */\n      sub\n        /* \"contracts/learn.sol\":4720:5062  if (keccak256(bytes(assetType)) == keccak256(bytes(\"ALL\"))){... */\n      tag_106\n      jumpi\n        /* \"contracts/learn.sol\":4811:4815  loan */\n      dup5\n        /* \"contracts/learn.sol\":4811:4823  loan.ethDebt */\n      0x01\n      add\n      sload\n        /* \"contracts/learn.sol\":4793:4824  ethToLiquidate = (loan.ethDebt) */\n      swap4\n      pop\n        /* \"contracts/learn.sol\":4931:4935  1000 */\n      0x03e8\n        /* \"contracts/learn.sol\":4916:4928  newUSDCPrice */\n      dup7\n        /* \"contracts/learn.sol\":4899:4913  ethToLiquidate */\n      dup6\n        /* \"contracts/learn.sol\":4899:4928  ethToLiquidate * newUSDCPrice */\n      tag_107\n      swap2\n      swap1\n      tag_77\n      jump\t// in\n    tag_107:\n        /* \"contracts/learn.sol\":4899:4935  ethToLiquidate * newUSDCPrice / 1000 */\n      tag_108\n      swap2\n      swap1\n      tag_79\n      jump\t// in\n    tag_108:\n        /* \"contracts/learn.sol\":4888:4935  usdcLost = ethToLiquidate * newUSDCPrice / 1000 */\n      swap3\n      pop\n        /* \"contracts/learn.sol\":4720:5062  if (keccak256(bytes(assetType)) == keccak256(bytes(\"ALL\"))){... */\n      jump(tag_109)\n    tag_106:\n        /* \"contracts/learn.sol\":5003:5051  revert(\"Invalid asset type: Use 'ETH' or 'AXS'\") */\n      mload(0x40)\n      0x08c379a000000000000000000000000000000000000000000000000000000000\n      dup2\n      mstore\n      0x04\n      add\n      tag_110\n      swap1\n      tag_111\n      jump\t// in\n    tag_110:\n      mload(0x40)\n      dup1\n      swap2\n      sub\n      swap1\n      revert\n        /* \"contracts/learn.sol\":4720:5062  if (keccak256(bytes(assetType)) == keccak256(bytes(\"ALL\"))){... */\n    tag_109:\n        /* \"contracts/learn.sol\":4061:5062  if (keccak256(bytes(assetType)) == keccak256(bytes(\"ETH\"))) {... */\n    tag_105:\n        /* \"contracts/learn.sol\":5186:5194  usdcLost */\n      dup3\n        /* \"contracts/learn.sol\":5163:5167  loan */\n      dup6\n        /* \"contracts/learn.sol\":5163:5182  loan.usdcCollateral */\n      0x00\n      add\n      0x00\n        /* \"contracts/learn.sol\":5163:5194  loan.usdcCollateral -= usdcLost */\n      dup3\n      dup3\n      sload\n      tag_112\n      swap2\n      swap1\n      tag_88\n      jump\t// in\n    tag_112:\n      swap3\n      pop\n      pop\n      dup2\n      swap1\n      sstore\n      pop\n        /* \"contracts/learn.sol\":5220:5234  ethToLiquidate */\n      dup4\n        /* \"contracts/learn.sol\":5204:5208  loan */\n      dup6\n        /* \"contracts/learn.sol\":5204:5216  loan.ethDebt */\n      0x01\n      add\n      0x00\n        /* \"contracts/learn.sol\":5204:5234  loan.ethDebt -= ethToLiquidate */\n      dup3\n      dup3\n      sload\n      tag_113\n      swap2\n      swap1\n      tag_88\n      jump\t// in\n    tag_113:\n      swap3\n      pop\n      pop\n      dup2\n      swap1\n      sstore\n      pop\n        /* \"contracts/learn.sol\":5250:5297  Liquidated(_borrower, usdcLost, ethToLiquidate) */\n      0x09c223cfcd8c93e245f558f5f8de755fc0930fd9bc257441155ef5d54a170e0f\n        /* \"contracts/learn.sol\":5261:5270  _borrower */\n      dup9\n        /* \"contracts/learn.sol\":5272:5280  usdcLost */\n      dup5\n        /* \"contracts/learn.sol\":5282:5296  ethToLiquidate */\n      dup7\n        /* \"contracts/learn.sol\":5250:5297  Liquidated(_borrower, usdcLost, ethToLiquidate) */\n      mload(0x40)\n      tag_114\n      swap4\n      swap3\n      swap2\n      swap1\n      tag_115\n      jump\t// in\n    tag_114:\n      mload(0x40)\n      dup1\n      swap2\n      sub\n      swap1\n      log1\n        /* \"contracts/learn.sol\":3821:5304  {... */\n      pop\n      pop\n      pop\n      pop\n      pop\n        /* \"contracts/learn.sol\":3729:5304  function liquidate(address _borrower, string memory assetType, uint256 newUSDCPrice) public {... */\n      pop\n      pop\n      pop\n      jump\t// out\n        /* \"contracts/learn.sol\":353:391  uint256 public collateralRatioAXS = 70 */\n    tag_34:\n      sload(0x04)\n      dup2\n      jump\t// out\n        /* \"contracts/learn.sol\":2232:3692  function calculateLiquidationAmount(address _borrower, string memory assetType) public view returns (uint256 usdcToLiquidate, uint256 assetToLiquidate) {... */\n    tag_39:\n        /* \"contracts/learn.sol\":2333:2356  uint256 usdcToLiquidate */\n      0x00\n        /* \"contracts/learn.sol\":2358:2382  uint256 assetToLiquidate */\n      dup1\n        /* \"contracts/learn.sol\":2394:2410  Loan memory loan */\n      0x00\n        /* \"contracts/learn.sol\":2413:2418  loans */\n      0x01\n        /* \"contracts/learn.sol\":2413:2429  loans[_borrower] */\n      0x00\n        /* \"contracts/learn.sol\":2419:2428  _borrower */\n      dup7\n        /* \"contracts/learn.sol\":2413:2429  loans[_borrower] */\n      0xffffffffffffffffffffffffffffffffffffffff\n      and\n      0xffffffffffffffffffffffffffffffffffffffff\n      and\n      dup2\n      mstore\n      0x20\n      add\n      swap1\n      dup2\n      mstore\n      0x20\n      add\n      0x00\n      keccak256\n        /* \"contracts/learn.sol\":2394:2429  Loan memory loan = loans[_borrower] */\n      mload(0x40)\n      dup1\n      0x60\n      add\n      0x40\n      mstore\n      swap1\n      dup2\n      0x00\n      dup3\n      add\n      sload\n      dup2\n      mstore\n      0x20\n      add\n      0x01\n      dup3\n      add\n      sload\n      dup2\n      mstore\n      0x20\n      add\n      0x02\n      dup3\n      add\n      sload\n      dup2\n      mstore\n      pop\n      pop\n      swap1\n      pop\n        /* \"contracts/learn.sol\":2439:2462  uint256 totalCollateral */\n      0x00\n        /* \"contracts/learn.sol\":2465:2469  loan */\n      dup2\n        /* \"contracts/learn.sol\":2465:2484  loan.usdcCollateral */\n      0x00\n      add\n      mload\n        /* \"contracts/learn.sol\":2439:2484  uint256 totalCollateral = loan.usdcCollateral */\n      swap1\n      pop\n        /* \"contracts/learn.sol\":2494:2509  uint256 ethDebt */\n      0x00\n        /* \"contracts/learn.sol\":2512:2516  loan */\n      dup3\n        /* \"contracts/learn.sol\":2512:2524  loan.ethDebt */\n      0x20\n      add\n      mload\n        /* \"contracts/learn.sol\":2494:2524  uint256 ethDebt = loan.ethDebt */\n      swap1\n      pop\n        /* \"contracts/learn.sol\":2534:2549  uint256 axsDebt */\n      0x00\n        /* \"contracts/learn.sol\":2552:2556  loan */\n      dup4\n        /* \"contracts/learn.sol\":2552:2564  loan.axsDebt */\n      0x40\n      add\n      mload\n        /* \"contracts/learn.sol\":2534:2564  uint256 axsDebt = loan.axsDebt */\n      swap1\n      pop\n        /* \"contracts/learn.sol\":2575:2596  uint256 totalDebtUSDC */\n      0x00\n        /* \"contracts/learn.sol\":2671:2674  1e6 */\n      0x0f4240\n        /* \"contracts/learn.sol\":2653:2667  ethPriceOnUSDC */\n      sload(0x05)\n        /* \"contracts/learn.sol\":2637:2650  axsToETHPrice */\n      sload(0x06)\n        /* \"contracts/learn.sol\":2627:2634  axsDebt */\n      dup5\n        /* \"contracts/learn.sol\":2627:2650  axsDebt * axsToETHPrice */\n      tag_117\n      swap2\n      swap1\n      tag_77\n      jump\t// in\n    tag_117:\n        /* \"contracts/learn.sol\":2627:2667  axsDebt * axsToETHPrice * ethPriceOnUSDC */\n      tag_118\n      swap2\n      swap1\n      tag_77\n      jump\t// in\n    tag_118:\n        /* \"contracts/learn.sol\":2626:2674  (axsDebt * axsToETHPrice * ethPriceOnUSDC) / 1e6 */\n      tag_119\n      swap2\n      swap1\n      tag_79\n      jump\t// in\n    tag_119:\n        /* \"contracts/learn.sol\":2609:2623  ethPriceOnUSDC */\n      sload(0x05)\n        /* \"contracts/learn.sol\":2599:2606  ethDebt */\n      dup5\n        /* \"contracts/learn.sol\":2599:2623  ethDebt * ethPriceOnUSDC */\n      tag_120\n      swap2\n      swap1\n      tag_77\n      jump\t// in\n    tag_120:\n        /* \"contracts/learn.sol\":2599:2674  ethDebt * ethPriceOnUSDC + (axsDebt * axsToETHPrice * ethPriceOnUSDC) / 1e6 */\n      tag_121\n      swap2\n      swap1\n      tag_86\n      jump\t// in\n    tag_121:\n        /* \"contracts/learn.sol\":2575:2674  uint256 totalDebtUSDC = ethDebt * ethPriceOnUSDC + (axsDebt * axsToETHPrice * ethPriceOnUSDC) / 1e6 */\n      swap1\n      pop\n        /* \"contracts/learn.sol\":2757:2779  uint256 targetDebtUSDC */\n      0x00\n        /* \"contracts/learn.sol\":2824:2827  100 */\n      0x64\n        /* \"contracts/learn.sol\":2801:2820  collateralRatioUSDC */\n      sload(0x02)\n        /* \"contracts/learn.sol\":2783:2798  totalCollateral */\n      dup7\n        /* \"contracts/learn.sol\":2783:2820  totalCollateral * collateralRatioUSDC */\n      tag_122\n      swap2\n      swap1\n      tag_77\n      jump\t// in\n    tag_122:\n        /* \"contracts/learn.sol\":2782:2827  (totalCollateral * collateralRatioUSDC) / 100 */\n      tag_123\n      swap2\n      swap1\n      tag_79\n      jump\t// in\n    tag_123:\n        /* \"contracts/learn.sol\":2757:2827  uint256 targetDebtUSDC = (totalCollateral * collateralRatioUSDC) / 100 */\n      swap1\n      pop\n        /* \"contracts/learn.sol\":2859:2873  targetDebtUSDC */\n      dup1\n        /* \"contracts/learn.sol\":2842:2855  totalDebtUSDC */\n      dup3\n        /* \"contracts/learn.sol\":2842:2873  totalDebtUSDC <= targetDebtUSDC */\n      gt\n        /* \"contracts/learn.sol\":2838:2939  if (totalDebtUSDC <= targetDebtUSDC) {... */\n      tag_124\n      jumpi\n        /* \"contracts/learn.sol\":2897:2898  0 */\n      0x00\n        /* \"contracts/learn.sol\":2900:2901  0 */\n      dup1\n        /* \"contracts/learn.sol\":2889:2902  return (0, 0) */\n      swap8\n      pop\n      swap8\n      pop\n      pop\n      pop\n      pop\n      pop\n      pop\n      pop\n      jump(tag_116)\n        /* \"contracts/learn.sol\":2838:2939  if (totalDebtUSDC <= targetDebtUSDC) {... */\n    tag_124:\n        /* \"contracts/learn.sol\":2949:2967  uint256 excessDebt */\n      0x00\n        /* \"contracts/learn.sol\":2986:3000  targetDebtUSDC */\n      dup2\n        /* \"contracts/learn.sol\":2970:2983  totalDebtUSDC */\n      dup4\n        /* \"contracts/learn.sol\":2970:3000  totalDebtUSDC - targetDebtUSDC */\n      tag_125\n      swap2\n      swap1\n      tag_88\n      jump\t// in\n    tag_125:\n        /* \"contracts/learn.sol\":2949:3000  uint256 excessDebt = totalDebtUSDC - targetDebtUSDC */\n      swap1\n      pop\n        /* \"contracts/learn.sol\":3056:3068  bytes(\"ETH\") */\n      mload(0x40)\n      dup1\n      0x40\n      add\n      0x40\n      mstore\n      dup1\n      0x03\n      dup2\n      mstore\n      0x20\n      add\n      0x4554480000000000000000000000000000000000000000000000000000000000\n      dup2\n      mstore\n      pop\n        /* \"contracts/learn.sol\":3046:3069  keccak256(bytes(\"ETH\")) */\n      dup1\n      mload\n      swap1\n      0x20\n      add\n      keccak256\n        /* \"contracts/learn.sol\":3031:3040  assetType */\n      dup11\n        /* \"contracts/learn.sol\":3015:3042  keccak256(bytes(assetType)) */\n      dup1\n      mload\n      swap1\n      0x20\n      add\n      keccak256\n        /* \"contracts/learn.sol\":3015:3069  keccak256(bytes(assetType)) == keccak256(bytes(\"ETH\")) */\n      sub\n        /* \"contracts/learn.sol\":3011:3686  if (keccak256(bytes(assetType)) == keccak256(bytes(\"ETH\"))) {... */\n      tag_126\n      jumpi\n        /* \"contracts/learn.sol\":3125:3139  ethPriceOnUSDC */\n      sload(0x05)\n        /* \"contracts/learn.sol\":3118:3121  1e6 */\n      0x0f4240\n        /* \"contracts/learn.sol\":3105:3115  excessDebt */\n      dup3\n        /* \"contracts/learn.sol\":3105:3121  excessDebt * 1e6 */\n      tag_127\n      swap2\n      swap1\n      tag_77\n      jump\t// in\n    tag_127:\n        /* \"contracts/learn.sol\":3104:3139  (excessDebt * 1e6) / ethPriceOnUSDC */\n      tag_128\n      swap2\n      swap1\n      tag_79\n      jump\t// in\n    tag_128:\n        /* \"contracts/learn.sol\":3085:3139  assetToLiquidate = (excessDebt * 1e6) / ethPriceOnUSDC */\n      swap8\n      pop\n        /* \"contracts/learn.sol\":3252:3255  1e6 */\n      0x0f4240\n        /* \"contracts/learn.sol\":3234:3248  ethPriceOnUSDC */\n      sload(0x05)\n        /* \"contracts/learn.sol\":3215:3231  assetToLiquidate */\n      dup10\n        /* \"contracts/learn.sol\":3215:3248  assetToLiquidate * ethPriceOnUSDC */\n      tag_129\n      swap2\n      swap1\n      tag_77\n      jump\t// in\n    tag_129:\n        /* \"contracts/learn.sol\":3214:3255  (assetToLiquidate * ethPriceOnUSDC) / 1e6 */\n      tag_130\n      swap2\n      swap1\n      tag_79\n      jump\t// in\n    tag_130:\n        /* \"contracts/learn.sol\":3196:3255  usdcToLiquidate = (assetToLiquidate * ethPriceOnUSDC) / 1e6 */\n      swap9\n      pop\n        /* \"contracts/learn.sol\":3011:3686  if (keccak256(bytes(assetType)) == keccak256(bytes(\"ETH\"))) {... */\n      jump(tag_131)\n    tag_126:\n        /* \"contracts/learn.sol\":3317:3329  bytes(\"AXS\") */\n      mload(0x40)\n      dup1\n      0x40\n      add\n      0x40\n      mstore\n      dup1\n      0x03\n      dup2\n      mstore\n      0x20\n      add\n      0x4158530000000000000000000000000000000000000000000000000000000000\n      dup2\n      mstore\n      pop\n        /* \"contracts/learn.sol\":3307:3330  keccak256(bytes(\"AXS\")) */\n      dup1\n      mload\n      swap1\n      0x20\n      add\n      keccak256\n        /* \"contracts/learn.sol\":3292:3301  assetType */\n      dup11\n        /* \"contracts/learn.sol\":3276:3303  keccak256(bytes(assetType)) */\n      dup1\n      mload\n      swap1\n      0x20\n      add\n      keccak256\n        /* \"contracts/learn.sol\":3276:3330  keccak256(bytes(assetType)) == keccak256(bytes(\"AXS\")) */\n      sub\n        /* \"contracts/learn.sol\":3272:3686  if (keccak256(bytes(assetType)) == keccak256(bytes(\"AXS\"))) {... */\n      tag_132\n      jumpi\n        /* \"contracts/learn.sol\":3346:3362  uint256 axsInETH */\n      0x00\n        /* \"contracts/learn.sol\":3403:3417  ethPriceOnUSDC */\n      sload(0x05)\n        /* \"contracts/learn.sol\":3387:3400  axsToETHPrice */\n      sload(0x06)\n        /* \"contracts/learn.sol\":3387:3417  axsToETHPrice * ethPriceOnUSDC */\n      tag_133\n      swap2\n      swap1\n      tag_77\n      jump\t// in\n    tag_133:\n        /* \"contracts/learn.sol\":3379:3382  1e6 */\n      0x0f4240\n        /* \"contracts/learn.sol\":3366:3376  excessDebt */\n      dup4\n        /* \"contracts/learn.sol\":3366:3382  excessDebt * 1e6 */\n      tag_134\n      swap2\n      swap1\n      tag_77\n      jump\t// in\n    tag_134:\n        /* \"contracts/learn.sol\":3365:3418  (excessDebt * 1e6) / (axsToETHPrice * ethPriceOnUSDC) */\n      tag_135\n      swap2\n      swap1\n      tag_79\n      jump\t// in\n    tag_135:\n        /* \"contracts/learn.sol\":3346:3418  uint256 axsInETH = (excessDebt * 1e6) / (axsToETHPrice * ethPriceOnUSDC) */\n      swap1\n      pop\n        /* \"contracts/learn.sol\":3451:3459  axsInETH */\n      dup1\n        /* \"contracts/learn.sol\":3432:3459  assetToLiquidate = axsInETH */\n      swap9\n      pop\n        /* \"contracts/learn.sol\":3593:3596  1e6 */\n      0x0f4240\n        /* \"contracts/learn.sol\":3575:3589  ethPriceOnUSDC */\n      sload(0x05)\n        /* \"contracts/learn.sol\":3559:3572  axsToETHPrice */\n      sload(0x06)\n        /* \"contracts/learn.sol\":3540:3556  assetToLiquidate */\n      dup12\n        /* \"contracts/learn.sol\":3540:3572  assetToLiquidate * axsToETHPrice */\n      tag_136\n      swap2\n      swap1\n      tag_77\n      jump\t// in\n    tag_136:\n        /* \"contracts/learn.sol\":3540:3589  assetToLiquidate * axsToETHPrice * ethPriceOnUSDC */\n      tag_137\n      swap2\n      swap1\n      tag_77\n      jump\t// in\n    tag_137:\n        /* \"contracts/learn.sol\":3539:3596  (assetToLiquidate * axsToETHPrice * ethPriceOnUSDC) / 1e6 */\n      tag_138\n      swap2\n      swap1\n      tag_79\n      jump\t// in\n    tag_138:\n        /* \"contracts/learn.sol\":3521:3596  usdcToLiquidate = (assetToLiquidate * axsToETHPrice * ethPriceOnUSDC) / 1e6 */\n      swap10\n      pop\n        /* \"contracts/learn.sol\":3332:3607  {... */\n      pop\n        /* \"contracts/learn.sol\":3272:3686  if (keccak256(bytes(assetType)) == keccak256(bytes(\"AXS\"))) {... */\n      jump(tag_139)\n    tag_132:\n        /* \"contracts/learn.sol\":3627:3675  revert(\"Invalid asset type: Use 'ETH' or 'AXS'\") */\n      mload(0x40)\n      0x08c379a000000000000000000000000000000000000000000000000000000000\n      dup2\n      mstore\n      0x04\n      add\n      tag_140\n      swap1\n      tag_111\n      jump\t// in\n    tag_140:\n      mload(0x40)\n      dup1\n      swap2\n      sub\n      swap1\n      revert\n        /* \"contracts/learn.sol\":3272:3686  if (keccak256(bytes(assetType)) == keccak256(bytes(\"AXS\"))) {... */\n    tag_139:\n        /* \"contracts/learn.sol\":3011:3686  if (keccak256(bytes(assetType)) == keccak256(bytes(\"ETH\"))) {... */\n    tag_131:\n        /* \"contracts/learn.sol\":2384:3692  {... */\n      pop\n      pop\n      pop\n      pop\n      pop\n      pop\n      pop\n        /* \"contracts/learn.sol\":2232:3692  function calculateLiquidationAmount(address _borrower, string memory assetType) public view returns (uint256 usdcToLiquidate, uint256 assetToLiquidate) {... */\n    tag_116:\n      swap3\n      pop\n      swap3\n      swap1\n      pop\n      jump\t// out\n        /* \"contracts/learn.sol\":220:257  mapping(address => Loan) public loans */\n    tag_45:\n      mstore(0x20, 0x01)\n      dup1\n      0x00\n      mstore\n      keccak256(0x00, 0x40)\n      0x00\n      swap2\n      pop\n      swap1\n      pop\n      dup1\n      0x00\n      add\n      sload\n      swap1\n      dup1\n      0x01\n      add\n      sload\n      swap1\n      dup1\n      0x02\n      add\n      sload\n      swap1\n      pop\n      dup4\n      jump\t// out\n        /* \"contracts/learn.sol\":86:106  address public owner */\n    tag_49:\n      0x00\n      dup1\n      sload\n      swap1\n      0x0100\n      exp\n      swap1\n      div\n      0xffffffffffffffffffffffffffffffffffffffff\n      and\n      dup2\n      jump\t// out\n        /* \"contracts/learn.sol\":398:434  uint256 public ethPriceOnUSDC = 1500 */\n    tag_53:\n      sload(0x05)\n      dup2\n      jump\t// out\n        /* \"contracts/learn.sol\":892:1139  function addLoan(address _borrower, uint256 _usdcCollateral, uint256 _ethDebt, uint256 _axsDebt) public {... */\n    tag_58:\n        /* \"contracts/learn.sol\":1028:1033  owner */\n      0x00\n      dup1\n      sload\n      swap1\n      0x0100\n      exp\n      swap1\n      div\n      0xffffffffffffffffffffffffffffffffffffffff\n      and\n        /* \"contracts/learn.sol\":1014:1033  msg.sender == owner */\n      0xffffffffffffffffffffffffffffffffffffffff\n      and\n        /* \"contracts/learn.sol\":1014:1024  msg.sender */\n      caller\n        /* \"contracts/learn.sol\":1014:1033  msg.sender == owner */\n      0xffffffffffffffffffffffffffffffffffffffff\n      and\n      eq\n        /* \"contracts/learn.sol\":1006:1062  require(msg.sender == owner, \"Only owner can add loans\") */\n      tag_142\n      jumpi\n      mload(0x40)\n      0x08c379a000000000000000000000000000000000000000000000000000000000\n      dup2\n      mstore\n      0x04\n      add\n      tag_143\n      swap1\n      tag_144\n      jump\t// in\n    tag_143:\n      mload(0x40)\n      dup1\n      swap2\n      sub\n      swap1\n      revert\n    tag_142:\n        /* \"contracts/learn.sol\":1091:1132  Loan(_usdcCollateral, _ethDebt, _axsDebt) */\n      mload(0x40)\n      dup1\n      0x60\n      add\n      0x40\n      mstore\n      dup1\n        /* \"contracts/learn.sol\":1096:1111  _usdcCollateral */\n      dup5\n        /* \"contracts/learn.sol\":1091:1132  Loan(_usdcCollateral, _ethDebt, _axsDebt) */\n      dup2\n      mstore\n      0x20\n      add\n        /* \"contracts/learn.sol\":1113:1121  _ethDebt */\n      dup4\n        /* \"contracts/learn.sol\":1091:1132  Loan(_usdcCollateral, _ethDebt, _axsDebt) */\n      dup2\n      mstore\n      0x20\n      add\n        /* \"contracts/learn.sol\":1123:1131  _axsDebt */\n      dup3\n        /* \"contracts/learn.sol\":1091:1132  Loan(_usdcCollateral, _ethDebt, _axsDebt) */\n      dup2\n      mstore\n      pop\n        /* \"contracts/learn.sol\":1072:1077  loans */\n      0x01\n        /* \"contracts/learn.sol\":1072:1088  loans[_borrower] */\n      0x00\n        /* \"contracts/learn.sol\":1078:1087  _borrower */\n      dup7\n        /* \"contracts/learn.sol\":1072:1088  loans[_borrower] */\n      0xffffffffffffffffffffffffffffffffffffffff\n      and\n      0xffffffffffffffffffffffffffffffffffffffff\n      and\n      dup2\n      mstore\n      0x20\n      add\n      swap1\n      dup2\n      mstore\n      0x20\n      add\n      0x00\n      keccak256\n        /* \"contracts/learn.sol\":1072:1132  loans[_borrower] = Loan(_usdcCollateral, _ethDebt, _axsDebt) */\n      0x00\n      dup3\n      add\n      mload\n      dup2\n      0x00\n      add\n      sstore\n      0x20\n      dup3\n      add\n      mload\n      dup2\n      0x01\n      add\n      sstore\n      0x40\n      dup3\n      add\n      mload\n      dup2\n      0x02\n      add\n      sstore\n      swap1\n      pop\n      pop\n        /* \"contracts/learn.sol\":892:1139  function addLoan(address _borrower, uint256 _usdcCollateral, uint256 _ethDebt, uint256 _axsDebt) public {... */\n      pop\n      pop\n      pop\n      pop\n      jump\t// out\n        /* \"contracts/learn.sol\":264:303  uint256 public collateralRatioUSDC = 90 */\n    tag_60:\n      sload(0x02)\n      dup2\n      jump\t// out\n        /* \"contracts/learn.sol\":5310:5402  function changeETHRate(uint256 _ethPrice) public {... */\n    tag_64:\n        /* \"contracts/learn.sol\":5386:5395  _ethPrice */\n      dup1\n        /* \"contracts/learn.sol\":5369:5383  ethPriceOnUSDC */\n      0x05\n        /* \"contracts/learn.sol\":5369:5395  ethPriceOnUSDC = _ethPrice */\n      dup2\n      swap1\n      sstore\n      pop\n        /* \"contracts/learn.sol\":5310:5402  function changeETHRate(uint256 _ethPrice) public {... */\n      pop\n      jump\t// out\n        /* \"contracts/learn.sol\":1145:2151  function getHealthFactor(address _borrower) public returns (uint256) {... */\n    tag_67:\n        /* \"contracts/learn.sol\":1205:1212  uint256 */\n      0x00\n        /* \"contracts/learn.sol\":1224:1240  Loan memory loan */\n      dup1\n        /* \"contracts/learn.sol\":1243:1248  loans */\n      0x01\n        /* \"contracts/learn.sol\":1243:1259  loans[_borrower] */\n      0x00\n        /* \"contracts/learn.sol\":1249:1258  _borrower */\n      dup5\n        /* \"contracts/learn.sol\":1243:1259  loans[_borrower] */\n      0xffffffffffffffffffffffffffffffffffffffff\n      and\n      0xffffffffffffffffffffffffffffffffffffffff\n      and\n      dup2\n      mstore\n      0x20\n      add\n      swap1\n      dup2\n      mstore\n      0x20\n      add\n      0x00\n      keccak256\n        /* \"contracts/learn.sol\":1224:1259  Loan memory loan = loans[_borrower] */\n      mload(0x40)\n      dup1\n      0x60\n      add\n      0x40\n      mstore\n      swap1\n      dup2\n      0x00\n      dup3\n      add\n      sload\n      dup2\n      mstore\n      0x20\n      add\n      0x01\n      dup3\n      add\n      sload\n      dup2\n      mstore\n      0x20\n      add\n      0x02\n      dup3\n      add\n      sload\n      dup2\n      mstore\n      pop\n      pop\n      swap1\n      pop\n        /* \"contracts/learn.sol\":1360:1383  uint256 totalCollateral */\n      0x00\n        /* \"contracts/learn.sol\":1432:1435  100 */\n      0x64\n        /* \"contracts/learn.sol\":1409:1428  collateralRatioUSDC */\n      sload(0x02)\n        /* \"contracts/learn.sol\":1387:1391  loan */\n      dup4\n        /* \"contracts/learn.sol\":1387:1406  loan.usdcCollateral */\n      0x00\n      add\n      mload\n        /* \"contracts/learn.sol\":1387:1428  loan.usdcCollateral * collateralRatioUSDC */\n      tag_147\n      swap2\n      swap1\n      tag_77\n      jump\t// in\n    tag_147:\n        /* \"contracts/learn.sol\":1386:1435  (loan.usdcCollateral * collateralRatioUSDC) / 100 */\n      tag_148\n      swap2\n      swap1\n      tag_79\n      jump\t// in\n    tag_148:\n        /* \"contracts/learn.sol\":1360:1435  uint256 totalCollateral = (loan.usdcCollateral * collateralRatioUSDC) / 100 */\n      swap1\n      pop\n        /* \"contracts/learn.sol\":1489:1510  uint256 ethDebtInUSDC */\n      0x00\n        /* \"contracts/learn.sol\":1547:1551  1000 */\n      0x03e8\n        /* \"contracts/learn.sol\":1529:1543  ethPriceOnUSDC */\n      sload(0x05)\n        /* \"contracts/learn.sol\":1514:1518  loan */\n      dup5\n        /* \"contracts/learn.sol\":1514:1526  loan.ethDebt */\n      0x20\n      add\n      mload\n        /* \"contracts/learn.sol\":1514:1543  loan.ethDebt * ethPriceOnUSDC */\n      tag_149\n      swap2\n      swap1\n      tag_77\n      jump\t// in\n    tag_149:\n        /* \"contracts/learn.sol\":1513:1551  (loan.ethDebt * ethPriceOnUSDC) / 1000 */\n      tag_150\n      swap2\n      swap1\n      tag_79\n      jump\t// in\n    tag_150:\n        /* \"contracts/learn.sol\":1489:1551  uint256 ethDebtInUSDC = (loan.ethDebt * ethPriceOnUSDC) / 1000 */\n      swap1\n      pop\n        /* \"contracts/learn.sol\":1608:1629  uint256 axsDebtInUSDC */\n      0x00\n        /* \"contracts/learn.sol\":1682:1687  10000 */\n      0x2710\n        /* \"contracts/learn.sol\":1664:1678  ethPriceOnUSDC */\n      sload(0x05)\n        /* \"contracts/learn.sol\":1648:1661  axsToETHPrice */\n      sload(0x06)\n        /* \"contracts/learn.sol\":1633:1637  loan */\n      dup7\n        /* \"contracts/learn.sol\":1633:1645  loan.axsDebt */\n      0x40\n      add\n      mload\n        /* \"contracts/learn.sol\":1633:1661  loan.axsDebt * axsToETHPrice */\n      tag_151\n      swap2\n      swap1\n      tag_77\n      jump\t// in\n    tag_151:\n        /* \"contracts/learn.sol\":1633:1678  loan.axsDebt * axsToETHPrice * ethPriceOnUSDC */\n      tag_152\n      swap2\n      swap1\n      tag_77\n      jump\t// in\n    tag_152:\n        /* \"contracts/learn.sol\":1632:1687  (loan.axsDebt * axsToETHPrice * ethPriceOnUSDC) / 10000 */\n      tag_153\n      swap2\n      swap1\n      tag_79\n      jump\t// in\n    tag_153:\n        /* \"contracts/learn.sol\":1608:1687  uint256 axsDebtInUSDC = (loan.axsDebt * axsToETHPrice * ethPriceOnUSDC) / 10000 */\n      swap1\n      pop\n        /* \"contracts/learn.sol\":1730:1747  uint256 totalDebt */\n      0x00\n        /* \"contracts/learn.sol\":1766:1779  axsDebtInUSDC */\n      dup2\n        /* \"contracts/learn.sol\":1750:1763  ethDebtInUSDC */\n      dup4\n        /* \"contracts/learn.sol\":1750:1779  ethDebtInUSDC + axsDebtInUSDC */\n      tag_154\n      swap2\n      swap1\n      tag_86\n      jump\t// in\n    tag_154:\n        /* \"contracts/learn.sol\":1730:1779  uint256 totalDebt = ethDebtInUSDC + axsDebtInUSDC */\n      swap1\n      pop\n        /* \"contracts/learn.sol\":1807:1808  0 */\n      0x00\n        /* \"contracts/learn.sol\":1794:1803  totalDebt */\n      dup2\n        /* \"contracts/learn.sol\":1794:1808  totalDebt == 0 */\n      sub\n        /* \"contracts/learn.sol\":1790:1880  if (totalDebt == 0) {... */\n      tag_155\n      jumpi\n        /* \"contracts/learn.sol\":1831:1848  type(uint256).max */\n      0xffffffffffffffffffffffffffffffffffffffffffffffffffffffffffffffff\n        /* \"contracts/learn.sol\":1824:1848  return type(uint256).max */\n      swap6\n      pop\n      pop\n      pop\n      pop\n      pop\n      pop\n      jump(tag_146)\n        /* \"contracts/learn.sol\":1790:1880  if (totalDebt == 0) {... */\n    tag_155:\n        /* \"contracts/learn.sol\":1921:1941  uint256 healthFactor */\n      0x00\n        /* \"contracts/learn.sol\":1970:1979  totalDebt */\n      dup2\n        /* \"contracts/learn.sol\":1963:1966  100 */\n      0x64\n        /* \"contracts/learn.sol\":1945:1960  totalCollateral */\n      dup7\n        /* \"contracts/learn.sol\":1945:1966  totalCollateral * 100 */\n      tag_156\n      swap2\n      swap1\n      tag_77\n      jump\t// in\n    tag_156:\n        /* \"contracts/learn.sol\":1944:1979  (totalCollateral * 100) / totalDebt */\n      tag_157\n      swap2\n      swap1\n      tag_79\n      jump\t// in\n    tag_157:\n        /* \"contracts/learn.sol\":1921:1979  uint256 healthFactor = (totalCollateral * 100) / totalDebt */\n      swap1\n      pop\n        /* \"contracts/learn.sol\":2039:2114  HealthFactorCalculated(_borrower, totalCollateral, totalDebt, healthFactor) */\n      0x96df9b99931636b730287949d80832331a9fd2fd69bc2bb6ce2145403af80688\n        /* \"contracts/learn.sol\":2062:2071  _borrower */\n      dup9\n        /* \"contracts/learn.sol\":2073:2088  totalCollateral */\n      dup7\n        /* \"contracts/learn.sol\":2090:2099  totalDebt */\n      dup5\n        /* \"contracts/learn.sol\":2101:2113  healthFactor */\n      dup5\n        /* \"contracts/learn.sol\":2039:2114  HealthFactorCalculated(_borrower, totalCollateral, totalDebt, healthFactor) */\n      mload(0x40)\n      tag_158\n      swap5\n      swap4\n      swap3\n      swap2\n      swap1\n      tag_159\n      jump\t// in\n    tag_158:\n      mload(0x40)\n      dup1\n      swap2\n      sub\n      swap1\n      log1\n        /* \"contracts/learn.sol\":2132:2144  healthFactor */\n      dup1\n        /* \"contracts/learn.sol\":2125:2144  return healthFactor */\n      swap7\n      pop\n      pop\n      pop\n      pop\n      pop\n      pop\n      pop\n        /* \"contracts/learn.sol\":1145:2151  function getHealthFactor(address _borrower) public returns (uint256) {... */\n    tag_146:\n      swap2\n      swap1\n      pop\n      jump\t// out\n        /* \"#utility.yul\":7:84   */\n    tag_160:\n        /* \"#utility.yul\":44:51   */\n      0x00\n        /* \"#utility.yul\":73:78   */\n      dup2\n        /* \"#utility.yul\":62:78   */\n      swap1\n      pop\n        /* \"#utility.yul\":7:84   */\n      swap2\n      swap1\n      pop\n      jump\t// out\n        /* \"#utility.yul\":90:208   */\n    tag_161:\n        /* \"#utility.yul\":177:201   */\n      tag_194\n        /* \"#utility.yul\":195:200   */\n      dup2\n        /* \"#utility.yul\":177:201   */\n      tag_160\n      jump\t// in\n    tag_194:\n        /* \"#utility.yul\":172:175   */\n      dup3\n        /* \"#utility.yul\":165:202   */\n      mstore\n        /* \"#utility.yul\":90:208   */\n      pop\n      pop\n      jump\t// out\n        /* \"#utility.yul\":214:436   */\n    tag_21:\n        /* \"#utility.yul\":307:311   */\n      0x00\n        /* \"#utility.yul\":345:347   */\n      0x20\n        /* \"#utility.yul\":334:343   */\n      dup3\n        /* \"#utility.yul\":330:348   */\n      add\n        /* \"#utility.yul\":322:348   */\n      swap1\n      pop\n        /* \"#utility.yul\":358:429   */\n      tag_196\n        /* \"#utility.yul\":426:427   */\n      0x00\n        /* \"#utility.yul\":415:424   */\n      dup4\n        /* \"#utility.yul\":411:428   */\n      add\n        /* \"#utility.yul\":402:408   */\n      dup5\n        /* \"#utility.yul\":358:429   */\n      tag_161\n      jump\t// in\n    tag_196:\n        /* \"#utility.yul\":214:436   */\n      swap3\n      swap2\n      pop\n      pop\n      jump\t// out\n        /* \"#utility.yul\":442:517   */\n    tag_162:\n        /* \"#utility.yul\":475:481   */\n      0x00\n        /* \"#utility.yul\":508:510   */\n      0x40\n        /* \"#utility.yul\":502:511   */\n      mload\n        /* \"#utility.yul\":492:511   */\n      swap1\n      pop\n        /* \"#utility.yul\":442:517   */\n      swap1\n      jump\t// out\n        /* \"#utility.yul\":523:640   */\n    tag_163:\n        /* \"#utility.yul\":632:633   */\n      0x00\n        /* \"#utility.yul\":629:630   */\n      dup1\n        /* \"#utility.yul\":622:634   */\n      revert\n        /* \"#utility.yul\":646:763   */\n    tag_164:\n        /* \"#utility.yul\":755:756   */\n      0x00\n        /* \"#utility.yul\":752:753   */\n      dup1\n        /* \"#utility.yul\":745:757   */\n      revert\n        /* \"#utility.yul\":769:891   */\n    tag_165:\n        /* \"#utility.yul\":842:866   */\n      tag_201\n        /* \"#utility.yul\":860:865   */\n      dup2\n        /* \"#utility.yul\":842:866   */\n      tag_160\n      jump\t// in\n    tag_201:\n        /* \"#utility.yul\":835:840   */\n      dup2\n        /* \"#utility.yul\":832:867   */\n      eq\n        /* \"#utility.yul\":822:885   */\n      tag_202\n      jumpi\n        /* \"#utility.yul\":881:882   */\n      0x00\n        /* \"#utility.yul\":878:879   */\n      dup1\n        /* \"#utility.yul\":871:883   */\n      revert\n        /* \"#utility.yul\":822:885   */\n    tag_202:\n        /* \"#utility.yul\":769:891   */\n      pop\n      jump\t// out\n        /* \"#utility.yul\":897:1036   */\n    tag_166:\n        /* \"#utility.yul\":943:948   */\n      0x00\n        /* \"#utility.yul\":981:987   */\n      dup2\n        /* \"#utility.yul\":968:988   */\n      calldataload\n        /* \"#utility.yul\":959:988   */\n      swap1\n      pop\n        /* \"#utility.yul\":997:1030   */\n      tag_204\n        /* \"#utility.yul\":1024:1029   */\n      dup2\n        /* \"#utility.yul\":997:1030   */\n      tag_165\n      jump\t// in\n    tag_204:\n        /* \"#utility.yul\":897:1036   */\n      swap3\n      swap2\n      pop\n      pop\n      jump\t// out\n        /* \"#utility.yul\":1042:1371   */\n    tag_27:\n        /* \"#utility.yul\":1101:1107   */\n      0x00\n        /* \"#utility.yul\":1150:1152   */\n      0x20\n        /* \"#utility.yul\":1138:1147   */\n      dup3\n        /* \"#utility.yul\":1129:1136   */\n      dup5\n        /* \"#utility.yul\":1125:1148   */\n      sub\n        /* \"#utility.yul\":1121:1153   */\n      slt\n        /* \"#utility.yul\":1118:1237   */\n      iszero\n      tag_206\n      jumpi\n        /* \"#utility.yul\":1156:1235   */\n      tag_207\n      tag_163\n      jump\t// in\n    tag_207:\n        /* \"#utility.yul\":1118:1237   */\n    tag_206:\n        /* \"#utility.yul\":1276:1277   */\n      0x00\n        /* \"#utility.yul\":1301:1354   */\n      tag_208\n        /* \"#utility.yul\":1346:1353   */\n      dup5\n        /* \"#utility.yul\":1337:1343   */\n      dup3\n        /* \"#utility.yul\":1326:1335   */\n      dup6\n        /* \"#utility.yul\":1322:1344   */\n      add\n        /* \"#utility.yul\":1301:1354   */\n      tag_166\n      jump\t// in\n    tag_208:\n        /* \"#utility.yul\":1291:1354   */\n      swap2\n      pop\n        /* \"#utility.yul\":1247:1364   */\n      pop\n        /* \"#utility.yul\":1042:1371   */\n      swap3\n      swap2\n      pop\n      pop\n      jump\t// out\n        /* \"#utility.yul\":1377:1503   */\n    tag_167:\n        /* \"#utility.yul\":1414:1421   */\n      0x00\n        /* \"#utility.yul\":1454:1496   */\n      0xffffffffffffffffffffffffffffffffffffffff\n        /* \"#utility.yul\":1447:1452   */\n      dup3\n        /* \"#utility.yul\":1443:1497   */\n      and\n        /* \"#utility.yul\":1432:1497   */\n      swap1\n      pop\n        /* \"#utility.yul\":1377:1503   */\n      swap2\n      swap1\n      pop\n      jump\t// out\n        /* \"#utility.yul\":1509:1605   */\n    tag_168:\n        /* \"#utility.yul\":1546:1553   */\n      0x00\n        /* \"#utility.yul\":1575:1599   */\n      tag_211\n        /* \"#utility.yul\":1593:1598   */\n      dup3\n        /* \"#utility.yul\":1575:1599   */\n      tag_167\n      jump\t// in\n    tag_211:\n        /* \"#utility.yul\":1564:1599   */\n      swap1\n      pop\n        /* \"#utility.yul\":1509:1605   */\n      swap2\n      swap1\n      pop\n      jump\t// out\n        /* \"#utility.yul\":1611:1733   */\n    tag_169:\n        /* \"#utility.yul\":1684:1708   */\n      tag_213\n        /* \"#utility.yul\":1702:1707   */\n      dup2\n        /* \"#utility.yul\":1684:1708   */\n      tag_168\n      jump\t// in\n    tag_213:\n        /* \"#utility.yul\":1677:1682   */\n      dup2\n        /* \"#utility.yul\":1674:1709   */\n      eq\n        /* \"#utility.yul\":1664:1727   */\n      tag_214\n      jumpi\n        /* \"#utility.yul\":1723:1724   */\n      0x00\n        /* \"#utility.yul\":1720:1721   */\n      dup1\n        /* \"#utility.yul\":1713:1725   */\n      revert\n        /* \"#utility.yul\":1664:1727   */\n    tag_214:\n        /* \"#utility.yul\":1611:1733   */\n      pop\n      jump\t// out\n        /* \"#utility.yul\":1739:1878   */\n    tag_170:\n        /* \"#utility.yul\":1785:1790   */\n      0x00\n        /* \"#utility.yul\":1823:1829   */\n      dup2\n        /* \"#utility.yul\":1810:1830   */\n      calldataload\n        /* \"#utility.yul\":1801:1830   */\n      swap1\n      pop\n        /* \"#utility.yul\":1839:1872   */\n      tag_216\n        /* \"#utility.yul\":1866:1871   */\n      dup2\n        /* \"#utility.yul\":1839:1872   */\n      tag_169\n      jump\t// in\n    tag_216:\n        /* \"#utility.yul\":1739:1878   */\n      swap3\n      swap2\n      pop\n      pop\n      jump\t// out\n        /* \"#utility.yul\":1884:2001   */\n    tag_171:\n        /* \"#utility.yul\":1993:1994   */\n      0x00\n        /* \"#utility.yul\":1990:1991   */\n      dup1\n        /* \"#utility.yul\":1983:1995   */\n      revert\n        /* \"#utility.yul\":2007:2124   */\n    tag_172:\n        /* \"#utility.yul\":2116:2117   */\n      0x00\n        /* \"#utility.yul\":2113:2114   */\n      dup1\n        /* \"#utility.yul\":2106:2118   */\n      revert\n        /* \"#utility.yul\":2130:2232   */\n    tag_173:\n        /* \"#utility.yul\":2171:2177   */\n      0x00\n        /* \"#utility.yul\":2222:2224   */\n      0x1f\n        /* \"#utility.yul\":2218:2225   */\n      not\n        /* \"#utility.yul\":2213:2215   */\n      0x1f\n        /* \"#utility.yul\":2206:2211   */\n      dup4\n        /* \"#utility.yul\":2202:2216   */\n      add\n        /* \"#utility.yul\":2198:2226   */\n      and\n        /* \"#utility.yul\":2188:2226   */\n      swap1\n      pop\n        /* \"#utility.yul\":2130:2232   */\n      swap2\n      swap1\n      pop\n      jump\t// out\n        /* \"#utility.yul\":2238:2418   */\n    tag_174:\n        /* \"#utility.yul\":2286:2363   */\n      0x4e487b7100000000000000000000000000000000000000000000000000000000\n        /* \"#utility.yul\":2283:2284   */\n      0x00\n        /* \"#utility.yul\":2276:2364   */\n      mstore\n        /* \"#utility.yul\":2383:2387   */\n      0x41\n        /* \"#utility.yul\":2380:2381   */\n      0x04\n        /* \"#utility.yul\":2373:2388   */\n      mstore\n        /* \"#utility.yul\":2407:2411   */\n      0x24\n        /* \"#utility.yul\":2404:2405   */\n      0x00\n        /* \"#utility.yul\":2397:2412   */\n      revert\n        /* \"#utility.yul\":2424:2705   */\n    tag_175:\n        /* \"#utility.yul\":2507:2534   */\n      tag_222\n        /* \"#utility.yul\":2529:2533   */\n      dup3\n        /* \"#utility.yul\":2507:2534   */\n      tag_173\n      jump\t// in\n    tag_222:\n        /* \"#utility.yul\":2499:2505   */\n      dup2\n        /* \"#utility.yul\":2495:2535   */\n      add\n        /* \"#utility.yul\":2637:2643   */\n      dup2\n        /* \"#utility.yul\":2625:2635   */\n      dup2\n        /* \"#utility.yul\":2622:2644   */\n      lt\n        /* \"#utility.yul\":2601:2619   */\n      0xffffffffffffffff\n        /* \"#utility.yul\":2589:2599   */\n      dup3\n        /* \"#utility.yul\":2586:2620   */\n      gt\n        /* \"#utility.yul\":2583:2645   */\n      or\n        /* \"#utility.yul\":2580:2668   */\n      iszero\n      tag_223\n      jumpi\n        /* \"#utility.yul\":2648:2666   */\n      tag_224\n      tag_174\n      jump\t// in\n    tag_224:\n        /* \"#utility.yul\":2580:2668   */\n    tag_223:\n        /* \"#utility.yul\":2688:2698   */\n      dup1\n        /* \"#utility.yul\":2684:2686   */\n      0x40\n        /* \"#utility.yul\":2677:2699   */\n      mstore\n        /* \"#utility.yul\":2467:2705   */\n      pop\n        /* \"#utility.yul\":2424:2705   */\n      pop\n      pop\n      jump\t// out\n        /* \"#utility.yul\":2711:2840   */\n    tag_176:\n        /* \"#utility.yul\":2745:2751   */\n      0x00\n        /* \"#utility.yul\":2772:2792   */\n      tag_226\n      tag_162\n      jump\t// in\n    tag_226:\n        /* \"#utility.yul\":2762:2792   */\n      swap1\n      pop\n        /* \"#utility.yul\":2801:2834   */\n      tag_227\n        /* \"#utility.yul\":2829:2833   */\n      dup3\n        /* \"#utility.yul\":2821:2827   */\n      dup3\n        /* \"#utility.yul\":2801:2834   */\n      tag_175\n      jump\t// in\n    tag_227:\n        /* \"#utility.yul\":2711:2840   */\n      swap2\n      swap1\n      pop\n      jump\t// out\n        /* \"#utility.yul\":2846:3154   */\n    tag_177:\n        /* \"#utility.yul\":2908:2912   */\n      0x00\n        /* \"#utility.yul\":2998:3016   */\n      0xffffffffffffffff\n        /* \"#utility.yul\":2990:2996   */\n      dup3\n        /* \"#utility.yul\":2987:3017   */\n      gt\n        /* \"#utility.yul\":2984:3040   */\n      iszero\n      tag_229\n      jumpi\n        /* \"#utility.yul\":3020:3038   */\n      tag_230\n      tag_174\n      jump\t// in\n    tag_230:\n        /* \"#utility.yul\":2984:3040   */\n    tag_229:\n        /* \"#utility.yul\":3058:3087   */\n      tag_231\n        /* \"#utility.yul\":3080:3086   */\n      dup3\n        /* \"#utility.yul\":3058:3087   */\n      tag_173\n      jump\t// in\n    tag_231:\n        /* \"#utility.yul\":3050:3087   */\n      swap1\n      pop\n        /* \"#utility.yul\":3142:3146   */\n      0x20\n        /* \"#utility.yul\":3136:3140   */\n      dup2\n        /* \"#utility.yul\":3132:3147   */\n      add\n        /* \"#utility.yul\":3124:3147   */\n      swap1\n      pop\n        /* \"#utility.yul\":2846:3154   */\n      swap2\n      swap1\n      pop\n      jump\t// out\n        /* \"#utility.yul\":3160:3308   */\n    tag_178:\n        /* \"#utility.yul\":3258:3264   */\n      dup3\n        /* \"#utility.yul\":3253:3256   */\n      dup2\n        /* \"#utility.yul\":3248:3251   */\n      dup4\n        /* \"#utility.yul\":3235:3265   */\n      calldatacopy\n        /* \"#utility.yul\":3299:3300   */\n      0x00\n        /* \"#utility.yul\":3290:3296   */\n      dup4\n        /* \"#utility.yul\":3285:3288   */\n      dup4\n        /* \"#utility.yul\":3281:3297   */\n      add\n        /* \"#utility.yul\":3274:3301   */\n      mstore\n        /* \"#utility.yul\":3160:3308   */\n      pop\n      pop\n      pop\n      jump\t// out\n        /* \"#utility.yul\":3314:3739   */\n    tag_179:\n        /* \"#utility.yul\":3392:3397   */\n      0x00\n        /* \"#utility.yul\":3417:3483   */\n      tag_234\n        /* \"#utility.yul\":3433:3482   */\n      tag_235\n        /* \"#utility.yul\":3475:3481   */\n      dup5\n        /* \"#utility.yul\":3433:3482   */\n      tag_177\n      jump\t// in\n    tag_235:\n        /* \"#utility.yul\":3417:3483   */\n      tag_176\n      jump\t// in\n    tag_234:\n        /* \"#utility.yul\":3408:3483   */\n      swap1\n      pop\n        /* \"#utility.yul\":3506:3512   */\n      dup3\n        /* \"#utility.yul\":3499:3504   */\n      dup2\n        /* \"#utility.yul\":3492:3513   */\n      mstore\n        /* \"#utility.yul\":3544:3548   */\n      0x20\n        /* \"#utility.yul\":3537:3542   */\n      dup2\n        /* \"#utility.yul\":3533:3549   */\n      add\n        /* \"#utility.yul\":3582:3585   */\n      dup5\n        /* \"#utility.yul\":3573:3579   */\n      dup5\n        /* \"#utility.yul\":3568:3571   */\n      dup5\n        /* \"#utility.yul\":3564:3580   */\n      add\n        /* \"#utility.yul\":3561:3586   */\n      gt\n        /* \"#utility.yul\":3558:3670   */\n      iszero\n      tag_236\n      jumpi\n        /* \"#utility.yul\":3589:3668   */\n      tag_237\n      tag_172\n      jump\t// in\n    tag_237:\n        /* \"#utility.yul\":3558:3670   */\n    tag_236:\n        /* \"#utility.yul\":3679:3733   */\n      tag_238\n        /* \"#utility.yul\":3726:3732   */\n      dup5\n        /* \"#utility.yul\":3721:3724   */\n      dup3\n        /* \"#utility.yul\":3716:3719   */\n      dup6\n        /* \"#utility.yul\":3679:3733   */\n      tag_178\n      jump\t// in\n    tag_238:\n        /* \"#utility.yul\":3398:3739   */\n      pop\n        /* \"#utility.yul\":3314:3739   */\n      swap4\n      swap3\n      pop\n      pop\n      pop\n      jump\t// out\n        /* \"#utility.yul\":3759:4099   */\n    tag_180:\n        /* \"#utility.yul\":3815:3820   */\n      0x00\n        /* \"#utility.yul\":3864:3867   */\n      dup3\n        /* \"#utility.yul\":3857:3861   */\n      0x1f\n        /* \"#utility.yul\":3849:3855   */\n      dup4\n        /* \"#utility.yul\":3845:3862   */\n      add\n        /* \"#utility.yul\":3841:3868   */\n      slt\n        /* \"#utility.yul\":3831:3953   */\n      tag_240\n      jumpi\n        /* \"#utility.yul\":3872:3951   */\n      tag_241\n      tag_171\n      jump\t// in\n    tag_241:\n        /* \"#utility.yul\":3831:3953   */\n    tag_240:\n        /* \"#utility.yul\":3989:3995   */\n      dup2\n        /* \"#utility.yul\":3976:3996   */\n      calldataload\n        /* \"#utility.yul\":4014:4093   */\n      tag_242\n        /* \"#utility.yul\":4089:4092   */\n      dup5\n        /* \"#utility.yul\":4081:4087   */\n      dup3\n        /* \"#utility.yul\":4074:4078   */\n      0x20\n        /* \"#utility.yul\":4066:4072   */\n      dup7\n        /* \"#utility.yul\":4062:4079   */\n      add\n        /* \"#utility.yul\":4014:4093   */\n      tag_179\n      jump\t// in\n    tag_242:\n        /* \"#utility.yul\":4005:4093   */\n      swap2\n      pop\n        /* \"#utility.yul\":3821:4099   */\n      pop\n        /* \"#utility.yul\":3759:4099   */\n      swap3\n      swap2\n      pop\n      pop\n      jump\t// out\n        /* \"#utility.yul\":4105:4904   */\n    tag_31:\n        /* \"#utility.yul\":4192:4198   */\n      0x00\n        /* \"#utility.yul\":4200:4206   */\n      dup1\n        /* \"#utility.yul\":4208:4214   */\n      0x00\n        /* \"#utility.yul\":4257:4259   */\n      0x60\n        /* \"#utility.yul\":4245:4254   */\n      dup5\n        /* \"#utility.yul\":4236:4243   */\n      dup7\n        /* \"#utility.yul\":4232:4255   */\n      sub\n        /* \"#utility.yul\":4228:4260   */\n      slt\n        /* \"#utility.yul\":4225:4344   */\n      iszero\n      tag_244\n      jumpi\n        /* \"#utility.yul\":4263:4342   */\n      tag_245\n      tag_163\n      jump\t// in\n    tag_245:\n        /* \"#utility.yul\":4225:4344   */\n    tag_244:\n        /* \"#utility.yul\":4383:4384   */\n      0x00\n        /* \"#utility.yul\":4408:4461   */\n      tag_246\n        /* \"#utility.yul\":4453:4460   */\n      dup7\n        /* \"#utility.yul\":4444:4450   */\n      dup3\n        /* \"#utility.yul\":4433:4442   */\n      dup8\n        /* \"#utility.yul\":4429:4451   */\n      add\n        /* \"#utility.yul\":4408:4461   */\n      tag_170\n      jump\t// in\n    tag_246:\n        /* \"#utility.yul\":4398:4461   */\n      swap4\n      pop\n        /* \"#utility.yul\":4354:4471   */\n      pop\n        /* \"#utility.yul\":4538:4540   */\n      0x20\n        /* \"#utility.yul\":4527:4536   */\n      dup5\n        /* \"#utility.yul\":4523:4541   */\n      add\n        /* \"#utility.yul\":4510:4542   */\n      calldataload\n        /* \"#utility.yul\":4569:4587   */\n      0xffffffffffffffff\n        /* \"#utility.yul\":4561:4567   */\n      dup2\n        /* \"#utility.yul\":4558:4588   */\n      gt\n        /* \"#utility.yul\":4555:4672   */\n      iszero\n      tag_247\n      jumpi\n        /* \"#utility.yul\":4591:4670   */\n      tag_248\n      tag_164\n      jump\t// in\n    tag_248:\n        /* \"#utility.yul\":4555:4672   */\n    tag_247:\n        /* \"#utility.yul\":4696:4759   */\n      tag_249\n        /* \"#utility.yul\":4751:4758   */\n      dup7\n        /* \"#utility.yul\":4742:4748   */\n      dup3\n        /* \"#utility.yul\":4731:4740   */\n      dup8\n        /* \"#utility.yul\":4727:4749   */\n      add\n        /* \"#utility.yul\":4696:4759   */\n      tag_180\n      jump\t// in\n    tag_249:\n        /* \"#utility.yul\":4686:4759   */\n      swap3\n      pop\n        /* \"#utility.yul\":4481:4769   */\n      pop\n        /* \"#utility.yul\":4808:4810   */\n      0x40\n        /* \"#utility.yul\":4834:4887   */\n      tag_250\n        /* \"#utility.yul\":4879:4886   */\n      dup7\n        /* \"#utility.yul\":4870:4876   */\n      dup3\n        /* \"#utility.yul\":4859:4868   */\n      dup8\n        /* \"#utility.yul\":4855:4877   */\n      add\n        /* \"#utility.yul\":4834:4887   */\n      tag_166\n      jump\t// in\n    tag_250:\n        /* \"#utility.yul\":4824:4887   */\n      swap2\n      pop\n        /* \"#utility.yul\":4779:4897   */\n      pop\n        /* \"#utility.yul\":4105:4904   */\n      swap3\n      pop\n      swap3\n      pop\n      swap3\n      jump\t// out\n        /* \"#utility.yul\":4910:5564   */\n    tag_38:\n        /* \"#utility.yul\":4988:4994   */\n      0x00\n        /* \"#utility.yul\":4996:5002   */\n      dup1\n        /* \"#utility.yul\":5045:5047   */\n      0x40\n        /* \"#utility.yul\":5033:5042   */\n      dup4\n        /* \"#utility.yul\":5024:5031   */\n      dup6\n        /* \"#utility.yul\":5020:5043   */\n      sub\n        /* \"#utility.yul\":5016:5048   */\n      slt\n        /* \"#utility.yul\":5013:5132   */\n      iszero\n      tag_252\n      jumpi\n        /* \"#utility.yul\":5051:5130   */\n      tag_253\n      tag_163\n      jump\t// in\n    tag_253:\n        /* \"#utility.yul\":5013:5132   */\n    tag_252:\n        /* \"#utility.yul\":5171:5172   */\n      0x00\n        /* \"#utility.yul\":5196:5249   */\n      tag_254\n        /* \"#utility.yul\":5241:5248   */\n      dup6\n        /* \"#utility.yul\":5232:5238   */\n      dup3\n        /* \"#utility.yul\":5221:5230   */\n      dup7\n        /* \"#utility.yul\":5217:5239   */\n      add\n        /* \"#utility.yul\":5196:5249   */\n      tag_170\n      jump\t// in\n    tag_254:\n        /* \"#utility.yul\":5186:5249   */\n      swap3\n      pop\n        /* \"#utility.yul\":5142:5259   */\n      pop\n        /* \"#utility.yul\":5326:5328   */\n      0x20\n        /* \"#utility.yul\":5315:5324   */\n      dup4\n        /* \"#utility.yul\":5311:5329   */\n      add\n        /* \"#utility.yul\":5298:5330   */\n      calldataload\n        /* \"#utility.yul\":5357:5375   */\n      0xffffffffffffffff\n        /* \"#utility.yul\":5349:5355   */\n      dup2\n        /* \"#utility.yul\":5346:5376   */\n      gt\n        /* \"#utility.yul\":5343:5460   */\n      iszero\n      tag_255\n      jumpi\n        /* \"#utility.yul\":5379:5458   */\n      tag_256\n      tag_164\n      jump\t// in\n    tag_256:\n        /* \"#utility.yul\":5343:5460   */\n    tag_255:\n        /* \"#utility.yul\":5484:5547   */\n      tag_257\n        /* \"#utility.yul\":5539:5546   */\n      dup6\n        /* \"#utility.yul\":5530:5536   */\n      dup3\n        /* \"#utility.yul\":5519:5528   */\n      dup7\n        /* \"#utility.yul\":5515:5537   */\n      add\n        /* \"#utility.yul\":5484:5547   */\n      tag_180\n      jump\t// in\n    tag_257:\n        /* \"#utility.yul\":5474:5547   */\n      swap2\n      pop\n        /* \"#utility.yul\":5269:5557   */\n      pop\n        /* \"#utility.yul\":4910:5564   */\n      swap3\n      pop\n      swap3\n      swap1\n      pop\n      jump\t// out\n        /* \"#utility.yul\":5570:5902   */\n    tag_41:\n        /* \"#utility.yul\":5691:5695   */\n      0x00\n        /* \"#utility.yul\":5729:5731   */\n      0x40\n        /* \"#utility.yul\":5718:5727   */\n      dup3\n        /* \"#utility.yul\":5714:5732   */\n      add\n        /* \"#utility.yul\":5706:5732   */\n      swap1\n      pop\n        /* \"#utility.yul\":5742:5813   */\n      tag_259\n        /* \"#utility.yul\":5810:5811   */\n      0x00\n        /* \"#utility.yul\":5799:5808   */\n      dup4\n        /* \"#utility.yul\":5795:5812   */\n      add\n        /* \"#utility.yul\":5786:5792   */\n      dup6\n        /* \"#utility.yul\":5742:5813   */\n      tag_161\n      jump\t// in\n    tag_259:\n        /* \"#utility.yul\":5823:5895   */\n      tag_260\n        /* \"#utility.yul\":5891:5893   */\n      0x20\n        /* \"#utility.yul\":5880:5889   */\n      dup4\n        /* \"#utility.yul\":5876:5894   */\n      add\n        /* \"#utility.yul\":5867:5873   */\n      dup5\n        /* \"#utility.yul\":5823:5895   */\n      tag_161\n      jump\t// in\n    tag_260:\n        /* \"#utility.yul\":5570:5902   */\n      swap4\n      swap3\n      pop\n      pop\n      pop\n      jump\t// out\n        /* \"#utility.yul\":5908:6237   */\n    tag_44:\n        /* \"#utility.yul\":5967:5973   */\n      0x00\n        /* \"#utility.yul\":6016:6018   */\n      0x20\n        /* \"#utility.yul\":6004:6013   */\n      dup3\n        /* \"#utility.yul\":5995:6002   */\n      dup5\n        /* \"#utility.yul\":5991:6014   */\n      sub\n        /* \"#utility.yul\":5987:6019   */\n      slt\n        /* \"#utility.yul\":5984:6103   */\n      iszero\n      tag_262\n      jumpi\n        /* \"#utility.yul\":6022:6101   */\n      tag_263\n      tag_163\n      jump\t// in\n    tag_263:\n        /* \"#utility.yul\":5984:6103   */\n    tag_262:\n        /* \"#utility.yul\":6142:6143   */\n      0x00\n        /* \"#utility.yul\":6167:6220   */\n      tag_264\n        /* \"#utility.yul\":6212:6219   */\n      dup5\n        /* \"#utility.yul\":6203:6209   */\n      dup3\n        /* \"#utility.yul\":6192:6201   */\n      dup6\n        /* \"#utility.yul\":6188:6210   */\n      add\n        /* \"#utility.yul\":6167:6220   */\n      tag_170\n      jump\t// in\n    tag_264:\n        /* \"#utility.yul\":6157:6220   */\n      swap2\n      pop\n        /* \"#utility.yul\":6113:6230   */\n      pop\n        /* \"#utility.yul\":5908:6237   */\n      swap3\n      swap2\n      pop\n      pop\n      jump\t// out\n        /* \"#utility.yul\":6243:6685   */\n    tag_47:\n        /* \"#utility.yul\":6392:6396   */\n      0x00\n        /* \"#utility.yul\":6430:6432   */\n      0x60\n        /* \"#utility.yul\":6419:6428   */\n      dup3\n        /* \"#utility.yul\":6415:6433   */\n      add\n        /* \"#utility.yul\":6407:6433   */\n      swap1\n      pop\n        /* \"#utility.yul\":6443:6514   */\n      tag_266\n        /* \"#utility.yul\":6511:6512   */\n      0x00\n        /* \"#utility.yul\":6500:6509   */\n      dup4\n        /* \"#utility.yul\":6496:6513   */\n      add\n        /* \"#utility.yul\":6487:6493   */\n      dup7\n        /* \"#utility.yul\":6443:6514   */\n      tag_161\n      jump\t// in\n    tag_266:\n        /* \"#utility.yul\":6524:6596   */\n      tag_267\n        /* \"#utility.yul\":6592:6594   */\n      0x20\n        /* \"#utility.yul\":6581:6590   */\n      dup4\n        /* \"#utility.yul\":6577:6595   */\n      add\n        /* \"#utility.yul\":6568:6574   */\n      dup6\n        /* \"#utility.yul\":6524:6596   */\n      tag_161\n      jump\t// in\n    tag_267:\n        /* \"#utility.yul\":6606:6678   */\n      tag_268\n        /* \"#utility.yul\":6674:6676   */\n      0x40\n        /* \"#utility.yul\":6663:6672   */\n      dup4\n        /* \"#utility.yul\":6659:6677   */\n      add\n        /* \"#utility.yul\":6650:6656   */\n      dup5\n        /* \"#utility.yul\":6606:6678   */\n      tag_161\n      jump\t// in\n    tag_268:\n        /* \"#utility.yul\":6243:6685   */\n      swap5\n      swap4\n      pop\n      pop\n      pop\n      pop\n      jump\t// out\n        /* \"#utility.yul\":6691:6809   */\n    tag_181:\n        /* \"#utility.yul\":6778:6802   */\n      tag_270\n        /* \"#utility.yul\":6796:6801   */\n      dup2\n        /* \"#utility.yul\":6778:6802   */\n      tag_168\n      jump\t// in\n    tag_270:\n        /* \"#utility.yul\":6773:6776   */\n      dup3\n        /* \"#utility.yul\":6766:6803   */\n      mstore\n        /* \"#utility.yul\":6691:6809   */\n      pop\n      pop\n      jump\t// out\n        /* \"#utility.yul\":6815:7037   */\n    tag_51:\n        /* \"#utility.yul\":6908:6912   */\n      0x00\n        /* \"#utility.yul\":6946:6948   */\n      0x20\n        /* \"#utility.yul\":6935:6944   */\n      dup3\n        /* \"#utility.yul\":6931:6949   */\n      add\n        /* \"#utility.yul\":6923:6949   */\n      swap1\n      pop\n        /* \"#utility.yul\":6959:7030   */\n      tag_272\n        /* \"#utility.yul\":7027:7028   */\n      0x00\n        /* \"#utility.yul\":7016:7025   */\n      dup4\n        /* \"#utility.yul\":7012:7029   */\n      add\n        /* \"#utility.yul\":7003:7009   */\n      dup5\n        /* \"#utility.yul\":6959:7030   */\n      tag_181\n      jump\t// in\n    tag_272:\n        /* \"#utility.yul\":6815:7037   */\n      swap3\n      swap2\n      pop\n      pop\n      jump\t// out\n        /* \"#utility.yul\":7043:7808   */\n    tag_57:\n        /* \"#utility.yul\":7129:7135   */\n      0x00\n        /* \"#utility.yul\":7137:7143   */\n      dup1\n        /* \"#utility.yul\":7145:7151   */\n      0x00\n        /* \"#utility.yul\":7153:7159   */\n      dup1\n        /* \"#utility.yul\":7202:7205   */\n      0x80\n        /* \"#utility.yul\":7190:7199   */\n      dup6\n        /* \"#utility.yul\":7181:7188   */\n      dup8\n        /* \"#utility.yul\":7177:7200   */\n      sub\n        /* \"#utility.yul\":7173:7206   */\n      slt\n        /* \"#utility.yul\":7170:7290   */\n      iszero\n      tag_274\n      jumpi\n        /* \"#utility.yul\":7209:7288   */\n      tag_275\n      tag_163\n      jump\t// in\n    tag_275:\n        /* \"#utility.yul\":7170:7290   */\n    tag_274:\n        /* \"#utility.yul\":7329:7330   */\n      0x00\n        /* \"#utility.yul\":7354:7407   */\n      tag_276\n        /* \"#utility.yul\":7399:7406   */\n      dup8\n        /* \"#utility.yul\":7390:7396   */\n      dup3\n        /* \"#utility.yul\":7379:7388   */\n      dup9\n        /* \"#utility.yul\":7375:7397   */\n      add\n        /* \"#utility.yul\":7354:7407   */\n      tag_170\n      jump\t// in\n    tag_276:\n        /* \"#utility.yul\":7344:7407   */\n      swap5\n      pop\n        /* \"#utility.yul\":7300:7417   */\n      pop\n        /* \"#utility.yul\":7456:7458   */\n      0x20\n        /* \"#utility.yul\":7482:7535   */\n      tag_277\n        /* \"#utility.yul\":7527:7534   */\n      dup8\n        /* \"#utility.yul\":7518:7524   */\n      dup3\n        /* \"#utility.yul\":7507:7516   */\n      dup9\n        /* \"#utility.yul\":7503:7525   */\n      add\n        /* \"#utility.yul\":7482:7535   */\n      tag_166\n      jump\t// in\n    tag_277:\n        /* \"#utility.yul\":7472:7535   */\n      swap4\n      pop\n        /* \"#utility.yul\":7427:7545   */\n      pop\n        /* \"#utility.yul\":7584:7586   */\n      0x40\n        /* \"#utility.yul\":7610:7663   */\n      tag_278\n        /* \"#utility.yul\":7655:7662   */\n      dup8\n        /* \"#utility.yul\":7646:7652   */\n      dup3\n        /* \"#utility.yul\":7635:7644   */\n      dup9\n        /* \"#utility.yul\":7631:7653   */\n      add\n        /* \"#utility.yul\":7610:7663   */\n      tag_166\n      jump\t// in\n    tag_278:\n        /* \"#utility.yul\":7600:7663   */\n      swap3\n      pop\n        /* \"#utility.yul\":7555:7673   */\n      pop\n        /* \"#utility.yul\":7712:7714   */\n      0x60\n        /* \"#utility.yul\":7738:7791   */\n      tag_279\n        /* \"#utility.yul\":7783:7790   */\n      dup8\n        /* \"#utility.yul\":7774:7780   */\n      dup3\n        /* \"#utility.yul\":7763:7772   */\n      dup9\n        /* \"#utility.yul\":7759:7781   */\n      add\n        /* \"#utility.yul\":7738:7791   */\n      tag_166\n      jump\t// in\n    tag_279:\n        /* \"#utility.yul\":7728:7791   */\n      swap2\n      pop\n        /* \"#utility.yul\":7683:7801   */\n      pop\n        /* \"#utility.yul\":7043:7808   */\n      swap3\n      swap6\n      swap2\n      swap5\n      pop\n      swap3\n      pop\n      jump\t// out\n        /* \"#utility.yul\":7814:7983   */\n    tag_182:\n        /* \"#utility.yul\":7898:7909   */\n      0x00\n        /* \"#utility.yul\":7932:7938   */\n      dup3\n        /* \"#utility.yul\":7927:7930   */\n      dup3\n        /* \"#utility.yul\":7920:7939   */\n      mstore\n        /* \"#utility.yul\":7972:7976   */\n      0x20\n        /* \"#utility.yul\":7967:7970   */\n      dup3\n        /* \"#utility.yul\":7963:7977   */\n      add\n        /* \"#utility.yul\":7948:7977   */\n      swap1\n      pop\n        /* \"#utility.yul\":7814:7983   */\n      swap3\n      swap2\n      pop\n      pop\n      jump\t// out\n        /* \"#utility.yul\":7989:8160   */\n    tag_183:\n        /* \"#utility.yul\":8129:8152   */\n      0x4c6f616e206973207374696c6c206865616c7468790000000000000000000000\n        /* \"#utility.yul\":8125:8126   */\n      0x00\n        /* \"#utility.yul\":8117:8123   */\n      dup3\n        /* \"#utility.yul\":8113:8127   */\n      add\n        /* \"#utility.yul\":8106:8153   */\n      mstore\n        /* \"#utility.yul\":7989:8160   */\n      pop\n      jump\t// out\n        /* \"#utility.yul\":8166:8532   */\n    tag_184:\n        /* \"#utility.yul\":8308:8311   */\n      0x00\n        /* \"#utility.yul\":8329:8396   */\n      tag_283\n        /* \"#utility.yul\":8393:8395   */\n      0x15\n        /* \"#utility.yul\":8388:8391   */\n      dup4\n        /* \"#utility.yul\":8329:8396   */\n      tag_182\n      jump\t// in\n    tag_283:\n        /* \"#utility.yul\":8322:8396   */\n      swap2\n      pop\n        /* \"#utility.yul\":8405:8498   */\n      tag_284\n        /* \"#utility.yul\":8494:8497   */\n      dup3\n        /* \"#utility.yul\":8405:8498   */\n      tag_183\n      jump\t// in\n    tag_284:\n        /* \"#utility.yul\":8523:8525   */\n      0x20\n        /* \"#utility.yul\":8518:8521   */\n      dup3\n        /* \"#utility.yul\":8514:8526   */\n      add\n        /* \"#utility.yul\":8507:8526   */\n      swap1\n      pop\n        /* \"#utility.yul\":8166:8532   */\n      swap2\n      swap1\n      pop\n      jump\t// out\n        /* \"#utility.yul\":8538:8957   */\n    tag_74:\n        /* \"#utility.yul\":8704:8708   */\n      0x00\n        /* \"#utility.yul\":8742:8744   */\n      0x20\n        /* \"#utility.yul\":8731:8740   */\n      dup3\n        /* \"#utility.yul\":8727:8745   */\n      add\n        /* \"#utility.yul\":8719:8745   */\n      swap1\n      pop\n        /* \"#utility.yul\":8791:8800   */\n      dup2\n        /* \"#utility.yul\":8785:8789   */\n      dup2\n        /* \"#utility.yul\":8781:8801   */\n      sub\n        /* \"#utility.yul\":8777:8778   */\n      0x00\n        /* \"#utility.yul\":8766:8775   */\n      dup4\n        /* \"#utility.yul\":8762:8779   */\n      add\n        /* \"#utility.yul\":8755:8802   */\n      mstore\n        /* \"#utility.yul\":8819:8950   */\n      tag_286\n        /* \"#utility.yul\":8945:8949   */\n      dup2\n        /* \"#utility.yul\":8819:8950   */\n      tag_184\n      jump\t// in\n    tag_286:\n        /* \"#utility.yul\":8811:8950   */\n      swap1\n      pop\n        /* \"#utility.yul\":8538:8957   */\n      swap2\n      swap1\n      pop\n      jump\t// out\n        /* \"#utility.yul\":8963:9143   */\n    tag_185:\n        /* \"#utility.yul\":9011:9088   */\n      0x4e487b7100000000000000000000000000000000000000000000000000000000\n        /* \"#utility.yul\":9008:9009   */\n      0x00\n        /* \"#utility.yul\":9001:9089   */\n      mstore\n        /* \"#utility.yul\":9108:9112   */\n      0x11\n        /* \"#utility.yul\":9105:9106   */\n      0x04\n        /* \"#utility.yul\":9098:9113   */\n      mstore\n        /* \"#utility.yul\":9132:9136   */\n      0x24\n        /* \"#utility.yul\":9129:9130   */\n      0x00\n        /* \"#utility.yul\":9122:9137   */\n      revert\n        /* \"#utility.yul\":9149:9559   */\n    tag_77:\n        /* \"#utility.yul\":9189:9196   */\n      0x00\n        /* \"#utility.yul\":9212:9232   */\n      tag_289\n        /* \"#utility.yul\":9230:9231   */\n      dup3\n        /* \"#utility.yul\":9212:9232   */\n      tag_160\n      jump\t// in\n    tag_289:\n        /* \"#utility.yul\":9207:9232   */\n      swap2\n      pop\n        /* \"#utility.yul\":9246:9266   */\n      tag_290\n        /* \"#utility.yul\":9264:9265   */\n      dup4\n        /* \"#utility.yul\":9246:9266   */\n      tag_160\n      jump\t// in\n    tag_290:\n        /* \"#utility.yul\":9241:9266   */\n      swap3\n      pop\n        /* \"#utility.yul\":9301:9302   */\n      dup3\n        /* \"#utility.yul\":9298:9299   */\n      dup3\n        /* \"#utility.yul\":9294:9303   */\n      mul\n        /* \"#utility.yul\":9323:9353   */\n      tag_291\n        /* \"#utility.yul\":9341:9352   */\n      dup2\n        /* \"#utility.yul\":9323:9353   */\n      tag_160\n      jump\t// in\n    tag_291:\n        /* \"#utility.yul\":9312:9353   */\n      swap2\n      pop\n        /* \"#utility.yul\":9502:9503   */\n      dup3\n        /* \"#utility.yul\":9493:9500   */\n      dup3\n        /* \"#utility.yul\":9489:9504   */\n      div\n        /* \"#utility.yul\":9486:9487   */\n      dup5\n        /* \"#utility.yul\":9483:9505   */\n      eq\n        /* \"#utility.yul\":9463:9464   */\n      dup4\n        /* \"#utility.yul\":9456:9465   */\n      iszero\n        /* \"#utility.yul\":9436:9519   */\n      or\n        /* \"#utility.yul\":9413:9552   */\n      tag_292\n      jumpi\n        /* \"#utility.yul\":9532:9550   */\n      tag_293\n      tag_185\n      jump\t// in\n    tag_293:\n        /* \"#utility.yul\":9413:9552   */\n    tag_292:\n        /* \"#utility.yul\":9197:9559   */\n      pop\n        /* \"#utility.yul\":9149:9559   */\n      swap3\n      swap2\n      pop\n      pop\n      jump\t// out\n        /* \"#utility.yul\":9565:9745   */\n    tag_186:\n        /* \"#utility.yul\":9613:9690   */\n      0x4e487b7100000000000000000000000000000000000000000000000000000000\n        /* \"#utility.yul\":9610:9611   */\n      0x00\n        /* \"#utility.yul\":9603:9691   */\n      mstore\n        /* \"#utility.yul\":9710:9714   */\n      0x12\n        /* \"#utility.yul\":9707:9708   */\n      0x04\n        /* \"#utility.yul\":9700:9715   */\n      mstore\n        /* \"#utility.yul\":9734:9738   */\n      0x24\n        /* \"#utility.yul\":9731:9732   */\n      0x00\n        /* \"#utility.yul\":9724:9739   */\n      revert\n        /* \"#utility.yul\":9751:9936   */\n    tag_79:\n        /* \"#utility.yul\":9791:9792   */\n      0x00\n        /* \"#utility.yul\":9808:9828   */\n      tag_296\n        /* \"#utility.yul\":9826:9827   */\n      dup3\n        /* \"#utility.yul\":9808:9828   */\n      tag_160\n      jump\t// in\n    tag_296:\n        /* \"#utility.yul\":9803:9828   */\n      swap2\n      pop\n        /* \"#utility.yul\":9842:9862   */\n      tag_297\n        /* \"#utility.yul\":9860:9861   */\n      dup4\n        /* \"#utility.yul\":9842:9862   */\n      tag_160\n      jump\t// in\n    tag_297:\n        /* \"#utility.yul\":9837:9862   */\n      swap3\n      pop\n        /* \"#utility.yul\":9881:9882   */\n      dup3\n        /* \"#utility.yul\":9871:9906   */\n      tag_298\n      jumpi\n        /* \"#utility.yul\":9886:9904   */\n      tag_299\n      tag_186\n      jump\t// in\n    tag_299:\n        /* \"#utility.yul\":9871:9906   */\n    tag_298:\n        /* \"#utility.yul\":9928:9929   */\n      dup3\n        /* \"#utility.yul\":9925:9926   */\n      dup3\n        /* \"#utility.yul\":9921:9930   */\n      div\n        /* \"#utility.yul\":9916:9930   */\n      swap1\n      pop\n        /* \"#utility.yul\":9751:9936   */\n      swap3\n      swap2\n      pop\n      pop\n      jump\t// out\n        /* \"#utility.yul\":9942:10133   */\n    tag_86:\n        /* \"#utility.yul\":9982:9985   */\n      0x00\n        /* \"#utility.yul\":10001:10021   */\n      tag_301\n        /* \"#utility.yul\":10019:10020   */\n      dup3\n        /* \"#utility.yul\":10001:10021   */\n      tag_160\n      jump\t// in\n    tag_301:\n        /* \"#utility.yul\":9996:10021   */\n      swap2\n      pop\n        /* \"#utility.yul\":10035:10055   */\n      tag_302\n        /* \"#utility.yul\":10053:10054   */\n      dup4\n        /* \"#utility.yul\":10035:10055   */\n      tag_160\n      jump\t// in\n    tag_302:\n        /* \"#utility.yul\":10030:10055   */\n      swap3\n      pop\n        /* \"#utility.yul\":10078:10079   */\n      dup3\n        /* \"#utility.yul\":10075:10076   */\n      dup3\n        /* \"#utility.yul\":10071:10080   */\n      add\n        /* \"#utility.yul\":10064:10080   */\n      swap1\n      pop\n        /* \"#utility.yul\":10099:10102   */\n      dup1\n        /* \"#utility.yul\":10096:10097   */\n      dup3\n        /* \"#utility.yul\":10093:10103   */\n      gt\n        /* \"#utility.yul\":10090:10126   */\n      iszero\n      tag_303\n      jumpi\n        /* \"#utility.yul\":10106:10124   */\n      tag_304\n      tag_185\n      jump\t// in\n    tag_304:\n        /* \"#utility.yul\":10090:10126   */\n    tag_303:\n        /* \"#utility.yul\":9942:10133   */\n      swap3\n      swap2\n      pop\n      pop\n      jump\t// out\n        /* \"#utility.yul\":10139:10333   */\n    tag_88:\n        /* \"#utility.yul\":10179:10183   */\n      0x00\n        /* \"#utility.yul\":10199:10219   */\n      tag_306\n        /* \"#utility.yul\":10217:10218   */\n      dup3\n        /* \"#utility.yul\":10199:10219   */\n      tag_160\n      jump\t// in\n    tag_306:\n        /* \"#utility.yul\":10194:10219   */\n      swap2\n      pop\n        /* \"#utility.yul\":10233:10253   */\n      tag_307\n        /* \"#utility.yul\":10251:10252   */\n      dup4\n        /* \"#utility.yul\":10233:10253   */\n      tag_160\n      jump\t// in\n    tag_307:\n        /* \"#utility.yul\":10228:10253   */\n      swap3\n      pop\n        /* \"#utility.yul\":10277:10278   */\n      dup3\n        /* \"#utility.yul\":10274:10275   */\n      dup3\n        /* \"#utility.yul\":10270:10279   */\n      sub\n        /* \"#utility.yul\":10262:10279   */\n      swap1\n      pop\n        /* \"#utility.yul\":10301:10302   */\n      dup2\n        /* \"#utility.yul\":10295:10299   */\n      dup2\n        /* \"#utility.yul\":10292:10303   */\n      gt\n        /* \"#utility.yul\":10289:10326   */\n      iszero\n      tag_308\n      jumpi\n        /* \"#utility.yul\":10306:10324   */\n      tag_309\n      tag_185\n      jump\t// in\n    tag_309:\n        /* \"#utility.yul\":10289:10326   */\n    tag_308:\n        /* \"#utility.yul\":10139:10333   */\n      swap3\n      swap2\n      pop\n      pop\n      jump\t// out\n        /* \"#utility.yul\":10339:11114   */\n    tag_104:\n        /* \"#utility.yul\":10572:10576   */\n      0x00\n        /* \"#utility.yul\":10610:10613   */\n      0xc0\n        /* \"#utility.yul\":10599:10608   */\n      dup3\n        /* \"#utility.yul\":10595:10614   */\n      add\n        /* \"#utility.yul\":10587:10614   */\n      swap1\n      pop\n        /* \"#utility.yul\":10624:10695   */\n      tag_311\n        /* \"#utility.yul\":10692:10693   */\n      0x00\n        /* \"#utility.yul\":10681:10690   */\n      dup4\n        /* \"#utility.yul\":10677:10694   */\n      add\n        /* \"#utility.yul\":10668:10674   */\n      dup10\n        /* \"#utility.yul\":10624:10695   */\n      tag_181\n      jump\t// in\n    tag_311:\n        /* \"#utility.yul\":10705:10777   */\n      tag_312\n        /* \"#utility.yul\":10773:10775   */\n      0x20\n        /* \"#utility.yul\":10762:10771   */\n      dup4\n        /* \"#utility.yul\":10758:10776   */\n      add\n        /* \"#utility.yul\":10749:10755   */\n      dup9\n        /* \"#utility.yul\":10705:10777   */\n      tag_161\n      jump\t// in\n    tag_312:\n        /* \"#utility.yul\":10787:10859   */\n      tag_313\n        /* \"#utility.yul\":10855:10857   */\n      0x40\n        /* \"#utility.yul\":10844:10853   */\n      dup4\n        /* \"#utility.yul\":10840:10858   */\n      add\n        /* \"#utility.yul\":10831:10837   */\n      dup8\n        /* \"#utility.yul\":10787:10859   */\n      tag_161\n      jump\t// in\n    tag_313:\n        /* \"#utility.yul\":10869:10941   */\n      tag_314\n        /* \"#utility.yul\":10937:10939   */\n      0x60\n        /* \"#utility.yul\":10926:10935   */\n      dup4\n        /* \"#utility.yul\":10922:10940   */\n      add\n        /* \"#utility.yul\":10913:10919   */\n      dup7\n        /* \"#utility.yul\":10869:10941   */\n      tag_161\n      jump\t// in\n    tag_314:\n        /* \"#utility.yul\":10951:11024   */\n      tag_315\n        /* \"#utility.yul\":11019:11022   */\n      0x80\n        /* \"#utility.yul\":11008:11017   */\n      dup4\n        /* \"#utility.yul\":11004:11023   */\n      add\n        /* \"#utility.yul\":10995:11001   */\n      dup6\n        /* \"#utility.yul\":10951:11024   */\n      tag_161\n      jump\t// in\n    tag_315:\n        /* \"#utility.yul\":11034:11107   */\n      tag_316\n        /* \"#utility.yul\":11102:11105   */\n      0xa0\n        /* \"#utility.yul\":11091:11100   */\n      dup4\n        /* \"#utility.yul\":11087:11106   */\n      add\n        /* \"#utility.yul\":11078:11084   */\n      dup5\n        /* \"#utility.yul\":11034:11107   */\n      tag_161\n      jump\t// in\n    tag_316:\n        /* \"#utility.yul\":10339:11114   */\n      swap8\n      swap7\n      pop\n      pop\n      pop\n      pop\n      pop\n      pop\n      pop\n      jump\t// out\n        /* \"#utility.yul\":11120:11345   */\n    tag_187:\n        /* \"#utility.yul\":11260:11294   */\n      0x496e76616c696420617373657420747970653a20557365202745544827206f72\n        /* \"#utility.yul\":11256:11257   */\n      0x00\n        /* \"#utility.yul\":11248:11254   */\n      dup3\n        /* \"#utility.yul\":11244:11258   */\n      add\n        /* \"#utility.yul\":11237:11295   */\n      mstore\n        /* \"#utility.yul\":11329:11337   */\n      0x2027415853270000000000000000000000000000000000000000000000000000\n        /* \"#utility.yul\":11324:11326   */\n      0x20\n        /* \"#utility.yul\":11316:11322   */\n      dup3\n        /* \"#utility.yul\":11312:11327   */\n      add\n        /* \"#utility.yul\":11305:11338   */\n      mstore\n        /* \"#utility.yul\":11120:11345   */\n      pop\n      jump\t// out\n        /* \"#utility.yul\":11351:11717   */\n    tag_188:\n        /* \"#utility.yul\":11493:11496   */\n      0x00\n        /* \"#utility.yul\":11514:11581   */\n      tag_319\n        /* \"#utility.yul\":11578:11580   */\n      0x26\n        /* \"#utility.yul\":11573:11576   */\n      dup4\n        /* \"#utility.yul\":11514:11581   */\n      tag_182\n      jump\t// in\n    tag_319:\n        /* \"#utility.yul\":11507:11581   */\n      swap2\n      pop\n        /* \"#utility.yul\":11590:11683   */\n      tag_320\n        /* \"#utility.yul\":11679:11682   */\n      dup3\n        /* \"#utility.yul\":11590:11683   */\n      tag_187\n      jump\t// in\n    tag_320:\n        /* \"#utility.yul\":11708:11710   */\n      0x40\n        /* \"#utility.yul\":11703:11706   */\n      dup3\n        /* \"#utility.yul\":11699:11711   */\n      add\n        /* \"#utility.yul\":11692:11711   */\n      swap1\n      pop\n        /* \"#utility.yul\":11351:11717   */\n      swap2\n      swap1\n      pop\n      jump\t// out\n        /* \"#utility.yul\":11723:12142   */\n    tag_111:\n        /* \"#utility.yul\":11889:11893   */\n      0x00\n        /* \"#utility.yul\":11927:11929   */\n      0x20\n        /* \"#utility.yul\":11916:11925   */\n      dup3\n        /* \"#utility.yul\":11912:11930   */\n      add\n        /* \"#utility.yul\":11904:11930   */\n      swap1\n      pop\n        /* \"#utility.yul\":11976:11985   */\n      dup2\n        /* \"#utility.yul\":11970:11974   */\n      dup2\n        /* \"#utility.yul\":11966:11986   */\n      sub\n        /* \"#utility.yul\":11962:11963   */\n      0x00\n        /* \"#utility.yul\":11951:11960   */\n      dup4\n        /* \"#utility.yul\":11947:11964   */\n      add\n        /* \"#utility.yul\":11940:11987   */\n      mstore\n        /* \"#utility.yul\":12004:12135   */\n      tag_322\n        /* \"#utility.yul\":12130:12134   */\n      dup2\n        /* \"#utility.yul\":12004:12135   */\n      tag_188\n      jump\t// in\n    tag_322:\n        /* \"#utility.yul\":11996:12135   */\n      swap1\n      pop\n        /* \"#utility.yul\":11723:12142   */\n      swap2\n      swap1\n      pop\n      jump\t// out\n        /* \"#utility.yul\":12148:12590   */\n    tag_115:\n        /* \"#utility.yul\":12297:12301   */\n      0x00\n        /* \"#utility.yul\":12335:12337   */\n      0x60\n        /* \"#utility.yul\":12324:12333   */\n      dup3\n        /* \"#utility.yul\":12320:12338   */\n      add\n        /* \"#utility.yul\":12312:12338   */\n      swap1\n      pop\n        /* \"#utility.yul\":12348:12419   */\n      tag_324\n        /* \"#utility.yul\":12416:12417   */\n      0x00\n        /* \"#utility.yul\":12405:12414   */\n      dup4\n        /* \"#utility.yul\":12401:12418   */\n      add\n        /* \"#utility.yul\":12392:12398   */\n      dup7\n        /* \"#utility.yul\":12348:12419   */\n      tag_181\n      jump\t// in\n    tag_324:\n        /* \"#utility.yul\":12429:12501   */\n      tag_325\n        /* \"#utility.yul\":12497:12499   */\n      0x20\n        /* \"#utility.yul\":12486:12495   */\n      dup4\n        /* \"#utility.yul\":12482:12500   */\n      add\n        /* \"#utility.yul\":12473:12479   */\n      dup6\n        /* \"#utility.yul\":12429:12501   */\n      tag_161\n      jump\t// in\n    tag_325:\n        /* \"#utility.yul\":12511:12583   */\n      tag_326\n        /* \"#utility.yul\":12579:12581   */\n      0x40\n        /* \"#utility.yul\":12568:12577   */\n      dup4\n        /* \"#utility.yul\":12564:12582   */\n      add\n        /* \"#utility.yul\":12555:12561   */\n      dup5\n        /* \"#utility.yul\":12511:12583   */\n      tag_161\n      jump\t// in\n    tag_326:\n        /* \"#utility.yul\":12148:12590   */\n      swap5\n      swap4\n      pop\n      pop\n      pop\n      pop\n      jump\t// out\n        /* \"#utility.yul\":12596:12770   */\n    tag_189:\n        /* \"#utility.yul\":12736:12762   */\n      0x4f6e6c79206f776e65722063616e20616464206c6f616e730000000000000000\n        /* \"#utility.yul\":12732:12733   */\n      0x00\n        /* \"#utility.yul\":12724:12730   */\n      dup3\n        /* \"#utility.yul\":12720:12734   */\n      add\n        /* \"#utility.yul\":12713:12763   */\n      mstore\n        /* \"#utility.yul\":12596:12770   */\n      pop\n      jump\t// out\n        /* \"#utility.yul\":12776:13142   */\n    tag_190:\n        /* \"#utility.yul\":12918:12921   */\n      0x00\n        /* \"#utility.yul\":12939:13006   */\n      tag_329\n        /* \"#utility.yul\":13003:13005   */\n      0x18\n        /* \"#utility.yul\":12998:13001   */\n      dup4\n        /* \"#utility.yul\":12939:13006   */\n      tag_182\n      jump\t// in\n    tag_329:\n        /* \"#utility.yul\":12932:13006   */\n      swap2\n      pop\n        /* \"#utility.yul\":13015:13108   */\n      tag_330\n        /* \"#utility.yul\":13104:13107   */\n      dup3\n        /* \"#utility.yul\":13015:13108   */\n      tag_189\n      jump\t// in\n    tag_330:\n        /* \"#utility.yul\":13133:13135   */\n      0x20\n        /* \"#utility.yul\":13128:13131   */\n      dup3\n        /* \"#utility.yul\":13124:13136   */\n      add\n        /* \"#utility.yul\":13117:13136   */\n      swap1\n      pop\n        /* \"#utility.yul\":12776:13142   */\n      swap2\n      swap1\n      pop\n      jump\t// out\n        /* \"#utility.yul\":13148:13567   */\n    tag_144:\n        /* \"#utility.yul\":13314:13318   */\n      0x00\n        /* \"#utility.yul\":13352:13354   */\n      0x20\n        /* \"#utility.yul\":13341:13350   */\n      dup3\n        /* \"#utility.yul\":13337:13355   */\n      add\n        /* \"#utility.yul\":13329:13355   */\n      swap1\n      pop\n        /* \"#utility.yul\":13401:13410   */\n      dup2\n        /* \"#utility.yul\":13395:13399   */\n      dup2\n        /* \"#utility.yul\":13391:13411   */\n      sub\n        /* \"#utility.yul\":13387:13388   */\n      0x00\n        /* \"#utility.yul\":13376:13385   */\n      dup4\n        /* \"#utility.yul\":13372:13389   */\n      add\n        /* \"#utility.yul\":13365:13412   */\n      mstore\n        /* \"#utility.yul\":13429:13560   */\n      tag_332\n        /* \"#utility.yul\":13555:13559   */\n      dup2\n        /* \"#utility.yul\":13429:13560   */\n      tag_190\n      jump\t// in\n    tag_332:\n        /* \"#utility.yul\":13421:13560   */\n      swap1\n      pop\n        /* \"#utility.yul\":13148:13567   */\n      swap2\n      swap1\n      pop\n      jump\t// out\n        /* \"#utility.yul\":13573:14126   */\n    tag_159:\n        /* \"#utility.yul\":13750:13754   */\n      0x00\n        /* \"#utility.yul\":13788:13791   */\n      0x80\n        /* \"#utility.yul\":13777:13786   */\n      dup3\n        /* \"#utility.yul\":13773:13792   */\n      add\n        /* \"#utility.yul\":13765:13792   */\n      swap1\n      pop\n        /* \"#utility.yul\":13802:13873   */\n      tag_334\n        /* \"#utility.yul\":13870:13871   */\n      0x00\n        /* \"#utility.yul\":13859:13868   */\n      dup4\n        /* \"#utility.yul\":13855:13872   */\n      add\n        /* \"#utility.yul\":13846:13852   */\n      dup8\n        /* \"#utility.yul\":13802:13873   */\n      tag_181\n      jump\t// in\n    tag_334:\n        /* \"#utility.yul\":13883:13955   */\n      tag_335\n        /* \"#utility.yul\":13951:13953   */\n      0x20\n        /* \"#utility.yul\":13940:13949   */\n      dup4\n        /* \"#utility.yul\":13936:13954   */\n      add\n        /* \"#utility.yul\":13927:13933   */\n      dup7\n        /* \"#utility.yul\":13883:13955   */\n      tag_161\n      jump\t// in\n    tag_335:\n        /* \"#utility.yul\":13965:14037   */\n      tag_336\n        /* \"#utility.yul\":14033:14035   */\n      0x40\n        /* \"#utility.yul\":14022:14031   */\n      dup4\n        /* \"#utility.yul\":14018:14036   */\n      add\n        /* \"#utility.yul\":14009:14015   */\n      dup6\n        /* \"#utility.yul\":13965:14037   */\n      tag_161\n      jump\t// in\n    tag_336:\n        /* \"#utility.yul\":14047:14119   */\n      tag_337\n        /* \"#utility.yul\":14115:14117   */\n      0x60\n        /* \"#utility.yul\":14104:14113   */\n      dup4\n        /* \"#utility.yul\":14100:14118   */\n      add\n        /* \"#utility.yul\":14091:14097   */\n      dup5\n        /* \"#utility.yul\":14047:14119   */\n      tag_161\n      jump\t// in\n    tag_337:\n        /* \"#utility.yul\":13573:14126   */\n      swap6\n      swap5\n      pop\n      pop\n      pop\n      pop\n      pop\n      jump\t// out\n\n    auxdata: 0xa26469706673582212209690438e87ce645928be5ecff4c04bc2c431639dc066863354e1af715f26a9aa64736f6c634300081a0033\n}\n",
				"bytecode": {
					"linkReferences": {},
					"object": "6080604052605a600255605060035560466004556105dc60055560646006553480156028575f80fd5b50335f806101000a81548173ffffffffffffffffffffffffffffffffffffffff021916908373ffffffffffffffffffffffffffffffffffffffff160217905550611351806100755f395ff3fe608060405234801561000f575f80fd5b50600436106100cd575f3560e01c806373b4086b1161008a578063ad24a33611610064578063ad24a33614610202578063c56e40971461021e578063f894ea861461023c578063fe6bcd7c14610258576100cd565b806373b4086b146101945780638da5cb5b146101c65780639b923cc9146101e4576100cd565b806304632a66146100d157806311c9c304146100ef5780631f71462e1461010d5780632e2951cd146101295780634bfa16e91461014557806355de75a914610163575b5f80fd5b6100d9610288565b6040516100e69190610bb7565b60405180910390f35b6100f761028e565b6040516101049190610bb7565b60405180910390f35b61012760048036038101906101229190610c0b565b610294565b005b610143600480360381019061013e9190610dcc565b61029e565b005b61014d610623565b60405161015a9190610bb7565b60405180910390f35b61017d60048036038101906101789190610e38565b610629565b60405161018b929190610e92565b60405180910390f35b6101ae60048036038101906101a99190610eb9565b6108b2565b6040516101bd93929190610ee4565b60405180910390f35b6101ce6108d8565b6040516101db9190610f28565b60405180910390f35b6101ec6108fb565b6040516101f99190610bb7565b60405180910390f35b61021c60048036038101906102179190610f41565b610901565b005b610226610a0b565b6040516102339190610bb7565b60405180910390f35b61025660048036038101906102519190610c0b565b610a11565b005b610272600480360381019061026d9190610eb9565b610a1b565b60405161027f9190610bb7565b60405180910390f35b60065481565b60035481565b8060068190555050565b60646102a984610a1b565b106102e9576040517f08c379a00000000000000000000000000000000000000000000000000000000081526004016102e090610fff565b60405180910390fd5b5f60015f8573ffffffffffffffffffffffffffffffffffffffff1673ffffffffffffffffffffffffffffffffffffffff1681526020019081526020015f2090505f805f806040518060400160405280600381526020017f4554480000000000000000000000000000000000000000000000000000000000815250805190602001208780519060200120036104fe576064855f015460025461038a919061104a565b61039491906110b8565b61271060055460065488600201546103ac919061104a565b6103b6919061104a565b6103c091906110b8565b6103e860055488600101546103d5919061104a565b6103df91906110b8565b6103e991906110e8565b6103f3919061111b565b9150606486600254610405919061104a565b61040f91906110b8565b60055461041c919061111b565b9050806103e88361042d919061104a565b61043791906110b8565b93506103e88685610448919061104a565b61045291906110b8565b92507f624416f1270776df0e25d5db2d0648f7487ec8cb0d4b483e73a60f977dbd16b7886064600554886001015461048a919061104a565b61049491906110b8565b6127106005546006548a600201546104ac919061104a565b6104b6919061104a565b6104c091906110b8565b6064895f01546002546104d3919061104a565b6104dd91906110b8565b86866040516104f19695949392919061114e565b60405180910390a16105ab565b6040518060400160405280600381526020017f414c4c00000000000000000000000000000000000000000000000000000000008152508051906020012087805190602001200361056f57846001015493506103e8868561055e919061104a565b61056891906110b8565b92506105aa565b6040517f08c379a00000000000000000000000000000000000000000000000000000000081526004016105a19061121d565b60405180910390fd5b5b82855f015f8282546105bd919061111b565b9250508190555083856001015f8282546105d7919061111b565b925050819055507f09c223cfcd8c93e245f558f5f8de755fc0930fd9bc257441155ef5d54a170e0f8884866040516106119392919061123b565b60405180910390a15050505050505050565b60045481565b5f805f60015f8673ffffffffffffffffffffffffffffffffffffffff1673ffffffffffffffffffffffffffffffffffffffff1681526020019081526020015f206040518060600160405290815f82015481526020016001820154815260200160028201548152505090505f815f015190505f826020015190505f836040015190505f620f4240600554600654846106c0919061104a565b6106ca919061104a565b6106d491906110b8565b600554846106e2919061104a565b6106ec91906110e8565b90505f6064600254866106ff919061104a565b61070991906110b8565b9050808211610723575f80975097505050505050506108ab565b5f8183610730919061111b565b90506040518060400160405280600381526020017f4554480000000000000000000000000000000000000000000000000000000000815250805190602001208a80519060200120036107bd57600554620f42408261078e919061104a565b61079891906110b8565b9750620f4240600554896107ac919061104a565b6107b691906110b8565b98506108a3565b6040518060400160405280600381526020017f4158530000000000000000000000000000000000000000000000000000000000815250805190602001208a8051906020012003610867575f600554600654610818919061104a565b620f424083610827919061104a565b61083191906110b8565b9050809850620f42406005546006548b61084b919061104a565b610855919061104a565b61085f91906110b8565b9950506108a2565b6040517f08c379a00000000000000000000000000000000000000000000000000000000081526004016108999061121d565b60405180910390fd5b5b505050505050505b9250929050565b6001602052805f5260405f205f91509050805f0154908060010154908060020154905083565b5f8054906101000a900473ffffffffffffffffffffffffffffffffffffffff1681565b60055481565b5f8054906101000a900473ffffffffffffffffffffffffffffffffffffffff1673ffffffffffffffffffffffffffffffffffffffff163373ffffffffffffffffffffffffffffffffffffffff161461098e576040517f08c379a0000000000000000000000000000000000000000000000000000000008152600401610985906112ba565b60405180910390fd5b60405180606001604052808481526020018381526020018281525060015f8673ffffffffffffffffffffffffffffffffffffffff1673ffffffffffffffffffffffffffffffffffffffff1681526020019081526020015f205f820151815f0155602082015181600101556040820151816002015590505050505050565b60025481565b8060058190555050565b5f8060015f8473ffffffffffffffffffffffffffffffffffffffff1673ffffffffffffffffffffffffffffffffffffffff1681526020019081526020015f206040518060600160405290815f82015481526020016001820154815260200160028201548152505090505f6064600254835f0151610a98919061104a565b610aa291906110b8565b90505f6103e86005548460200151610aba919061104a565b610ac491906110b8565b90505f6127106005546006548660400151610adf919061104a565b610ae9919061104a565b610af391906110b8565b90505f8183610b0291906110e8565b90505f8103610b38577fffffffffffffffffffffffffffffffffffffffffffffffffffffffffffffffff95505050505050610b9a565b5f81606486610b47919061104a565b610b5191906110b8565b90507f96df9b99931636b730287949d80832331a9fd2fd69bc2bb6ce2145403af8068888868484604051610b8894939291906112d8565b60405180910390a18096505050505050505b919050565b5f819050919050565b610bb181610b9f565b82525050565b5f602082019050610bca5f830184610ba8565b92915050565b5f604051905090565b5f80fd5b5f80fd5b610bea81610b9f565b8114610bf4575f80fd5b50565b5f81359050610c0581610be1565b92915050565b5f60208284031215610c2057610c1f610bd9565b5b5f610c2d84828501610bf7565b91505092915050565b5f73ffffffffffffffffffffffffffffffffffffffff82169050919050565b5f610c5f82610c36565b9050919050565b610c6f81610c55565b8114610c79575f80fd5b50565b5f81359050610c8a81610c66565b92915050565b5f80fd5b5f80fd5b5f601f19601f8301169050919050565b7f4e487b71000000000000000000000000000000000000000000000000000000005f52604160045260245ffd5b610cde82610c98565b810181811067ffffffffffffffff82111715610cfd57610cfc610ca8565b5b80604052505050565b5f610d0f610bd0565b9050610d1b8282610cd5565b919050565b5f67ffffffffffffffff821115610d3a57610d39610ca8565b5b610d4382610c98565b9050602081019050919050565b828183375f83830152505050565b5f610d70610d6b84610d20565b610d06565b905082815260208101848484011115610d8c57610d8b610c94565b5b610d97848285610d50565b509392505050565b5f82601f830112610db357610db2610c90565b5b8135610dc3848260208601610d5e565b91505092915050565b5f805f60608486031215610de357610de2610bd9565b5b5f610df086828701610c7c565b935050602084013567ffffffffffffffff811115610e1157610e10610bdd565b5b610e1d86828701610d9f565b9250506040610e2e86828701610bf7565b9150509250925092565b5f8060408385031215610e4e57610e4d610bd9565b5b5f610e5b85828601610c7c565b925050602083013567ffffffffffffffff811115610e7c57610e7b610bdd565b5b610e8885828601610d9f565b9150509250929050565b5f604082019050610ea55f830185610ba8565b610eb26020830184610ba8565b9392505050565b5f60208284031215610ece57610ecd610bd9565b5b5f610edb84828501610c7c565b91505092915050565b5f606082019050610ef75f830186610ba8565b610f046020830185610ba8565b610f116040830184610ba8565b949350505050565b610f2281610c55565b82525050565b5f602082019050610f3b5f830184610f19565b92915050565b5f805f8060808587031215610f5957610f58610bd9565b5b5f610f6687828801610c7c565b9450506020610f7787828801610bf7565b9350506040610f8887828801610bf7565b9250506060610f9987828801610bf7565b91505092959194509250565b5f82825260208201905092915050565b7f4c6f616e206973207374696c6c206865616c74687900000000000000000000005f82015250565b5f610fe9601583610fa5565b9150610ff482610fb5565b602082019050919050565b5f6020820190508181035f83015261101681610fdd565b9050919050565b7f4e487b71000000000000000000000000000000000000000000000000000000005f52601160045260245ffd5b5f61105482610b9f565b915061105f83610b9f565b925082820261106d81610b9f565b915082820484148315176110845761108361101d565b5b5092915050565b7f4e487b71000000000000000000000000000000000000000000000000000000005f52601260045260245ffd5b5f6110c282610b9f565b91506110cd83610b9f565b9250826110dd576110dc61108b565b5b828204905092915050565b5f6110f282610b9f565b91506110fd83610b9f565b92508282019050808211156111155761111461101d565b5b92915050565b5f61112582610b9f565b915061113083610b9f565b92508282039050818111156111485761114761101d565b5b92915050565b5f60c0820190506111615f830189610f19565b61116e6020830188610ba8565b61117b6040830187610ba8565b6111886060830186610ba8565b6111956080830185610ba8565b6111a260a0830184610ba8565b979650505050505050565b7f496e76616c696420617373657420747970653a20557365202745544827206f725f8201527f2027415853270000000000000000000000000000000000000000000000000000602082015250565b5f611207602683610fa5565b9150611212826111ad565b604082019050919050565b5f6020820190508181035f830152611234816111fb565b9050919050565b5f60608201905061124e5f830186610f19565b61125b6020830185610ba8565b6112686040830184610ba8565b949350505050565b7f4f6e6c79206f776e65722063616e20616464206c6f616e7300000000000000005f82015250565b5f6112a4601883610fa5565b91506112af82611270565b602082019050919050565b5f6020820190508181035f8301526112d181611298565b9050919050565b5f6080820190506112eb5f830187610f19565b6112f86020830186610ba8565b6113056040830185610ba8565b6113126060830184610ba8565b9594505050505056fea26469706673582212209690438e87ce645928be5ecff4c04bc2c431639dc066863354e1af715f26a9aa64736f6c634300081a0033",
					"opcodes": "PUSH1 0x80 PUSH1 0x40 MSTORE PUSH1 0x5A PUSH1 0x2 SSTORE PUSH1 0x50 PUSH1 0x3 SSTORE PUSH1 0x46 PUSH1 0x4 SSTORE PUSH2 0x5DC PUSH1 0x5 SSTORE PUSH1 0x64 PUSH1 0x6 SSTORE CALLVALUE DUP1 ISZERO PUSH1 0x28 JUMPI PUSH0 DUP1 REVERT JUMPDEST POP CALLER PUSH0 DUP1 PUSH2 0x100 EXP DUP2 SLOAD DUP2 PUSH20 0xFFFFFFFFFFFFFFFFFFFFFFFFFFFFFFFFFFFFFFFF MUL NOT AND SWAP1 DUP4 PUSH20 0xFFFFFFFFFFFFFFFFFFFFFFFFFFFFFFFFFFFFFFFF AND MUL OR SWAP1 SSTORE POP PUSH2 0x1351 DUP1 PUSH2 0x75 PUSH0 CODECOPY PUSH0 RETURN INVALID PUSH1 0x80 PUSH1 0x40 MSTORE CALLVALUE DUP1 ISZERO PUSH2 0xF JUMPI PUSH0 DUP1 REVERT JUMPDEST POP PUSH1 0x4 CALLDATASIZE LT PUSH2 0xCD JUMPI PUSH0 CALLDATALOAD PUSH1 0xE0 SHR DUP1 PUSH4 0x73B4086B GT PUSH2 0x8A JUMPI DUP1 PUSH4 0xAD24A336 GT PUSH2 0x64 JUMPI DUP1 PUSH4 0xAD24A336 EQ PUSH2 0x202 JUMPI DUP1 PUSH4 0xC56E4097 EQ PUSH2 0x21E JUMPI DUP1 PUSH4 0xF894EA86 EQ PUSH2 0x23C JUMPI DUP1 PUSH4 0xFE6BCD7C EQ PUSH2 0x258 JUMPI PUSH2 0xCD JUMP JUMPDEST DUP1 PUSH4 0x73B4086B EQ PUSH2 0x194 JUMPI DUP1 PUSH4 0x8DA5CB5B EQ PUSH2 0x1C6 JUMPI DUP1 PUSH4 0x9B923CC9 EQ PUSH2 0x1E4 JUMPI PUSH2 0xCD JUMP JUMPDEST DUP1 PUSH4 0x4632A66 EQ PUSH2 0xD1 JUMPI DUP1 PUSH4 0x11C9C304 EQ PUSH2 0xEF JUMPI DUP1 PUSH4 0x1F71462E EQ PUSH2 0x10D JUMPI DUP1 PUSH4 0x2E2951CD EQ PUSH2 0x129 JUMPI DUP1 PUSH4 0x4BFA16E9 EQ PUSH2 0x145 JUMPI DUP1 PUSH4 0x55DE75A9 EQ PUSH2 0x163 JUMPI JUMPDEST PUSH0 DUP1 REVERT JUMPDEST PUSH2 0xD9 PUSH2 0x288 JUMP JUMPDEST PUSH1 0x40 MLOAD PUSH2 0xE6 SWAP2 SWAP1 PUSH2 0xBB7 JUMP JUMPDEST PUSH1 0x40 MLOAD DUP1 SWAP2 SUB SWAP1 RETURN JUMPDEST PUSH2 0xF7 PUSH2 0x28E JUMP JUMPDEST PUSH1 0x40 MLOAD PUSH2 0x104 SWAP2 SWAP1 PUSH2 0xBB7 JUMP JUMPDEST PUSH1 0x40 MLOAD DUP1 SWAP2 SUB SWAP1 RETURN JUMPDEST PUSH2 0x127 PUSH1 0x4 DUP1 CALLDATASIZE SUB DUP2 ADD SWAP1 PUSH2 0x122 SWAP2 SWAP1 PUSH2 0xC0B JUMP JUMPDEST PUSH2 0x294 JUMP JUMPDEST STOP JUMPDEST PUSH2 0x143 PUSH1 0x4 DUP1 CALLDATASIZE SUB DUP2 ADD SWAP1 PUSH2 0x13E SWAP2 SWAP1 PUSH2 0xDCC JUMP JUMPDEST PUSH2 0x29E JUMP JUMPDEST STOP JUMPDEST PUSH2 0x14D PUSH2 0x623 JUMP JUMPDEST PUSH1 0x40 MLOAD PUSH2 0x15A SWAP2 SWAP1 PUSH2 0xBB7 JUMP JUMPDEST PUSH1 0x40 MLOAD DUP1 SWAP2 SUB SWAP1 RETURN JUMPDEST PUSH2 0x17D PUSH1 0x4 DUP1 CALLDATASIZE SUB DUP2 ADD SWAP1 PUSH2 0x178 SWAP2 SWAP1 PUSH2 0xE38 JUMP JUMPDEST PUSH2 0x629 JUMP JUMPDEST PUSH1 0x40 MLOAD PUSH2 0x18B SWAP3 SWAP2 SWAP1 PUSH2 0xE92 JUMP JUMPDEST PUSH1 0x40 MLOAD DUP1 SWAP2 SUB SWAP1 RETURN JUMPDEST PUSH2 0x1AE PUSH1 0x4 DUP1 CALLDATASIZE SUB DUP2 ADD SWAP1 PUSH2 0x1A9 SWAP2 SWAP1 PUSH2 0xEB9 JUMP JUMPDEST PUSH2 0x8B2 JUMP JUMPDEST PUSH1 0x40 MLOAD PUSH2 0x1BD SWAP4 SWAP3 SWAP2 SWAP1 PUSH2 0xEE4 JUMP JUMPDEST PUSH1 0x40 MLOAD DUP1 SWAP2 SUB SWAP1 RETURN JUMPDEST PUSH2 0x1CE PUSH2 0x8D8 JUMP JUMPDEST PUSH1 0x40 MLOAD PUSH2 0x1DB SWAP2 SWAP1 PUSH2 0xF28 JUMP JUMPDEST PUSH1 0x40 MLOAD DUP1 SWAP2 SUB SWAP1 RETURN JUMPDEST PUSH2 0x1EC PUSH2 0x8FB JUMP JUMPDEST PUSH1 0x40 MLOAD PUSH2 0x1F9 SWAP2 SWAP1 PUSH2 0xBB7 JUMP JUMPDEST PUSH1 0x40 MLOAD DUP1 SWAP2 SUB SWAP1 RETURN JUMPDEST PUSH2 0x21C PUSH1 0x4 DUP1 CALLDATASIZE SUB DUP2 ADD SWAP1 PUSH2 0x217 SWAP2 SWAP1 PUSH2 0xF41 JUMP JUMPDEST PUSH2 0x901 JUMP JUMPDEST STOP JUMPDEST PUSH2 0x226 PUSH2 0xA0B JUMP JUMPDEST PUSH1 0x40 MLOAD PUSH2 0x233 SWAP2 SWAP1 PUSH2 0xBB7 JUMP JUMPDEST PUSH1 0x40 MLOAD DUP1 SWAP2 SUB SWAP1 RETURN JUMPDEST PUSH2 0x256 PUSH1 0x4 DUP1 CALLDATASIZE SUB DUP2 ADD SWAP1 PUSH2 0x251 SWAP2 SWAP1 PUSH2 0xC0B JUMP JUMPDEST PUSH2 0xA11 JUMP JUMPDEST STOP JUMPDEST PUSH2 0x272 PUSH1 0x4 DUP1 CALLDATASIZE SUB DUP2 ADD SWAP1 PUSH2 0x26D SWAP2 SWAP1 PUSH2 0xEB9 JUMP JUMPDEST PUSH2 0xA1B JUMP JUMPDEST PUSH1 0x40 MLOAD PUSH2 0x27F SWAP2 SWAP1 PUSH2 0xBB7 JUMP JUMPDEST PUSH1 0x40 MLOAD DUP1 SWAP2 SUB SWAP1 RETURN JUMPDEST PUSH1 0x6 SLOAD DUP2 JUMP JUMPDEST PUSH1 0x3 SLOAD DUP2 JUMP JUMPDEST DUP1 PUSH1 0x6 DUP2 SWAP1 SSTORE POP POP JUMP JUMPDEST PUSH1 0x64 PUSH2 0x2A9 DUP5 PUSH2 0xA1B JUMP JUMPDEST LT PUSH2 0x2E9 JUMPI PUSH1 0x40 MLOAD PUSH32 0x8C379A000000000000000000000000000000000000000000000000000000000 DUP2 MSTORE PUSH1 0x4 ADD PUSH2 0x2E0 SWAP1 PUSH2 0xFFF JUMP JUMPDEST PUSH1 0x40 MLOAD DUP1 SWAP2 SUB SWAP1 REVERT JUMPDEST PUSH0 PUSH1 0x1 PUSH0 DUP6 PUSH20 0xFFFFFFFFFFFFFFFFFFFFFFFFFFFFFFFFFFFFFFFF AND PUSH20 0xFFFFFFFFFFFFFFFFFFFFFFFFFFFFFFFFFFFFFFFF AND DUP2 MSTORE PUSH1 0x20 ADD SWAP1 DUP2 MSTORE PUSH1 0x20 ADD PUSH0 KECCAK256 SWAP1 POP PUSH0 DUP1 PUSH0 DUP1 PUSH1 0x40 MLOAD DUP1 PUSH1 0x40 ADD PUSH1 0x40 MSTORE DUP1 PUSH1 0x3 DUP2 MSTORE PUSH1 0x20 ADD PUSH32 0x4554480000000000000000000000000000000000000000000000000000000000 DUP2 MSTORE POP DUP1 MLOAD SWAP1 PUSH1 0x20 ADD KECCAK256 DUP8 DUP1 MLOAD SWAP1 PUSH1 0x20 ADD KECCAK256 SUB PUSH2 0x4FE JUMPI PUSH1 0x64 DUP6 PUSH0 ADD SLOAD PUSH1 0x2 SLOAD PUSH2 0x38A SWAP2 SWAP1 PUSH2 0x104A JUMP JUMPDEST PUSH2 0x394 SWAP2 SWAP1 PUSH2 0x10B8 JUMP JUMPDEST PUSH2 0x2710 PUSH1 0x5 SLOAD PUSH1 0x6 SLOAD DUP9 PUSH1 0x2 ADD SLOAD PUSH2 0x3AC SWAP2 SWAP1 PUSH2 0x104A JUMP JUMPDEST PUSH2 0x3B6 SWAP2 SWAP1 PUSH2 0x104A JUMP JUMPDEST PUSH2 0x3C0 SWAP2 SWAP1 PUSH2 0x10B8 JUMP JUMPDEST PUSH2 0x3E8 PUSH1 0x5 SLOAD DUP9 PUSH1 0x1 ADD SLOAD PUSH2 0x3D5 SWAP2 SWAP1 PUSH2 0x104A JUMP JUMPDEST PUSH2 0x3DF SWAP2 SWAP1 PUSH2 0x10B8 JUMP JUMPDEST PUSH2 0x3E9 SWAP2 SWAP1 PUSH2 0x10E8 JUMP JUMPDEST PUSH2 0x3F3 SWAP2 SWAP1 PUSH2 0x111B JUMP JUMPDEST SWAP2 POP PUSH1 0x64 DUP7 PUSH1 0x2 SLOAD PUSH2 0x405 SWAP2 SWAP1 PUSH2 0x104A JUMP JUMPDEST PUSH2 0x40F SWAP2 SWAP1 PUSH2 0x10B8 JUMP JUMPDEST PUSH1 0x5 SLOAD PUSH2 0x41C SWAP2 SWAP1 PUSH2 0x111B JUMP JUMPDEST SWAP1 POP DUP1 PUSH2 0x3E8 DUP4 PUSH2 0x42D SWAP2 SWAP1 PUSH2 0x104A JUMP JUMPDEST PUSH2 0x437 SWAP2 SWAP1 PUSH2 0x10B8 JUMP JUMPDEST SWAP4 POP PUSH2 0x3E8 DUP7 DUP6 PUSH2 0x448 SWAP2 SWAP1 PUSH2 0x104A JUMP JUMPDEST PUSH2 0x452 SWAP2 SWAP1 PUSH2 0x10B8 JUMP JUMPDEST SWAP3 POP PUSH32 0x624416F1270776DF0E25D5DB2D0648F7487EC8CB0D4B483E73A60F977DBD16B7 DUP9 PUSH1 0x64 PUSH1 0x5 SLOAD DUP9 PUSH1 0x1 ADD SLOAD PUSH2 0x48A SWAP2 SWAP1 PUSH2 0x104A JUMP JUMPDEST PUSH2 0x494 SWAP2 SWAP1 PUSH2 0x10B8 JUMP JUMPDEST PUSH2 0x2710 PUSH1 0x5 SLOAD PUSH1 0x6 SLOAD DUP11 PUSH1 0x2 ADD SLOAD PUSH2 0x4AC SWAP2 SWAP1 PUSH2 0x104A JUMP JUMPDEST PUSH2 0x4B6 SWAP2 SWAP1 PUSH2 0x104A JUMP JUMPDEST PUSH2 0x4C0 SWAP2 SWAP1 PUSH2 0x10B8 JUMP JUMPDEST PUSH1 0x64 DUP10 PUSH0 ADD SLOAD PUSH1 0x2 SLOAD PUSH2 0x4D3 SWAP2 SWAP1 PUSH2 0x104A JUMP JUMPDEST PUSH2 0x4DD SWAP2 SWAP1 PUSH2 0x10B8 JUMP JUMPDEST DUP7 DUP7 PUSH1 0x40 MLOAD PUSH2 0x4F1 SWAP7 SWAP6 SWAP5 SWAP4 SWAP3 SWAP2 SWAP1 PUSH2 0x114E JUMP JUMPDEST PUSH1 0x40 MLOAD DUP1 SWAP2 SUB SWAP1 LOG1 PUSH2 0x5AB JUMP JUMPDEST PUSH1 0x40 MLOAD DUP1 PUSH1 0x40 ADD PUSH1 0x40 MSTORE DUP1 PUSH1 0x3 DUP2 MSTORE PUSH1 0x20 ADD PUSH32 0x414C4C0000000000000000000000000000000000000000000000000000000000 DUP2 MSTORE POP DUP1 MLOAD SWAP1 PUSH1 0x20 ADD KECCAK256 DUP8 DUP1 MLOAD SWAP1 PUSH1 0x20 ADD KECCAK256 SUB PUSH2 0x56F JUMPI DUP5 PUSH1 0x1 ADD SLOAD SWAP4 POP PUSH2 0x3E8 DUP7 DUP6 PUSH2 0x55E SWAP2 SWAP1 PUSH2 0x104A JUMP JUMPDEST PUSH2 0x568 SWAP2 SWAP1 PUSH2 0x10B8 JUMP JUMPDEST SWAP3 POP PUSH2 0x5AA JUMP JUMPDEST PUSH1 0x40 MLOAD PUSH32 0x8C379A000000000000000000000000000000000000000000000000000000000 DUP2 MSTORE PUSH1 0x4 ADD PUSH2 0x5A1 SWAP1 PUSH2 0x121D JUMP JUMPDEST PUSH1 0x40 MLOAD DUP1 SWAP2 SUB SWAP1 REVERT JUMPDEST JUMPDEST DUP3 DUP6 PUSH0 ADD PUSH0 DUP3 DUP3 SLOAD PUSH2 0x5BD SWAP2 SWAP1 PUSH2 0x111B JUMP JUMPDEST SWAP3 POP POP DUP2 SWAP1 SSTORE POP DUP4 DUP6 PUSH1 0x1 ADD PUSH0 DUP3 DUP3 SLOAD PUSH2 0x5D7 SWAP2 SWAP1 PUSH2 0x111B JUMP JUMPDEST SWAP3 POP POP DUP2 SWAP1 SSTORE POP PUSH32 0x9C223CFCD8C93E245F558F5F8DE755FC0930FD9BC257441155EF5D54A170E0F DUP9 DUP5 DUP7 PUSH1 0x40 MLOAD PUSH2 0x611 SWAP4 SWAP3 SWAP2 SWAP1 PUSH2 0x123B JUMP JUMPDEST PUSH1 0x40 MLOAD DUP1 SWAP2 SUB SWAP1 LOG1 POP POP POP POP POP POP POP POP JUMP JUMPDEST PUSH1 0x4 SLOAD DUP2 JUMP JUMPDEST PUSH0 DUP1 PUSH0 PUSH1 0x1 PUSH0 DUP7 PUSH20 0xFFFFFFFFFFFFFFFFFFFFFFFFFFFFFFFFFFFFFFFF AND PUSH20 0xFFFFFFFFFFFFFFFFFFFFFFFFFFFFFFFFFFFFFFFF AND DUP2 MSTORE PUSH1 0x20 ADD SWAP1 DUP2 MSTORE PUSH1 0x20 ADD PUSH0 KECCAK256 PUSH1 0x40 MLOAD DUP1 PUSH1 0x60 ADD PUSH1 0x40 MSTORE SWAP1 DUP2 PUSH0 DUP3 ADD SLOAD DUP2 MSTORE PUSH1 0x20 ADD PUSH1 0x1 DUP3 ADD SLOAD DUP2 MSTORE PUSH1 0x20 ADD PUSH1 0x2 DUP3 ADD SLOAD DUP2 MSTORE POP POP SWAP1 POP PUSH0 DUP2 PUSH0 ADD MLOAD SWAP1 POP PUSH0 DUP3 PUSH1 0x20 ADD MLOAD SWAP1 POP PUSH0 DUP4 PUSH1 0x40 ADD MLOAD SWAP1 POP PUSH0 PUSH3 0xF4240 PUSH1 0x5 SLOAD PUSH1 0x6 SLOAD DUP5 PUSH2 0x6C0 SWAP2 SWAP1 PUSH2 0x104A JUMP JUMPDEST PUSH2 0x6CA SWAP2 SWAP1 PUSH2 0x104A JUMP JUMPDEST PUSH2 0x6D4 SWAP2 SWAP1 PUSH2 0x10B8 JUMP JUMPDEST PUSH1 0x5 SLOAD DUP5 PUSH2 0x6E2 SWAP2 SWAP1 PUSH2 0x104A JUMP JUMPDEST PUSH2 0x6EC SWAP2 SWAP1 PUSH2 0x10E8 JUMP JUMPDEST SWAP1 POP PUSH0 PUSH1 0x64 PUSH1 0x2 SLOAD DUP7 PUSH2 0x6FF SWAP2 SWAP1 PUSH2 0x104A JUMP JUMPDEST PUSH2 0x709 SWAP2 SWAP1 PUSH2 0x10B8 JUMP JUMPDEST SWAP1 POP DUP1 DUP3 GT PUSH2 0x723 JUMPI PUSH0 DUP1 SWAP8 POP SWAP8 POP POP POP POP POP POP POP PUSH2 0x8AB JUMP JUMPDEST PUSH0 DUP2 DUP4 PUSH2 0x730 SWAP2 SWAP1 PUSH2 0x111B JUMP JUMPDEST SWAP1 POP PUSH1 0x40 MLOAD DUP1 PUSH1 0x40 ADD PUSH1 0x40 MSTORE DUP1 PUSH1 0x3 DUP2 MSTORE PUSH1 0x20 ADD PUSH32 0x4554480000000000000000000000000000000000000000000000000000000000 DUP2 MSTORE POP DUP1 MLOAD SWAP1 PUSH1 0x20 ADD KECCAK256 DUP11 DUP1 MLOAD SWAP1 PUSH1 0x20 ADD KECCAK256 SUB PUSH2 0x7BD JUMPI PUSH1 0x5 SLOAD PUSH3 0xF4240 DUP3 PUSH2 0x78E SWAP2 SWAP1 PUSH2 0x104A JUMP JUMPDEST PUSH2 0x798 SWAP2 SWAP1 PUSH2 0x10B8 JUMP JUMPDEST SWAP8 POP PUSH3 0xF4240 PUSH1 0x5 SLOAD DUP10 PUSH2 0x7AC SWAP2 SWAP1 PUSH2 0x104A JUMP JUMPDEST PUSH2 0x7B6 SWAP2 SWAP1 PUSH2 0x10B8 JUMP JUMPDEST SWAP9 POP PUSH2 0x8A3 JUMP JUMPDEST PUSH1 0x40 MLOAD DUP1 PUSH1 0x40 ADD PUSH1 0x40 MSTORE DUP1 PUSH1 0x3 DUP2 MSTORE PUSH1 0x20 ADD PUSH32 0x4158530000000000000000000000000000000000000000000000000000000000 DUP2 MSTORE POP DUP1 MLOAD SWAP1 PUSH1 0x20 ADD KECCAK256 DUP11 DUP1 MLOAD SWAP1 PUSH1 0x20 ADD KECCAK256 SUB PUSH2 0x867 JUMPI PUSH0 PUSH1 0x5 SLOAD PUSH1 0x6 SLOAD PUSH2 0x818 SWAP2 SWAP1 PUSH2 0x104A JUMP JUMPDEST PUSH3 0xF4240 DUP4 PUSH2 0x827 SWAP2 SWAP1 PUSH2 0x104A JUMP JUMPDEST PUSH2 0x831 SWAP2 SWAP1 PUSH2 0x10B8 JUMP JUMPDEST SWAP1 POP DUP1 SWAP9 POP PUSH3 0xF4240 PUSH1 0x5 SLOAD PUSH1 0x6 SLOAD DUP12 PUSH2 0x84B SWAP2 SWAP1 PUSH2 0x104A JUMP JUMPDEST PUSH2 0x855 SWAP2 SWAP1 PUSH2 0x104A JUMP JUMPDEST PUSH2 0x85F SWAP2 SWAP1 PUSH2 0x10B8 JUMP JUMPDEST SWAP10 POP POP PUSH2 0x8A2 JUMP JUMPDEST PUSH1 0x40 MLOAD PUSH32 0x8C379A000000000000000000000000000000000000000000000000000000000 DUP2 MSTORE PUSH1 0x4 ADD PUSH2 0x899 SWAP1 PUSH2 0x121D JUMP JUMPDEST PUSH1 0x40 MLOAD DUP1 SWAP2 SUB SWAP1 REVERT JUMPDEST JUMPDEST POP POP POP POP POP POP POP JUMPDEST SWAP3 POP SWAP3 SWAP1 POP JUMP JUMPDEST PUSH1 0x1 PUSH1 0x20 MSTORE DUP1 PUSH0 MSTORE PUSH1 0x40 PUSH0 KECCAK256 PUSH0 SWAP2 POP SWAP1 POP DUP1 PUSH0 ADD SLOAD SWAP1 DUP1 PUSH1 0x1 ADD SLOAD SWAP1 DUP1 PUSH1 0x2 ADD SLOAD SWAP1 POP DUP4 JUMP JUMPDEST PUSH0 DUP1 SLOAD SWAP1 PUSH2 0x100 EXP SWAP1 DIV PUSH20 0xFFFFFFFFFFFFFFFFFFFFFFFFFFFFFFFFFFFFFFFF AND DUP2 JUMP JUMPDEST PUSH1 0x5 SLOAD DUP2 JUMP JUMPDEST PUSH0 DUP1 SLOAD SWAP1 PUSH2 0x100 EXP SWAP1 DIV PUSH20 0xFFFFFFFFFFFFFFFFFFFFFFFFFFFFFFFFFFFFFFFF AND PUSH20 0xFFFFFFFFFFFFFFFFFFFFFFFFFFFFFFFFFFFFFFFF AND CALLER PUSH20 0xFFFFFFFFFFFFFFFFFFFFFFFFFFFFFFFFFFFFFFFF AND EQ PUSH2 0x98E JUMPI PUSH1 0x40 MLOAD PUSH32 0x8C379A000000000000000000000000000000000000000000000000000000000 DUP2 MSTORE PUSH1 0x4 ADD PUSH2 0x985 SWAP1 PUSH2 0x12BA JUMP JUMPDEST PUSH1 0x40 MLOAD DUP1 SWAP2 SUB SWAP1 REVERT JUMPDEST PUSH1 0x40 MLOAD DUP1 PUSH1 0x60 ADD PUSH1 0x40 MSTORE DUP1 DUP5 DUP2 MSTORE PUSH1 0x20 ADD DUP4 DUP2 MSTORE PUSH1 0x20 ADD DUP3 DUP2 MSTORE POP PUSH1 0x1 PUSH0 DUP7 PUSH20 0xFFFFFFFFFFFFFFFFFFFFFFFFFFFFFFFFFFFFFFFF AND PUSH20 0xFFFFFFFFFFFFFFFFFFFFFFFFFFFFFFFFFFFFFFFF AND DUP2 MSTORE PUSH1 0x20 ADD SWAP1 DUP2 MSTORE PUSH1 0x20 ADD PUSH0 KECCAK256 PUSH0 DUP3 ADD MLOAD DUP2 PUSH0 ADD SSTORE PUSH1 0x20 DUP3 ADD MLOAD DUP2 PUSH1 0x1 ADD SSTORE PUSH1 0x40 DUP3 ADD MLOAD DUP2 PUSH1 0x2 ADD SSTORE SWAP1 POP POP POP POP POP POP JUMP JUMPDEST PUSH1 0x2 SLOAD DUP2 JUMP JUMPDEST DUP1 PUSH1 0x5 DUP2 SWAP1 SSTORE POP POP JUMP JUMPDEST PUSH0 DUP1 PUSH1 0x1 PUSH0 DUP5 PUSH20 0xFFFFFFFFFFFFFFFFFFFFFFFFFFFFFFFFFFFFFFFF AND PUSH20 0xFFFFFFFFFFFFFFFFFFFFFFFFFFFFFFFFFFFFFFFF AND DUP2 MSTORE PUSH1 0x20 ADD SWAP1 DUP2 MSTORE PUSH1 0x20 ADD PUSH0 KECCAK256 PUSH1 0x40 MLOAD DUP1 PUSH1 0x60 ADD PUSH1 0x40 MSTORE SWAP1 DUP2 PUSH0 DUP3 ADD SLOAD DUP2 MSTORE PUSH1 0x20 ADD PUSH1 0x1 DUP3 ADD SLOAD DUP2 MSTORE PUSH1 0x20 ADD PUSH1 0x2 DUP3 ADD SLOAD DUP2 MSTORE POP POP SWAP1 POP PUSH0 PUSH1 0x64 PUSH1 0x2 SLOAD DUP4 PUSH0 ADD MLOAD PUSH2 0xA98 SWAP2 SWAP1 PUSH2 0x104A JUMP JUMPDEST PUSH2 0xAA2 SWAP2 SWAP1 PUSH2 0x10B8 JUMP JUMPDEST SWAP1 POP PUSH0 PUSH2 0x3E8 PUSH1 0x5 SLOAD DUP5 PUSH1 0x20 ADD MLOAD PUSH2 0xABA SWAP2 SWAP1 PUSH2 0x104A JUMP JUMPDEST PUSH2 0xAC4 SWAP2 SWAP1 PUSH2 0x10B8 JUMP JUMPDEST SWAP1 POP PUSH0 PUSH2 0x2710 PUSH1 0x5 SLOAD PUSH1 0x6 SLOAD DUP7 PUSH1 0x40 ADD MLOAD PUSH2 0xADF SWAP2 SWAP1 PUSH2 0x104A JUMP JUMPDEST PUSH2 0xAE9 SWAP2 SWAP1 PUSH2 0x104A JUMP JUMPDEST PUSH2 0xAF3 SWAP2 SWAP1 PUSH2 0x10B8 JUMP JUMPDEST SWAP1 POP PUSH0 DUP2 DUP4 PUSH2 0xB02 SWAP2 SWAP1 PUSH2 0x10E8 JUMP JUMPDEST SWAP1 POP PUSH0 DUP2 SUB PUSH2 0xB38 JUMPI PUSH32 0xFFFFFFFFFFFFFFFFFFFFFFFFFFFFFFFFFFFFFFFFFFFFFFFFFFFFFFFFFFFFFFFF SWAP6 POP POP POP POP POP POP PUSH2 0xB9A JUMP JUMPDEST PUSH0 DUP2 PUSH1 0x64 DUP7 PUSH2 0xB47 SWAP2 SWAP1 PUSH2 0x104A JUMP JUMPDEST PUSH2 0xB51 SWAP2 SWAP1 PUSH2 0x10B8 JUMP JUMPDEST SWAP1 POP PUSH32 0x96DF9B99931636B730287949D80832331A9FD2FD69BC2BB6CE2145403AF80688 DUP9 DUP7 DUP5 DUP5 PUSH1 0x40 MLOAD PUSH2 0xB88 SWAP5 SWAP4 SWAP3 SWAP2 SWAP1 PUSH2 0x12D8 JUMP JUMPDEST PUSH1 0x40 MLOAD DUP1 SWAP2 SUB SWAP1 LOG1 DUP1 SWAP7 POP POP POP POP POP POP POP JUMPDEST SWAP2 SWAP1 POP JUMP JUMPDEST PUSH0 DUP2 SWAP1 POP SWAP2 SWAP1 POP JUMP JUMPDEST PUSH2 0xBB1 DUP2 PUSH2 0xB9F JUMP JUMPDEST DUP3 MSTORE POP POP JUMP JUMPDEST PUSH0 PUSH1 0x20 DUP3 ADD SWAP1 POP PUSH2 0xBCA PUSH0 DUP4 ADD DUP5 PUSH2 0xBA8 JUMP JUMPDEST SWAP3 SWAP2 POP POP JUMP JUMPDEST PUSH0 PUSH1 0x40 MLOAD SWAP1 POP SWAP1 JUMP JUMPDEST PUSH0 DUP1 REVERT JUMPDEST PUSH0 DUP1 REVERT JUMPDEST PUSH2 0xBEA DUP2 PUSH2 0xB9F JUMP JUMPDEST DUP2 EQ PUSH2 0xBF4 JUMPI PUSH0 DUP1 REVERT JUMPDEST POP JUMP JUMPDEST PUSH0 DUP2 CALLDATALOAD SWAP1 POP PUSH2 0xC05 DUP2 PUSH2 0xBE1 JUMP JUMPDEST SWAP3 SWAP2 POP POP JUMP JUMPDEST PUSH0 PUSH1 0x20 DUP3 DUP5 SUB SLT ISZERO PUSH2 0xC20 JUMPI PUSH2 0xC1F PUSH2 0xBD9 JUMP JUMPDEST JUMPDEST PUSH0 PUSH2 0xC2D DUP5 DUP3 DUP6 ADD PUSH2 0xBF7 JUMP JUMPDEST SWAP2 POP POP SWAP3 SWAP2 POP POP JUMP JUMPDEST PUSH0 PUSH20 0xFFFFFFFFFFFFFFFFFFFFFFFFFFFFFFFFFFFFFFFF DUP3 AND SWAP1 POP SWAP2 SWAP1 POP JUMP JUMPDEST PUSH0 PUSH2 0xC5F DUP3 PUSH2 0xC36 JUMP JUMPDEST SWAP1 POP SWAP2 SWAP1 POP JUMP JUMPDEST PUSH2 0xC6F DUP2 PUSH2 0xC55 JUMP JUMPDEST DUP2 EQ PUSH2 0xC79 JUMPI PUSH0 DUP1 REVERT JUMPDEST POP JUMP JUMPDEST PUSH0 DUP2 CALLDATALOAD SWAP1 POP PUSH2 0xC8A DUP2 PUSH2 0xC66 JUMP JUMPDEST SWAP3 SWAP2 POP POP JUMP JUMPDEST PUSH0 DUP1 REVERT JUMPDEST PUSH0 DUP1 REVERT JUMPDEST PUSH0 PUSH1 0x1F NOT PUSH1 0x1F DUP4 ADD AND SWAP1 POP SWAP2 SWAP1 POP JUMP JUMPDEST PUSH32 0x4E487B7100000000000000000000000000000000000000000000000000000000 PUSH0 MSTORE PUSH1 0x41 PUSH1 0x4 MSTORE PUSH1 0x24 PUSH0 REVERT JUMPDEST PUSH2 0xCDE DUP3 PUSH2 0xC98 JUMP JUMPDEST DUP2 ADD DUP2 DUP2 LT PUSH8 0xFFFFFFFFFFFFFFFF DUP3 GT OR ISZERO PUSH2 0xCFD JUMPI PUSH2 0xCFC PUSH2 0xCA8 JUMP JUMPDEST JUMPDEST DUP1 PUSH1 0x40 MSTORE POP POP POP JUMP JUMPDEST PUSH0 PUSH2 0xD0F PUSH2 0xBD0 JUMP JUMPDEST SWAP1 POP PUSH2 0xD1B DUP3 DUP3 PUSH2 0xCD5 JUMP JUMPDEST SWAP2 SWAP1 POP JUMP JUMPDEST PUSH0 PUSH8 0xFFFFFFFFFFFFFFFF DUP3 GT ISZERO PUSH2 0xD3A JUMPI PUSH2 0xD39 PUSH2 0xCA8 JUMP JUMPDEST JUMPDEST PUSH2 0xD43 DUP3 PUSH2 0xC98 JUMP JUMPDEST SWAP1 POP PUSH1 0x20 DUP2 ADD SWAP1 POP SWAP2 SWAP1 POP JUMP JUMPDEST DUP3 DUP2 DUP4 CALLDATACOPY PUSH0 DUP4 DUP4 ADD MSTORE POP POP POP JUMP JUMPDEST PUSH0 PUSH2 0xD70 PUSH2 0xD6B DUP5 PUSH2 0xD20 JUMP JUMPDEST PUSH2 0xD06 JUMP JUMPDEST SWAP1 POP DUP3 DUP2 MSTORE PUSH1 0x20 DUP2 ADD DUP5 DUP5 DUP5 ADD GT ISZERO PUSH2 0xD8C JUMPI PUSH2 0xD8B PUSH2 0xC94 JUMP JUMPDEST JUMPDEST PUSH2 0xD97 DUP5 DUP3 DUP6 PUSH2 0xD50 JUMP JUMPDEST POP SWAP4 SWAP3 POP POP POP JUMP JUMPDEST PUSH0 DUP3 PUSH1 0x1F DUP4 ADD SLT PUSH2 0xDB3 JUMPI PUSH2 0xDB2 PUSH2 0xC90 JUMP JUMPDEST JUMPDEST DUP2 CALLDATALOAD PUSH2 0xDC3 DUP5 DUP3 PUSH1 0x20 DUP7 ADD PUSH2 0xD5E JUMP JUMPDEST SWAP2 POP POP SWAP3 SWAP2 POP POP JUMP JUMPDEST PUSH0 DUP1 PUSH0 PUSH1 0x60 DUP5 DUP7 SUB SLT ISZERO PUSH2 0xDE3 JUMPI PUSH2 0xDE2 PUSH2 0xBD9 JUMP JUMPDEST JUMPDEST PUSH0 PUSH2 0xDF0 DUP7 DUP3 DUP8 ADD PUSH2 0xC7C JUMP JUMPDEST SWAP4 POP POP PUSH1 0x20 DUP5 ADD CALLDATALOAD PUSH8 0xFFFFFFFFFFFFFFFF DUP2 GT ISZERO PUSH2 0xE11 JUMPI PUSH2 0xE10 PUSH2 0xBDD JUMP JUMPDEST JUMPDEST PUSH2 0xE1D DUP7 DUP3 DUP8 ADD PUSH2 0xD9F JUMP JUMPDEST SWAP3 POP POP PUSH1 0x40 PUSH2 0xE2E DUP7 DUP3 DUP8 ADD PUSH2 0xBF7 JUMP JUMPDEST SWAP2 POP POP SWAP3 POP SWAP3 POP SWAP3 JUMP JUMPDEST PUSH0 DUP1 PUSH1 0x40 DUP4 DUP6 SUB SLT ISZERO PUSH2 0xE4E JUMPI PUSH2 0xE4D PUSH2 0xBD9 JUMP JUMPDEST JUMPDEST PUSH0 PUSH2 0xE5B DUP6 DUP3 DUP7 ADD PUSH2 0xC7C JUMP JUMPDEST SWAP3 POP POP PUSH1 0x20 DUP4 ADD CALLDATALOAD PUSH8 0xFFFFFFFFFFFFFFFF DUP2 GT ISZERO PUSH2 0xE7C JUMPI PUSH2 0xE7B PUSH2 0xBDD JUMP JUMPDEST JUMPDEST PUSH2 0xE88 DUP6 DUP3 DUP7 ADD PUSH2 0xD9F JUMP JUMPDEST SWAP2 POP POP SWAP3 POP SWAP3 SWAP1 POP JUMP JUMPDEST PUSH0 PUSH1 0x40 DUP3 ADD SWAP1 POP PUSH2 0xEA5 PUSH0 DUP4 ADD DUP6 PUSH2 0xBA8 JUMP JUMPDEST PUSH2 0xEB2 PUSH1 0x20 DUP4 ADD DUP5 PUSH2 0xBA8 JUMP JUMPDEST SWAP4 SWAP3 POP POP POP JUMP JUMPDEST PUSH0 PUSH1 0x20 DUP3 DUP5 SUB SLT ISZERO PUSH2 0xECE JUMPI PUSH2 0xECD PUSH2 0xBD9 JUMP JUMPDEST JUMPDEST PUSH0 PUSH2 0xEDB DUP5 DUP3 DUP6 ADD PUSH2 0xC7C JUMP JUMPDEST SWAP2 POP POP SWAP3 SWAP2 POP POP JUMP JUMPDEST PUSH0 PUSH1 0x60 DUP3 ADD SWAP1 POP PUSH2 0xEF7 PUSH0 DUP4 ADD DUP7 PUSH2 0xBA8 JUMP JUMPDEST PUSH2 0xF04 PUSH1 0x20 DUP4 ADD DUP6 PUSH2 0xBA8 JUMP JUMPDEST PUSH2 0xF11 PUSH1 0x40 DUP4 ADD DUP5 PUSH2 0xBA8 JUMP JUMPDEST SWAP5 SWAP4 POP POP POP POP JUMP JUMPDEST PUSH2 0xF22 DUP2 PUSH2 0xC55 JUMP JUMPDEST DUP3 MSTORE POP POP JUMP JUMPDEST PUSH0 PUSH1 0x20 DUP3 ADD SWAP1 POP PUSH2 0xF3B PUSH0 DUP4 ADD DUP5 PUSH2 0xF19 JUMP JUMPDEST SWAP3 SWAP2 POP POP JUMP JUMPDEST PUSH0 DUP1 PUSH0 DUP1 PUSH1 0x80 DUP6 DUP8 SUB SLT ISZERO PUSH2 0xF59 JUMPI PUSH2 0xF58 PUSH2 0xBD9 JUMP JUMPDEST JUMPDEST PUSH0 PUSH2 0xF66 DUP8 DUP3 DUP9 ADD PUSH2 0xC7C JUMP JUMPDEST SWAP5 POP POP PUSH1 0x20 PUSH2 0xF77 DUP8 DUP3 DUP9 ADD PUSH2 0xBF7 JUMP JUMPDEST SWAP4 POP POP PUSH1 0x40 PUSH2 0xF88 DUP8 DUP3 DUP9 ADD PUSH2 0xBF7 JUMP JUMPDEST SWAP3 POP POP PUSH1 0x60 PUSH2 0xF99 DUP8 DUP3 DUP9 ADD PUSH2 0xBF7 JUMP JUMPDEST SWAP2 POP POP SWAP3 SWAP6 SWAP2 SWAP5 POP SWAP3 POP JUMP JUMPDEST PUSH0 DUP3 DUP3 MSTORE PUSH1 0x20 DUP3 ADD SWAP1 POP SWAP3 SWAP2 POP POP JUMP JUMPDEST PUSH32 0x4C6F616E206973207374696C6C206865616C7468790000000000000000000000 PUSH0 DUP3 ADD MSTORE POP JUMP JUMPDEST PUSH0 PUSH2 0xFE9 PUSH1 0x15 DUP4 PUSH2 0xFA5 JUMP JUMPDEST SWAP2 POP PUSH2 0xFF4 DUP3 PUSH2 0xFB5 JUMP JUMPDEST PUSH1 0x20 DUP3 ADD SWAP1 POP SWAP2 SWAP1 POP JUMP JUMPDEST PUSH0 PUSH1 0x20 DUP3 ADD SWAP1 POP DUP2 DUP2 SUB PUSH0 DUP4 ADD MSTORE PUSH2 0x1016 DUP2 PUSH2 0xFDD JUMP JUMPDEST SWAP1 POP SWAP2 SWAP1 POP JUMP JUMPDEST PUSH32 0x4E487B7100000000000000000000000000000000000000000000000000000000 PUSH0 MSTORE PUSH1 0x11 PUSH1 0x4 MSTORE PUSH1 0x24 PUSH0 REVERT JUMPDEST PUSH0 PUSH2 0x1054 DUP3 PUSH2 0xB9F JUMP JUMPDEST SWAP2 POP PUSH2 0x105F DUP4 PUSH2 0xB9F JUMP JUMPDEST SWAP3 POP DUP3 DUP3 MUL PUSH2 0x106D DUP2 PUSH2 0xB9F JUMP JUMPDEST SWAP2 POP DUP3 DUP3 DIV DUP5 EQ DUP4 ISZERO OR PUSH2 0x1084 JUMPI PUSH2 0x1083 PUSH2 0x101D JUMP JUMPDEST JUMPDEST POP SWAP3 SWAP2 POP POP JUMP JUMPDEST PUSH32 0x4E487B7100000000000000000000000000000000000000000000000000000000 PUSH0 MSTORE PUSH1 0x12 PUSH1 0x4 MSTORE PUSH1 0x24 PUSH0 REVERT JUMPDEST PUSH0 PUSH2 0x10C2 DUP3 PUSH2 0xB9F JUMP JUMPDEST SWAP2 POP PUSH2 0x10CD DUP4 PUSH2 0xB9F JUMP JUMPDEST SWAP3 POP DUP3 PUSH2 0x10DD JUMPI PUSH2 0x10DC PUSH2 0x108B JUMP JUMPDEST JUMPDEST DUP3 DUP3 DIV SWAP1 POP SWAP3 SWAP2 POP POP JUMP JUMPDEST PUSH0 PUSH2 0x10F2 DUP3 PUSH2 0xB9F JUMP JUMPDEST SWAP2 POP PUSH2 0x10FD DUP4 PUSH2 0xB9F JUMP JUMPDEST SWAP3 POP DUP3 DUP3 ADD SWAP1 POP DUP1 DUP3 GT ISZERO PUSH2 0x1115 JUMPI PUSH2 0x1114 PUSH2 0x101D JUMP JUMPDEST JUMPDEST SWAP3 SWAP2 POP POP JUMP JUMPDEST PUSH0 PUSH2 0x1125 DUP3 PUSH2 0xB9F JUMP JUMPDEST SWAP2 POP PUSH2 0x1130 DUP4 PUSH2 0xB9F JUMP JUMPDEST SWAP3 POP DUP3 DUP3 SUB SWAP1 POP DUP2 DUP2 GT ISZERO PUSH2 0x1148 JUMPI PUSH2 0x1147 PUSH2 0x101D JUMP JUMPDEST JUMPDEST SWAP3 SWAP2 POP POP JUMP JUMPDEST PUSH0 PUSH1 0xC0 DUP3 ADD SWAP1 POP PUSH2 0x1161 PUSH0 DUP4 ADD DUP10 PUSH2 0xF19 JUMP JUMPDEST PUSH2 0x116E PUSH1 0x20 DUP4 ADD DUP9 PUSH2 0xBA8 JUMP JUMPDEST PUSH2 0x117B PUSH1 0x40 DUP4 ADD DUP8 PUSH2 0xBA8 JUMP JUMPDEST PUSH2 0x1188 PUSH1 0x60 DUP4 ADD DUP7 PUSH2 0xBA8 JUMP JUMPDEST PUSH2 0x1195 PUSH1 0x80 DUP4 ADD DUP6 PUSH2 0xBA8 JUMP JUMPDEST PUSH2 0x11A2 PUSH1 0xA0 DUP4 ADD DUP5 PUSH2 0xBA8 JUMP JUMPDEST SWAP8 SWAP7 POP POP POP POP POP POP POP JUMP JUMPDEST PUSH32 0x496E76616C696420617373657420747970653A20557365202745544827206F72 PUSH0 DUP3 ADD MSTORE PUSH32 0x2027415853270000000000000000000000000000000000000000000000000000 PUSH1 0x20 DUP3 ADD MSTORE POP JUMP JUMPDEST PUSH0 PUSH2 0x1207 PUSH1 0x26 DUP4 PUSH2 0xFA5 JUMP JUMPDEST SWAP2 POP PUSH2 0x1212 DUP3 PUSH2 0x11AD JUMP JUMPDEST PUSH1 0x40 DUP3 ADD SWAP1 POP SWAP2 SWAP1 POP JUMP JUMPDEST PUSH0 PUSH1 0x20 DUP3 ADD SWAP1 POP DUP2 DUP2 SUB PUSH0 DUP4 ADD MSTORE PUSH2 0x1234 DUP2 PUSH2 0x11FB JUMP JUMPDEST SWAP1 POP SWAP2 SWAP1 POP JUMP JUMPDEST PUSH0 PUSH1 0x60 DUP3 ADD SWAP1 POP PUSH2 0x124E PUSH0 DUP4 ADD DUP7 PUSH2 0xF19 JUMP JUMPDEST PUSH2 0x125B PUSH1 0x20 DUP4 ADD DUP6 PUSH2 0xBA8 JUMP JUMPDEST PUSH2 0x1268 PUSH1 0x40 DUP4 ADD DUP5 PUSH2 0xBA8 JUMP JUMPDEST SWAP5 SWAP4 POP POP POP POP JUMP JUMPDEST PUSH32 0x4F6E6C79206F776E65722063616E20616464206C6F616E730000000000000000 PUSH0 DUP3 ADD MSTORE POP JUMP JUMPDEST PUSH0 PUSH2 0x12A4 PUSH1 0x18 DUP4 PUSH2 0xFA5 JUMP JUMPDEST SWAP2 POP PUSH2 0x12AF DUP3 PUSH2 0x1270 JUMP JUMPDEST PUSH1 0x20 DUP3 ADD SWAP1 POP SWAP2 SWAP1 POP JUMP JUMPDEST PUSH0 PUSH1 0x20 DUP3 ADD SWAP1 POP DUP2 DUP2 SUB PUSH0 DUP4 ADD MSTORE PUSH2 0x12D1 DUP2 PUSH2 0x1298 JUMP JUMPDEST SWAP1 POP SWAP2 SWAP1 POP JUMP JUMPDEST PUSH0 PUSH1 0x80 DUP3 ADD SWAP1 POP PUSH2 0x12EB PUSH0 DUP4 ADD DUP8 PUSH2 0xF19 JUMP JUMPDEST PUSH2 0x12F8 PUSH1 0x20 DUP4 ADD DUP7 PUSH2 0xBA8 JUMP JUMPDEST PUSH2 0x1305 PUSH1 0x40 DUP4 ADD DUP6 PUSH2 0xBA8 JUMP JUMPDEST PUSH2 0x1312 PUSH1 0x60 DUP4 ADD DUP5 PUSH2 0xBA8 JUMP JUMPDEST SWAP6 SWAP5 POP POP POP POP POP JUMP INVALID LOG2 PUSH5 0x6970667358 0x22 SLT KECCAK256 SWAP7 SWAP1 NUMBER DUP15 DUP8 0xCE PUSH5 0x5928BE5ECF DELEGATECALL 0xC0 0x4B 0xC2 0xC4 BALANCE PUSH4 0x9DC06686 CALLER SLOAD 0xE1 0xAF PUSH18 0x5F26A9AA64736F6C634300081A0033000000 "
				},
				"gasEstimates": {
					"creation": {
						"codeDepositCost": "989000",
						"executionCost": "135820",
						"totalCost": "1124820"
					},
					"external": {
						"addLoan(address,uint256,uint256,uint256)": "infinite",
						"axsToETHPrice()": "2426",
						"calculateLiquidationAmount(address,string)": "infinite",
						"changeAXSRate(uint256)": "22560",
						"changeETHRate(uint256)": "22581",
						"collateralRatioAXS()": "2514",
						"collateralRatioETH()": "2448",
						"collateralRatioUSDC()": "2469",
						"ethPriceOnUSDC()": "2492",
						"getHealthFactor(address)": "infinite",
						"liquidate(address,string,uint256)": "infinite",
						"loans(address)": "infinite",
						"owner()": "2550"
					}
				},
				"methodIdentifiers": {
					"addLoan(address,uint256,uint256,uint256)": "ad24a336",
					"axsToETHPrice()": "04632a66",
					"calculateLiquidationAmount(address,string)": "55de75a9",
					"changeAXSRate(uint256)": "1f71462e",
					"changeETHRate(uint256)": "f894ea86",
					"collateralRatioAXS()": "4bfa16e9",
					"collateralRatioETH()": "11c9c304",
					"collateralRatioUSDC()": "c56e4097",
					"ethPriceOnUSDC()": "9b923cc9",
					"getHealthFactor(address)": "fe6bcd7c",
					"liquidate(address,string,uint256)": "2e2951cd",
					"loans(address)": "73b4086b",
					"owner()": "8da5cb5b"
				}
			},
			"storageLayout": {
				"storage": [
					{
						"astId": 3,
						"contract": "contracts/learn.sol:Liquidation",
						"label": "owner",
						"offset": 0,
						"slot": "0",
						"type": "t_address"
					},
					{
						"astId": 15,
						"contract": "contracts/learn.sol:Liquidation",
						"label": "loans",
						"offset": 0,
						"slot": "1",
						"type": "t_mapping(t_address,t_struct(Loan)10_storage)"
					},
					{
						"astId": 18,
						"contract": "contracts/learn.sol:Liquidation",
						"label": "collateralRatioUSDC",
						"offset": 0,
						"slot": "2",
						"type": "t_uint256"
					},
					{
						"astId": 21,
						"contract": "contracts/learn.sol:Liquidation",
						"label": "collateralRatioETH",
						"offset": 0,
						"slot": "3",
						"type": "t_uint256"
					},
					{
						"astId": 24,
						"contract": "contracts/learn.sol:Liquidation",
						"label": "collateralRatioAXS",
						"offset": 0,
						"slot": "4",
						"type": "t_uint256"
					},
					{
						"astId": 27,
						"contract": "contracts/learn.sol:Liquidation",
						"label": "ethPriceOnUSDC",
						"offset": 0,
						"slot": "5",
						"type": "t_uint256"
					},
					{
						"astId": 30,
						"contract": "contracts/learn.sol:Liquidation",
						"label": "axsToETHPrice",
						"offset": 0,
						"slot": "6",
						"type": "t_uint256"
					}
				],
				"types": {
					"t_address": {
						"encoding": "inplace",
						"label": "address",
						"numberOfBytes": "20"
					},
					"t_mapping(t_address,t_struct(Loan)10_storage)": {
						"encoding": "mapping",
						"key": "t_address",
						"label": "mapping(address => struct Liquidation.Loan)",
						"numberOfBytes": "32",
						"value": "t_struct(Loan)10_storage"
					},
					"t_struct(Loan)10_storage": {
						"encoding": "inplace",
						"label": "struct Liquidation.Loan",
						"members": [
							{
								"astId": 5,
								"contract": "contracts/learn.sol:Liquidation",
								"label": "usdcCollateral",
								"offset": 0,
								"slot": "0",
								"type": "t_uint256"
							},
							{
								"astId": 7,
								"contract": "contracts/learn.sol:Liquidation",
								"label": "ethDebt",
								"offset": 0,
								"slot": "1",
								"type": "t_uint256"
							},
							{
								"astId": 9,
								"contract": "contracts/learn.sol:Liquidation",
								"label": "axsDebt",
								"offset": 0,
								"slot": "2",
								"type": "t_uint256"
							}
						],
						"numberOfBytes": "96"
					},
					"t_uint256": {
						"encoding": "inplace",
						"label": "uint256",
						"numberOfBytes": "32"
					}
				}
			},
			"userdoc": {
				"kind": "user",
				"methods": {},
				"version": 1
			}
		}
	}
}