{
	"data": {
		"bytecode": {
			"linkReferences": {},
			"object": "60806040525f80555f6001555f6002553480156019575f80fd5b50610210806100275f395ff3fe608060405234801561000f575f80fd5b506004361061004a575f3560e01c8063569622cd1461004e578063853255cc1461006a578063d482757e14610088578063f2d2a33a146100a6575b5f80fd5b61006860048036038101906100639190610127565b6100c2565b005b6100726100cc565b60405161007f9190610161565b60405180910390f35b6100906100d2565b60405161009d9190610161565b60405180910390f35b6100c060048036038101906100bb9190610127565b6100e7565b005b8060018190555050565b60025481565b5f6001545f546100e291906101a7565b905090565b805f8190555050565b5f80fd5b5f819050919050565b610106816100f4565b8114610110575f80fd5b50565b5f81359050610121816100fd565b92915050565b5f6020828403121561013c5761013b6100f0565b5b5f61014984828501610113565b91505092915050565b61015b816100f4565b82525050565b5f6020820190506101745f830184610152565b92915050565b7f4e487b71000000000000000000000000000000000000000000000000000000005f52601160045260245ffd5b5f6101b1826100f4565b91506101bc836100f4565b92508282019050808211156101d4576101d361017a565b5b9291505056fea264697066735822122058ceb23436c008f1bb49289e5bc3f548bd39d6df3569d345e3c5d659dbf5cebc64736f6c634300081a0033",
			"opcodes": "PUSH1 0x80 PUSH1 0x40 MSTORE PUSH0 DUP1 SSTORE PUSH0 PUSH1 0x1 SSTORE PUSH0 PUSH1 0x2 SSTORE CALLVALUE DUP1 ISZERO PUSH1 0x19 JUMPI PUSH0 DUP1 REVERT JUMPDEST POP PUSH2 0x210 DUP1 PUSH2 0x27 PUSH0 CODECOPY PUSH0 RETURN INVALID PUSH1 0x80 PUSH1 0x40 MSTORE CALLVALUE DUP1 ISZERO PUSH2 0xF JUMPI PUSH0 DUP1 REVERT JUMPDEST POP PUSH1 0x4 CALLDATASIZE LT PUSH2 0x4A JUMPI PUSH0 CALLDATALOAD PUSH1 0xE0 SHR DUP1 PUSH4 0x569622CD EQ PUSH2 0x4E JUMPI DUP1 PUSH4 0x853255CC EQ PUSH2 0x6A JUMPI DUP1 PUSH4 0xD482757E EQ PUSH2 0x88 JUMPI DUP1 PUSH4 0xF2D2A33A EQ PUSH2 0xA6 JUMPI JUMPDEST PUSH0 DUP1 REVERT JUMPDEST PUSH2 0x68 PUSH1 0x4 DUP1 CALLDATASIZE SUB DUP2 ADD SWAP1 PUSH2 0x63 SWAP2 SWAP1 PUSH2 0x127 JUMP JUMPDEST PUSH2 0xC2 JUMP JUMPDEST STOP JUMPDEST PUSH2 0x72 PUSH2 0xCC JUMP JUMPDEST PUSH1 0x40 MLOAD PUSH2 0x7F SWAP2 SWAP1 PUSH2 0x161 JUMP JUMPDEST PUSH1 0x40 MLOAD DUP1 SWAP2 SUB SWAP1 RETURN JUMPDEST PUSH2 0x90 PUSH2 0xD2 JUMP JUMPDEST PUSH1 0x40 MLOAD PUSH2 0x9D SWAP2 SWAP1 PUSH2 0x161 JUMP JUMPDEST PUSH1 0x40 MLOAD DUP1 SWAP2 SUB SWAP1 RETURN JUMPDEST PUSH2 0xC0 PUSH1 0x4 DUP1 CALLDATASIZE SUB DUP2 ADD SWAP1 PUSH2 0xBB SWAP2 SWAP1 PUSH2 0x127 JUMP JUMPDEST PUSH2 0xE7 JUMP JUMPDEST STOP JUMPDEST DUP1 PUSH1 0x1 DUP2 SWAP1 SSTORE POP POP JUMP JUMPDEST PUSH1 0x2 SLOAD DUP2 JUMP JUMPDEST PUSH0 PUSH1 0x1 SLOAD PUSH0 SLOAD PUSH2 0xE2 SWAP2 SWAP1 PUSH2 0x1A7 JUMP JUMPDEST SWAP1 POP SWAP1 JUMP JUMPDEST DUP1 PUSH0 DUP2 SWAP1 SSTORE POP POP JUMP JUMPDEST PUSH0 DUP1 REVERT JUMPDEST PUSH0 DUP2 SWAP1 POP SWAP2 SWAP1 POP JUMP JUMPDEST PUSH2 0x106 DUP2 PUSH2 0xF4 JUMP JUMPDEST DUP2 EQ PUSH2 0x110 JUMPI PUSH0 DUP1 REVERT JUMPDEST POP JUMP JUMPDEST PUSH0 DUP2 CALLDATALOAD SWAP1 POP PUSH2 0x121 DUP2 PUSH2 0xFD JUMP JUMPDEST SWAP3 SWAP2 POP POP JUMP JUMPDEST PUSH0 PUSH1 0x20 DUP3 DUP5 SUB SLT ISZERO PUSH2 0x13C JUMPI PUSH2 0x13B PUSH2 0xF0 JUMP JUMPDEST JUMPDEST PUSH0 PUSH2 0x149 DUP5 DUP3 DUP6 ADD PUSH2 0x113 JUMP JUMPDEST SWAP2 POP POP SWAP3 SWAP2 POP POP JUMP JUMPDEST PUSH2 0x15B DUP2 PUSH2 0xF4 JUMP JUMPDEST DUP3 MSTORE POP POP JUMP JUMPDEST PUSH0 PUSH1 0x20 DUP3 ADD SWAP1 POP PUSH2 0x174 PUSH0 DUP4 ADD DUP5 PUSH2 0x152 JUMP JUMPDEST SWAP3 SWAP2 POP POP JUMP JUMPDEST PUSH32 0x4E487B7100000000000000000000000000000000000000000000000000000000 PUSH0 MSTORE PUSH1 0x11 PUSH1 0x4 MSTORE PUSH1 0x24 PUSH0 REVERT JUMPDEST PUSH0 PUSH2 0x1B1 DUP3 PUSH2 0xF4 JUMP JUMPDEST SWAP2 POP PUSH2 0x1BC DUP4 PUSH2 0xF4 JUMP JUMPDEST SWAP3 POP DUP3 DUP3 ADD SWAP1 POP DUP1 DUP3 GT ISZERO PUSH2 0x1D4 JUMPI PUSH2 0x1D3 PUSH2 0x17A JUMP JUMPDEST JUMPDEST SWAP3 SWAP2 POP POP JUMP INVALID LOG2 PUSH5 0x6970667358 0x22 SLT KECCAK256 PC 0xCE 0xB2 CALLVALUE CALLDATASIZE 0xC0 ADDMOD CALL 0xBB BLOBHASH 0x28 SWAP15 JUMPDEST 0xC3 CREATE2 BASEFEE 0xBD CODECOPY 0xD6 0xDF CALLDATALOAD PUSH10 0xD345E3C5D659DBF5CEBC PUSH5 0x736F6C6343 STOP ADDMOD BYTE STOP CALLER "
		},
		"gasEstimates": {
			"creation": {
				"codeDepositCost": "105600",
				"executionCost": "15166",
				"totalCost": "120766"
			},
			"external": {
				"add_a(uint256)": "22558",
				"add_b(uint256)": "22493",
				"calculate_sum()": "infinite",
				"sum()": "2425"
			}
		},
		"methodIdentifiers": {
			"add_a(uint256)": "f2d2a33a",
			"add_b(uint256)": "569622cd",
			"calculate_sum()": "d482757e",
			"sum()": "853255cc"
		}
	},
	"abi": [
		{
			"inputs": [
				{
					"internalType": "uint256",
					"name": "_a",
					"type": "uint256"
				}
			],
			"name": "add_a",
			"outputs": [],
			"stateMutability": "nonpayable",
			"type": "function"
		},
		{
			"inputs": [
				{
					"internalType": "uint256",
					"name": "_b",
					"type": "uint256"
				}
			],
			"name": "add_b",
			"outputs": [],
			"stateMutability": "nonpayable",
			"type": "function"
		},
		{
			"inputs": [],
			"name": "calculate_sum",
			"outputs": [
				{
					"internalType": "uint256",
					"name": "",
					"type": "uint256"
				}
			],
			"stateMutability": "view",
			"type": "function"
		},
		{
			"inputs": [],
			"name": "sum",
			"outputs": [
				{
					"internalType": "uint256",
					"name": "",
					"type": "uint256"
				}
			],
			"stateMutability": "view",
			"type": "function"
		}
	]
}