{
	"data": {
		"bytecode": {
			"linkReferences": {},
			"object": "6080604052605a600255605060035560466004556105dc60055560646006553480156028575f80fd5b50335f806101000a81548173ffffffffffffffffffffffffffffffffffffffff021916908373ffffffffffffffffffffffffffffffffffffffff160217905550611351806100755f395ff3fe608060405234801561000f575f80fd5b50600436106100cd575f3560e01c806373b4086b1161008a578063ad24a33611610064578063ad24a33614610202578063c56e40971461021e578063f894ea861461023c578063fe6bcd7c14610258576100cd565b806373b4086b146101945780638da5cb5b146101c65780639b923cc9146101e4576100cd565b806304632a66146100d157806311c9c304146100ef5780631f71462e1461010d5780632e2951cd146101295780634bfa16e91461014557806355de75a914610163575b5f80fd5b6100d9610288565b6040516100e69190610bb7565b60405180910390f35b6100f761028e565b6040516101049190610bb7565b60405180910390f35b61012760048036038101906101229190610c0b565b610294565b005b610143600480360381019061013e9190610dcc565b61029e565b005b61014d610623565b60405161015a9190610bb7565b60405180910390f35b61017d60048036038101906101789190610e38565b610629565b60405161018b929190610e92565b60405180910390f35b6101ae60048036038101906101a99190610eb9565b6108b2565b6040516101bd93929190610ee4565b60405180910390f35b6101ce6108d8565b6040516101db9190610f28565b60405180910390f35b6101ec6108fb565b6040516101f99190610bb7565b60405180910390f35b61021c60048036038101906102179190610f41565b610901565b005b610226610a0b565b6040516102339190610bb7565b60405180910390f35b61025660048036038101906102519190610c0b565b610a11565b005b610272600480360381019061026d9190610eb9565b610a1b565b60405161027f9190610bb7565b60405180910390f35b60065481565b60035481565b8060068190555050565b60646102a984610a1b565b106102e9576040517f08c379a00000000000000000000000000000000000000000000000000000000081526004016102e090610fff565b60405180910390fd5b5f60015f8573ffffffffffffffffffffffffffffffffffffffff1673ffffffffffffffffffffffffffffffffffffffff1681526020019081526020015f2090505f805f806040518060400160405280600381526020017f4554480000000000000000000000000000000000000000000000000000000000815250805190602001208780519060200120036104fe576064855f015460025461038a919061104a565b61039491906110b8565b61271060055460065488600201546103ac919061104a565b6103b6919061104a565b6103c091906110b8565b6103e860055488600101546103d5919061104a565b6103df91906110b8565b6103e991906110e8565b6103f3919061111b565b9150606486600254610405919061104a565b61040f91906110b8565b60055461041c919061111b565b9050806103e88361042d919061104a565b61043791906110b8565b93506103e88685610448919061104a565b61045291906110b8565b92507f624416f1270776df0e25d5db2d0648f7487ec8cb0d4b483e73a60f977dbd16b7886064600554886001015461048a919061104a565b61049491906110b8565b6127106005546006548a600201546104ac919061104a565b6104b6919061104a565b6104c091906110b8565b6064895f01546002546104d3919061104a565b6104dd91906110b8565b86866040516104f19695949392919061114e565b60405180910390a16105ab565b6040518060400160405280600381526020017f414c4c00000000000000000000000000000000000000000000000000000000008152508051906020012087805190602001200361056f57846001015493506103e8868561055e919061104a565b61056891906110b8565b92506105aa565b6040517f08c379a00000000000000000000000000000000000000000000000000000000081526004016105a19061121d565b60405180910390fd5b5b82855f015f8282546105bd919061111b565b9250508190555083856001015f8282546105d7919061111b565b925050819055507f09c223cfcd8c93e245f558f5f8de755fc0930fd9bc257441155ef5d54a170e0f8884866040516106119392919061123b565b60405180910390a15050505050505050565b60045481565b5f805f60015f8673ffffffffffffffffffffffffffffffffffffffff1673ffffffffffffffffffffffffffffffffffffffff1681526020019081526020015f206040518060600160405290815f82015481526020016001820154815260200160028201548152505090505f815f015190505f826020015190505f836040015190505f620f4240600554600654846106c0919061104a565b6106ca919061104a565b6106d491906110b8565b600554846106e2919061104a565b6106ec91906110e8565b90505f6064600254866106ff919061104a565b61070991906110b8565b9050808211610723575f80975097505050505050506108ab565b5f8183610730919061111b565b90506040518060400160405280600381526020017f4554480000000000000000000000000000000000000000000000000000000000815250805190602001208a80519060200120036107bd57600554620f42408261078e919061104a565b61079891906110b8565b9750620f4240600554896107ac919061104a565b6107b691906110b8565b98506108a3565b6040518060400160405280600381526020017f4158530000000000000000000000000000000000000000000000000000000000815250805190602001208a8051906020012003610867575f600554600654610818919061104a565b620f424083610827919061104a565b61083191906110b8565b9050809850620f42406005546006548b61084b919061104a565b610855919061104a565b61085f91906110b8565b9950506108a2565b6040517f08c379a00000000000000000000000000000000000000000000000000000000081526004016108999061121d565b60405180910390fd5b5b505050505050505b9250929050565b6001602052805f5260405f205f91509050805f0154908060010154908060020154905083565b5f8054906101000a900473ffffffffffffffffffffffffffffffffffffffff1681565b60055481565b5f8054906101000a900473ffffffffffffffffffffffffffffffffffffffff1673ffffffffffffffffffffffffffffffffffffffff163373ffffffffffffffffffffffffffffffffffffffff161461098e576040517f08c379a0000000000000000000000000000000000000000000000000000000008152600401610985906112ba565b60405180910390fd5b60405180606001604052808481526020018381526020018281525060015f8673ffffffffffffffffffffffffffffffffffffffff1673ffffffffffffffffffffffffffffffffffffffff1681526020019081526020015f205f820151815f0155602082015181600101556040820151816002015590505050505050565b60025481565b8060058190555050565b5f8060015f8473ffffffffffffffffffffffffffffffffffffffff1673ffffffffffffffffffffffffffffffffffffffff1681526020019081526020015f206040518060600160405290815f82015481526020016001820154815260200160028201548152505090505f6064600254835f0151610a98919061104a565b610aa291906110b8565b90505f6103e86005548460200151610aba919061104a565b610ac491906110b8565b90505f6127106005546006548660400151610adf919061104a565b610ae9919061104a565b610af391906110b8565b90505f8183610b0291906110e8565b90505f8103610b38577fffffffffffffffffffffffffffffffffffffffffffffffffffffffffffffffff95505050505050610b9a565b5f81606486610b47919061104a565b610b5191906110b8565b90507f96df9b99931636b730287949d80832331a9fd2fd69bc2bb6ce2145403af8068888868484604051610b8894939291906112d8565b60405180910390a18096505050505050505b919050565b5f819050919050565b610bb181610b9f565b82525050565b5f602082019050610bca5f830184610ba8565b92915050565b5f604051905090565b5f80fd5b5f80fd5b610bea81610b9f565b8114610bf4575f80fd5b50565b5f81359050610c0581610be1565b92915050565b5f60208284031215610c2057610c1f610bd9565b5b5f610c2d84828501610bf7565b91505092915050565b5f73ffffffffffffffffffffffffffffffffffffffff82169050919050565b5f610c5f82610c36565b9050919050565b610c6f81610c55565b8114610c79575f80fd5b50565b5f81359050610c8a81610c66565b92915050565b5f80fd5b5f80fd5b5f601f19601f8301169050919050565b7f4e487b71000000000000000000000000000000000000000000000000000000005f52604160045260245ffd5b610cde82610c98565b810181811067ffffffffffffffff82111715610cfd57610cfc610ca8565b5b80604052505050565b5f610d0f610bd0565b9050610d1b8282610cd5565b919050565b5f67ffffffffffffffff821115610d3a57610d39610ca8565b5b610d4382610c98565b9050602081019050919050565b828183375f83830152505050565b5f610d70610d6b84610d20565b610d06565b905082815260208101848484011115610d8c57610d8b610c94565b5b610d97848285610d50565b509392505050565b5f82601f830112610db357610db2610c90565b5b8135610dc3848260208601610d5e565b91505092915050565b5f805f60608486031215610de357610de2610bd9565b5b5f610df086828701610c7c565b935050602084013567ffffffffffffffff811115610e1157610e10610bdd565b5b610e1d86828701610d9f565b9250506040610e2e86828701610bf7565b9150509250925092565b5f8060408385031215610e4e57610e4d610bd9565b5b5f610e5b85828601610c7c565b925050602083013567ffffffffffffffff811115610e7c57610e7b610bdd565b5b610e8885828601610d9f565b9150509250929050565b5f604082019050610ea55f830185610ba8565b610eb26020830184610ba8565b9392505050565b5f60208284031215610ece57610ecd610bd9565b5b5f610edb84828501610c7c565b91505092915050565b5f606082019050610ef75f830186610ba8565b610f046020830185610ba8565b610f116040830184610ba8565b949350505050565b610f2281610c55565b82525050565b5f602082019050610f3b5f830184610f19565b92915050565b5f805f8060808587031215610f5957610f58610bd9565b5b5f610f6687828801610c7c565b9450506020610f7787828801610bf7565b9350506040610f8887828801610bf7565b9250506060610f9987828801610bf7565b91505092959194509250565b5f82825260208201905092915050565b7f4c6f616e206973207374696c6c206865616c74687900000000000000000000005f82015250565b5f610fe9601583610fa5565b9150610ff482610fb5565b602082019050919050565b5f6020820190508181035f83015261101681610fdd565b9050919050565b7f4e487b71000000000000000000000000000000000000000000000000000000005f52601160045260245ffd5b5f61105482610b9f565b915061105f83610b9f565b925082820261106d81610b9f565b915082820484148315176110845761108361101d565b5b5092915050565b7f4e487b71000000000000000000000000000000000000000000000000000000005f52601260045260245ffd5b5f6110c282610b9f565b91506110cd83610b9f565b9250826110dd576110dc61108b565b5b828204905092915050565b5f6110f282610b9f565b91506110fd83610b9f565b92508282019050808211156111155761111461101d565b5b92915050565b5f61112582610b9f565b915061113083610b9f565b92508282039050818111156111485761114761101d565b5b92915050565b5f60c0820190506111615f830189610f19565b61116e6020830188610ba8565b61117b6040830187610ba8565b6111886060830186610ba8565b6111956080830185610ba8565b6111a260a0830184610ba8565b979650505050505050565b7f496e76616c696420617373657420747970653a20557365202745544827206f725f8201527f2027415853270000000000000000000000000000000000000000000000000000602082015250565b5f611207602683610fa5565b9150611212826111ad565b604082019050919050565b5f6020820190508181035f830152611234816111fb565b9050919050565b5f60608201905061124e5f830186610f19565b61125b6020830185610ba8565b6112686040830184610ba8565b949350505050565b7f4f6e6c79206f776e65722063616e20616464206c6f616e7300000000000000005f82015250565b5f6112a4601883610fa5565b91506112af82611270565b602082019050919050565b5f6020820190508181035f8301526112d181611298565b9050919050565b5f6080820190506112eb5f830187610f19565b6112f86020830186610ba8565b6113056040830185610ba8565b6113126060830184610ba8565b9594505050505056fea26469706673582212209690438e87ce645928be5ecff4c04bc2c431639dc066863354e1af715f26a9aa64736f6c634300081a0033",
			"opcodes": "PUSH1 0x80 PUSH1 0x40 MSTORE PUSH1 0x5A PUSH1 0x2 SSTORE PUSH1 0x50 PUSH1 0x3 SSTORE PUSH1 0x46 PUSH1 0x4 SSTORE PUSH2 0x5DC PUSH1 0x5 SSTORE PUSH1 0x64 PUSH1 0x6 SSTORE CALLVALUE DUP1 ISZERO PUSH1 0x28 JUMPI PUSH0 DUP1 REVERT JUMPDEST POP CALLER PUSH0 DUP1 PUSH2 0x100 EXP DUP2 SLOAD DUP2 PUSH20 0xFFFFFFFFFFFFFFFFFFFFFFFFFFFFFFFFFFFFFFFF MUL NOT AND SWAP1 DUP4 PUSH20 0xFFFFFFFFFFFFFFFFFFFFFFFFFFFFFFFFFFFFFFFF AND MUL OR SWAP1 SSTORE POP PUSH2 0x1351 DUP1 PUSH2 0x75 PUSH0 CODECOPY PUSH0 RETURN INVALID PUSH1 0x80 PUSH1 0x40 MSTORE CALLVALUE DUP1 ISZERO PUSH2 0xF JUMPI PUSH0 DUP1 REVERT JUMPDEST POP PUSH1 0x4 CALLDATASIZE LT PUSH2 0xCD JUMPI PUSH0 CALLDATALOAD PUSH1 0xE0 SHR DUP1 PUSH4 0x73B4086B GT PUSH2 0x8A JUMPI DUP1 PUSH4 0xAD24A336 GT PUSH2 0x64 JUMPI DUP1 PUSH4 0xAD24A336 EQ PUSH2 0x202 JUMPI DUP1 PUSH4 0xC56E4097 EQ PUSH2 0x21E JUMPI DUP1 PUSH4 0xF894EA86 EQ PUSH2 0x23C JUMPI DUP1 PUSH4 0xFE6BCD7C EQ PUSH2 0x258 JUMPI PUSH2 0xCD JUMP JUMPDEST DUP1 PUSH4 0x73B4086B EQ PUSH2 0x194 JUMPI DUP1 PUSH4 0x8DA5CB5B EQ PUSH2 0x1C6 JUMPI DUP1 PUSH4 0x9B923CC9 EQ PUSH2 0x1E4 JUMPI PUSH2 0xCD JUMP JUMPDEST DUP1 PUSH4 0x4632A66 EQ PUSH2 0xD1 JUMPI DUP1 PUSH4 0x11C9C304 EQ PUSH2 0xEF JUMPI DUP1 PUSH4 0x1F71462E EQ PUSH2 0x10D JUMPI DUP1 PUSH4 0x2E2951CD EQ PUSH2 0x129 JUMPI DUP1 PUSH4 0x4BFA16E9 EQ PUSH2 0x145 JUMPI DUP1 PUSH4 0x55DE75A9 EQ PUSH2 0x163 JUMPI JUMPDEST PUSH0 DUP1 REVERT JUMPDEST PUSH2 0xD9 PUSH2 0x288 JUMP JUMPDEST PUSH1 0x40 MLOAD PUSH2 0xE6 SWAP2 SWAP1 PUSH2 0xBB7 JUMP JUMPDEST PUSH1 0x40 MLOAD DUP1 SWAP2 SUB SWAP1 RETURN JUMPDEST PUSH2 0xF7 PUSH2 0x28E JUMP JUMPDEST PUSH1 0x40 MLOAD PUSH2 0x104 SWAP2 SWAP1 PUSH2 0xBB7 JUMP JUMPDEST PUSH1 0x40 MLOAD DUP1 SWAP2 SUB SWAP1 RETURN JUMPDEST PUSH2 0x127 PUSH1 0x4 DUP1 CALLDATASIZE SUB DUP2 ADD SWAP1 PUSH2 0x122 SWAP2 SWAP1 PUSH2 0xC0B JUMP JUMPDEST PUSH2 0x294 JUMP JUMPDEST STOP JUMPDEST PUSH2 0x143 PUSH1 0x4 DUP1 CALLDATASIZE SUB DUP2 ADD SWAP1 PUSH2 0x13E SWAP2 SWAP1 PUSH2 0xDCC JUMP JUMPDEST PUSH2 0x29E JUMP JUMPDEST STOP JUMPDEST PUSH2 0x14D PUSH2 0x623 JUMP JUMPDEST PUSH1 0x40 MLOAD PUSH2 0x15A SWAP2 SWAP1 PUSH2 0xBB7 JUMP JUMPDEST PUSH1 0x40 MLOAD DUP1 SWAP2 SUB SWAP1 RETURN JUMPDEST PUSH2 0x17D PUSH1 0x4 DUP1 CALLDATASIZE SUB DUP2 ADD SWAP1 PUSH2 0x178 SWAP2 SWAP1 PUSH2 0xE38 JUMP JUMPDEST PUSH2 0x629 JUMP JUMPDEST PUSH1 0x40 MLOAD PUSH2 0x18B SWAP3 SWAP2 SWAP1 PUSH2 0xE92 JUMP JUMPDEST PUSH1 0x40 MLOAD DUP1 SWAP2 SUB SWAP1 RETURN JUMPDEST PUSH2 0x1AE PUSH1 0x4 DUP1 CALLDATASIZE SUB DUP2 ADD SWAP1 PUSH2 0x1A9 SWAP2 SWAP1 PUSH2 0xEB9 JUMP JUMPDEST PUSH2 0x8B2 JUMP JUMPDEST PUSH1 0x40 MLOAD PUSH2 0x1BD SWAP4 SWAP3 SWAP2 SWAP1 PUSH2 0xEE4 JUMP JUMPDEST PUSH1 0x40 MLOAD DUP1 SWAP2 SUB SWAP1 RETURN JUMPDEST PUSH2 0x1CE PUSH2 0x8D8 JUMP JUMPDEST PUSH1 0x40 MLOAD PUSH2 0x1DB SWAP2 SWAP1 PUSH2 0xF28 JUMP JUMPDEST PUSH1 0x40 MLOAD DUP1 SWAP2 SUB SWAP1 RETURN JUMPDEST PUSH2 0x1EC PUSH2 0x8FB JUMP JUMPDEST PUSH1 0x40 MLOAD PUSH2 0x1F9 SWAP2 SWAP1 PUSH2 0xBB7 JUMP JUMPDEST PUSH1 0x40 MLOAD DUP1 SWAP2 SUB SWAP1 RETURN JUMPDEST PUSH2 0x21C PUSH1 0x4 DUP1 CALLDATASIZE SUB DUP2 ADD SWAP1 PUSH2 0x217 SWAP2 SWAP1 PUSH2 0xF41 JUMP JUMPDEST PUSH2 0x901 JUMP JUMPDEST STOP JUMPDEST PUSH2 0x226 PUSH2 0xA0B JUMP JUMPDEST PUSH1 0x40 MLOAD PUSH2 0x233 SWAP2 SWAP1 PUSH2 0xBB7 JUMP JUMPDEST PUSH1 0x40 MLOAD DUP1 SWAP2 SUB SWAP1 RETURN JUMPDEST PUSH2 0x256 PUSH1 0x4 DUP1 CALLDATASIZE SUB DUP2 ADD SWAP1 PUSH2 0x251 SWAP2 SWAP1 PUSH2 0xC0B JUMP JUMPDEST PUSH2 0xA11 JUMP JUMPDEST STOP JUMPDEST PUSH2 0x272 PUSH1 0x4 DUP1 CALLDATASIZE SUB DUP2 ADD SWAP1 PUSH2 0x26D SWAP2 SWAP1 PUSH2 0xEB9 JUMP JUMPDEST PUSH2 0xA1B JUMP JUMPDEST PUSH1 0x40 MLOAD PUSH2 0x27F SWAP2 SWAP1 PUSH2 0xBB7 JUMP JUMPDEST PUSH1 0x40 MLOAD DUP1 SWAP2 SUB SWAP1 RETURN JUMPDEST PUSH1 0x6 SLOAD DUP2 JUMP JUMPDEST PUSH1 0x3 SLOAD DUP2 JUMP JUMPDEST DUP1 PUSH1 0x6 DUP2 SWAP1 SSTORE POP POP JUMP JUMPDEST PUSH1 0x64 PUSH2 0x2A9 DUP5 PUSH2 0xA1B JUMP JUMPDEST LT PUSH2 0x2E9 JUMPI PUSH1 0x40 MLOAD PUSH32 0x8C379A000000000000000000000000000000000000000000000000000000000 DUP2 MSTORE PUSH1 0x4 ADD PUSH2 0x2E0 SWAP1 PUSH2 0xFFF JUMP JUMPDEST PUSH1 0x40 MLOAD DUP1 SWAP2 SUB SWAP1 REVERT JUMPDEST PUSH0 PUSH1 0x1 PUSH0 DUP6 PUSH20 0xFFFFFFFFFFFFFFFFFFFFFFFFFFFFFFFFFFFFFFFF AND PUSH20 0xFFFFFFFFFFFFFFFFFFFFFFFFFFFFFFFFFFFFFFFF AND DUP2 MSTORE PUSH1 0x20 ADD SWAP1 DUP2 MSTORE PUSH1 0x20 ADD PUSH0 KECCAK256 SWAP1 POP PUSH0 DUP1 PUSH0 DUP1 PUSH1 0x40 MLOAD DUP1 PUSH1 0x40 ADD PUSH1 0x40 MSTORE DUP1 PUSH1 0x3 DUP2 MSTORE PUSH1 0x20 ADD PUSH32 0x4554480000000000000000000000000000000000000000000000000000000000 DUP2 MSTORE POP DUP1 MLOAD SWAP1 PUSH1 0x20 ADD KECCAK256 DUP8 DUP1 MLOAD SWAP1 PUSH1 0x20 ADD KECCAK256 SUB PUSH2 0x4FE JUMPI PUSH1 0x64 DUP6 PUSH0 ADD SLOAD PUSH1 0x2 SLOAD PUSH2 0x38A SWAP2 SWAP1 PUSH2 0x104A JUMP JUMPDEST PUSH2 0x394 SWAP2 SWAP1 PUSH2 0x10B8 JUMP JUMPDEST PUSH2 0x2710 PUSH1 0x5 SLOAD PUSH1 0x6 SLOAD DUP9 PUSH1 0x2 ADD SLOAD PUSH2 0x3AC SWAP2 SWAP1 PUSH2 0x104A JUMP JUMPDEST PUSH2 0x3B6 SWAP2 SWAP1 PUSH2 0x104A JUMP JUMPDEST PUSH2 0x3C0 SWAP2 SWAP1 PUSH2 0x10B8 JUMP JUMPDEST PUSH2 0x3E8 PUSH1 0x5 SLOAD DUP9 PUSH1 0x1 ADD SLOAD PUSH2 0x3D5 SWAP2 SWAP1 PUSH2 0x104A JUMP JUMPDEST PUSH2 0x3DF SWAP2 SWAP1 PUSH2 0x10B8 JUMP JUMPDEST PUSH2 0x3E9 SWAP2 SWAP1 PUSH2 0x10E8 JUMP JUMPDEST PUSH2 0x3F3 SWAP2 SWAP1 PUSH2 0x111B JUMP JUMPDEST SWAP2 POP PUSH1 0x64 DUP7 PUSH1 0x2 SLOAD PUSH2 0x405 SWAP2 SWAP1 PUSH2 0x104A JUMP JUMPDEST PUSH2 0x40F SWAP2 SWAP1 PUSH2 0x10B8 JUMP JUMPDEST PUSH1 0x5 SLOAD PUSH2 0x41C SWAP2 SWAP1 PUSH2 0x111B JUMP JUMPDEST SWAP1 POP DUP1 PUSH2 0x3E8 DUP4 PUSH2 0x42D SWAP2 SWAP1 PUSH2 0x104A JUMP JUMPDEST PUSH2 0x437 SWAP2 SWAP1 PUSH2 0x10B8 JUMP JUMPDEST SWAP4 POP PUSH2 0x3E8 DUP7 DUP6 PUSH2 0x448 SWAP2 SWAP1 PUSH2 0x104A JUMP JUMPDEST PUSH2 0x452 SWAP2 SWAP1 PUSH2 0x10B8 JUMP JUMPDEST SWAP3 POP PUSH32 0x624416F1270776DF0E25D5DB2D0648F7487EC8CB0D4B483E73A60F977DBD16B7 DUP9 PUSH1 0x64 PUSH1 0x5 SLOAD DUP9 PUSH1 0x1 ADD SLOAD PUSH2 0x48A SWAP2 SWAP1 PUSH2 0x104A JUMP JUMPDEST PUSH2 0x494 SWAP2 SWAP1 PUSH2 0x10B8 JUMP JUMPDEST PUSH2 0x2710 PUSH1 0x5 SLOAD PUSH1 0x6 SLOAD DUP11 PUSH1 0x2 ADD SLOAD PUSH2 0x4AC SWAP2 SWAP1 PUSH2 0x104A JUMP JUMPDEST PUSH2 0x4B6 SWAP2 SWAP1 PUSH2 0x104A JUMP JUMPDEST PUSH2 0x4C0 SWAP2 SWAP1 PUSH2 0x10B8 JUMP JUMPDEST PUSH1 0x64 DUP10 PUSH0 ADD SLOAD PUSH1 0x2 SLOAD PUSH2 0x4D3 SWAP2 SWAP1 PUSH2 0x104A JUMP JUMPDEST PUSH2 0x4DD SWAP2 SWAP1 PUSH2 0x10B8 JUMP JUMPDEST DUP7 DUP7 PUSH1 0x40 MLOAD PUSH2 0x4F1 SWAP7 SWAP6 SWAP5 SWAP4 SWAP3 SWAP2 SWAP1 PUSH2 0x114E JUMP JUMPDEST PUSH1 0x40 MLOAD DUP1 SWAP2 SUB SWAP1 LOG1 PUSH2 0x5AB JUMP JUMPDEST PUSH1 0x40 MLOAD DUP1 PUSH1 0x40 ADD PUSH1 0x40 MSTORE DUP1 PUSH1 0x3 DUP2 MSTORE PUSH1 0x20 ADD PUSH32 0x414C4C0000000000000000000000000000000000000000000000000000000000 DUP2 MSTORE POP DUP1 MLOAD SWAP1 PUSH1 0x20 ADD KECCAK256 DUP8 DUP1 MLOAD SWAP1 PUSH1 0x20 ADD KECCAK256 SUB PUSH2 0x56F JUMPI DUP5 PUSH1 0x1 ADD SLOAD SWAP4 POP PUSH2 0x3E8 DUP7 DUP6 PUSH2 0x55E SWAP2 SWAP1 PUSH2 0x104A JUMP JUMPDEST PUSH2 0x568 SWAP2 SWAP1 PUSH2 0x10B8 JUMP JUMPDEST SWAP3 POP PUSH2 0x5AA JUMP JUMPDEST PUSH1 0x40 MLOAD PUSH32 0x8C379A000000000000000000000000000000000000000000000000000000000 DUP2 MSTORE PUSH1 0x4 ADD PUSH2 0x5A1 SWAP1 PUSH2 0x121D JUMP JUMPDEST PUSH1 0x40 MLOAD DUP1 SWAP2 SUB SWAP1 REVERT JUMPDEST JUMPDEST DUP3 DUP6 PUSH0 ADD PUSH0 DUP3 DUP3 SLOAD PUSH2 0x5BD SWAP2 SWAP1 PUSH2 0x111B JUMP JUMPDEST SWAP3 POP POP DUP2 SWAP1 SSTORE POP DUP4 DUP6 PUSH1 0x1 ADD PUSH0 DUP3 DUP3 SLOAD PUSH2 0x5D7 SWAP2 SWAP1 PUSH2 0x111B JUMP JUMPDEST SWAP3 POP POP DUP2 SWAP1 SSTORE POP PUSH32 0x9C223CFCD8C93E245F558F5F8DE755FC0930FD9BC257441155EF5D54A170E0F DUP9 DUP5 DUP7 PUSH1 0x40 MLOAD PUSH2 0x611 SWAP4 SWAP3 SWAP2 SWAP1 PUSH2 0x123B JUMP JUMPDEST PUSH1 0x40 MLOAD DUP1 SWAP2 SUB SWAP1 LOG1 POP POP POP POP POP POP POP POP JUMP JUMPDEST PUSH1 0x4 SLOAD DUP2 JUMP JUMPDEST PUSH0 DUP1 PUSH0 PUSH1 0x1 PUSH0 DUP7 PUSH20 0xFFFFFFFFFFFFFFFFFFFFFFFFFFFFFFFFFFFFFFFF AND PUSH20 0xFFFFFFFFFFFFFFFFFFFFFFFFFFFFFFFFFFFFFFFF AND DUP2 MSTORE PUSH1 0x20 ADD SWAP1 DUP2 MSTORE PUSH1 0x20 ADD PUSH0 KECCAK256 PUSH1 0x40 MLOAD DUP1 PUSH1 0x60 ADD PUSH1 0x40 MSTORE SWAP1 DUP2 PUSH0 DUP3 ADD SLOAD DUP2 MSTORE PUSH1 0x20 ADD PUSH1 0x1 DUP3 ADD SLOAD DUP2 MSTORE PUSH1 0x20 ADD PUSH1 0x2 DUP3 ADD SLOAD DUP2 MSTORE POP POP SWAP1 POP PUSH0 DUP2 PUSH0 ADD MLOAD SWAP1 POP PUSH0 DUP3 PUSH1 0x20 ADD MLOAD SWAP1 POP PUSH0 DUP4 PUSH1 0x40 ADD MLOAD SWAP1 POP PUSH0 PUSH3 0xF4240 PUSH1 0x5 SLOAD PUSH1 0x6 SLOAD DUP5 PUSH2 0x6C0 SWAP2 SWAP1 PUSH2 0x104A JUMP JUMPDEST PUSH2 0x6CA SWAP2 SWAP1 PUSH2 0x104A JUMP JUMPDEST PUSH2 0x6D4 SWAP2 SWAP1 PUSH2 0x10B8 JUMP JUMPDEST PUSH1 0x5 SLOAD DUP5 PUSH2 0x6E2 SWAP2 SWAP1 PUSH2 0x104A JUMP JUMPDEST PUSH2 0x6EC SWAP2 SWAP1 PUSH2 0x10E8 JUMP JUMPDEST SWAP1 POP PUSH0 PUSH1 0x64 PUSH1 0x2 SLOAD DUP7 PUSH2 0x6FF SWAP2 SWAP1 PUSH2 0x104A JUMP JUMPDEST PUSH2 0x709 SWAP2 SWAP1 PUSH2 0x10B8 JUMP JUMPDEST SWAP1 POP DUP1 DUP3 GT PUSH2 0x723 JUMPI PUSH0 DUP1 SWAP8 POP SWAP8 POP POP POP POP POP POP POP PUSH2 0x8AB JUMP JUMPDEST PUSH0 DUP2 DUP4 PUSH2 0x730 SWAP2 SWAP1 PUSH2 0x111B JUMP JUMPDEST SWAP1 POP PUSH1 0x40 MLOAD DUP1 PUSH1 0x40 ADD PUSH1 0x40 MSTORE DUP1 PUSH1 0x3 DUP2 MSTORE PUSH1 0x20 ADD PUSH32 0x4554480000000000000000000000000000000000000000000000000000000000 DUP2 MSTORE POP DUP1 MLOAD SWAP1 PUSH1 0x20 ADD KECCAK256 DUP11 DUP1 MLOAD SWAP1 PUSH1 0x20 ADD KECCAK256 SUB PUSH2 0x7BD JUMPI PUSH1 0x5 SLOAD PUSH3 0xF4240 DUP3 PUSH2 0x78E SWAP2 SWAP1 PUSH2 0x104A JUMP JUMPDEST PUSH2 0x798 SWAP2 SWAP1 PUSH2 0x10B8 JUMP JUMPDEST SWAP8 POP PUSH3 0xF4240 PUSH1 0x5 SLOAD DUP10 PUSH2 0x7AC SWAP2 SWAP1 PUSH2 0x104A JUMP JUMPDEST PUSH2 0x7B6 SWAP2 SWAP1 PUSH2 0x10B8 JUMP JUMPDEST SWAP9 POP PUSH2 0x8A3 JUMP JUMPDEST PUSH1 0x40 MLOAD DUP1 PUSH1 0x40 ADD PUSH1 0x40 MSTORE DUP1 PUSH1 0x3 DUP2 MSTORE PUSH1 0x20 ADD PUSH32 0x4158530000000000000000000000000000000000000000000000000000000000 DUP2 MSTORE POP DUP1 MLOAD SWAP1 PUSH1 0x20 ADD KECCAK256 DUP11 DUP1 MLOAD SWAP1 PUSH1 0x20 ADD KECCAK256 SUB PUSH2 0x867 JUMPI PUSH0 PUSH1 0x5 SLOAD PUSH1 0x6 SLOAD PUSH2 0x818 SWAP2 SWAP1 PUSH2 0x104A JUMP JUMPDEST PUSH3 0xF4240 DUP4 PUSH2 0x827 SWAP2 SWAP1 PUSH2 0x104A JUMP JUMPDEST PUSH2 0x831 SWAP2 SWAP1 PUSH2 0x10B8 JUMP JUMPDEST SWAP1 POP DUP1 SWAP9 POP PUSH3 0xF4240 PUSH1 0x5 SLOAD PUSH1 0x6 SLOAD DUP12 PUSH2 0x84B SWAP2 SWAP1 PUSH2 0x104A JUMP JUMPDEST PUSH2 0x855 SWAP2 SWAP1 PUSH2 0x104A JUMP JUMPDEST PUSH2 0x85F SWAP2 SWAP1 PUSH2 0x10B8 JUMP JUMPDEST SWAP10 POP POP PUSH2 0x8A2 JUMP JUMPDEST PUSH1 0x40 MLOAD PUSH32 0x8C379A000000000000000000000000000000000000000000000000000000000 DUP2 MSTORE PUSH1 0x4 ADD PUSH2 0x899 SWAP1 PUSH2 0x121D JUMP JUMPDEST PUSH1 0x40 MLOAD DUP1 SWAP2 SUB SWAP1 REVERT JUMPDEST JUMPDEST POP POP POP POP POP POP POP JUMPDEST SWAP3 POP SWAP3 SWAP1 POP JUMP JUMPDEST PUSH1 0x1 PUSH1 0x20 MSTORE DUP1 PUSH0 MSTORE PUSH1 0x40 PUSH0 KECCAK256 PUSH0 SWAP2 POP SWAP1 POP DUP1 PUSH0 ADD SLOAD SWAP1 DUP1 PUSH1 0x1 ADD SLOAD SWAP1 DUP1 PUSH1 0x2 ADD SLOAD SWAP1 POP DUP4 JUMP JUMPDEST PUSH0 DUP1 SLOAD SWAP1 PUSH2 0x100 EXP SWAP1 DIV PUSH20 0xFFFFFFFFFFFFFFFFFFFFFFFFFFFFFFFFFFFFFFFF AND DUP2 JUMP JUMPDEST PUSH1 0x5 SLOAD DUP2 JUMP JUMPDEST PUSH0 DUP1 SLOAD SWAP1 PUSH2 0x100 EXP SWAP1 DIV PUSH20 0xFFFFFFFFFFFFFFFFFFFFFFFFFFFFFFFFFFFFFFFF AND PUSH20 0xFFFFFFFFFFFFFFFFFFFFFFFFFFFFFFFFFFFFFFFF AND CALLER PUSH20 0xFFFFFFFFFFFFFFFFFFFFFFFFFFFFFFFFFFFFFFFF AND EQ PUSH2 0x98E JUMPI PUSH1 0x40 MLOAD PUSH32 0x8C379A000000000000000000000000000000000000000000000000000000000 DUP2 MSTORE PUSH1 0x4 ADD PUSH2 0x985 SWAP1 PUSH2 0x12BA JUMP JUMPDEST PUSH1 0x40 MLOAD DUP1 SWAP2 SUB SWAP1 REVERT JUMPDEST PUSH1 0x40 MLOAD DUP1 PUSH1 0x60 ADD PUSH1 0x40 MSTORE DUP1 DUP5 DUP2 MSTORE PUSH1 0x20 ADD DUP4 DUP2 MSTORE PUSH1 0x20 ADD DUP3 DUP2 MSTORE POP PUSH1 0x1 PUSH0 DUP7 PUSH20 0xFFFFFFFFFFFFFFFFFFFFFFFFFFFFFFFFFFFFFFFF AND PUSH20 0xFFFFFFFFFFFFFFFFFFFFFFFFFFFFFFFFFFFFFFFF AND DUP2 MSTORE PUSH1 0x20 ADD SWAP1 DUP2 MSTORE PUSH1 0x20 ADD PUSH0 KECCAK256 PUSH0 DUP3 ADD MLOAD DUP2 PUSH0 ADD SSTORE PUSH1 0x20 DUP3 ADD MLOAD DUP2 PUSH1 0x1 ADD SSTORE PUSH1 0x40 DUP3 ADD MLOAD DUP2 PUSH1 0x2 ADD SSTORE SWAP1 POP POP POP POP POP POP JUMP JUMPDEST PUSH1 0x2 SLOAD DUP2 JUMP JUMPDEST DUP1 PUSH1 0x5 DUP2 SWAP1 SSTORE POP POP JUMP JUMPDEST PUSH0 DUP1 PUSH1 0x1 PUSH0 DUP5 PUSH20 0xFFFFFFFFFFFFFFFFFFFFFFFFFFFFFFFFFFFFFFFF AND PUSH20 0xFFFFFFFFFFFFFFFFFFFFFFFFFFFFFFFFFFFFFFFF AND DUP2 MSTORE PUSH1 0x20 ADD SWAP1 DUP2 MSTORE PUSH1 0x20 ADD PUSH0 KECCAK256 PUSH1 0x40 MLOAD DUP1 PUSH1 0x60 ADD PUSH1 0x40 MSTORE SWAP1 DUP2 PUSH0 DUP3 ADD SLOAD DUP2 MSTORE PUSH1 0x20 ADD PUSH1 0x1 DUP3 ADD SLOAD DUP2 MSTORE PUSH1 0x20 ADD PUSH1 0x2 DUP3 ADD SLOAD DUP2 MSTORE POP POP SWAP1 POP PUSH0 PUSH1 0x64 PUSH1 0x2 SLOAD DUP4 PUSH0 ADD MLOAD PUSH2 0xA98 SWAP2 SWAP1 PUSH2 0x104A JUMP JUMPDEST PUSH2 0xAA2 SWAP2 SWAP1 PUSH2 0x10B8 JUMP JUMPDEST SWAP1 POP PUSH0 PUSH2 0x3E8 PUSH1 0x5 SLOAD DUP5 PUSH1 0x20 ADD MLOAD PUSH2 0xABA SWAP2 SWAP1 PUSH2 0x104A JUMP JUMPDEST PUSH2 0xAC4 SWAP2 SWAP1 PUSH2 0x10B8 JUMP JUMPDEST SWAP1 POP PUSH0 PUSH2 0x2710 PUSH1 0x5 SLOAD PUSH1 0x6 SLOAD DUP7 PUSH1 0x40 ADD MLOAD PUSH2 0xADF SWAP2 SWAP1 PUSH2 0x104A JUMP JUMPDEST PUSH2 0xAE9 SWAP2 SWAP1 PUSH2 0x104A JUMP JUMPDEST PUSH2 0xAF3 SWAP2 SWAP1 PUSH2 0x10B8 JUMP JUMPDEST SWAP1 POP PUSH0 DUP2 DUP4 PUSH2 0xB02 SWAP2 SWAP1 PUSH2 0x10E8 JUMP JUMPDEST SWAP1 POP PUSH0 DUP2 SUB PUSH2 0xB38 JUMPI PUSH32 0xFFFFFFFFFFFFFFFFFFFFFFFFFFFFFFFFFFFFFFFFFFFFFFFFFFFFFFFFFFFFFFFF SWAP6 POP POP POP POP POP POP PUSH2 0xB9A JUMP JUMPDEST PUSH0 DUP2 PUSH1 0x64 DUP7 PUSH2 0xB47 SWAP2 SWAP1 PUSH2 0x104A JUMP JUMPDEST PUSH2 0xB51 SWAP2 SWAP1 PUSH2 0x10B8 JUMP JUMPDEST SWAP1 POP PUSH32 0x96DF9B99931636B730287949D80832331A9FD2FD69BC2BB6CE2145403AF80688 DUP9 DUP7 DUP5 DUP5 PUSH1 0x40 MLOAD PUSH2 0xB88 SWAP5 SWAP4 SWAP3 SWAP2 SWAP1 PUSH2 0x12D8 JUMP JUMPDEST PUSH1 0x40 MLOAD DUP1 SWAP2 SUB SWAP1 LOG1 DUP1 SWAP7 POP POP POP POP POP POP POP JUMPDEST SWAP2 SWAP1 POP JUMP JUMPDEST PUSH0 DUP2 SWAP1 POP SWAP2 SWAP1 POP JUMP JUMPDEST PUSH2 0xBB1 DUP2 PUSH2 0xB9F JUMP JUMPDEST DUP3 MSTORE POP POP JUMP JUMPDEST PUSH0 PUSH1 0x20 DUP3 ADD SWAP1 POP PUSH2 0xBCA PUSH0 DUP4 ADD DUP5 PUSH2 0xBA8 JUMP JUMPDEST SWAP3 SWAP2 POP POP JUMP JUMPDEST PUSH0 PUSH1 0x40 MLOAD SWAP1 POP SWAP1 JUMP JUMPDEST PUSH0 DUP1 REVERT JUMPDEST PUSH0 DUP1 REVERT JUMPDEST PUSH2 0xBEA DUP2 PUSH2 0xB9F JUMP JUMPDEST DUP2 EQ PUSH2 0xBF4 JUMPI PUSH0 DUP1 REVERT JUMPDEST POP JUMP JUMPDEST PUSH0 DUP2 CALLDATALOAD SWAP1 POP PUSH2 0xC05 DUP2 PUSH2 0xBE1 JUMP JUMPDEST SWAP3 SWAP2 POP POP JUMP JUMPDEST PUSH0 PUSH1 0x20 DUP3 DUP5 SUB SLT ISZERO PUSH2 0xC20 JUMPI PUSH2 0xC1F PUSH2 0xBD9 JUMP JUMPDEST JUMPDEST PUSH0 PUSH2 0xC2D DUP5 DUP3 DUP6 ADD PUSH2 0xBF7 JUMP JUMPDEST SWAP2 POP POP SWAP3 SWAP2 POP POP JUMP JUMPDEST PUSH0 PUSH20 0xFFFFFFFFFFFFFFFFFFFFFFFFFFFFFFFFFFFFFFFF DUP3 AND SWAP1 POP SWAP2 SWAP1 POP JUMP JUMPDEST PUSH0 PUSH2 0xC5F DUP3 PUSH2 0xC36 JUMP JUMPDEST SWAP1 POP SWAP2 SWAP1 POP JUMP JUMPDEST PUSH2 0xC6F DUP2 PUSH2 0xC55 JUMP JUMPDEST DUP2 EQ PUSH2 0xC79 JUMPI PUSH0 DUP1 REVERT JUMPDEST POP JUMP JUMPDEST PUSH0 DUP2 CALLDATALOAD SWAP1 POP PUSH2 0xC8A DUP2 PUSH2 0xC66 JUMP JUMPDEST SWAP3 SWAP2 POP POP JUMP JUMPDEST PUSH0 DUP1 REVERT JUMPDEST PUSH0 DUP1 REVERT JUMPDEST PUSH0 PUSH1 0x1F NOT PUSH1 0x1F DUP4 ADD AND SWAP1 POP SWAP2 SWAP1 POP JUMP JUMPDEST PUSH32 0x4E487B7100000000000000000000000000000000000000000000000000000000 PUSH0 MSTORE PUSH1 0x41 PUSH1 0x4 MSTORE PUSH1 0x24 PUSH0 REVERT JUMPDEST PUSH2 0xCDE DUP3 PUSH2 0xC98 JUMP JUMPDEST DUP2 ADD DUP2 DUP2 LT PUSH8 0xFFFFFFFFFFFFFFFF DUP3 GT OR ISZERO PUSH2 0xCFD JUMPI PUSH2 0xCFC PUSH2 0xCA8 JUMP JUMPDEST JUMPDEST DUP1 PUSH1 0x40 MSTORE POP POP POP JUMP JUMPDEST PUSH0 PUSH2 0xD0F PUSH2 0xBD0 JUMP JUMPDEST SWAP1 POP PUSH2 0xD1B DUP3 DUP3 PUSH2 0xCD5 JUMP JUMPDEST SWAP2 SWAP1 POP JUMP JUMPDEST PUSH0 PUSH8 0xFFFFFFFFFFFFFFFF DUP3 GT ISZERO PUSH2 0xD3A JUMPI PUSH2 0xD39 PUSH2 0xCA8 JUMP JUMPDEST JUMPDEST PUSH2 0xD43 DUP3 PUSH2 0xC98 JUMP JUMPDEST SWAP1 POP PUSH1 0x20 DUP2 ADD SWAP1 POP SWAP2 SWAP1 POP JUMP JUMPDEST DUP3 DUP2 DUP4 CALLDATACOPY PUSH0 DUP4 DUP4 ADD MSTORE POP POP POP JUMP JUMPDEST PUSH0 PUSH2 0xD70 PUSH2 0xD6B DUP5 PUSH2 0xD20 JUMP JUMPDEST PUSH2 0xD06 JUMP JUMPDEST SWAP1 POP DUP3 DUP2 MSTORE PUSH1 0x20 DUP2 ADD DUP5 DUP5 DUP5 ADD GT ISZERO PUSH2 0xD8C JUMPI PUSH2 0xD8B PUSH2 0xC94 JUMP JUMPDEST JUMPDEST PUSH2 0xD97 DUP5 DUP3 DUP6 PUSH2 0xD50 JUMP JUMPDEST POP SWAP4 SWAP3 POP POP POP JUMP JUMPDEST PUSH0 DUP3 PUSH1 0x1F DUP4 ADD SLT PUSH2 0xDB3 JUMPI PUSH2 0xDB2 PUSH2 0xC90 JUMP JUMPDEST JUMPDEST DUP2 CALLDATALOAD PUSH2 0xDC3 DUP5 DUP3 PUSH1 0x20 DUP7 ADD PUSH2 0xD5E JUMP JUMPDEST SWAP2 POP POP SWAP3 SWAP2 POP POP JUMP JUMPDEST PUSH0 DUP1 PUSH0 PUSH1 0x60 DUP5 DUP7 SUB SLT ISZERO PUSH2 0xDE3 JUMPI PUSH2 0xDE2 PUSH2 0xBD9 JUMP JUMPDEST JUMPDEST PUSH0 PUSH2 0xDF0 DUP7 DUP3 DUP8 ADD PUSH2 0xC7C JUMP JUMPDEST SWAP4 POP POP PUSH1 0x20 DUP5 ADD CALLDATALOAD PUSH8 0xFFFFFFFFFFFFFFFF DUP2 GT ISZERO PUSH2 0xE11 JUMPI PUSH2 0xE10 PUSH2 0xBDD JUMP JUMPDEST JUMPDEST PUSH2 0xE1D DUP7 DUP3 DUP8 ADD PUSH2 0xD9F JUMP JUMPDEST SWAP3 POP POP PUSH1 0x40 PUSH2 0xE2E DUP7 DUP3 DUP8 ADD PUSH2 0xBF7 JUMP JUMPDEST SWAP2 POP POP SWAP3 POP SWAP3 POP SWAP3 JUMP JUMPDEST PUSH0 DUP1 PUSH1 0x40 DUP4 DUP6 SUB SLT ISZERO PUSH2 0xE4E JUMPI PUSH2 0xE4D PUSH2 0xBD9 JUMP JUMPDEST JUMPDEST PUSH0 PUSH2 0xE5B DUP6 DUP3 DUP7 ADD PUSH2 0xC7C JUMP JUMPDEST SWAP3 POP POP PUSH1 0x20 DUP4 ADD CALLDATALOAD PUSH8 0xFFFFFFFFFFFFFFFF DUP2 GT ISZERO PUSH2 0xE7C JUMPI PUSH2 0xE7B PUSH2 0xBDD JUMP JUMPDEST JUMPDEST PUSH2 0xE88 DUP6 DUP3 DUP7 ADD PUSH2 0xD9F JUMP JUMPDEST SWAP2 POP POP SWAP3 POP SWAP3 SWAP1 POP JUMP JUMPDEST PUSH0 PUSH1 0x40 DUP3 ADD SWAP1 POP PUSH2 0xEA5 PUSH0 DUP4 ADD DUP6 PUSH2 0xBA8 JUMP JUMPDEST PUSH2 0xEB2 PUSH1 0x20 DUP4 ADD DUP5 PUSH2 0xBA8 JUMP JUMPDEST SWAP4 SWAP3 POP POP POP JUMP JUMPDEST PUSH0 PUSH1 0x20 DUP3 DUP5 SUB SLT ISZERO PUSH2 0xECE JUMPI PUSH2 0xECD PUSH2 0xBD9 JUMP JUMPDEST JUMPDEST PUSH0 PUSH2 0xEDB DUP5 DUP3 DUP6 ADD PUSH2 0xC7C JUMP JUMPDEST SWAP2 POP POP SWAP3 SWAP2 POP POP JUMP JUMPDEST PUSH0 PUSH1 0x60 DUP3 ADD SWAP1 POP PUSH2 0xEF7 PUSH0 DUP4 ADD DUP7 PUSH2 0xBA8 JUMP JUMPDEST PUSH2 0xF04 PUSH1 0x20 DUP4 ADD DUP6 PUSH2 0xBA8 JUMP JUMPDEST PUSH2 0xF11 PUSH1 0x40 DUP4 ADD DUP5 PUSH2 0xBA8 JUMP JUMPDEST SWAP5 SWAP4 POP POP POP POP JUMP JUMPDEST PUSH2 0xF22 DUP2 PUSH2 0xC55 JUMP JUMPDEST DUP3 MSTORE POP POP JUMP JUMPDEST PUSH0 PUSH1 0x20 DUP3 ADD SWAP1 POP PUSH2 0xF3B PUSH0 DUP4 ADD DUP5 PUSH2 0xF19 JUMP JUMPDEST SWAP3 SWAP2 POP POP JUMP JUMPDEST PUSH0 DUP1 PUSH0 DUP1 PUSH1 0x80 DUP6 DUP8 SUB SLT ISZERO PUSH2 0xF59 JUMPI PUSH2 0xF58 PUSH2 0xBD9 JUMP JUMPDEST JUMPDEST PUSH0 PUSH2 0xF66 DUP8 DUP3 DUP9 ADD PUSH2 0xC7C JUMP JUMPDEST SWAP5 POP POP PUSH1 0x20 PUSH2 0xF77 DUP8 DUP3 DUP9 ADD PUSH2 0xBF7 JUMP JUMPDEST SWAP4 POP POP PUSH1 0x40 PUSH2 0xF88 DUP8 DUP3 DUP9 ADD PUSH2 0xBF7 JUMP JUMPDEST SWAP3 POP POP PUSH1 0x60 PUSH2 0xF99 DUP8 DUP3 DUP9 ADD PUSH2 0xBF7 JUMP JUMPDEST SWAP2 POP POP SWAP3 SWAP6 SWAP2 SWAP5 POP SWAP3 POP JUMP JUMPDEST PUSH0 DUP3 DUP3 MSTORE PUSH1 0x20 DUP3 ADD SWAP1 POP SWAP3 SWAP2 POP POP JUMP JUMPDEST PUSH32 0x4C6F616E206973207374696C6C206865616C7468790000000000000000000000 PUSH0 DUP3 ADD MSTORE POP JUMP JUMPDEST PUSH0 PUSH2 0xFE9 PUSH1 0x15 DUP4 PUSH2 0xFA5 JUMP JUMPDEST SWAP2 POP PUSH2 0xFF4 DUP3 PUSH2 0xFB5 JUMP JUMPDEST PUSH1 0x20 DUP3 ADD SWAP1 POP SWAP2 SWAP1 POP JUMP JUMPDEST PUSH0 PUSH1 0x20 DUP3 ADD SWAP1 POP DUP2 DUP2 SUB PUSH0 DUP4 ADD MSTORE PUSH2 0x1016 DUP2 PUSH2 0xFDD JUMP JUMPDEST SWAP1 POP SWAP2 SWAP1 POP JUMP JUMPDEST PUSH32 0x4E487B7100000000000000000000000000000000000000000000000000000000 PUSH0 MSTORE PUSH1 0x11 PUSH1 0x4 MSTORE PUSH1 0x24 PUSH0 REVERT JUMPDEST PUSH0 PUSH2 0x1054 DUP3 PUSH2 0xB9F JUMP JUMPDEST SWAP2 POP PUSH2 0x105F DUP4 PUSH2 0xB9F JUMP JUMPDEST SWAP3 POP DUP3 DUP3 MUL PUSH2 0x106D DUP2 PUSH2 0xB9F JUMP JUMPDEST SWAP2 POP DUP3 DUP3 DIV DUP5 EQ DUP4 ISZERO OR PUSH2 0x1084 JUMPI PUSH2 0x1083 PUSH2 0x101D JUMP JUMPDEST JUMPDEST POP SWAP3 SWAP2 POP POP JUMP JUMPDEST PUSH32 0x4E487B7100000000000000000000000000000000000000000000000000000000 PUSH0 MSTORE PUSH1 0x12 PUSH1 0x4 MSTORE PUSH1 0x24 PUSH0 REVERT JUMPDEST PUSH0 PUSH2 0x10C2 DUP3 PUSH2 0xB9F JUMP JUMPDEST SWAP2 POP PUSH2 0x10CD DUP4 PUSH2 0xB9F JUMP JUMPDEST SWAP3 POP DUP3 PUSH2 0x10DD JUMPI PUSH2 0x10DC PUSH2 0x108B JUMP JUMPDEST JUMPDEST DUP3 DUP3 DIV SWAP1 POP SWAP3 SWAP2 POP POP JUMP JUMPDEST PUSH0 PUSH2 0x10F2 DUP3 PUSH2 0xB9F JUMP JUMPDEST SWAP2 POP PUSH2 0x10FD DUP4 PUSH2 0xB9F JUMP JUMPDEST SWAP3 POP DUP3 DUP3 ADD SWAP1 POP DUP1 DUP3 GT ISZERO PUSH2 0x1115 JUMPI PUSH2 0x1114 PUSH2 0x101D JUMP JUMPDEST JUMPDEST SWAP3 SWAP2 POP POP JUMP JUMPDEST PUSH0 PUSH2 0x1125 DUP3 PUSH2 0xB9F JUMP JUMPDEST SWAP2 POP PUSH2 0x1130 DUP4 PUSH2 0xB9F JUMP JUMPDEST SWAP3 POP DUP3 DUP3 SUB SWAP1 POP DUP2 DUP2 GT ISZERO PUSH2 0x1148 JUMPI PUSH2 0x1147 PUSH2 0x101D JUMP JUMPDEST JUMPDEST SWAP3 SWAP2 POP POP JUMP JUMPDEST PUSH0 PUSH1 0xC0 DUP3 ADD SWAP1 POP PUSH2 0x1161 PUSH0 DUP4 ADD DUP10 PUSH2 0xF19 JUMP JUMPDEST PUSH2 0x116E PUSH1 0x20 DUP4 ADD DUP9 PUSH2 0xBA8 JUMP JUMPDEST PUSH2 0x117B PUSH1 0x40 DUP4 ADD DUP8 PUSH2 0xBA8 JUMP JUMPDEST PUSH2 0x1188 PUSH1 0x60 DUP4 ADD DUP7 PUSH2 0xBA8 JUMP JUMPDEST PUSH2 0x1195 PUSH1 0x80 DUP4 ADD DUP6 PUSH2 0xBA8 JUMP JUMPDEST PUSH2 0x11A2 PUSH1 0xA0 DUP4 ADD DUP5 PUSH2 0xBA8 JUMP JUMPDEST SWAP8 SWAP7 POP POP POP POP POP POP POP JUMP JUMPDEST PUSH32 0x496E76616C696420617373657420747970653A20557365202745544827206F72 PUSH0 DUP3 ADD MSTORE PUSH32 0x2027415853270000000000000000000000000000000000000000000000000000 PUSH1 0x20 DUP3 ADD MSTORE POP JUMP JUMPDEST PUSH0 PUSH2 0x1207 PUSH1 0x26 DUP4 PUSH2 0xFA5 JUMP JUMPDEST SWAP2 POP PUSH2 0x1212 DUP3 PUSH2 0x11AD JUMP JUMPDEST PUSH1 0x40 DUP3 ADD SWAP1 POP SWAP2 SWAP1 POP JUMP JUMPDEST PUSH0 PUSH1 0x20 DUP3 ADD SWAP1 POP DUP2 DUP2 SUB PUSH0 DUP4 ADD MSTORE PUSH2 0x1234 DUP2 PUSH2 0x11FB JUMP JUMPDEST SWAP1 POP SWAP2 SWAP1 POP JUMP JUMPDEST PUSH0 PUSH1 0x60 DUP3 ADD SWAP1 POP PUSH2 0x124E PUSH0 DUP4 ADD DUP7 PUSH2 0xF19 JUMP JUMPDEST PUSH2 0x125B PUSH1 0x20 DUP4 ADD DUP6 PUSH2 0xBA8 JUMP JUMPDEST PUSH2 0x1268 PUSH1 0x40 DUP4 ADD DUP5 PUSH2 0xBA8 JUMP JUMPDEST SWAP5 SWAP4 POP POP POP POP JUMP JUMPDEST PUSH32 0x4F6E6C79206F776E65722063616E20616464206C6F616E730000000000000000 PUSH0 DUP3 ADD MSTORE POP JUMP JUMPDEST PUSH0 PUSH2 0x12A4 PUSH1 0x18 DUP4 PUSH2 0xFA5 JUMP JUMPDEST SWAP2 POP PUSH2 0x12AF DUP3 PUSH2 0x1270 JUMP JUMPDEST PUSH1 0x20 DUP3 ADD SWAP1 POP SWAP2 SWAP1 POP JUMP JUMPDEST PUSH0 PUSH1 0x20 DUP3 ADD SWAP1 POP DUP2 DUP2 SUB PUSH0 DUP4 ADD MSTORE PUSH2 0x12D1 DUP2 PUSH2 0x1298 JUMP JUMPDEST SWAP1 POP SWAP2 SWAP1 POP JUMP JUMPDEST PUSH0 PUSH1 0x80 DUP3 ADD SWAP1 POP PUSH2 0x12EB PUSH0 DUP4 ADD DUP8 PUSH2 0xF19 JUMP JUMPDEST PUSH2 0x12F8 PUSH1 0x20 DUP4 ADD DUP7 PUSH2 0xBA8 JUMP JUMPDEST PUSH2 0x1305 PUSH1 0x40 DUP4 ADD DUP6 PUSH2 0xBA8 JUMP JUMPDEST PUSH2 0x1312 PUSH1 0x60 DUP4 ADD DUP5 PUSH2 0xBA8 JUMP JUMPDEST SWAP6 SWAP5 POP POP POP POP POP JUMP INVALID LOG2 PUSH5 0x6970667358 0x22 SLT KECCAK256 SWAP7 SWAP1 NUMBER DUP15 DUP8 0xCE PUSH5 0x5928BE5ECF DELEGATECALL 0xC0 0x4B 0xC2 0xC4 BALANCE PUSH4 0x9DC06686 CALLER SLOAD 0xE1 0xAF PUSH18 0x5F26A9AA64736F6C634300081A0033000000 "
		},
		"gasEstimates": {
			"creation": {
				"codeDepositCost": "989000",
				"executionCost": "135820",
				"totalCost": "1124820"
			},
			"external": {
				"addLoan(address,uint256,uint256,uint256)": "infinite",
				"axsToETHPrice()": "2426",
				"calculateLiquidationAmount(address,string)": "infinite",
				"changeAXSRate(uint256)": "22560",
				"changeETHRate(uint256)": "22581",
				"collateralRatioAXS()": "2514",
				"collateralRatioETH()": "2448",
				"collateralRatioUSDC()": "2469",
				"ethPriceOnUSDC()": "2492",
				"getHealthFactor(address)": "infinite",
				"liquidate(address,string,uint256)": "infinite",
				"loans(address)": "infinite",
				"owner()": "2550"
			}
		},
		"methodIdentifiers": {
			"addLoan(address,uint256,uint256,uint256)": "ad24a336",
			"axsToETHPrice()": "04632a66",
			"calculateLiquidationAmount(address,string)": "55de75a9",
			"changeAXSRate(uint256)": "1f71462e",
			"changeETHRate(uint256)": "f894ea86",
			"collateralRatioAXS()": "4bfa16e9",
			"collateralRatioETH()": "11c9c304",
			"collateralRatioUSDC()": "c56e4097",
			"ethPriceOnUSDC()": "9b923cc9",
			"getHealthFactor(address)": "fe6bcd7c",
			"liquidate(address,string,uint256)": "2e2951cd",
			"loans(address)": "73b4086b",
			"owner()": "8da5cb5b"
		}
	},
	"abi": [
		{
			"inputs": [],
			"stateMutability": "nonpayable",
			"type": "constructor"
		},
		{
			"anonymous": false,
			"inputs": [
				{
					"indexed": false,
					"internalType": "address",
					"name": "borrower",
					"type": "address"
				},
				{
					"indexed": false,
					"internalType": "uint256",
					"name": "totalCollateral",
					"type": "uint256"
				},
				{
					"indexed": false,
					"internalType": "uint256",
					"name": "totalDebtOnUSDC",
					"type": "uint256"
				},
				{
					"indexed": false,
					"internalType": "uint256",
					"name": "healthFactor",
					"type": "uint256"
				}
			],
			"name": "HealthFactorCalculated",
			"type": "event"
		},
		{
			"anonymous": false,
			"inputs": [
				{
					"indexed": false,
					"internalType": "address",
					"name": "user",
					"type": "address"
				},
				{
					"indexed": false,
					"internalType": "uint256",
					"name": "usdcLost",
					"type": "uint256"
				},
				{
					"indexed": false,
					"internalType": "uint256",
					"name": "ethLiquidated",
					"type": "uint256"
				}
			],
			"name": "Liquidated",
			"type": "event"
		},
		{
			"anonymous": false,
			"inputs": [
				{
					"indexed": false,
					"internalType": "address",
					"name": "user",
					"type": "address"
				},
				{
					"indexed": false,
					"internalType": "uint256",
					"name": "path1",
					"type": "uint256"
				},
				{
					"indexed": false,
					"internalType": "uint256",
					"name": "path2",
					"type": "uint256"
				},
				{
					"indexed": false,
					"internalType": "uint256",
					"name": "path3",
					"type": "uint256"
				},
				{
					"indexed": false,
					"internalType": "uint256",
					"name": "path_1",
					"type": "uint256"
				},
				{
					"indexed": false,
					"internalType": "uint256",
					"name": "path_2",
					"type": "uint256"
				}
			],
			"name": "TempEvent",
			"type": "event"
		},
		{
			"inputs": [
				{
					"internalType": "address",
					"name": "_borrower",
					"type": "address"
				},
				{
					"internalType": "uint256",
					"name": "_usdcCollateral",
					"type": "uint256"
				},
				{
					"internalType": "uint256",
					"name": "_ethDebt",
					"type": "uint256"
				},
				{
					"internalType": "uint256",
					"name": "_axsDebt",
					"type": "uint256"
				}
			],
			"name": "addLoan",
			"outputs": [],
			"stateMutability": "nonpayable",
			"type": "function"
		},
		{
			"inputs": [],
			"name": "axsToETHPrice",
			"outputs": [
				{
					"internalType": "uint256",
					"name": "",
					"type": "uint256"
				}
			],
			"stateMutability": "view",
			"type": "function"
		},
		{
			"inputs": [
				{
					"internalType": "address",
					"name": "_borrower",
					"type": "address"
				},
				{
					"internalType": "string",
					"name": "assetType",
					"type": "string"
				}
			],
			"name": "calculateLiquidationAmount",
			"outputs": [
				{
					"internalType": "uint256",
					"name": "usdcToLiquidate",
					"type": "uint256"
				},
				{
					"internalType": "uint256",
					"name": "assetToLiquidate",
					"type": "uint256"
				}
			],
			"stateMutability": "view",
			"type": "function"
		},
		{
			"inputs": [
				{
					"internalType": "uint256",
					"name": "_axsPrice",
					"type": "uint256"
				}
			],
			"name": "changeAXSRate",
			"outputs": [],
			"stateMutability": "nonpayable",
			"type": "function"
		},
		{
			"inputs": [
				{
					"internalType": "uint256",
					"name": "_ethPrice",
					"type": "uint256"
				}
			],
			"name": "changeETHRate",
			"outputs": [],
			"stateMutability": "nonpayable",
			"type": "function"
		},
		{
			"inputs": [],
			"name": "collateralRatioAXS",
			"outputs": [
				{
					"internalType": "uint256",
					"name": "",
					"type": "uint256"
				}
			],
			"stateMutability": "view",
			"type": "function"
		},
		{
			"inputs": [],
			"name": "collateralRatioETH",
			"outputs": [
				{
					"internalType": "uint256",
					"name": "",
					"type": "uint256"
				}
			],
			"stateMutability": "view",
			"type": "function"
		},
		{
			"inputs": [],
			"name": "collateralRatioUSDC",
			"outputs": [
				{
					"internalType": "uint256",
					"name": "",
					"type": "uint256"
				}
			],
			"stateMutability": "view",
			"type": "function"
		},
		{
			"inputs": [],
			"name": "ethPriceOnUSDC",
			"outputs": [
				{
					"internalType": "uint256",
					"name": "",
					"type": "uint256"
				}
			],
			"stateMutability": "view",
			"type": "function"
		},
		{
			"inputs": [
				{
					"internalType": "address",
					"name": "_borrower",
					"type": "address"
				}
			],
			"name": "getHealthFactor",
			"outputs": [
				{
					"internalType": "uint256",
					"name": "",
					"type": "uint256"
				}
			],
			"stateMutability": "nonpayable",
			"type": "function"
		},
		{
			"inputs": [
				{
					"internalType": "address",
					"name": "_borrower",
					"type": "address"
				},
				{
					"internalType": "string",
					"name": "assetType",
					"type": "string"
				},
				{
					"internalType": "uint256",
					"name": "newUSDCPrice",
					"type": "uint256"
				}
			],
			"name": "liquidate",
			"outputs": [],
			"stateMutability": "nonpayable",
			"type": "function"
		},
		{
			"inputs": [
				{
					"internalType": "address",
					"name": "",
					"type": "address"
				}
			],
			"name": "loans",
			"outputs": [
				{
					"internalType": "uint256",
					"name": "usdcCollateral",
					"type": "uint256"
				},
				{
					"internalType": "uint256",
					"name": "ethDebt",
					"type": "uint256"
				},
				{
					"internalType": "uint256",
					"name": "axsDebt",
					"type": "uint256"
				}
			],
			"stateMutability": "view",
			"type": "function"
		},
		{
			"inputs": [],
			"name": "owner",
			"outputs": [
				{
					"internalType": "address",
					"name": "",
					"type": "address"
				}
			],
			"stateMutability": "view",
			"type": "function"
		}
	]
}